{
  "_format": "hh-sol-artifact-1",
  "contractName": "CoreContract",
  "sourceName": "contracts/coreContract.sol",
  "abi": [
    {
      "inputs": [
        {
          "internalType": "address",
          "name": "_tokenAddress",
          "type": "address"
        },
        {
          "internalType": "address",
          "name": "_vrfContractAddress",
          "type": "address"
        }
      ],
      "stateMutability": "nonpayable",
      "type": "constructor"
    },
    {
      "anonymous": false,
      "inputs": [
        {
          "indexed": true,
          "internalType": "uint256",
          "name": "jobId",
          "type": "uint256"
        }
      ],
      "name": "DisputeCreated",
      "type": "event"
    },
    {
      "anonymous": false,
      "inputs": [
        {
          "indexed": true,
          "internalType": "uint256",
          "name": "jobId",
          "type": "uint256"
        },
        {
          "indexed": false,
          "internalType": "bool",
          "name": "infavorOfNode",
          "type": "bool"
        }
      ],
      "name": "DisputeResolved",
      "type": "event"
    },
    {
      "anonymous": false,
      "inputs": [
        {
          "indexed": true,
          "internalType": "uint256",
          "name": "jobId",
          "type": "uint256"
        },
        {
          "indexed": true,
          "internalType": "uint256",
          "name": "videoId",
          "type": "uint256"
        },
        {
          "indexed": true,
          "internalType": "address",
          "name": "requester",
          "type": "address"
        },
        {
          "indexed": false,
          "internalType": "enum CoreContract.JobType",
          "name": "jobType",
          "type": "uint8"
        }
      ],
      "name": "JobCreated",
      "type": "event"
    },
    {
      "anonymous": false,
      "inputs": [
        {
          "indexed": true,
          "internalType": "uint256",
          "name": "jobId",
          "type": "uint256"
        },
        {
          "indexed": false,
          "internalType": "string",
          "name": "resultIpfsHash",
          "type": "string"
        }
      ],
      "name": "JobResultSubmitted",
      "type": "event"
    },
    {
      "anonymous": false,
      "inputs": [
        {
          "indexed": true,
          "internalType": "uint256",
          "name": "jobId",
          "type": "uint256"
        },
        {
          "indexed": false,
          "internalType": "enum CoreContract.JobStatus",
          "name": "newStatus",
          "type": "uint8"
        }
      ],
      "name": "JobStatusUpdated",
      "type": "event"
    },
    {
      "anonymous": false,
      "inputs": [
        {
          "indexed": true,
          "internalType": "uint256",
          "name": "nodeId",
          "type": "uint256"
        }
      ],
      "name": "NodeDeactivated",
      "type": "event"
    },
    {
      "anonymous": false,
      "inputs": [
        {
          "indexed": false,
          "internalType": "uint256",
          "name": "newFee",
          "type": "uint256"
        }
      ],
      "name": "NodeFeeUpdated",
      "type": "event"
    },
    {
      "anonymous": false,
      "inputs": [
        {
          "indexed": true,
          "internalType": "uint256",
          "name": "nodeId",
          "type": "uint256"
        },
        {
          "indexed": true,
          "internalType": "address",
          "name": "nodeAddress",
          "type": "address"
        },
        {
          "indexed": false,
          "internalType": "uint256",
          "name": "stake",
          "type": "uint256"
        },
        {
          "indexed": false,
          "internalType": "bool",
          "name": "isTrusted",
          "type": "bool"
        }
      ],
      "name": "NodeRegistered",
      "type": "event"
    },
    {
      "anonymous": false,
      "inputs": [
        {
          "indexed": true,
          "internalType": "uint256",
          "name": "jobId",
          "type": "uint256"
        },
        {
          "indexed": true,
          "internalType": "uint256",
          "name": "nodeId",
          "type": "uint256"
        }
      ],
      "name": "NodeSelected",
      "type": "event"
    },
    {
      "anonymous": false,
      "inputs": [
        {
          "indexed": true,
          "internalType": "address",
          "name": "previousOwner",
          "type": "address"
        },
        {
          "indexed": true,
          "internalType": "address",
          "name": "newOwner",
          "type": "address"
        }
      ],
      "name": "OwnershipTransferred",
      "type": "event"
    },
    {
      "anonymous": false,
      "inputs": [
        {
          "indexed": false,
          "internalType": "uint256",
          "name": "newPrice",
          "type": "uint256"
        }
      ],
      "name": "PriceUpdated",
      "type": "event"
    },
    {
      "anonymous": false,
      "inputs": [
        {
          "indexed": true,
          "internalType": "uint256",
          "name": "jobId",
          "type": "uint256"
        },
        {
          "indexed": true,
          "internalType": "address",
          "name": "node",
          "type": "address"
        },
        {
          "indexed": false,
          "internalType": "uint256",
          "name": "amount",
          "type": "uint256"
        }
      ],
      "name": "RewardsDistributed",
      "type": "event"
    },
    {
      "anonymous": false,
      "inputs": [
        {
          "indexed": true,
          "internalType": "address",
          "name": "node",
          "type": "address"
        },
        {
          "indexed": false,
          "internalType": "uint256",
          "name": "amount",
          "type": "uint256"
        }
      ],
      "name": "RewardsWithdrawn",
      "type": "event"
    },
    {
      "anonymous": false,
      "inputs": [
        {
          "indexed": true,
          "internalType": "uint256",
          "name": "videoId",
          "type": "uint256"
        },
        {
          "indexed": true,
          "internalType": "address",
          "name": "uploader",
          "type": "address"
        },
        {
          "indexed": false,
          "internalType": "string",
          "name": "ipfsHash",
          "type": "string"
        },
        {
          "indexed": false,
          "internalType": "bool",
          "name": "isEncrypted",
          "type": "bool"
        }
      ],
      "name": "VideoUploaded",
      "type": "event"
    },
    {
      "inputs": [
        {
          "internalType": "uint256",
          "name": "_jobId",
          "type": "uint256"
        }
      ],
      "name": "cancelJob",
      "outputs": [],
      "stateMutability": "nonpayable",
      "type": "function"
    },
    {
      "inputs": [
        {
          "internalType": "uint256",
          "name": "_jobId",
          "type": "uint256"
        }
      ],
      "name": "createDispute",
      "outputs": [],
      "stateMutability": "nonpayable",
      "type": "function"
    },
    {
      "inputs": [
        {
          "internalType": "uint256",
          "name": "_videoId",
          "type": "uint256"
        },
        {
          "internalType": "enum CoreContract.JobType",
          "name": "_jobType",
          "type": "uint8"
        }
      ],
      "name": "createJob",
      "outputs": [
        {
          "internalType": "uint256",
          "name": "jobId",
          "type": "uint256"
        }
      ],
      "stateMutability": "nonpayable",
      "type": "function"
    },
    {
      "inputs": [
        {
          "internalType": "uint256",
          "name": "_nodeId",
          "type": "uint256"
        }
      ],
      "name": "deactivateNode",
      "outputs": [],
      "stateMutability": "nonpayable",
      "type": "function"
    },
    {
      "inputs": [
        {
          "internalType": "uint256",
          "name": "",
          "type": "uint256"
        }
      ],
      "name": "disputedJobs",
      "outputs": [
        {
          "internalType": "uint256",
          "name": "videoId",
          "type": "uint256"
        },
        {
          "internalType": "address",
          "name": "requester",
          "type": "address"
        },
        {
          "internalType": "uint256",
          "name": "nodeId",
          "type": "uint256"
        },
        {
          "internalType": "enum CoreContract.JobStatus",
          "name": "status",
          "type": "uint8"
        },
        {
          "internalType": "enum CoreContract.JobType",
          "name": "jobType",
          "type": "uint8"
        },
        {
          "internalType": "uint256",
          "name": "creationTime",
          "type": "uint256"
        },
        {
          "internalType": "string",
          "name": "resultIpfsHash",
          "type": "string"
        },
        {
          "internalType": "uint256",
          "name": "price",
          "type": "uint256"
        }
      ],
      "stateMutability": "view",
      "type": "function"
    },
    {
      "inputs": [
        {
          "internalType": "uint256",
          "name": "_jobId",
          "type": "uint256"
        }
      ],
      "name": "distributeRewards",
      "outputs": [],
      "stateMutability": "nonpayable",
      "type": "function"
    },
    {
      "inputs": [
        {
          "internalType": "uint256",
          "name": "_jobId",
          "type": "uint256"
        }
      ],
      "name": "fulfillRandomness",
      "outputs": [],
      "stateMutability": "nonpayable",
      "type": "function"
    },
    {
      "inputs": [
        {
          "internalType": "uint256",
          "name": "_jobId",
          "type": "uint256"
        }
      ],
      "name": "getJobDetails",
      "outputs": [
        {
          "components": [
            {
              "internalType": "uint256",
              "name": "videoId",
              "type": "uint256"
            },
            {
              "internalType": "address",
              "name": "requester",
              "type": "address"
            },
            {
              "internalType": "uint256",
              "name": "nodeId",
              "type": "uint256"
            },
            {
              "internalType": "enum CoreContract.JobStatus",
              "name": "status",
              "type": "uint8"
            },
            {
              "internalType": "enum CoreContract.JobType",
              "name": "jobType",
              "type": "uint8"
            },
            {
              "internalType": "uint256",
              "name": "creationTime",
              "type": "uint256"
            },
            {
              "internalType": "string",
              "name": "resultIpfsHash",
              "type": "string"
            },
            {
              "internalType": "uint256",
              "name": "price",
              "type": "uint256"
            }
          ],
          "internalType": "struct CoreContract.CaptioningJob",
          "name": "",
          "type": "tuple"
        }
      ],
      "stateMutability": "view",
      "type": "function"
    },
    {
      "inputs": [
        {
          "internalType": "uint256",
          "name": "_jobId",
          "type": "uint256"
        }
      ],
      "name": "getJobStatus",
      "outputs": [
        {
          "internalType": "enum CoreContract.JobStatus",
          "name": "",
          "type": "uint8"
        }
      ],
      "stateMutability": "view",
      "type": "function"
    },
    {
      "inputs": [
        {
          "internalType": "uint256",
          "name": "_nodeId",
          "type": "uint256"
        }
      ],
      "name": "getNodeDetails",
      "outputs": [
        {
          "internalType": "address",
          "name": "nodeAddress",
          "type": "address"
        },
        {
          "internalType": "uint256",
          "name": "stake",
          "type": "uint256"
        },
        {
          "internalType": "bool",
          "name": "isActive",
          "type": "bool"
        },
        {
          "internalType": "bool",
          "name": "isTrusted",
          "type": "bool"
        },
        {
          "internalType": "uint256",
          "name": "totalJobsCompleted",
          "type": "uint256"
        },
        {
          "internalType": "uint256",
          "name": "reputation",
          "type": "uint256"
        }
      ],
      "stateMutability": "view",
      "type": "function"
    },
    {
      "inputs": [
        {
          "internalType": "uint256",
          "name": "_nodeId",
          "type": "uint256"
        }
      ],
      "name": "getNodeJobs",
      "outputs": [
        {
          "internalType": "uint256[]",
          "name": "",
          "type": "uint256[]"
        }
      ],
      "stateMutability": "view",
      "type": "function"
    },
    {
      "inputs": [
        {
          "internalType": "address",
          "name": "_user",
          "type": "address"
        }
      ],
      "name": "getUserJobs",
      "outputs": [
        {
          "internalType": "uint256[]",
          "name": "",
          "type": "uint256[]"
        }
      ],
      "stateMutability": "view",
      "type": "function"
    },
    {
      "inputs": [
        {
          "internalType": "uint256",
          "name": "_videoId",
          "type": "uint256"
        }
      ],
      "name": "getVideoDetails",
      "outputs": [
        {
          "internalType": "string",
          "name": "ipfsHash",
          "type": "string"
        },
        {
          "internalType": "uint256",
          "name": "duration",
          "type": "uint256"
        },
        {
          "internalType": "address",
          "name": "uploader",
          "type": "address"
        },
        {
          "internalType": "bool",
          "name": "isEncrypted",
          "type": "bool"
        }
      ],
      "stateMutability": "view",
      "type": "function"
    },
    {
      "inputs": [],
      "name": "getplatformStats",
      "outputs": [
        {
          "internalType": "uint256",
          "name": "totalVideos",
          "type": "uint256"
        },
        {
          "internalType": "uint256",
          "name": "totalJobs",
          "type": "uint256"
        },
        {
          "internalType": "uint256",
          "name": "totalNodes",
          "type": "uint256"
        }
      ],
      "stateMutability": "view",
      "type": "function"
    },
    {
      "inputs": [
        {
          "internalType": "uint256",
          "name": "_jobId",
          "type": "uint256"
        },
        {
          "internalType": "bool",
          "name": "_infavour",
          "type": "bool"
        }
      ],
      "name": "handleDispute",
      "outputs": [],
      "stateMutability": "nonpayable",
      "type": "function"
    },
    {
      "inputs": [],
      "name": "jobPrice",
      "outputs": [
        {
          "internalType": "uint256",
          "name": "",
          "type": "uint256"
        }
      ],
      "stateMutability": "view",
      "type": "function"
    },
    {
      "inputs": [
        {
          "internalType": "uint256",
          "name": "",
          "type": "uint256"
        }
      ],
      "name": "jobs",
      "outputs": [
        {
          "internalType": "uint256",
          "name": "videoId",
          "type": "uint256"
        },
        {
          "internalType": "address",
          "name": "requester",
          "type": "address"
        },
        {
          "internalType": "uint256",
          "name": "nodeId",
          "type": "uint256"
        },
        {
          "internalType": "enum CoreContract.JobStatus",
          "name": "status",
          "type": "uint8"
        },
        {
          "internalType": "enum CoreContract.JobType",
          "name": "jobType",
          "type": "uint8"
        },
        {
          "internalType": "uint256",
          "name": "creationTime",
          "type": "uint256"
        },
        {
          "internalType": "string",
          "name": "resultIpfsHash",
          "type": "string"
        },
        {
          "internalType": "uint256",
          "name": "price",
          "type": "uint256"
        }
      ],
      "stateMutability": "view",
      "type": "function"
    },
    {
      "inputs": [],
      "name": "minStake",
      "outputs": [
        {
          "internalType": "uint256",
          "name": "",
          "type": "uint256"
        }
      ],
      "stateMutability": "view",
      "type": "function"
    },
    {
      "inputs": [],
      "name": "nextJobId",
      "outputs": [
        {
          "internalType": "uint256",
          "name": "",
          "type": "uint256"
        }
      ],
      "stateMutability": "view",
      "type": "function"
    },
    {
      "inputs": [],
      "name": "nextNodeId",
      "outputs": [
        {
          "internalType": "uint256",
          "name": "",
          "type": "uint256"
        }
      ],
      "stateMutability": "view",
      "type": "function"
    },
    {
      "inputs": [],
      "name": "nextVideoId",
      "outputs": [
        {
          "internalType": "uint256",
          "name": "",
          "type": "uint256"
        }
      ],
      "stateMutability": "view",
      "type": "function"
    },
    {
      "inputs": [],
      "name": "nodeFee",
      "outputs": [
        {
          "internalType": "uint256",
          "name": "",
          "type": "uint256"
        }
      ],
      "stateMutability": "view",
      "type": "function"
    },
    {
      "inputs": [
        {
          "internalType": "uint256",
          "name": "",
          "type": "uint256"
        }
      ],
      "name": "nodeIds",
      "outputs": [
        {
          "internalType": "uint256",
          "name": "",
          "type": "uint256"
        }
      ],
      "stateMutability": "view",
      "type": "function"
    },
    {
      "inputs": [
        {
          "internalType": "uint256",
          "name": "",
          "type": "uint256"
        },
        {
          "internalType": "uint256",
          "name": "",
          "type": "uint256"
        }
      ],
      "name": "nodeJobs",
      "outputs": [
        {
          "internalType": "uint256",
          "name": "",
          "type": "uint256"
        }
      ],
      "stateMutability": "view",
      "type": "function"
    },
    {
      "inputs": [
        {
          "internalType": "uint256",
          "name": "",
          "type": "uint256"
        }
      ],
      "name": "nodes",
      "outputs": [
        {
          "internalType": "address",
          "name": "nodeAddress",
          "type": "address"
        },
        {
          "internalType": "uint256",
          "name": "stake",
          "type": "uint256"
        },
        {
          "internalType": "bool",
          "name": "isActive",
          "type": "bool"
        },
        {
          "internalType": "bool",
          "name": "isTrusted",
          "type": "bool"
        },
        {
          "internalType": "uint256",
          "name": "totalJobsCompleted",
          "type": "uint256"
        },
        {
          "internalType": "uint256",
          "name": "reputation",
          "type": "uint256"
        }
      ],
      "stateMutability": "view",
      "type": "function"
    },
    {
      "inputs": [
        {
          "internalType": "address",
          "name": "",
          "type": "address"
        }
      ],
      "name": "nodesThroughAddress",
      "outputs": [
        {
          "internalType": "uint256",
          "name": "",
          "type": "uint256"
        }
      ],
      "stateMutability": "view",
      "type": "function"
    },
    {
      "inputs": [],
      "name": "owner",
      "outputs": [
        {
          "internalType": "address",
          "name": "",
          "type": "address"
        }
      ],
      "stateMutability": "view",
      "type": "function"
    },
    {
      "inputs": [
        {
          "internalType": "address",
          "name": "",
          "type": "address"
        }
      ],
      "name": "pendingRewards",
      "outputs": [
        {
          "internalType": "uint256",
          "name": "",
          "type": "uint256"
        }
      ],
      "stateMutability": "view",
      "type": "function"
    },
    {
      "inputs": [],
      "name": "registerNode",
      "outputs": [
        {
          "internalType": "uint256",
          "name": "nodeId",
          "type": "uint256"
        }
      ],
      "stateMutability": "payable",
      "type": "function"
    },
    {
      "inputs": [],
      "name": "renounceOwnership",
      "outputs": [],
      "stateMutability": "nonpayable",
      "type": "function"
    },
    {
      "inputs": [
        {
          "internalType": "uint256",
          "name": "_nodeId",
          "type": "uint256"
        },
        {
          "internalType": "bool",
          "name": "_isTrusted",
          "type": "bool"
        }
      ],
      "name": "setTrustedNode",
      "outputs": [],
      "stateMutability": "nonpayable",
      "type": "function"
    },
    {
      "inputs": [
        {
          "internalType": "uint256",
          "name": "_jobId",
          "type": "uint256"
        },
        {
          "internalType": "string",
          "name": "_resultIpfsHash",
          "type": "string"
        }
      ],
      "name": "submitJobResult",
      "outputs": [],
      "stateMutability": "nonpayable",
      "type": "function"
    },
    {
      "inputs": [],
      "name": "tokenContract",
      "outputs": [
        {
          "internalType": "contract IERC20",
          "name": "",
          "type": "address"
        }
      ],
      "stateMutability": "view",
      "type": "function"
    },
    {
      "inputs": [],
      "name": "totalStaked",
      "outputs": [
        {
          "internalType": "uint256",
          "name": "",
          "type": "uint256"
        }
      ],
      "stateMutability": "view",
      "type": "function"
    },
    {
      "inputs": [
        {
          "internalType": "address",
          "name": "newOwner",
          "type": "address"
        }
      ],
      "name": "transferOwnership",
      "outputs": [],
      "stateMutability": "nonpayable",
      "type": "function"
    },
    {
      "inputs": [
        {
          "internalType": "uint256",
          "name": "_newPrice",
          "type": "uint256"
        }
      ],
      "name": "updateJobPrice",
      "outputs": [],
      "stateMutability": "nonpayable",
      "type": "function"
    },
    {
      "inputs": [
        {
          "internalType": "uint256",
          "name": "_newFee",
          "type": "uint256"
        }
      ],
      "name": "updateNodeFee",
      "outputs": [],
      "stateMutability": "nonpayable",
      "type": "function"
    },
    {
      "inputs": [
        {
          "internalType": "string",
          "name": "_ipfsHash",
          "type": "string"
        },
        {
          "internalType": "uint256",
          "name": "_duration",
          "type": "uint256"
        },
        {
          "internalType": "bool",
          "name": "_isEncrypted",
          "type": "bool"
        }
      ],
      "name": "uploadVideo",
      "outputs": [
        {
          "internalType": "uint256",
          "name": "videoId",
          "type": "uint256"
        }
      ],
      "stateMutability": "nonpayable",
      "type": "function"
    },
    {
      "inputs": [
        {
          "internalType": "address",
          "name": "",
          "type": "address"
        },
        {
          "internalType": "uint256",
          "name": "",
          "type": "uint256"
        }
      ],
      "name": "userJobs",
      "outputs": [
        {
          "internalType": "uint256",
          "name": "",
          "type": "uint256"
        }
      ],
      "stateMutability": "view",
      "type": "function"
    },
    {
      "inputs": [
        {
          "internalType": "uint256",
          "name": "",
          "type": "uint256"
        }
      ],
      "name": "videos",
      "outputs": [
        {
          "internalType": "string",
          "name": "ipfsHash",
          "type": "string"
        },
        {
          "internalType": "uint256",
          "name": "duration",
          "type": "uint256"
        },
        {
          "internalType": "address",
          "name": "uploader",
          "type": "address"
        },
        {
          "internalType": "uint256",
          "name": "uploadTime",
          "type": "uint256"
        },
        {
          "internalType": "bool",
          "name": "isEncrypted",
          "type": "bool"
        }
      ],
      "stateMutability": "view",
      "type": "function"
    },
    {
      "inputs": [],
      "name": "vrfContract",
      "outputs": [
        {
          "internalType": "contract IVRF",
          "name": "",
          "type": "address"
        }
      ],
      "stateMutability": "view",
      "type": "function"
    },
    {
      "inputs": [],
      "name": "withdrawRewards",
      "outputs": [
        {
          "internalType": "uint256",
          "name": "amount",
          "type": "uint256"
        }
      ],
      "stateMutability": "nonpayable",
      "type": "function"
    }
  ],
  "bytecode": "0x60c060405234801561001057600080fd5b50604051615a06380380615a0683398181016040528101906100329190610238565b600160008190555061005661004b61010760201b60201c565b61010f60201b60201c565b80600360006101000a81548173ffffffffffffffffffffffffffffffffffffffff021916908373ffffffffffffffffffffffffffffffffffffffff16021790555081600260006101000a81548173ffffffffffffffffffffffffffffffffffffffff021916908373ffffffffffffffffffffffffffffffffffffffff16021790555068056bc75e2d631000006007819055506050600881905550683635c9adc5dea00000600a819055505050610278565b600033905090565b6000600160009054906101000a900473ffffffffffffffffffffffffffffffffffffffff16905081600160006101000a81548173ffffffffffffffffffffffffffffffffffffffff021916908373ffffffffffffffffffffffffffffffffffffffff1602179055508173ffffffffffffffffffffffffffffffffffffffff168173ffffffffffffffffffffffffffffffffffffffff167f8be0079c531659141344cd1fd0a4f28419497f9722a3daafe3b4186f6b6457e060405160405180910390a35050565b600080fd5b600073ffffffffffffffffffffffffffffffffffffffff82169050919050565b6000610205826101da565b9050919050565b610215816101fa565b811461022057600080fd5b50565b6000815190506102328161020c565b92915050565b6000806040838503121561024f5761024e6101d5565b5b600061025d85828601610223565b925050602061026e85828601610223565b9150509250929050565b60805160a05161576f610297600039600050506000505061576f6000f3fe6080604052600436106102515760003560e01c8063670fed3911610139578063a6c58b63116100b6578063c7b8981c1161007a578063c7b8981c1461096e578063e232208514610999578063e6821bf5146109c2578063e9d6383014610a03578063f2fde38b14610a2c578063f416253014610a5557610251565b8063a6c58b631461084c578063ab1a5cb714610889578063b0c2aa5e146108c9578063b9d03a2a146108f4578063c17ff9d21461093157610251565b80638da5cb5b116100fd5780638da5cb5b146107535780638f21bfe91461077e578063909d5ce6146107a757806398543166146107e4578063a062ab2b1461082157610251565b8063670fed39146106805780636858a3f3146106bd5780636cbc2a22146106e8578063715018a614610711578063817b1cd21461072857610251565b806331d7a262116101d25780634cac35c6116101965780634cac35c614610555578063556a61211461059257806355a373d6146105bd57806359974e38146105e85780635afbba4714610611578063645e013c1461065357610251565b806331d7a2621461045e578063375b3c0a1461049b5780633fa7276c146104c6578063495bd94e146105035780634ac8a5291461052c57610251565b80631d69de07116102195780631d69de07146103605780631dffa3dc1461039d57806320eca391146103c65780632f704cb5146103f1578063315cf0c61461043557610251565b80630978f39d146102565780631137f1601461027f5780631680b35c146102bc578063180aedf3146102da5780631c53c2801461031e575b600080fd5b34801561026257600080fd5b5061027d60048036038101906102789190613a26565b610a80565b005b34801561028b57600080fd5b506102a660048036038101906102a19190613a66565b610aba565b6040516102b39190613ab5565b60405180910390f35b6102c4610aeb565b6040516102d19190613ab5565b60405180910390f35b3480156102e657600080fd5b5061030160048036038101906102fc9190613ad0565b610eb8565b604051610315989796959493929190613c8d565b60405180910390f35b34801561032a57600080fd5b5061034560048036038101906103409190613ad0565b610fc2565b60405161035796959493929190613d21565b60405180910390f35b34801561036c57600080fd5b5061038760048036038101906103829190613de7565b611038565b6040516103949190613ab5565b60405180910390f35b3480156103a957600080fd5b506103c460048036038101906103bf9190613ad0565b6111d8565b005b3480156103d257600080fd5b506103db611456565b6040516103e89190613ab5565b60405180910390f35b3480156103fd57600080fd5b5061041860048036038101906104139190613ad0565b61145c565b60405161042c989796959493929190613c8d565b60405180910390f35b34801561044157600080fd5b5061045c60048036038101906104579190613ad0565b611566565b005b34801561046a57600080fd5b5061048560048036038101906104809190613e87565b6115f3565b6040516104929190613ab5565b60405180910390f35b3480156104a757600080fd5b506104b061160b565b6040516104bd9190613ab5565b60405180910390f35b3480156104d257600080fd5b506104ed60048036038101906104e89190613e87565b611611565b6040516104fa9190613f72565b60405180910390f35b34801561050f57600080fd5b5061052a60048036038101906105259190613ad0565b6116a8565b005b34801561053857600080fd5b50610553600480360381019061054e9190613ad0565b6119bb565b005b34801561056157600080fd5b5061057c60048036038101906105779190613ad0565b611bb0565b60405161058991906140bb565b60405180910390f35b34801561059e57600080fd5b506105a7611d64565b6040516105b49190613ab5565b60405180910390f35b3480156105c957600080fd5b506105d2611d6a565b6040516105df919061413c565b60405180910390f35b3480156105f457600080fd5b5061060f600480360381019061060a9190613ad0565b611d90565b005b34801561061d57600080fd5b5061063860048036038101906106339190613ad0565b611f6f565b60405161064a96959493929190613d21565b60405180910390f35b34801561065f57600080fd5b50610668612078565b60405161067793929190614157565b60405180910390f35b34801561068c57600080fd5b506106a760048036038101906106a29190613e87565b612091565b6040516106b49190613ab5565b60405180910390f35b3480156106c957600080fd5b506106d26120a9565b6040516106df91906141af565b60405180910390f35b3480156106f457600080fd5b5061070f600480360381019061070a9190613ad0565b6120cf565b005b34801561071d57600080fd5b50610726612118565b005b34801561073457600080fd5b5061073d61212c565b60405161074a9190613ab5565b60405180910390f35b34801561075f57600080fd5b50610768612132565b60405161077591906141ca565b60405180910390f35b34801561078a57600080fd5b506107a560048036038101906107a09190613a26565b61215c565b005b3480156107b357600080fd5b506107ce60048036038101906107c99190613ad0565b612400565b6040516107db9190613f72565b60405180910390f35b3480156107f057600080fd5b5061080b60048036038101906108069190613ad0565b61246b565b6040516108189190613ab5565b60405180910390f35b34801561082d57600080fd5b5061083661248f565b6040516108439190613ab5565b60405180910390f35b34801561085857600080fd5b50610873600480360381019061086e9190613ad0565b612495565b60405161088091906141e5565b60405180910390f35b34801561089557600080fd5b506108b060048036038101906108ab9190613ad0565b6124c2565b6040516108c09493929190614200565b60405180910390f35b3480156108d557600080fd5b506108de612625565b6040516108eb9190613ab5565b60405180910390f35b34801561090057600080fd5b5061091b60048036038101906109169190614271565b61262b565b6040516109289190613ab5565b60405180910390f35b34801561093d57600080fd5b50610958600480360381019061095391906142b1565b612a09565b6040516109659190613ab5565b60405180910390f35b34801561097a57600080fd5b50610983612a3a565b6040516109909190613ab5565b60405180910390f35b3480156109a557600080fd5b506109c060048036038101906109bb91906142f1565b612c46565b005b3480156109ce57600080fd5b506109e960048036038101906109e49190613ad0565b612e67565b6040516109fa959493929190614351565b60405180910390f35b348015610a0f57600080fd5b50610a2a6004803603810190610a259190613ad0565b612f52565b005b348015610a3857600080fd5b50610a536004803603810190610a4e9190613e87565b613192565b005b348015610a6157600080fd5b50610a6a613215565b604051610a779190613ab5565b60405180910390f35b610a8861321b565b80600e600084815260200190815260200160002060020160016101000a81548160ff0219169083151502179055505050565b60126020528160005260406000208181548110610ad657600080fd5b90600052602060002001600091509150505481565b6000600a54341015610b32576040517f08c379a0000000000000000000000000000000000000000000000000000000008152600401610b29906143f7565b60405180910390fd5b60001515600e6000600f60003373ffffffffffffffffffffffffffffffffffffffff1673ffffffffffffffffffffffffffffffffffffffff16815260200190815260200160002054815260200190815260200160002060020160009054906101000a900460ff16151514610bdb576040517f08c379a0000000000000000000000000000000000000000000000000000000008152600401610bd290614463565b60405180910390fd5b600260009054906101000a900473ffffffffffffffffffffffffffffffffffffffff1673ffffffffffffffffffffffffffffffffffffffff166323b872dd3330600a546040518463ffffffff1660e01b8152600401610c3c93929190614483565b6020604051808303816000875af1158015610c5b573d6000803e3d6000fd5b505050506040513d601f19601f82011682018060405250810190610c7f91906144cf565b610cbe576040517f08c379a0000000000000000000000000000000000000000000000000000000008152600401610cb590614548565b60405180910390fd5b60066000815480929190610cd190614597565b919050559050600b8190806001815401808255809150506001900390600052602060002001600090919091909150556040518060c001604052803373ffffffffffffffffffffffffffffffffffffffff168152602001348152602001600115158152602001600015158152602001600081526020016000815250600e600083815260200190815260200160002060008201518160000160006101000a81548173ffffffffffffffffffffffffffffffffffffffff021916908373ffffffffffffffffffffffffffffffffffffffff1602179055506020820151816001015560408201518160020160006101000a81548160ff02191690831515021790555060608201518160020160016101000a81548160ff0219169083151502179055506080820151816003015560a0820151816004015590505080600f60003373ffffffffffffffffffffffffffffffffffffffff1673ffffffffffffffffffffffffffffffffffffffff168152602001908152602001600020819055503460096000828254610e5c91906145df565b925050819055503373ffffffffffffffffffffffffffffffffffffffff16817ff0a3714a86f16e40832d97fcbc7f9fbb87e01231324496aad3f7d01ac3d283ba346000604051610ead929190614613565b60405180910390a390565b600d6020528060005260406000206000915090508060000154908060010160009054906101000a900473ffffffffffffffffffffffffffffffffffffffff16908060020154908060030160009054906101000a900460ff16908060030160019054906101000a900460ff1690806004015490806005018054610f399061466b565b80601f0160208091040260200160405190810160405280929190818152602001828054610f659061466b565b8015610fb25780601f10610f8757610100808354040283529160200191610fb2565b820191906000526020600020905b815481529060010190602001808311610f9557829003601f168201915b5050505050908060060154905088565b600e6020528060005260406000206000915090508060000160009054906101000a900473ffffffffffffffffffffffffffffffffffffffff16908060010154908060020160009054906101000a900460ff16908060020160019054906101000a900460ff16908060030154908060040154905086565b60006004600081548092919061104d90614597565b9190505590506040518060a0016040528086868080601f016020809104026020016040519081016040528093929190818152602001838380828437600081840152601f19601f8201169050808301925050505050505081526020018481526020013373ffffffffffffffffffffffffffffffffffffffff168152602001428152602001831515815250600c600083815260200190815260200160002060008201518160000190816110fe919061486d565b506020820151816001015560408201518160020160006101000a81548173ffffffffffffffffffffffffffffffffffffffff021916908373ffffffffffffffffffffffffffffffffffffffff1602179055506060820151816003015560808201518160040160006101000a81548160ff0219169083151502179055509050503373ffffffffffffffffffffffffffffffffffffffff16817ff459891c2199663acd138b6611495d64c2f522c1e679f4a267755319dc051ffb8787866040516111c89392919061497b565b60405180910390a3949350505050565b6111e0613299565b6000600d600083815260200190815260200160002090508060010160009054906101000a900473ffffffffffffffffffffffffffffffffffffffff1673ffffffffffffffffffffffffffffffffffffffff163373ffffffffffffffffffffffffffffffffffffffff1614611289576040517f08c379a0000000000000000000000000000000000000000000000000000000008152600401611280906149f9565b60405180910390fd5b6000600381111561129d5761129c613b3e565b5b8160030160009054906101000a900460ff1660038111156112c1576112c0613b3e565b5b14611301576040517f08c379a00000000000000000000000000000000000000000000000000000000081526004016112f890614a65565b60405180910390fd5b60038160030160006101000a81548160ff0219169083600381111561132957611328613b3e565b5b0217905550600260009054906101000a900473ffffffffffffffffffffffffffffffffffffffff1673ffffffffffffffffffffffffffffffffffffffff1663a9059cbb3383600601546040518363ffffffff1660e01b815260040161138f929190614a85565b6020604051808303816000875af11580156113ae573d6000803e3d6000fd5b505050506040513d601f19601f820116820180604052508101906113d291906144cf565b611411576040517f08c379a000000000000000000000000000000000000000000000000000000000815260040161140890614afa565b60405180910390fd5b817f11b03c284cc2f2f20a0797445fdd3b96339380cd6fbb5a0bf34ba9afa7d70271600360405161144291906141e5565b60405180910390a2506114536132e8565b50565b60065481565b60146020528060005260406000206000915090508060000154908060010160009054906101000a900473ffffffffffffffffffffffffffffffffffffffff16908060020154908060030160009054906101000a900460ff16908060030160019054906101000a900460ff16908060040154908060050180546114dd9061466b565b80601f01602080910402602001604051908101604052809291908181526020018280546115099061466b565b80156115565780601f1061152b57610100808354040283529160200191611556565b820191906000526020600020905b81548152906001019060200180831161153957829003601f168201915b5050505050908060060154905088565b61156e61321b565b60648111156115b2576040517f08c379a00000000000000000000000000000000000000000000000000000000081526004016115a990614b66565b60405180910390fd5b806008819055507f655013895c0fb569cd19e94baa5678a65018a104fa01cc5ed169eb77a3abdeb3816040516115e89190613ab5565b60405180910390a150565b60106020528060005260406000206000915090505481565b600a5481565b6060601160008373ffffffffffffffffffffffffffffffffffffffff1673ffffffffffffffffffffffffffffffffffffffff16815260200190815260200160002080548060200260200160405190810160405280929190818152602001828054801561169c57602002820191906000526020600020905b815481526020019060010190808311611688575b50505050509050919050565b600060136000838152602001908152602001600020549050600080600360009054906101000a900473ffffffffffffffffffffffffffffffffffffffff1673ffffffffffffffffffffffffffffffffffffffff1663d8a4676f846040518263ffffffff1660e01b815260040161171e9190613ab5565b600060405180830381865afa15801561173b573d6000803e3d6000fd5b505050506040513d6000823e3d601f19601f820116820180604052508101906117649190614caa565b91509150816117a8576040517f08c379a000000000000000000000000000000000000000000000000000000000815260040161179f90614d52565b60405180910390fd5b600160038111156117bc576117bb613b3e565b5b600d600086815260200190815260200160002060030160009054906101000a900460ff1660038111156117f2576117f1613b3e565b5b14611832576040517f08c379a000000000000000000000000000000000000000000000000000000000815260040161182990614dbe565b60405180910390fd5b60006009548260008151811061184b5761184a614dde565b5b602002602001015161185d9190614e3c565b9050600061186a826132f2565b9050600f6000826000015173ffffffffffffffffffffffffffffffffffffffff1673ffffffffffffffffffffffffffffffffffffffff16815260200190815260200160002054600d6000888152602001908152602001600020600201819055506002600d600088815260200190815260200160002060030160006101000a81548160ff0219169083600381111561190457611903613b3e565b5b0217905550857f11b03c284cc2f2f20a0797445fdd3b96339380cd6fbb5a0bf34ba9afa7d70271600160405161193a91906141e5565b60405180910390a2600f6000826000015173ffffffffffffffffffffffffffffffffffffffff1673ffffffffffffffffffffffffffffffffffffffff16815260200190815260200160002054867f4b8a5d57e97af561befa88fa50f03d0e54eda0aabb3b7b71f442453f78ad92d060405160405180910390a3505050505050565b6000600d60008381526020019081526020016000209050600260038111156119e6576119e5613b3e565b5b8160030160009054906101000a900460ff166003811115611a0a57611a09613b3e565b5b14611a4a576040517f08c379a0000000000000000000000000000000000000000000000000000000008152600401611a4190614eb9565b60405180910390fd5b8060146000848152602001908152602001600020600082015481600001556001820160009054906101000a900473ffffffffffffffffffffffffffffffffffffffff168160010160006101000a81548173ffffffffffffffffffffffffffffffffffffffff021916908373ffffffffffffffffffffffffffffffffffffffff160217905550600282015481600201556003820160009054906101000a900460ff168160030160006101000a81548160ff02191690836003811115611b1157611b10613b3e565b5b02179055506003820160019054906101000a900460ff168160030160016101000a81548160ff02191690836001811115611b4e57611b4d613b3e565b5b02179055506004820154816004015560058201816005019081611b719190614eef565b5060068201548160060155905050817fbe50084412c1b5b360c595d895466a9298980a464614ce7fd487fb4c7421f42660405160405180910390a25050565b611bb8613878565b600d600083815260200190815260200160002060405180610100016040529081600082015481526020016001820160009054906101000a900473ffffffffffffffffffffffffffffffffffffffff1673ffffffffffffffffffffffffffffffffffffffff1673ffffffffffffffffffffffffffffffffffffffff168152602001600282015481526020016003820160009054906101000a900460ff166003811115611c6657611c65613b3e565b5b6003811115611c7857611c77613b3e565b5b81526020016003820160019054906101000a900460ff166001811115611ca157611ca0613b3e565b5b6001811115611cb357611cb2613b3e565b5b815260200160048201548152602001600582018054611cd19061466b565b80601f0160208091040260200160405190810160405280929190818152602001828054611cfd9061466b565b8015611d4a5780601f10611d1f57610100808354040283529160200191611d4a565b820191906000526020600020905b815481529060010190602001808311611d2d57829003601f168201915b505050505081526020016006820154815250509050919050565b60075481565b600260009054906101000a900473ffffffffffffffffffffffffffffffffffffffff1681565b611d98613299565b6000600d6000838152602001908152602001600020905060026003811115611dc357611dc2613b3e565b5b8160030160009054906101000a900460ff166003811115611de757611de6613b3e565b5b14611e27576040517f08c379a0000000000000000000000000000000000000000000000000000000008152600401611e1e90614eb9565b60405180910390fd5b600060646008548360060154611e3d9190614fd7565b611e479190615019565b90508060106000600e60008660020154815260200190815260200160002060000160009054906101000a900473ffffffffffffffffffffffffffffffffffffffff1673ffffffffffffffffffffffffffffffffffffffff1673ffffffffffffffffffffffffffffffffffffffff1681526020019081526020016000206000828254611ed291906145df565b92505081905550600e60008360020154815260200190815260200160002060000160009054906101000a900473ffffffffffffffffffffffffffffffffffffffff1673ffffffffffffffffffffffffffffffffffffffff16837f4cbfa67f54cf0255619787991cb52aa46c0d3ee5cfabb0abf659f2b310f4748583604051611f5a9190613ab5565b60405180910390a35050611f6c6132e8565b50565b6000806000806000806000600e60008981526020019081526020016000206040518060c00160405290816000820160009054906101000a900473ffffffffffffffffffffffffffffffffffffffff1673ffffffffffffffffffffffffffffffffffffffff1673ffffffffffffffffffffffffffffffffffffffff168152602001600182015481526020016002820160009054906101000a900460ff161515151581526020016002820160019054906101000a900460ff16151515158152602001600382015481526020016004820154815250509050806000015181602001518260400151836060015184608001518560a001519650965096509650965096505091939550919395565b6000806000600454600554600654925092509250909192565b600f6020528060005260406000206000915090505481565b600360009054906101000a900473ffffffffffffffffffffffffffffffffffffffff1681565b6120d761321b565b806007819055507f66cbca4f3c64fecf1dcb9ce094abcf7f68c3450a1d4e3a8e917dd621edb4ebe08160405161210d9190613ab5565b60405180910390a150565b61212061321b565b61212a60006134ed565b565b60095481565b6000600160009054906101000a900473ffffffffffffffffffffffffffffffffffffffff16905090565b61216461321b565b6000600d600084815260200190815260200160002090506002600381111561218f5761218e613b3e565b5b8160030160009054906101000a900460ff1660038111156121b3576121b2613b3e565b5b146121f3576040517f08c379a00000000000000000000000000000000000000000000000000000000081526004016121ea90614eb9565b60405180910390fd5b60008290508061232d57600e60008360020154815260200190815260200160002060040160008154809291906122289061504a565b9190505550600260009054906101000a900473ffffffffffffffffffffffffffffffffffffffff1673ffffffffffffffffffffffffffffffffffffffff166323b872dd600e60008560020154815260200190815260200160002060000160009054906101000a900473ffffffffffffffffffffffffffffffffffffffff1630600e600087600201548152602001908152602001600020600101546040518463ffffffff1660e01b81526004016122e093929190614483565b6020604051808303816000875af11580156122ff573d6000803e3d6000fd5b505050506040513d601f19601f8201168201806040525081019061232391906144cf565b61232c57600080fd5b5b601460008581526020019081526020016000206000808201600090556001820160006101000a81549073ffffffffffffffffffffffffffffffffffffffff021916905560028201600090556003820160006101000a81549060ff02191690556003820160016101000a81549060ff021916905560048201600090556005820160006123b891906138f7565b60068201600090555050837f5a87909bff68caaaaf0b3fd9c74eeccc928832f879315e5c6fb7a73612f26c0c826040516123f29190615073565b60405180910390a250505050565b60606012600083815260200190815260200160002080548060200260200160405190810160405280929190818152602001828054801561245f57602002820191906000526020600020905b81548152602001906001019080831161244b575b50505050509050919050565b600b818154811061247b57600080fd5b906000526020600020016000915090505481565b60045481565b6000600d600083815260200190815260200160002060030160009054906101000a900460ff169050919050565b6060600080600080600c60008781526020019081526020016000206040518060a00160405290816000820180546124f89061466b565b80601f01602080910402602001604051908101604052809291908181526020018280546125249061466b565b80156125715780601f1061254657610100808354040283529160200191612571565b820191906000526020600020905b81548152906001019060200180831161255457829003601f168201915b50505050508152602001600182015481526020016002820160009054906101000a900473ffffffffffffffffffffffffffffffffffffffff1673ffffffffffffffffffffffffffffffffffffffff1673ffffffffffffffffffffffffffffffffffffffff168152602001600382015481526020016004820160009054906101000a900460ff161515151581525050905080600001518160200151826040015183608001519450945094509450509193509193565b60055481565b6000612635613299565b600260009054906101000a900473ffffffffffffffffffffffffffffffffffffffff1673ffffffffffffffffffffffffffffffffffffffff166323b872dd33306007546040518463ffffffff1660e01b815260040161269693929190614483565b6020604051808303816000875af11580156126b5573d6000803e3d6000fd5b505050506040513d601f19601f820116820180604052508101906126d991906144cf565b612718576040517f08c379a000000000000000000000000000000000000000000000000000000000815260040161270f906150da565b60405180910390fd5b6005600081548092919061272b90614597565b9190505590506040518061010001604052808481526020013373ffffffffffffffffffffffffffffffffffffffff168152602001600081526020016000600381111561277a57612779613b3e565b5b815260200183600181111561279257612791613b3e565b5b8152602001428152602001604051806020016040528060008152508152602001600754815250600d60008381526020019081526020016000206000820151816000015560208201518160010160006101000a81548173ffffffffffffffffffffffffffffffffffffffff021916908373ffffffffffffffffffffffffffffffffffffffff1602179055506040820151816002015560608201518160030160006101000a81548160ff0219169083600381111561285157612850613b3e565b5b021790555060808201518160030160016101000a81548160ff0219169083600181111561288157612880613b3e565b5b021790555060a0820151816004015560c08201518160050190816128a5919061486d565b5060e08201518160060155905050601160003373ffffffffffffffffffffffffffffffffffffffff1673ffffffffffffffffffffffffffffffffffffffff1681526020019081526020016000208190806001815401808255809150506001900390600052602060002001600090919091909150553373ffffffffffffffffffffffffffffffffffffffff1683827f1ccfbaf950885ccc2d47e4f1bd3a4fb1beab6c905410a090d1b265ecdae44b7e8560405161296191906150fa565b60405180910390a4612972816135b3565b807f11b03c284cc2f2f20a0797445fdd3b96339380cd6fbb5a0bf34ba9afa7d7027160016040516129a391906141e5565b60405180910390a23373ffffffffffffffffffffffffffffffffffffffff1683827f1ccfbaf950885ccc2d47e4f1bd3a4fb1beab6c905410a090d1b265ecdae44b7e856040516129f391906150fa565b60405180910390a4612a036132e8565b92915050565b60116020528160005260406000208181548110612a2557600080fd5b90600052602060002001600091509150505481565b6000612a44613299565b601060003373ffffffffffffffffffffffffffffffffffffffff1673ffffffffffffffffffffffffffffffffffffffff16815260200190815260200160002054905060008111612ac9576040517f08c379a0000000000000000000000000000000000000000000000000000000008152600401612ac090615161565b60405180910390fd5b6000601060003373ffffffffffffffffffffffffffffffffffffffff1673ffffffffffffffffffffffffffffffffffffffff16815260200190815260200160002081905550600260009054906101000a900473ffffffffffffffffffffffffffffffffffffffff1673ffffffffffffffffffffffffffffffffffffffff1663a9059cbb33836040518363ffffffff1660e01b8152600401612b6b929190614a85565b6020604051808303816000875af1158015612b8a573d6000803e3d6000fd5b505050506040513d601f19601f82011682018060405250810190612bae91906144cf565b612bed576040517f08c379a0000000000000000000000000000000000000000000000000000000008152600401612be4906151cd565b60405180910390fd5b3373ffffffffffffffffffffffffffffffffffffffff167f8a43c4352486ec339f487f64af78ca5cbf06cd47833f073d3baf3a193e50316182604051612c339190613ab5565b60405180910390a2612c436132e8565b90565b6000600d600085815260200190815260200160002090503373ffffffffffffffffffffffffffffffffffffffff16600e60008360020154815260200190815260200160002060000160009054906101000a900473ffffffffffffffffffffffffffffffffffffffff1673ffffffffffffffffffffffffffffffffffffffff1614612d05576040517f08c379a0000000000000000000000000000000000000000000000000000000008152600401612cfc90615239565b60405180910390fd5b60016003811115612d1957612d18613b3e565b5b8160030160009054906101000a900460ff166003811115612d3d57612d3c613b3e565b5b14612d7d576040517f08c379a0000000000000000000000000000000000000000000000000000000008152600401612d74906152a5565b60405180910390fd5b60028160030160006101000a81548160ff02191690836003811115612da557612da4613b3e565b5b02179055508282826005019182612dbd9291906152d0565b50600e6000826002015481526020019081526020016000206003016000815480929190612de990614597565b9190505550837f24f3a78b4012b95741ca9128e65f9375a155dd95645fd6d2784af82f053756218484604051612e209291906153a0565b60405180910390a2837f11b03c284cc2f2f20a0797445fdd3b96339380cd6fbb5a0bf34ba9afa7d702716002604051612e5991906141e5565b60405180910390a250505050565b600c602052806000526040600020600091509050806000018054612e8a9061466b565b80601f0160208091040260200160405190810160405280929190818152602001828054612eb69061466b565b8015612f035780601f10612ed857610100808354040283529160200191612f03565b820191906000526020600020905b815481529060010190602001808311612ee657829003601f168201915b5050505050908060010154908060020160009054906101000a900473ffffffffffffffffffffffffffffffffffffffff16908060030154908060040160009054906101000a900460ff16905085565b612f5a613299565b6000600e600083815260200190815260200160002090508060000160009054906101000a900473ffffffffffffffffffffffffffffffffffffffff1673ffffffffffffffffffffffffffffffffffffffff163373ffffffffffffffffffffffffffffffffffffffff1614613003576040517f08c379a0000000000000000000000000000000000000000000000000000000008152600401612ffa90615410565b60405180910390fd5b8060020160009054906101000a900460ff16613054576040517f08c379a000000000000000000000000000000000000000000000000000000000815260040161304b9061547c565b60405180910390fd5b60008160020160006101000a81548160ff021916908315150217905550600260009054906101000a900473ffffffffffffffffffffffffffffffffffffffff1673ffffffffffffffffffffffffffffffffffffffff166323b872dd3033600e6000878152602001908152602001600020600101546040518463ffffffff1660e01b81526004016130e693929190614483565b6020604051808303816000875af1158015613105573d6000803e3d6000fd5b505050506040513d601f19601f8201168201806040525081019061312991906144cf565b50600e60008381526020019081526020016000206001015460096000828254613152919061549c565b92505081905550817f225b982f3f68d9ecd9aaa2ece1c491786e6e4bf7ac4028b1ce7024691475383c60405160405180910390a25061318f6132e8565b50565b61319a61321b565b600073ffffffffffffffffffffffffffffffffffffffff168173ffffffffffffffffffffffffffffffffffffffff1603613209576040517f08c379a000000000000000000000000000000000000000000000000000000000815260040161320090615542565b60405180910390fd5b613212816134ed565b50565b60085481565b613223613870565b73ffffffffffffffffffffffffffffffffffffffff16613241612132565b73ffffffffffffffffffffffffffffffffffffffff1614613297576040517f08c379a000000000000000000000000000000000000000000000000000000000815260040161328e906155ae565b60405180910390fd5b565b6002600054036132de576040517f08c379a00000000000000000000000000000000000000000000000000000000081526004016132d59061561a565b60405180910390fd5b6002600081905550565b6001600081905550565b6132fa613937565b6000805b600b8054905081101561340a576000600e60008381526020019081526020016000206040518060c00160405290816000820160009054906101000a900473ffffffffffffffffffffffffffffffffffffffff1673ffffffffffffffffffffffffffffffffffffffff1673ffffffffffffffffffffffffffffffffffffffff168152602001600182015481526020016002820160009054906101000a900460ff161515151581526020016002820160019054906101000a900460ff161515151581526020016003820154815260200160048201548152505090508060200151836133e791906145df565b9250828510156133fc578093505050506134e8565b5080806001019150506132fe565b50600e60006001600b80549050613421919061549c565b81526020019081526020016000206040518060c00160405290816000820160009054906101000a900473ffffffffffffffffffffffffffffffffffffffff1673ffffffffffffffffffffffffffffffffffffffff1673ffffffffffffffffffffffffffffffffffffffff168152602001600182015481526020016002820160009054906101000a900460ff161515151581526020016002820160019054906101000a900460ff16151515158152602001600382015481526020016004820154815250509150505b919050565b6000600160009054906101000a900473ffffffffffffffffffffffffffffffffffffffff16905081600160006101000a81548173ffffffffffffffffffffffffffffffffffffffff021916908373ffffffffffffffffffffffffffffffffffffffff1602179055508173ffffffffffffffffffffffffffffffffffffffff168173ffffffffffffffffffffffffffffffffffffffff167f8be0079c531659141344cd1fd0a4f28419497f9722a3daafe3b4186f6b6457e060405160405180910390a35050565b600060038111156135c7576135c6613b3e565b5b600d600083815260200190815260200160002060030160009054906101000a900460ff1660038111156135fd576135fc613b3e565b5b1461363d576040517f08c379a000000000000000000000000000000000000000000000000000000000815260040161363490614a65565b60405180910390fd5b600060095411613682576040517f08c379a000000000000000000000000000000000000000000000000000000000815260040161367990615686565b60405180910390fd5b6000600360009054906101000a900473ffffffffffffffffffffffffffffffffffffffff1673ffffffffffffffffffffffffffffffffffffffff1663e726f2e160016040518263ffffffff1660e01b81526004016136e091906156f1565b6020604051808303816000875af11580156136ff573d6000803e3d6000fd5b505050506040513d601f19601f82011682018060405250810190613723919061570c565b90508160136000838152602001908152602001600020819055506001600d600084815260200190815260200160002060030160006101000a81548160ff0219169083600381111561377757613776613b3e565b5b0217905550817f11b03c284cc2f2f20a0797445fdd3b96339380cd6fbb5a0bf34ba9afa7d7027160016040516137ad91906141e5565b60405180910390a26000600360009054906101000a900473ffffffffffffffffffffffffffffffffffffffff1673ffffffffffffffffffffffffffffffffffffffff1663d8a4676f836040518263ffffffff1660e01b81526004016138129190613ab5565b600060405180830381865afa15801561382f573d6000803e3d6000fd5b505050506040513d6000823e3d601f19601f820116820180604052508101906138589190614caa565b509050801561386b5761386a836116a8565b5b505050565b600033905090565b60405180610100016040528060008152602001600073ffffffffffffffffffffffffffffffffffffffff16815260200160008152602001600060038111156138c3576138c2613b3e565b5b8152602001600060018111156138dc576138db613b3e565b5b81526020016000815260200160608152602001600081525090565b5080546139039061466b565b6000825580601f106139155750613934565b601f0160209004906000526020600020908101906139339190613987565b5b50565b6040518060c00160405280600073ffffffffffffffffffffffffffffffffffffffff1681526020016000815260200160001515815260200160001515815260200160008152602001600081525090565b5b808211156139a0576000816000905550600101613988565b5090565b6000604051905090565b600080fd5b600080fd5b6000819050919050565b6139cb816139b8565b81146139d657600080fd5b50565b6000813590506139e8816139c2565b92915050565b60008115159050919050565b613a03816139ee565b8114613a0e57600080fd5b50565b600081359050613a20816139fa565b92915050565b60008060408385031215613a3d57613a3c6139ae565b5b6000613a4b858286016139d9565b9250506020613a5c85828601613a11565b9150509250929050565b60008060408385031215613a7d57613a7c6139ae565b5b6000613a8b858286016139d9565b9250506020613a9c858286016139d9565b9150509250929050565b613aaf816139b8565b82525050565b6000602082019050613aca6000830184613aa6565b92915050565b600060208284031215613ae657613ae56139ae565b5b6000613af4848285016139d9565b91505092915050565b600073ffffffffffffffffffffffffffffffffffffffff82169050919050565b6000613b2882613afd565b9050919050565b613b3881613b1d565b82525050565b7f4e487b7100000000000000000000000000000000000000000000000000000000600052602160045260246000fd5b60048110613b7e57613b7d613b3e565b5b50565b6000819050613b8f82613b6d565b919050565b6000613b9f82613b81565b9050919050565b613baf81613b94565b82525050565b60028110613bc657613bc5613b3e565b5b50565b6000819050613bd782613bb5565b919050565b6000613be782613bc9565b9050919050565b613bf781613bdc565b82525050565b600081519050919050565b600082825260208201905092915050565b60005b83811015613c37578082015181840152602081019050613c1c565b60008484015250505050565b6000601f19601f8301169050919050565b6000613c5f82613bfd565b613c698185613c08565b9350613c79818560208601613c19565b613c8281613c43565b840191505092915050565b600061010082019050613ca3600083018b613aa6565b613cb0602083018a613b2f565b613cbd6040830189613aa6565b613cca6060830188613ba6565b613cd76080830187613bee565b613ce460a0830186613aa6565b81810360c0830152613cf68185613c54565b9050613d0560e0830184613aa6565b9998505050505050505050565b613d1b816139ee565b82525050565b600060c082019050613d366000830189613b2f565b613d436020830188613aa6565b613d506040830187613d12565b613d5d6060830186613d12565b613d6a6080830185613aa6565b613d7760a0830184613aa6565b979650505050505050565b600080fd5b600080fd5b600080fd5b60008083601f840112613da757613da6613d82565b5b8235905067ffffffffffffffff811115613dc457613dc3613d87565b5b602083019150836001820283011115613de057613ddf613d8c565b5b9250929050565b60008060008060608587031215613e0157613e006139ae565b5b600085013567ffffffffffffffff811115613e1f57613e1e6139b3565b5b613e2b87828801613d91565b94509450506020613e3e878288016139d9565b9250506040613e4f87828801613a11565b91505092959194509250565b613e6481613b1d565b8114613e6f57600080fd5b50565b600081359050613e8181613e5b565b92915050565b600060208284031215613e9d57613e9c6139ae565b5b6000613eab84828501613e72565b91505092915050565b600081519050919050565b600082825260208201905092915050565b6000819050602082019050919050565b613ee9816139b8565b82525050565b6000613efb8383613ee0565b60208301905092915050565b6000602082019050919050565b6000613f1f82613eb4565b613f298185613ebf565b9350613f3483613ed0565b8060005b83811015613f65578151613f4c8882613eef565b9750613f5783613f07565b925050600181019050613f38565b5085935050505092915050565b60006020820190508181036000830152613f8c8184613f14565b905092915050565b613f9d81613b1d565b82525050565b613fac81613b94565b82525050565b613fbb81613bdc565b82525050565b600082825260208201905092915050565b6000613fdd82613bfd565b613fe78185613fc1565b9350613ff7818560208601613c19565b61400081613c43565b840191505092915050565b6000610100830160008301516140246000860182613ee0565b5060208301516140376020860182613f94565b50604083015161404a6040860182613ee0565b50606083015161405d6060860182613fa3565b5060808301516140706080860182613fb2565b5060a083015161408360a0860182613ee0565b5060c083015184820360c086015261409b8282613fd2565b91505060e08301516140b060e0860182613ee0565b508091505092915050565b600060208201905081810360008301526140d5818461400b565b905092915050565b6000819050919050565b60006141026140fd6140f884613afd565b6140dd565b613afd565b9050919050565b6000614114826140e7565b9050919050565b600061412682614109565b9050919050565b6141368161411b565b82525050565b6000602082019050614151600083018461412d565b92915050565b600060608201905061416c6000830186613aa6565b6141796020830185613aa6565b6141866040830184613aa6565b949350505050565b600061419982614109565b9050919050565b6141a98161418e565b82525050565b60006020820190506141c460008301846141a0565b92915050565b60006020820190506141df6000830184613b2f565b92915050565b60006020820190506141fa6000830184613ba6565b92915050565b6000608082019050818103600083015261421a8187613c54565b90506142296020830186613aa6565b6142366040830185613b2f565b6142436060830184613d12565b95945050505050565b6002811061425957600080fd5b50565b60008135905061426b8161424c565b92915050565b60008060408385031215614288576142876139ae565b5b6000614296858286016139d9565b92505060206142a78582860161425c565b9150509250929050565b600080604083850312156142c8576142c76139ae565b5b60006142d685828601613e72565b92505060206142e7858286016139d9565b9150509250929050565b60008060006040848603121561430a576143096139ae565b5b6000614318868287016139d9565b935050602084013567ffffffffffffffff811115614339576143386139b3565b5b61434586828701613d91565b92509250509250925092565b600060a082019050818103600083015261436b8188613c54565b905061437a6020830187613aa6565b6143876040830186613b2f565b6143946060830185613aa6565b6143a16080830184613d12565b9695505050505050565b7f496e73756666696369656e74207374616b650000000000000000000000000000600082015250565b60006143e1601283613c08565b91506143ec826143ab565b602082019050919050565b60006020820190508181036000830152614410816143d4565b9050919050565b7f4e6f646520616c72656164792072656769737465726564000000000000000000600082015250565b600061444d601783613c08565b915061445882614417565b602082019050919050565b6000602082019050818103600083015261447c81614440565b9050919050565b60006060820190506144986000830186613b2f565b6144a56020830185613b2f565b6144b26040830184613aa6565b949350505050565b6000815190506144c9816139fa565b92915050565b6000602082840312156144e5576144e46139ae565b5b60006144f3848285016144ba565b91505092915050565b7f5374616b65204e6f742052656365697665640000000000000000000000000000600082015250565b6000614532601283613c08565b915061453d826144fc565b602082019050919050565b6000602082019050818103600083015261456181614525565b9050919050565b7f4e487b7100000000000000000000000000000000000000000000000000000000600052601160045260246000fd5b60006145a2826139b8565b91507fffffffffffffffffffffffffffffffffffffffffffffffffffffffffffffffff82036145d4576145d3614568565b5b600182019050919050565b60006145ea826139b8565b91506145f5836139b8565b925082820190508082111561460d5761460c614568565b5b92915050565b60006040820190506146286000830185613aa6565b6146356020830184613d12565b9392505050565b7f4e487b7100000000000000000000000000000000000000000000000000000000600052602260045260246000fd5b6000600282049050600182168061468357607f821691505b6020821081036146965761469561463c565b5b50919050565b7f4e487b7100000000000000000000000000000000000000000000000000000000600052604160045260246000fd5b60008190508160005260206000209050919050565b60006020601f8301049050919050565b600082821b905092915050565b60006008830261472d7fffffffffffffffffffffffffffffffffffffffffffffffffffffffffffffffff826146f0565b61473786836146f0565b95508019841693508086168417925050509392505050565b600061476a614765614760846139b8565b6140dd565b6139b8565b9050919050565b6000819050919050565b6147848361474f565b61479861479082614771565b8484546146fd565b825550505050565b600090565b6147ad6147a0565b6147b881848461477b565b505050565b5b818110156147dc576147d16000826147a5565b6001810190506147be565b5050565b601f821115614821576147f2816146cb565b6147fb846146e0565b8101602085101561480a578190505b61481e614816856146e0565b8301826147bd565b50505b505050565b600082821c905092915050565b600061484460001984600802614826565b1980831691505092915050565b600061485d8383614833565b9150826002028217905092915050565b61487682613bfd565b67ffffffffffffffff81111561488f5761488e61469c565b5b614899825461466b565b6148a48282856147e0565b600060209050601f8311600181146148d757600084156148c5578287015190505b6148cf8582614851565b865550614937565b601f1984166148e5866146cb565b60005b8281101561490d578489015182556001820191506020850194506020810190506148e8565b8683101561492a5784890151614926601f891682614833565b8355505b6001600288020188555050505b505050505050565b82818337600083830152505050565b600061495a8385613c08565b935061496783858461493f565b61497083613c43565b840190509392505050565b6000604082019050818103600083015261499681858761494e565b90506149a56020830184613d12565b949350505050565b7f4e6f74206a6f6220726571756573746572000000000000000000000000000000600082015250565b60006149e3601183613c08565b91506149ee826149ad565b602082019050919050565b60006020820190508181036000830152614a12816149d6565b9050919050565b7f4a6f62206e6f742070656e64696e670000000000000000000000000000000000600082015250565b6000614a4f600f83613c08565b9150614a5a82614a19565b602082019050919050565b60006020820190508181036000830152614a7e81614a42565b9050919050565b6000604082019050614a9a6000830185613b2f565b614aa76020830184613aa6565b9392505050565b7f526566756e64206661696c656400000000000000000000000000000000000000600082015250565b6000614ae4600d83613c08565b9150614aef82614aae565b602082019050919050565b60006020820190508181036000830152614b1381614ad7565b9050919050565b7f46656520746f6f20686967680000000000000000000000000000000000000000600082015250565b6000614b50600c83613c08565b9150614b5b82614b1a565b602082019050919050565b60006020820190508181036000830152614b7f81614b43565b9050919050565b614b8f82613c43565b810181811067ffffffffffffffff82111715614bae57614bad61469c565b5b80604052505050565b6000614bc16139a4565b9050614bcd8282614b86565b919050565b600067ffffffffffffffff821115614bed57614bec61469c565b5b602082029050602081019050919050565b600081519050614c0d816139c2565b92915050565b6000614c26614c2184614bd2565b614bb7565b90508083825260208201905060208402830185811115614c4957614c48613d8c565b5b835b81811015614c725780614c5e8882614bfe565b845260208401935050602081019050614c4b565b5050509392505050565b600082601f830112614c9157614c90613d82565b5b8151614ca1848260208601614c13565b91505092915050565b60008060408385031215614cc157614cc06139ae565b5b6000614ccf858286016144ba565b925050602083015167ffffffffffffffff811115614cf057614cef6139b3565b5b614cfc85828601614c7c565b9150509250929050565b7f52616e646f6d206e756d626572206e6f742079657420617661696c61626c6500600082015250565b6000614d3c601f83613c08565b9150614d4782614d06565b602082019050919050565b60006020820190508181036000830152614d6b81614d2f565b9050919050565b7f4a6f62206e6f742070726f63657373696e670000000000000000000000000000600082015250565b6000614da8601283613c08565b9150614db382614d72565b602082019050919050565b60006020820190508181036000830152614dd781614d9b565b9050919050565b7f4e487b7100000000000000000000000000000000000000000000000000000000600052603260045260246000fd5b7f4e487b7100000000000000000000000000000000000000000000000000000000600052601260045260246000fd5b6000614e47826139b8565b9150614e52836139b8565b925082614e6257614e61614e0d565b5b828206905092915050565b7f4a6f62206e6f7420636f6d706c65746564000000000000000000000000000000600082015250565b6000614ea3601183613c08565b9150614eae82614e6d565b602082019050919050565b60006020820190508181036000830152614ed281614e96565b9050919050565b600081549050614ee88161466b565b9050919050565b818103614efd575050614fd5565b614f0682614ed9565b67ffffffffffffffff811115614f1f57614f1e61469c565b5b614f29825461466b565b614f348282856147e0565b6000601f831160018114614f635760008415614f51578287015490505b614f5b8582614851565b865550614fce565b601f198416614f71876146cb565b9650614f7c866146cb565b60005b82811015614fa457848901548255600182019150600185019450602081019050614f7f565b86831015614fc15784890154614fbd601f891682614833565b8355505b6001600288020188555050505b5050505050505b565b6000614fe2826139b8565b9150614fed836139b8565b9250828202614ffb816139b8565b9150828204841483151761501257615011614568565b5b5092915050565b6000615024826139b8565b915061502f836139b8565b92508261503f5761503e614e0d565b5b828204905092915050565b6000615055826139b8565b91506000820361506857615067614568565b5b600182039050919050565b60006020820190506150886000830184613d12565b92915050565b7f5061796d656e74206661696c6564000000000000000000000000000000000000600082015250565b60006150c4600e83613c08565b91506150cf8261508e565b602082019050919050565b600060208201905081810360008301526150f3816150b7565b9050919050565b600060208201905061510f6000830184613bee565b92915050565b7f4e6f2070656e64696e6720726577617264730000000000000000000000000000600082015250565b600061514b601283613c08565b915061515682615115565b602082019050919050565b6000602082019050818103600083015261517a8161513e565b9050919050565b7f5472616e73666572206661696c65640000000000000000000000000000000000600082015250565b60006151b7600f83613c08565b91506151c282615181565b602082019050919050565b600060208201905081810360008301526151e6816151aa565b9050919050565b7f4e6f742061737369676e6564206e6f6465000000000000000000000000000000600082015250565b6000615223601183613c08565b915061522e826151ed565b602082019050919050565b6000602082019050818103600083015261525281615216565b9050919050565b7f4a6f62206e6f7420696e2070726f63657373696e670000000000000000000000600082015250565b600061528f601583613c08565b915061529a82615259565b602082019050919050565b600060208201905081810360008301526152be81615282565b9050919050565b600082905092915050565b6152da83836152c5565b67ffffffffffffffff8111156152f3576152f261469c565b5b6152fd825461466b565b6153088282856147e0565b6000601f8311600181146153375760008415615325578287013590505b61532f8582614851565b865550615397565b601f198416615345866146cb565b60005b8281101561536d57848901358255600182019150602085019450602081019050615348565b8683101561538a5784890135615386601f891682614833565b8355505b6001600288020188555050505b50505050505050565b600060208201905081810360008301526153bb81848661494e565b90509392505050565b7f4e6f74206e6f6465206f776e6572000000000000000000000000000000000000600082015250565b60006153fa600e83613c08565b9150615405826153c4565b602082019050919050565b60006020820190508181036000830152615429816153ed565b9050919050565b7f4e6f646520616c726561647920696e6163746976650000000000000000000000600082015250565b6000615466601583613c08565b915061547182615430565b602082019050919050565b6000602082019050818103600083015261549581615459565b9050919050565b60006154a7826139b8565b91506154b2836139b8565b92508282039050818111156154ca576154c9614568565b5b92915050565b7f4f776e61626c653a206e6577206f776e657220697320746865207a65726f206160008201527f6464726573730000000000000000000000000000000000000000000000000000602082015250565b600061552c602683613c08565b9150615537826154d0565b604082019050919050565b6000602082019050818103600083015261555b8161551f565b9050919050565b7f4f776e61626c653a2063616c6c6572206973206e6f7420746865206f776e6572600082015250565b6000615598602083613c08565b91506155a382615562565b602082019050919050565b600060208201905081810360008301526155c78161558b565b9050919050565b7f5265656e7472616e637947756172643a207265656e7472616e742063616c6c00600082015250565b6000615604601f83613c08565b915061560f826155ce565b602082019050919050565b60006020820190508181036000830152615633816155f7565b9050919050565b7f4e6f206e6f646573207374616b65640000000000000000000000000000000000600082015250565b6000615670600f83613c08565b915061567b8261563a565b602082019050919050565b6000602082019050818103600083015261569f81615663565b9050919050565b6000819050919050565b600063ffffffff82169050919050565b60006156db6156d66156d1846156a6565b6140dd565b6156b0565b9050919050565b6156eb816156c0565b82525050565b600060208201905061570660008301846156e2565b92915050565b600060208284031215615722576157216139ae565b5b600061573084828501614bfe565b9150509291505056fea2646970667358221220c9a826a9aeaee7c2578b6f874a0b4657f5753acac4673378ec2914f768a585d964736f6c63430008190033",
  "linkReferences": {},
  "deployedLinkReferences": {}
}