{
  "_format": "hh-sol-artifact-1",
  "contractName": "UnifiedVRF",
  "sourceName": "contracts/UnifiedVRF.sol",
  "abi": [
    {
      "inputs": [
        {
          "internalType": "bool",
          "name": "_useChainlink",
          "type": "bool"
        },
        {
          "internalType": "address",
          "name": "_vrfCoordinator",
          "type": "address"
        },
        {
          "internalType": "bytes32",
          "name": "_keyHash",
          "type": "bytes32"
        },
        {
          "internalType": "uint256",
          "name": "_subscriptionId",
          "type": "uint256"
        }
      ],
      "stateMutability": "nonpayable",
      "type": "constructor"
    },
    {
      "inputs": [
        {
          "internalType": "address",
          "name": "have",
          "type": "address"
        },
        {
          "internalType": "address",
          "name": "want",
          "type": "address"
        }
      ],
      "name": "OnlyCoordinatorCanFulfill",
      "type": "error"
    },
    {
      "inputs": [
        {
          "internalType": "address",
          "name": "have",
          "type": "address"
        },
        {
          "internalType": "address",
          "name": "owner",
          "type": "address"
        },
        {
          "internalType": "address",
          "name": "coordinator",
          "type": "address"
        }
      ],
      "name": "OnlyOwnerOrCoordinator",
      "type": "error"
    },
    {
      "inputs": [],
      "name": "ZeroAddress",
      "type": "error"
    },
    {
      "anonymous": false,
      "inputs": [
        {
          "indexed": false,
          "internalType": "address",
          "name": "vrfCoordinator",
          "type": "address"
        }
      ],
      "name": "CoordinatorSet",
      "type": "event"
    },
    {
      "anonymous": false,
      "inputs": [
        {
          "indexed": true,
          "internalType": "address",
          "name": "from",
          "type": "address"
        },
        {
          "indexed": true,
          "internalType": "address",
          "name": "to",
          "type": "address"
        }
      ],
      "name": "OwnershipTransferRequested",
      "type": "event"
    },
    {
      "anonymous": false,
      "inputs": [
        {
          "indexed": true,
          "internalType": "address",
          "name": "from",
          "type": "address"
        },
        {
          "indexed": true,
          "internalType": "address",
          "name": "to",
          "type": "address"
        }
      ],
      "name": "OwnershipTransferred",
      "type": "event"
    },
    {
      "anonymous": false,
      "inputs": [
        {
          "indexed": false,
          "internalType": "uint256",
          "name": "requestId",
          "type": "uint256"
        },
        {
          "indexed": false,
          "internalType": "uint256[]",
          "name": "randomWords",
          "type": "uint256[]"
        }
      ],
      "name": "RequestFulfilled",
      "type": "event"
    },
    {
      "anonymous": false,
      "inputs": [
        {
          "indexed": false,
          "internalType": "uint256",
          "name": "requestId",
          "type": "uint256"
        },
        {
          "indexed": false,
          "internalType": "uint32",
          "name": "numWords",
          "type": "uint32"
        }
      ],
      "name": "RequestSent",
      "type": "event"
    },
    {
      "inputs": [],
      "name": "acceptOwnership",
      "outputs": [],
      "stateMutability": "nonpayable",
      "type": "function"
    },
    {
      "inputs": [
        {
          "internalType": "uint256",
          "name": "requestId",
          "type": "uint256"
        }
      ],
      "name": "getRandomWords",
      "outputs": [
        {
          "internalType": "uint256[]",
          "name": "",
          "type": "uint256[]"
        }
      ],
      "stateMutability": "view",
      "type": "function"
    },
    {
      "inputs": [
        {
          "internalType": "uint256",
          "name": "_requestId",
          "type": "uint256"
        }
      ],
      "name": "getRequestStatus",
      "outputs": [
        {
          "internalType": "bool",
          "name": "fulfilled",
          "type": "bool"
        },
        {
          "internalType": "uint256[]",
          "name": "randomWords",
          "type": "uint256[]"
        }
      ],
      "stateMutability": "view",
      "type": "function"
    },
    {
      "inputs": [],
      "name": "owner",
      "outputs": [
        {
          "internalType": "address",
          "name": "",
          "type": "address"
        }
      ],
      "stateMutability": "view",
      "type": "function"
    },
    {
      "inputs": [
        {
          "internalType": "uint256",
          "name": "requestId",
          "type": "uint256"
        },
        {
          "internalType": "uint256[]",
          "name": "randomWords",
          "type": "uint256[]"
        }
      ],
      "name": "rawFulfillRandomWords",
      "outputs": [],
      "stateMutability": "nonpayable",
      "type": "function"
    },
    {
      "inputs": [
        {
          "internalType": "uint32",
          "name": "numWords",
          "type": "uint32"
        }
      ],
      "name": "requestRandomWords",
      "outputs": [
        {
          "internalType": "uint256",
          "name": "requestId",
          "type": "uint256"
        }
      ],
      "stateMutability": "nonpayable",
      "type": "function"
    },
    {
      "inputs": [],
      "name": "s_vrfCoordinator",
      "outputs": [
        {
          "internalType": "contract IVRFCoordinatorV2Plus",
          "name": "",
          "type": "address"
        }
      ],
      "stateMutability": "view",
      "type": "function"
    },
    {
      "inputs": [
        {
          "internalType": "address",
          "name": "_vrfCoordinator",
          "type": "address"
        }
      ],
      "name": "setCoordinator",
      "outputs": [],
      "stateMutability": "nonpayable",
      "type": "function"
    },
    {
      "inputs": [
        {
          "internalType": "address",
          "name": "to",
          "type": "address"
        }
      ],
      "name": "transferOwnership",
      "outputs": [],
      "stateMutability": "nonpayable",
      "type": "function"
    },
    {
      "inputs": [],
      "name": "useChainlink",
      "outputs": [
        {
          "internalType": "bool",
          "name": "",
          "type": "bool"
        }
      ],
      "stateMutability": "view",
      "type": "function"
    }
  ],
  "bytecode": "0x608060405234801561001057600080fd5b506040516123793803806123798339818101604052810190610032919061048f565b82338060008073ffffffffffffffffffffffffffffffffffffffff168273ffffffffffffffffffffffffffffffffffffffff16036100a5576040517f08c379a000000000000000000000000000000000000000000000000000000000815260040161009c90610553565b60405180910390fd5b816000806101000a81548173ffffffffffffffffffffffffffffffffffffffff021916908373ffffffffffffffffffffffffffffffffffffffff160217905550600073ffffffffffffffffffffffffffffffffffffffff168173ffffffffffffffffffffffffffffffffffffffff1614610129576101288161025c60201b60201c565b5b505050600073ffffffffffffffffffffffffffffffffffffffff168173ffffffffffffffffffffffffffffffffffffffff1603610192576040517fd92e233d00000000000000000000000000000000000000000000000000000000815260040160405180910390fd5b80600260006101000a81548173ffffffffffffffffffffffffffffffffffffffff021916908373ffffffffffffffffffffffffffffffffffffffff1602179055505083600960146101000a81548160ff021916908315150217905550600960149054906101000a900460ff16156102535782600960006101000a81548173ffffffffffffffffffffffffffffffffffffffff021916908373ffffffffffffffffffffffffffffffffffffffff16021790555080600381905550816004819055505b505050506105df565b3373ffffffffffffffffffffffffffffffffffffffff168173ffffffffffffffffffffffffffffffffffffffff16036102ca576040517f08c379a00000000000000000000000000000000000000000000000000000000081526004016102c1906105bf565b60405180910390fd5b80600160006101000a81548173ffffffffffffffffffffffffffffffffffffffff021916908373ffffffffffffffffffffffffffffffffffffffff1602179055508073ffffffffffffffffffffffffffffffffffffffff1660008054906101000a900473ffffffffffffffffffffffffffffffffffffffff1673ffffffffffffffffffffffffffffffffffffffff167fed8889f560326eb138920d842192f0eb3dd22b4f139c87a2c57538e05bae127860405160405180910390a350565b600080fd5b60008115159050919050565b6103a28161038d565b81146103ad57600080fd5b50565b6000815190506103bf81610399565b92915050565b600073ffffffffffffffffffffffffffffffffffffffff82169050919050565b60006103f0826103c5565b9050919050565b610400816103e5565b811461040b57600080fd5b50565b60008151905061041d816103f7565b92915050565b6000819050919050565b61043681610423565b811461044157600080fd5b50565b6000815190506104538161042d565b92915050565b6000819050919050565b61046c81610459565b811461047757600080fd5b50565b60008151905061048981610463565b92915050565b600080600080608085870312156104a9576104a8610388565b5b60006104b7878288016103b0565b94505060206104c88782880161040e565b93505060406104d987828801610444565b92505060606104ea8782880161047a565b91505092959194509250565b600082825260208201905092915050565b7f43616e6e6f7420736574206f776e657220746f207a65726f0000000000000000600082015250565b600061053d6018836104f6565b915061054882610507565b602082019050919050565b6000602082019050818103600083015261056c81610530565b9050919050565b7f43616e6e6f74207472616e7366657220746f2073656c66000000000000000000600082015250565b60006105a96017836104f6565b91506105b482610573565b602082019050919050565b600060208201905081810360008301526105d88161059c565b9050919050565b611d8b806105ee6000396000f3fe608060405234801561001057600080fd5b506004361061009e5760003560e01c80638ea98117116100665780638ea98117146101355780639eccacf614610151578063d8a4676f1461016f578063e726f2e1146101a0578063f2fde38b146101d05761009e565b80631fe543e3146100a35780634b3c08f3146100bf57806364fd2170146100ef57806379ba50971461010d5780638da5cb5b14610117575b600080fd5b6100bd60048036038101906100b8919061110c565b6101ec565b005b6100d960048036038101906100d4919061116c565b6102b2565b6040516100e69190611257565b60405180910390f35b6100f761037d565b6040516101049190611294565b60405180910390f35b610115610390565b005b61011f610525565b60405161012c91906112f0565b60405180910390f35b61014f600480360381019061014a9190611337565b61054e565b005b61015961072f565b60405161016691906113c3565b60405180910390f35b6101896004803603810190610184919061116c565b610755565b6040516101979291906113de565b60405180910390f35b6101ba60048036038101906101b5919061144a565b610867565b6040516101c79190611486565b60405180910390f35b6101ea60048036038101906101e59190611337565b610c09565b005b600260009054906101000a900473ffffffffffffffffffffffffffffffffffffffff1673ffffffffffffffffffffffffffffffffffffffff163373ffffffffffffffffffffffffffffffffffffffff16146102a25733600260009054906101000a900473ffffffffffffffffffffffffffffffffffffffff166040517f1cf993f40000000000000000000000000000000000000000000000000000000081526004016102999291906114a1565b60405180910390fd5b6102ad838383610c1d565b505050565b60606007600083815260200190815260200160002060009054906101000a900460ff16610314576040517f08c379a000000000000000000000000000000000000000000000000000000000815260040161030b90611527565b60405180910390fd5b6006600083815260200190815260200160002080548060200260200160405190810160405280929190818152602001828054801561037157602002820191906000526020600020905b81548152602001906001019080831161035d575b50505050509050919050565b600960149054906101000a900460ff1681565b600160009054906101000a900473ffffffffffffffffffffffffffffffffffffffff1673ffffffffffffffffffffffffffffffffffffffff163373ffffffffffffffffffffffffffffffffffffffff1614610420576040517f08c379a000000000000000000000000000000000000000000000000000000000815260040161041790611593565b60405180910390fd5b60008060009054906101000a900473ffffffffffffffffffffffffffffffffffffffff169050336000806101000a81548173ffffffffffffffffffffffffffffffffffffffff021916908373ffffffffffffffffffffffffffffffffffffffff1602179055506000600160006101000a81548173ffffffffffffffffffffffffffffffffffffffff021916908373ffffffffffffffffffffffffffffffffffffffff1602179055503373ffffffffffffffffffffffffffffffffffffffff168173ffffffffffffffffffffffffffffffffffffffff167f8be0079c531659141344cd1fd0a4f28419497f9722a3daafe3b4186f6b6457e060405160405180910390a350565b60008060009054906101000a900473ffffffffffffffffffffffffffffffffffffffff16905090565b610556610525565b73ffffffffffffffffffffffffffffffffffffffff163373ffffffffffffffffffffffffffffffffffffffff16141580156105df5750600260009054906101000a900473ffffffffffffffffffffffffffffffffffffffff1673ffffffffffffffffffffffffffffffffffffffff163373ffffffffffffffffffffffffffffffffffffffff1614155b1561064e57336105ed610525565b600260009054906101000a900473ffffffffffffffffffffffffffffffffffffffff166040517f061db9c1000000000000000000000000000000000000000000000000000000008152600401610645939291906115b3565b60405180910390fd5b600073ffffffffffffffffffffffffffffffffffffffff168173ffffffffffffffffffffffffffffffffffffffff16036106b4576040517fd92e233d00000000000000000000000000000000000000000000000000000000815260040160405180910390fd5b80600260006101000a81548173ffffffffffffffffffffffffffffffffffffffff021916908373ffffffffffffffffffffffffffffffffffffffff1602179055507fd1a6a14209a385a964d036e404cb5cfb71f4000cdb03c9366292430787261be68160405161072491906112f0565b60405180910390a150565b600260009054906101000a900473ffffffffffffffffffffffffffffffffffffffff1681565b6000606060006006600085815260200190815260200160002080549050118061079c57506007600084815260200190815260200160002060009054906101000a900460ff16155b6107db576040517f08c379a00000000000000000000000000000000000000000000000000000000081526004016107d290611636565b60405180910390fd5b6007600084815260200190815260200160002060009054906101000a900460ff1691506006600084815260200190815260200160002080548060200260200160405190810160405280929190818152602001828054801561085b57602002820191906000526020600020905b815481526020019060010190808311610847575b50505050509050915091565b6000600960149054906101000a900460ff1615610a1e57600260009054906101000a900473ffffffffffffffffffffffffffffffffffffffff1673ffffffffffffffffffffffffffffffffffffffff16639b1c385e6040518060c0016040528060045481526020016003548152602001600361ffff168152602001622625a063ffffffff168152602001600163ffffffff168152602001610918604051806020016040528060001515815250610d5c565b8152506040518263ffffffff1660e01b815260040161093791906117b4565b6020604051808303816000875af1158015610956573d6000803e3d6000fd5b505050506040513d601f19601f8201168201806040525081019061097a91906117eb565b9050600067ffffffffffffffff81111561099757610996611818565b5b6040519080825280602002602001820160405280156109c55781602001602082028036833780820191505090505b506006600083815260200190815260200160002090805190602001906109ec929190610fb0565b5060006007600083815260200190815260200160002060006101000a81548160ff021916908315150217905550610bcb565b423360086000815480929190610a3390611876565b91905055604051602001610a4993929190611927565b6040516020818303038152906040528051906020012060001c905060008263ffffffff1667ffffffffffffffff811115610a8657610a85611818565b5b604051908082528060200260200182016040528015610ab45781602001602082028036833780820191505090505b50905060005b8363ffffffff168163ffffffff161015610b3b57600143610adb9190611964565b408382604051602001610af0939291906119ef565b6040516020818303038152906040528051906020012060001c828263ffffffff1681518110610b2257610b21611a2c565b5b6020026020010181815250508080600101915050610aba565b5080600660008481526020019081526020016000209080519060200190610b63929190610fb0565b5060016007600084815260200190815260200160002060006101000a81548160ff0219169083151502179055507ffe2e2d779dba245964d4e3ef9b994be63856fd568bf7d3ca9e224755cb1bd54d8282604051610bc1929190611a5b565b60405180910390a1505b7fcc58b13ad3eab50626c6a6300b1d139cd6ebb1688a7cced9461c2f7e762665ee8183604051610bfc929190611a9a565b60405180910390a1919050565b610c11610df4565b610c1a81610e84565b50565b600960149054906101000a900460ff16610c6c576040517f08c379a0000000000000000000000000000000000000000000000000000000008152600401610c6390611b0f565b60405180910390fd5b6007600084815260200190815260200160002060009054906101000a900460ff1615610ccd576040517f08c379a0000000000000000000000000000000000000000000000000000000008152600401610cc490611b7b565b60405180910390fd5b8181600660008681526020019081526020016000209190610cef929190610ffd565b5060016007600085815260200190815260200160002060006101000a81548160ff0219169083151502179055507ffe2e2d779dba245964d4e3ef9b994be63856fd568bf7d3ca9e224755cb1bd54d838383604051610d4f93929190611c05565b60405180910390a1505050565b60607f92fd13387c7fe7befbc38d303d6468778fb9731bc4583f17d92989c6fcfdeaaa82604051602401610d909190611c62565b604051602081830303815290604052907bffffffffffffffffffffffffffffffffffffffffffffffffffffffff19166020820180517bffffffffffffffffffffffffffffffffffffffffffffffffffffffff83818316178352505050509050919050565b60008054906101000a900473ffffffffffffffffffffffffffffffffffffffff1673ffffffffffffffffffffffffffffffffffffffff163373ffffffffffffffffffffffffffffffffffffffff1614610e82576040517f08c379a0000000000000000000000000000000000000000000000000000000008152600401610e7990611cc9565b60405180910390fd5b565b3373ffffffffffffffffffffffffffffffffffffffff168173ffffffffffffffffffffffffffffffffffffffff1603610ef2576040517f08c379a0000000000000000000000000000000000000000000000000000000008152600401610ee990611d35565b60405180910390fd5b80600160006101000a81548173ffffffffffffffffffffffffffffffffffffffff021916908373ffffffffffffffffffffffffffffffffffffffff1602179055508073ffffffffffffffffffffffffffffffffffffffff1660008054906101000a900473ffffffffffffffffffffffffffffffffffffffff1673ffffffffffffffffffffffffffffffffffffffff167fed8889f560326eb138920d842192f0eb3dd22b4f139c87a2c57538e05bae127860405160405180910390a350565b828054828255906000526020600020908101928215610fec579160200282015b82811115610feb578251825591602001919060010190610fd0565b5b509050610ff9919061104a565b5090565b828054828255906000526020600020908101928215611039579160200282015b8281111561103857823582559160200191906001019061101d565b5b509050611046919061104a565b5090565b5b8082111561106357600081600090555060010161104b565b5090565b600080fd5b600080fd5b6000819050919050565b61108481611071565b811461108f57600080fd5b50565b6000813590506110a18161107b565b92915050565b600080fd5b600080fd5b600080fd5b60008083601f8401126110cc576110cb6110a7565b5b8235905067ffffffffffffffff8111156110e9576110e86110ac565b5b602083019150836020820283011115611105576111046110b1565b5b9250929050565b60008060006040848603121561112557611124611067565b5b600061113386828701611092565b935050602084013567ffffffffffffffff8111156111545761115361106c565b5b611160868287016110b6565b92509250509250925092565b60006020828403121561118257611181611067565b5b600061119084828501611092565b91505092915050565b600081519050919050565b600082825260208201905092915050565b6000819050602082019050919050565b6111ce81611071565b82525050565b60006111e083836111c5565b60208301905092915050565b6000602082019050919050565b600061120482611199565b61120e81856111a4565b9350611219836111b5565b8060005b8381101561124a57815161123188826111d4565b975061123c836111ec565b92505060018101905061121d565b5085935050505092915050565b6000602082019050818103600083015261127181846111f9565b905092915050565b60008115159050919050565b61128e81611279565b82525050565b60006020820190506112a96000830184611285565b92915050565b600073ffffffffffffffffffffffffffffffffffffffff82169050919050565b60006112da826112af565b9050919050565b6112ea816112cf565b82525050565b600060208201905061130560008301846112e1565b92915050565b611314816112cf565b811461131f57600080fd5b50565b6000813590506113318161130b565b92915050565b60006020828403121561134d5761134c611067565b5b600061135b84828501611322565b91505092915050565b6000819050919050565b600061138961138461137f846112af565b611364565b6112af565b9050919050565b600061139b8261136e565b9050919050565b60006113ad82611390565b9050919050565b6113bd816113a2565b82525050565b60006020820190506113d860008301846113b4565b92915050565b60006040820190506113f36000830185611285565b818103602083015261140581846111f9565b90509392505050565b600063ffffffff82169050919050565b6114278161140e565b811461143257600080fd5b50565b6000813590506114448161141e565b92915050565b6000602082840312156114605761145f611067565b5b600061146e84828501611435565b91505092915050565b61148081611071565b82525050565b600060208201905061149b6000830184611477565b92915050565b60006040820190506114b660008301856112e1565b6114c360208301846112e1565b9392505050565b600082825260208201905092915050565b7f52657175657374206e6f742066756c66696c6c65640000000000000000000000600082015250565b60006115116015836114ca565b915061151c826114db565b602082019050919050565b6000602082019050818103600083015261154081611504565b9050919050565b7f4d7573742062652070726f706f736564206f776e657200000000000000000000600082015250565b600061157d6016836114ca565b915061158882611547565b602082019050919050565b600060208201905081810360008301526115ac81611570565b9050919050565b60006060820190506115c860008301866112e1565b6115d560208301856112e1565b6115e260408301846112e1565b949350505050565b7f52657175657374206e6f7420666f756e64000000000000000000000000000000600082015250565b60006116206011836114ca565b915061162b826115ea565b602082019050919050565b6000602082019050818103600083015261164f81611613565b9050919050565b6000819050919050565b61166981611656565b82525050565b600061ffff82169050919050565b6116868161166f565b82525050565b6116958161140e565b82525050565b600081519050919050565b600082825260208201905092915050565b60005b838110156116d55780820151818401526020810190506116ba565b60008484015250505050565b6000601f19601f8301169050919050565b60006116fd8261169b565b61170781856116a6565b93506117178185602086016116b7565b611720816116e1565b840191505092915050565b600060c0830160008301516117436000860182611660565b50602083015161175660208601826111c5565b506040830151611769604086018261167d565b50606083015161177c606086018261168c565b50608083015161178f608086018261168c565b5060a083015184820360a08601526117a782826116f2565b9150508091505092915050565b600060208201905081810360008301526117ce818461172b565b905092915050565b6000815190506117e58161107b565b92915050565b60006020828403121561180157611800611067565b5b600061180f848285016117d6565b91505092915050565b7f4e487b7100000000000000000000000000000000000000000000000000000000600052604160045260246000fd5b7f4e487b7100000000000000000000000000000000000000000000000000000000600052601160045260246000fd5b600061188182611071565b91507fffffffffffffffffffffffffffffffffffffffffffffffffffffffffffffffff82036118b3576118b2611847565b5b600182019050919050565b6000819050919050565b6118d96118d482611071565b6118be565b82525050565b60008160601b9050919050565b60006118f7826118df565b9050919050565b6000611909826118ec565b9050919050565b61192161191c826112cf565b6118fe565b82525050565b600061193382866118c8565b6020820191506119438285611910565b60148201915061195382846118c8565b602082019150819050949350505050565b600061196f82611071565b915061197a83611071565b925082820390508181111561199257611991611847565b5b92915050565b6000819050919050565b6119b36119ae82611656565b611998565b82525050565b60008160e01b9050919050565b60006119d1826119b9565b9050919050565b6119e96119e48261140e565b6119c6565b82525050565b60006119fb82866119a2565b602082019150611a0b82856118c8565b602082019150611a1b82846119d8565b600482019150819050949350505050565b7f4e487b7100000000000000000000000000000000000000000000000000000000600052603260045260246000fd5b6000604082019050611a706000830185611477565b8181036020830152611a8281846111f9565b90509392505050565b611a948161140e565b82525050565b6000604082019050611aaf6000830185611477565b611abc6020830184611a8b565b9392505050565b7f436861696e6c696e6b20565246206973206e6f7420656e61626c656400000000600082015250565b6000611af9601c836114ca565b9150611b0482611ac3565b602082019050919050565b60006020820190508181036000830152611b2881611aec565b9050919050565b7f5265717565737420616c72656164792066756c66696c6c656400000000000000600082015250565b6000611b656019836114ca565b9150611b7082611b2f565b602082019050919050565b60006020820190508181036000830152611b9481611b58565b9050919050565b600080fd5b82818337505050565b6000611bb583856111a4565b93507f07ffffffffffffffffffffffffffffffffffffffffffffffffffffffffffffff831115611be857611be7611b9b565b5b602083029250611bf9838584611ba0565b82840190509392505050565b6000604082019050611c1a6000830186611477565b8181036020830152611c2d818486611ba9565b9050949350505050565b611c4081611279565b82525050565b602082016000820151611c5c6000850182611c37565b50505050565b6000602082019050611c776000830184611c46565b92915050565b7f4f6e6c792063616c6c61626c65206279206f776e657200000000000000000000600082015250565b6000611cb36016836114ca565b9150611cbe82611c7d565b602082019050919050565b60006020820190508181036000830152611ce281611ca6565b9050919050565b7f43616e6e6f74207472616e7366657220746f2073656c66000000000000000000600082015250565b6000611d1f6017836114ca565b9150611d2a82611ce9565b602082019050919050565b60006020820190508181036000830152611d4e81611d12565b905091905056fea264697066735822122065dadab8992eb09070d255a489d243a7964bdff0892079bc2257a35dee1cc1d964736f6c63430008190033",
  "linkReferences": {},
  "deployedLinkReferences": {}
}