{"contracts/coreContract.sol":{"CoreContract":{"abi":[{"inputs":[{"internalType":"address","name":"_tokenAddress","type":"address"},{"internalType":"address","name":"_vrfContractAddress","type":"address"}],"stateMutability":"nonpayable","type":"constructor"},{"anonymous":false,"inputs":[{"indexed":true,"internalType":"uint256","name":"jobId","type":"uint256"}],"name":"DisputeCreated","type":"event"},{"anonymous":false,"inputs":[{"indexed":true,"internalType":"uint256","name":"jobId","type":"uint256"},{"indexed":false,"internalType":"bool","name":"infavorOfNode","type":"bool"}],"name":"DisputeResolved","type":"event"},{"anonymous":false,"inputs":[{"indexed":true,"internalType":"uint256","name":"jobId","type":"uint256"},{"indexed":true,"internalType":"uint256","name":"videoId","type":"uint256"},{"indexed":true,"internalType":"address","name":"requester","type":"address"},{"indexed":false,"internalType":"enum CoreContract.JobType","name":"jobType","type":"uint8"}],"name":"JobCreated","type":"event"},{"anonymous":false,"inputs":[{"indexed":true,"internalType":"uint256","name":"jobId","type":"uint256"},{"indexed":false,"internalType":"string","name":"resultIpfsHash","type":"string"}],"name":"JobResultSubmitted","type":"event"},{"anonymous":false,"inputs":[{"indexed":true,"internalType":"uint256","name":"jobId","type":"uint256"},{"indexed":false,"internalType":"enum CoreContract.JobStatus","name":"newStatus","type":"uint8"}],"name":"JobStatusUpdated","type":"event"},{"anonymous":false,"inputs":[{"indexed":true,"internalType":"uint256","name":"nodeId","type":"uint256"}],"name":"NodeDeactivated","type":"event"},{"anonymous":false,"inputs":[{"indexed":false,"internalType":"uint256","name":"newFee","type":"uint256"}],"name":"NodeFeeUpdated","type":"event"},{"anonymous":false,"inputs":[{"indexed":true,"internalType":"uint256","name":"nodeId","type":"uint256"},{"indexed":true,"internalType":"address","name":"nodeAddress","type":"address"},{"indexed":false,"internalType":"uint256","name":"stake","type":"uint256"},{"indexed":false,"internalType":"bool","name":"isTrusted","type":"bool"}],"name":"NodeRegistered","type":"event"},{"anonymous":false,"inputs":[{"indexed":true,"internalType":"uint256","name":"jobId","type":"uint256"},{"indexed":true,"internalType":"uint256","name":"nodeId","type":"uint256"}],"name":"NodeSelected","type":"event"},{"anonymous":false,"inputs":[{"indexed":true,"internalType":"address","name":"previousOwner","type":"address"},{"indexed":true,"internalType":"address","name":"newOwner","type":"address"}],"name":"OwnershipTransferred","type":"event"},{"anonymous":false,"inputs":[{"indexed":false,"internalType":"uint256","name":"newPrice","type":"uint256"}],"name":"PriceUpdated","type":"event"},{"anonymous":false,"inputs":[{"indexed":true,"internalType":"uint256","name":"jobId","type":"uint256"},{"indexed":true,"internalType":"address","name":"node","type":"address"},{"indexed":false,"internalType":"uint256","name":"amount","type":"uint256"}],"name":"RewardsDistributed","type":"event"},{"anonymous":false,"inputs":[{"indexed":true,"internalType":"address","name":"node","type":"address"},{"indexed":false,"internalType":"uint256","name":"amount","type":"uint256"}],"name":"RewardsWithdrawn","type":"event"},{"anonymous":false,"inputs":[{"indexed":true,"internalType":"uint256","name":"videoId","type":"uint256"},{"indexed":true,"internalType":"address","name":"uploader","type":"address"},{"indexed":false,"internalType":"string","name":"ipfsHash","type":"string"},{"indexed":false,"internalType":"bool","name":"isEncrypted","type":"bool"}],"name":"VideoUploaded","type":"event"},{"inputs":[{"internalType":"uint256","name":"_jobId","type":"uint256"}],"name":"cancelJob","outputs":[],"stateMutability":"nonpayable","type":"function"},{"inputs":[{"internalType":"uint256","name":"_jobId","type":"uint256"}],"name":"createDispute","outputs":[],"stateMutability":"nonpayable","type":"function"},{"inputs":[{"internalType":"uint256","name":"_videoId","type":"uint256"},{"internalType":"enum CoreContract.JobType","name":"_jobType","type":"uint8"}],"name":"createJob","outputs":[{"internalType":"uint256","name":"jobId","type":"uint256"}],"stateMutability":"nonpayable","type":"function"},{"inputs":[{"internalType":"uint256","name":"_nodeId","type":"uint256"}],"name":"deactivateNode","outputs":[],"stateMutability":"nonpayable","type":"function"},{"inputs":[{"internalType":"uint256","name":"","type":"uint256"}],"name":"disputedJobs","outputs":[{"internalType":"uint256","name":"videoId","type":"uint256"},{"internalType":"address","name":"requester","type":"address"},{"internalType":"uint256","name":"nodeId","type":"uint256"},{"internalType":"enum CoreContract.JobStatus","name":"status","type":"uint8"},{"internalType":"enum CoreContract.JobType","name":"jobType","type":"uint8"},{"internalType":"uint256","name":"creationTime","type":"uint256"},{"internalType":"string","name":"resultIpfsHash","type":"string"},{"internalType":"uint256","name":"price","type":"uint256"}],"stateMutability":"view","type":"function"},{"inputs":[{"internalType":"uint256","name":"_jobId","type":"uint256"}],"name":"distributeRewards","outputs":[],"stateMutability":"nonpayable","type":"function"},{"inputs":[{"internalType":"uint256","name":"_jobId","type":"uint256"}],"name":"fulfillRandomness","outputs":[],"stateMutability":"nonpayable","type":"function"},{"inputs":[{"internalType":"uint256","name":"_jobId","type":"uint256"}],"name":"getJobDetails","outputs":[{"components":[{"internalType":"uint256","name":"videoId","type":"uint256"},{"internalType":"address","name":"requester","type":"address"},{"internalType":"uint256","name":"nodeId","type":"uint256"},{"internalType":"enum CoreContract.JobStatus","name":"status","type":"uint8"},{"internalType":"enum CoreContract.JobType","name":"jobType","type":"uint8"},{"internalType":"uint256","name":"creationTime","type":"uint256"},{"internalType":"string","name":"resultIpfsHash","type":"string"},{"internalType":"uint256","name":"price","type":"uint256"}],"internalType":"struct CoreContract.CaptioningJob","name":"","type":"tuple"}],"stateMutability":"view","type":"function"},{"inputs":[{"internalType":"uint256","name":"_jobId","type":"uint256"}],"name":"getJobStatus","outputs":[{"internalType":"enum CoreContract.JobStatus","name":"","type":"uint8"}],"stateMutability":"view","type":"function"},{"inputs":[{"internalType":"uint256","name":"_nodeId","type":"uint256"}],"name":"getNodeDetails","outputs":[{"internalType":"address","name":"nodeAddress","type":"address"},{"internalType":"uint256","name":"stake","type":"uint256"},{"internalType":"bool","name":"isActive","type":"bool"},{"internalType":"bool","name":"isTrusted","type":"bool"},{"internalType":"uint256","name":"totalJobsCompleted","type":"uint256"},{"internalType":"uint256","name":"reputation","type":"uint256"}],"stateMutability":"view","type":"function"},{"inputs":[{"internalType":"uint256","name":"_nodeId","type":"uint256"}],"name":"getNodeJobs","outputs":[{"internalType":"uint256[]","name":"","type":"uint256[]"}],"stateMutability":"view","type":"function"},{"inputs":[{"internalType":"address","name":"_user","type":"address"}],"name":"getUserJobs","outputs":[{"internalType":"uint256[]","name":"","type":"uint256[]"}],"stateMutability":"view","type":"function"},{"inputs":[{"internalType":"uint256","name":"_videoId","type":"uint256"}],"name":"getVideoDetails","outputs":[{"internalType":"string","name":"ipfsHash","type":"string"},{"internalType":"uint256","name":"duration","type":"uint256"},{"internalType":"address","name":"uploader","type":"address"},{"internalType":"bool","name":"isEncrypted","type":"bool"}],"stateMutability":"view","type":"function"},{"inputs":[],"name":"getplatformStats","outputs":[{"internalType":"uint256","name":"totalVideos","type":"uint256"},{"internalType":"uint256","name":"totalJobs","type":"uint256"},{"internalType":"uint256","name":"totalNodes","type":"uint256"}],"stateMutability":"view","type":"function"},{"inputs":[{"internalType":"uint256","name":"_jobId","type":"uint256"},{"internalType":"bool","name":"_infavour","type":"bool"}],"name":"handleDispute","outputs":[],"stateMutability":"nonpayable","type":"function"},{"inputs":[],"name":"jobPrice","outputs":[{"internalType":"uint256","name":"","type":"uint256"}],"stateMutability":"view","type":"function"},{"inputs":[{"internalType":"uint256","name":"","type":"uint256"}],"name":"jobs","outputs":[{"internalType":"uint256","name":"videoId","type":"uint256"},{"internalType":"address","name":"requester","type":"address"},{"internalType":"uint256","name":"nodeId","type":"uint256"},{"internalType":"enum CoreContract.JobStatus","name":"status","type":"uint8"},{"internalType":"enum CoreContract.JobType","name":"jobType","type":"uint8"},{"internalType":"uint256","name":"creationTime","type":"uint256"},{"internalType":"string","name":"resultIpfsHash","type":"string"},{"internalType":"uint256","name":"price","type":"uint256"}],"stateMutability":"view","type":"function"},{"inputs":[],"name":"minStake","outputs":[{"internalType":"uint256","name":"","type":"uint256"}],"stateMutability":"view","type":"function"},{"inputs":[],"name":"nextJobId","outputs":[{"internalType":"uint256","name":"","type":"uint256"}],"stateMutability":"view","type":"function"},{"inputs":[],"name":"nextNodeId","outputs":[{"internalType":"uint256","name":"","type":"uint256"}],"stateMutability":"view","type":"function"},{"inputs":[],"name":"nextVideoId","outputs":[{"internalType":"uint256","name":"","type":"uint256"}],"stateMutability":"view","type":"function"},{"inputs":[],"name":"nodeFee","outputs":[{"internalType":"uint256","name":"","type":"uint256"}],"stateMutability":"view","type":"function"},{"inputs":[{"internalType":"uint256","name":"","type":"uint256"}],"name":"nodeIds","outputs":[{"internalType":"uint256","name":"","type":"uint256"}],"stateMutability":"view","type":"function"},{"inputs":[{"internalType":"uint256","name":"","type":"uint256"},{"internalType":"uint256","name":"","type":"uint256"}],"name":"nodeJobs","outputs":[{"internalType":"uint256","name":"","type":"uint256"}],"stateMutability":"view","type":"function"},{"inputs":[{"internalType":"uint256","name":"","type":"uint256"}],"name":"nodes","outputs":[{"internalType":"address","name":"nodeAddress","type":"address"},{"internalType":"uint256","name":"stake","type":"uint256"},{"internalType":"bool","name":"isActive","type":"bool"},{"internalType":"bool","name":"isTrusted","type":"bool"},{"internalType":"uint256","name":"totalJobsCompleted","type":"uint256"},{"internalType":"uint256","name":"reputation","type":"uint256"}],"stateMutability":"view","type":"function"},{"inputs":[{"internalType":"address","name":"","type":"address"}],"name":"nodesThroughAddress","outputs":[{"internalType":"uint256","name":"","type":"uint256"}],"stateMutability":"view","type":"function"},{"inputs":[],"name":"owner","outputs":[{"internalType":"address","name":"","type":"address"}],"stateMutability":"view","type":"function"},{"inputs":[{"internalType":"address","name":"","type":"address"}],"name":"pendingRewards","outputs":[{"internalType":"uint256","name":"","type":"uint256"}],"stateMutability":"view","type":"function"},{"inputs":[],"name":"registerNode","outputs":[{"internalType":"uint256","name":"nodeId","type":"uint256"}],"stateMutability":"payable","type":"function"},{"inputs":[],"name":"renounceOwnership","outputs":[],"stateMutability":"nonpayable","type":"function"},{"inputs":[{"internalType":"uint256","name":"_nodeId","type":"uint256"},{"internalType":"bool","name":"_isTrusted","type":"bool"}],"name":"setTrustedNode","outputs":[],"stateMutability":"nonpayable","type":"function"},{"inputs":[{"internalType":"uint256","name":"_jobId","type":"uint256"},{"internalType":"string","name":"_resultIpfsHash","type":"string"}],"name":"submitJobResult","outputs":[],"stateMutability":"nonpayable","type":"function"},{"inputs":[],"name":"tokenContract","outputs":[{"internalType":"contract IERC20","name":"","type":"address"}],"stateMutability":"view","type":"function"},{"inputs":[],"name":"totalStaked","outputs":[{"internalType":"uint256","name":"","type":"uint256"}],"stateMutability":"view","type":"function"},{"inputs":[{"internalType":"address","name":"newOwner","type":"address"}],"name":"transferOwnership","outputs":[],"stateMutability":"nonpayable","type":"function"},{"inputs":[{"internalType":"uint256","name":"_newPrice","type":"uint256"}],"name":"updateJobPrice","outputs":[],"stateMutability":"nonpayable","type":"function"},{"inputs":[{"internalType":"uint256","name":"_newFee","type":"uint256"}],"name":"updateNodeFee","outputs":[],"stateMutability":"nonpayable","type":"function"},{"inputs":[{"internalType":"string","name":"_ipfsHash","type":"string"},{"internalType":"uint256","name":"_duration","type":"uint256"},{"internalType":"bool","name":"_isEncrypted","type":"bool"}],"name":"uploadVideo","outputs":[{"internalType":"uint256","name":"videoId","type":"uint256"}],"stateMutability":"nonpayable","type":"function"},{"inputs":[{"internalType":"address","name":"","type":"address"},{"internalType":"uint256","name":"","type":"uint256"}],"name":"userJobs","outputs":[{"internalType":"uint256","name":"","type":"uint256"}],"stateMutability":"view","type":"function"},{"inputs":[{"internalType":"uint256","name":"","type":"uint256"}],"name":"videos","outputs":[{"internalType":"string","name":"ipfsHash","type":"string"},{"internalType":"uint256","name":"duration","type":"uint256"},{"internalType":"address","name":"uploader","type":"address"},{"internalType":"uint256","name":"uploadTime","type":"uint256"},{"internalType":"bool","name":"isEncrypted","type":"bool"}],"stateMutability":"view","type":"function"},{"inputs":[],"name":"vrfContract","outputs":[{"internalType":"contract IVRF","name":"","type":"address"}],"stateMutability":"view","type":"function"},{"inputs":[],"name":"withdrawRewards","outputs":[{"internalType":"uint256","name":"amount","type":"uint256"}],"stateMutability":"nonpayable","type":"function"}],"evm":{"bytecode":{"linkReferences":{},"object":"60c060405234801561001057600080fd5b50604051615a06380380615a0683398181016040528101906100329190610238565b600160008190555061005661004b61010760201b60201c565b61010f60201b60201c565b80600360006101000a81548173ffffffffffffffffffffffffffffffffffffffff021916908373ffffffffffffffffffffffffffffffffffffffff16021790555081600260006101000a81548173ffffffffffffffffffffffffffffffffffffffff021916908373ffffffffffffffffffffffffffffffffffffffff16021790555068056bc75e2d631000006007819055506050600881905550683635c9adc5dea00000600a819055505050610278565b600033905090565b6000600160009054906101000a900473ffffffffffffffffffffffffffffffffffffffff16905081600160006101000a81548173ffffffffffffffffffffffffffffffffffffffff021916908373ffffffffffffffffffffffffffffffffffffffff1602179055508173ffffffffffffffffffffffffffffffffffffffff168173ffffffffffffffffffffffffffffffffffffffff167f8be0079c531659141344cd1fd0a4f28419497f9722a3daafe3b4186f6b6457e060405160405180910390a35050565b600080fd5b600073ffffffffffffffffffffffffffffffffffffffff82169050919050565b6000610205826101da565b9050919050565b610215816101fa565b811461022057600080fd5b50565b6000815190506102328161020c565b92915050565b6000806040838503121561024f5761024e6101d5565b5b600061025d85828601610223565b925050602061026e85828601610223565b9150509250929050565b60805160a05161576f610297600039600050506000505061576f6000f3fe6080604052600436106102515760003560e01c8063670fed3911610139578063a6c58b63116100b6578063c7b8981c1161007a578063c7b8981c1461096e578063e232208514610999578063e6821bf5146109c2578063e9d6383014610a03578063f2fde38b14610a2c578063f416253014610a5557610251565b8063a6c58b631461084c578063ab1a5cb714610889578063b0c2aa5e146108c9578063b9d03a2a146108f4578063c17ff9d21461093157610251565b80638da5cb5b116100fd5780638da5cb5b146107535780638f21bfe91461077e578063909d5ce6146107a757806398543166146107e4578063a062ab2b1461082157610251565b8063670fed39146106805780636858a3f3146106bd5780636cbc2a22146106e8578063715018a614610711578063817b1cd21461072857610251565b806331d7a262116101d25780634cac35c6116101965780634cac35c614610555578063556a61211461059257806355a373d6146105bd57806359974e38146105e85780635afbba4714610611578063645e013c1461065357610251565b806331d7a2621461045e578063375b3c0a1461049b5780633fa7276c146104c6578063495bd94e146105035780634ac8a5291461052c57610251565b80631d69de07116102195780631d69de07146103605780631dffa3dc1461039d57806320eca391146103c65780632f704cb5146103f1578063315cf0c61461043557610251565b80630978f39d146102565780631137f1601461027f5780631680b35c146102bc578063180aedf3146102da5780631c53c2801461031e575b600080fd5b34801561026257600080fd5b5061027d60048036038101906102789190613a26565b610a80565b005b34801561028b57600080fd5b506102a660048036038101906102a19190613a66565b610aba565b6040516102b39190613ab5565b60405180910390f35b6102c4610aeb565b6040516102d19190613ab5565b60405180910390f35b3480156102e657600080fd5b5061030160048036038101906102fc9190613ad0565b610eb8565b604051610315989796959493929190613c8d565b60405180910390f35b34801561032a57600080fd5b5061034560048036038101906103409190613ad0565b610fc2565b60405161035796959493929190613d21565b60405180910390f35b34801561036c57600080fd5b5061038760048036038101906103829190613de7565b611038565b6040516103949190613ab5565b60405180910390f35b3480156103a957600080fd5b506103c460048036038101906103bf9190613ad0565b6111d8565b005b3480156103d257600080fd5b506103db611456565b6040516103e89190613ab5565b60405180910390f35b3480156103fd57600080fd5b5061041860048036038101906104139190613ad0565b61145c565b60405161042c989796959493929190613c8d565b60405180910390f35b34801561044157600080fd5b5061045c60048036038101906104579190613ad0565b611566565b005b34801561046a57600080fd5b5061048560048036038101906104809190613e87565b6115f3565b6040516104929190613ab5565b60405180910390f35b3480156104a757600080fd5b506104b061160b565b6040516104bd9190613ab5565b60405180910390f35b3480156104d257600080fd5b506104ed60048036038101906104e89190613e87565b611611565b6040516104fa9190613f72565b60405180910390f35b34801561050f57600080fd5b5061052a60048036038101906105259190613ad0565b6116a8565b005b34801561053857600080fd5b50610553600480360381019061054e9190613ad0565b6119bb565b005b34801561056157600080fd5b5061057c60048036038101906105779190613ad0565b611bb0565b60405161058991906140bb565b60405180910390f35b34801561059e57600080fd5b506105a7611d64565b6040516105b49190613ab5565b60405180910390f35b3480156105c957600080fd5b506105d2611d6a565b6040516105df919061413c565b60405180910390f35b3480156105f457600080fd5b5061060f600480360381019061060a9190613ad0565b611d90565b005b34801561061d57600080fd5b5061063860048036038101906106339190613ad0565b611f6f565b60405161064a96959493929190613d21565b60405180910390f35b34801561065f57600080fd5b50610668612078565b60405161067793929190614157565b60405180910390f35b34801561068c57600080fd5b506106a760048036038101906106a29190613e87565b612091565b6040516106b49190613ab5565b60405180910390f35b3480156106c957600080fd5b506106d26120a9565b6040516106df91906141af565b60405180910390f35b3480156106f457600080fd5b5061070f600480360381019061070a9190613ad0565b6120cf565b005b34801561071d57600080fd5b50610726612118565b005b34801561073457600080fd5b5061073d61212c565b60405161074a9190613ab5565b60405180910390f35b34801561075f57600080fd5b50610768612132565b60405161077591906141ca565b60405180910390f35b34801561078a57600080fd5b506107a560048036038101906107a09190613a26565b61215c565b005b3480156107b357600080fd5b506107ce60048036038101906107c99190613ad0565b612400565b6040516107db9190613f72565b60405180910390f35b3480156107f057600080fd5b5061080b60048036038101906108069190613ad0565b61246b565b6040516108189190613ab5565b60405180910390f35b34801561082d57600080fd5b5061083661248f565b6040516108439190613ab5565b60405180910390f35b34801561085857600080fd5b50610873600480360381019061086e9190613ad0565b612495565b60405161088091906141e5565b60405180910390f35b34801561089557600080fd5b506108b060048036038101906108ab9190613ad0565b6124c2565b6040516108c09493929190614200565b60405180910390f35b3480156108d557600080fd5b506108de612625565b6040516108eb9190613ab5565b60405180910390f35b34801561090057600080fd5b5061091b60048036038101906109169190614271565b61262b565b6040516109289190613ab5565b60405180910390f35b34801561093d57600080fd5b50610958600480360381019061095391906142b1565b612a09565b6040516109659190613ab5565b60405180910390f35b34801561097a57600080fd5b50610983612a3a565b6040516109909190613ab5565b60405180910390f35b3480156109a557600080fd5b506109c060048036038101906109bb91906142f1565b612c46565b005b3480156109ce57600080fd5b506109e960048036038101906109e49190613ad0565b612e67565b6040516109fa959493929190614351565b60405180910390f35b348015610a0f57600080fd5b50610a2a6004803603810190610a259190613ad0565b612f52565b005b348015610a3857600080fd5b50610a536004803603810190610a4e9190613e87565b613192565b005b348015610a6157600080fd5b50610a6a613215565b604051610a779190613ab5565b60405180910390f35b610a8861321b565b80600e600084815260200190815260200160002060020160016101000a81548160ff0219169083151502179055505050565b60126020528160005260406000208181548110610ad657600080fd5b90600052602060002001600091509150505481565b6000600a54341015610b32576040517f08c379a0000000000000000000000000000000000000000000000000000000008152600401610b29906143f7565b60405180910390fd5b60001515600e6000600f60003373ffffffffffffffffffffffffffffffffffffffff1673ffffffffffffffffffffffffffffffffffffffff16815260200190815260200160002054815260200190815260200160002060020160009054906101000a900460ff16151514610bdb576040517f08c379a0000000000000000000000000000000000000000000000000000000008152600401610bd290614463565b60405180910390fd5b600260009054906101000a900473ffffffffffffffffffffffffffffffffffffffff1673ffffffffffffffffffffffffffffffffffffffff166323b872dd3330600a546040518463ffffffff1660e01b8152600401610c3c93929190614483565b6020604051808303816000875af1158015610c5b573d6000803e3d6000fd5b505050506040513d601f19601f82011682018060405250810190610c7f91906144cf565b610cbe576040517f08c379a0000000000000000000000000000000000000000000000000000000008152600401610cb590614548565b60405180910390fd5b60066000815480929190610cd190614597565b919050559050600b8190806001815401808255809150506001900390600052602060002001600090919091909150556040518060c001604052803373ffffffffffffffffffffffffffffffffffffffff168152602001348152602001600115158152602001600015158152602001600081526020016000815250600e600083815260200190815260200160002060008201518160000160006101000a81548173ffffffffffffffffffffffffffffffffffffffff021916908373ffffffffffffffffffffffffffffffffffffffff1602179055506020820151816001015560408201518160020160006101000a81548160ff02191690831515021790555060608201518160020160016101000a81548160ff0219169083151502179055506080820151816003015560a0820151816004015590505080600f60003373ffffffffffffffffffffffffffffffffffffffff1673ffffffffffffffffffffffffffffffffffffffff168152602001908152602001600020819055503460096000828254610e5c91906145df565b925050819055503373ffffffffffffffffffffffffffffffffffffffff16817ff0a3714a86f16e40832d97fcbc7f9fbb87e01231324496aad3f7d01ac3d283ba346000604051610ead929190614613565b60405180910390a390565b600d6020528060005260406000206000915090508060000154908060010160009054906101000a900473ffffffffffffffffffffffffffffffffffffffff16908060020154908060030160009054906101000a900460ff16908060030160019054906101000a900460ff1690806004015490806005018054610f399061466b565b80601f0160208091040260200160405190810160405280929190818152602001828054610f659061466b565b8015610fb25780601f10610f8757610100808354040283529160200191610fb2565b820191906000526020600020905b815481529060010190602001808311610f9557829003601f168201915b5050505050908060060154905088565b600e6020528060005260406000206000915090508060000160009054906101000a900473ffffffffffffffffffffffffffffffffffffffff16908060010154908060020160009054906101000a900460ff16908060020160019054906101000a900460ff16908060030154908060040154905086565b60006004600081548092919061104d90614597565b9190505590506040518060a0016040528086868080601f016020809104026020016040519081016040528093929190818152602001838380828437600081840152601f19601f8201169050808301925050505050505081526020018481526020013373ffffffffffffffffffffffffffffffffffffffff168152602001428152602001831515815250600c600083815260200190815260200160002060008201518160000190816110fe919061486d565b506020820151816001015560408201518160020160006101000a81548173ffffffffffffffffffffffffffffffffffffffff021916908373ffffffffffffffffffffffffffffffffffffffff1602179055506060820151816003015560808201518160040160006101000a81548160ff0219169083151502179055509050503373ffffffffffffffffffffffffffffffffffffffff16817ff459891c2199663acd138b6611495d64c2f522c1e679f4a267755319dc051ffb8787866040516111c89392919061497b565b60405180910390a3949350505050565b6111e0613299565b6000600d600083815260200190815260200160002090508060010160009054906101000a900473ffffffffffffffffffffffffffffffffffffffff1673ffffffffffffffffffffffffffffffffffffffff163373ffffffffffffffffffffffffffffffffffffffff1614611289576040517f08c379a0000000000000000000000000000000000000000000000000000000008152600401611280906149f9565b60405180910390fd5b6000600381111561129d5761129c613b3e565b5b8160030160009054906101000a900460ff1660038111156112c1576112c0613b3e565b5b14611301576040517f08c379a00000000000000000000000000000000000000000000000000000000081526004016112f890614a65565b60405180910390fd5b60038160030160006101000a81548160ff0219169083600381111561132957611328613b3e565b5b0217905550600260009054906101000a900473ffffffffffffffffffffffffffffffffffffffff1673ffffffffffffffffffffffffffffffffffffffff1663a9059cbb3383600601546040518363ffffffff1660e01b815260040161138f929190614a85565b6020604051808303816000875af11580156113ae573d6000803e3d6000fd5b505050506040513d601f19601f820116820180604052508101906113d291906144cf565b611411576040517f08c379a000000000000000000000000000000000000000000000000000000000815260040161140890614afa565b60405180910390fd5b817f11b03c284cc2f2f20a0797445fdd3b96339380cd6fbb5a0bf34ba9afa7d70271600360405161144291906141e5565b60405180910390a2506114536132e8565b50565b60065481565b60146020528060005260406000206000915090508060000154908060010160009054906101000a900473ffffffffffffffffffffffffffffffffffffffff16908060020154908060030160009054906101000a900460ff16908060030160019054906101000a900460ff16908060040154908060050180546114dd9061466b565b80601f01602080910402602001604051908101604052809291908181526020018280546115099061466b565b80156115565780601f1061152b57610100808354040283529160200191611556565b820191906000526020600020905b81548152906001019060200180831161153957829003601f168201915b5050505050908060060154905088565b61156e61321b565b60648111156115b2576040517f08c379a00000000000000000000000000000000000000000000000000000000081526004016115a990614b66565b60405180910390fd5b806008819055507f655013895c0fb569cd19e94baa5678a65018a104fa01cc5ed169eb77a3abdeb3816040516115e89190613ab5565b60405180910390a150565b60106020528060005260406000206000915090505481565b600a5481565b6060601160008373ffffffffffffffffffffffffffffffffffffffff1673ffffffffffffffffffffffffffffffffffffffff16815260200190815260200160002080548060200260200160405190810160405280929190818152602001828054801561169c57602002820191906000526020600020905b815481526020019060010190808311611688575b50505050509050919050565b600060136000838152602001908152602001600020549050600080600360009054906101000a900473ffffffffffffffffffffffffffffffffffffffff1673ffffffffffffffffffffffffffffffffffffffff1663d8a4676f846040518263ffffffff1660e01b815260040161171e9190613ab5565b600060405180830381865afa15801561173b573d6000803e3d6000fd5b505050506040513d6000823e3d601f19601f820116820180604052508101906117649190614caa565b91509150816117a8576040517f08c379a000000000000000000000000000000000000000000000000000000000815260040161179f90614d52565b60405180910390fd5b600160038111156117bc576117bb613b3e565b5b600d600086815260200190815260200160002060030160009054906101000a900460ff1660038111156117f2576117f1613b3e565b5b14611832576040517f08c379a000000000000000000000000000000000000000000000000000000000815260040161182990614dbe565b60405180910390fd5b60006009548260008151811061184b5761184a614dde565b5b602002602001015161185d9190614e3c565b9050600061186a826132f2565b9050600f6000826000015173ffffffffffffffffffffffffffffffffffffffff1673ffffffffffffffffffffffffffffffffffffffff16815260200190815260200160002054600d6000888152602001908152602001600020600201819055506002600d600088815260200190815260200160002060030160006101000a81548160ff0219169083600381111561190457611903613b3e565b5b0217905550857f11b03c284cc2f2f20a0797445fdd3b96339380cd6fbb5a0bf34ba9afa7d70271600160405161193a91906141e5565b60405180910390a2600f6000826000015173ffffffffffffffffffffffffffffffffffffffff1673ffffffffffffffffffffffffffffffffffffffff16815260200190815260200160002054867f4b8a5d57e97af561befa88fa50f03d0e54eda0aabb3b7b71f442453f78ad92d060405160405180910390a3505050505050565b6000600d60008381526020019081526020016000209050600260038111156119e6576119e5613b3e565b5b8160030160009054906101000a900460ff166003811115611a0a57611a09613b3e565b5b14611a4a576040517f08c379a0000000000000000000000000000000000000000000000000000000008152600401611a4190614eb9565b60405180910390fd5b8060146000848152602001908152602001600020600082015481600001556001820160009054906101000a900473ffffffffffffffffffffffffffffffffffffffff168160010160006101000a81548173ffffffffffffffffffffffffffffffffffffffff021916908373ffffffffffffffffffffffffffffffffffffffff160217905550600282015481600201556003820160009054906101000a900460ff168160030160006101000a81548160ff02191690836003811115611b1157611b10613b3e565b5b02179055506003820160019054906101000a900460ff168160030160016101000a81548160ff02191690836001811115611b4e57611b4d613b3e565b5b02179055506004820154816004015560058201816005019081611b719190614eef565b5060068201548160060155905050817fbe50084412c1b5b360c595d895466a9298980a464614ce7fd487fb4c7421f42660405160405180910390a25050565b611bb8613878565b600d600083815260200190815260200160002060405180610100016040529081600082015481526020016001820160009054906101000a900473ffffffffffffffffffffffffffffffffffffffff1673ffffffffffffffffffffffffffffffffffffffff1673ffffffffffffffffffffffffffffffffffffffff168152602001600282015481526020016003820160009054906101000a900460ff166003811115611c6657611c65613b3e565b5b6003811115611c7857611c77613b3e565b5b81526020016003820160019054906101000a900460ff166001811115611ca157611ca0613b3e565b5b6001811115611cb357611cb2613b3e565b5b815260200160048201548152602001600582018054611cd19061466b565b80601f0160208091040260200160405190810160405280929190818152602001828054611cfd9061466b565b8015611d4a5780601f10611d1f57610100808354040283529160200191611d4a565b820191906000526020600020905b815481529060010190602001808311611d2d57829003601f168201915b505050505081526020016006820154815250509050919050565b60075481565b600260009054906101000a900473ffffffffffffffffffffffffffffffffffffffff1681565b611d98613299565b6000600d6000838152602001908152602001600020905060026003811115611dc357611dc2613b3e565b5b8160030160009054906101000a900460ff166003811115611de757611de6613b3e565b5b14611e27576040517f08c379a0000000000000000000000000000000000000000000000000000000008152600401611e1e90614eb9565b60405180910390fd5b600060646008548360060154611e3d9190614fd7565b611e479190615019565b90508060106000600e60008660020154815260200190815260200160002060000160009054906101000a900473ffffffffffffffffffffffffffffffffffffffff1673ffffffffffffffffffffffffffffffffffffffff1673ffffffffffffffffffffffffffffffffffffffff1681526020019081526020016000206000828254611ed291906145df565b92505081905550600e60008360020154815260200190815260200160002060000160009054906101000a900473ffffffffffffffffffffffffffffffffffffffff1673ffffffffffffffffffffffffffffffffffffffff16837f4cbfa67f54cf0255619787991cb52aa46c0d3ee5cfabb0abf659f2b310f4748583604051611f5a9190613ab5565b60405180910390a35050611f6c6132e8565b50565b6000806000806000806000600e60008981526020019081526020016000206040518060c00160405290816000820160009054906101000a900473ffffffffffffffffffffffffffffffffffffffff1673ffffffffffffffffffffffffffffffffffffffff1673ffffffffffffffffffffffffffffffffffffffff168152602001600182015481526020016002820160009054906101000a900460ff161515151581526020016002820160019054906101000a900460ff16151515158152602001600382015481526020016004820154815250509050806000015181602001518260400151836060015184608001518560a001519650965096509650965096505091939550919395565b6000806000600454600554600654925092509250909192565b600f6020528060005260406000206000915090505481565b600360009054906101000a900473ffffffffffffffffffffffffffffffffffffffff1681565b6120d761321b565b806007819055507f66cbca4f3c64fecf1dcb9ce094abcf7f68c3450a1d4e3a8e917dd621edb4ebe08160405161210d9190613ab5565b60405180910390a150565b61212061321b565b61212a60006134ed565b565b60095481565b6000600160009054906101000a900473ffffffffffffffffffffffffffffffffffffffff16905090565b61216461321b565b6000600d600084815260200190815260200160002090506002600381111561218f5761218e613b3e565b5b8160030160009054906101000a900460ff1660038111156121b3576121b2613b3e565b5b146121f3576040517f08c379a00000000000000000000000000000000000000000000000000000000081526004016121ea90614eb9565b60405180910390fd5b60008290508061232d57600e60008360020154815260200190815260200160002060040160008154809291906122289061504a565b9190505550600260009054906101000a900473ffffffffffffffffffffffffffffffffffffffff1673ffffffffffffffffffffffffffffffffffffffff166323b872dd600e60008560020154815260200190815260200160002060000160009054906101000a900473ffffffffffffffffffffffffffffffffffffffff1630600e600087600201548152602001908152602001600020600101546040518463ffffffff1660e01b81526004016122e093929190614483565b6020604051808303816000875af11580156122ff573d6000803e3d6000fd5b505050506040513d601f19601f8201168201806040525081019061232391906144cf565b61232c57600080fd5b5b601460008581526020019081526020016000206000808201600090556001820160006101000a81549073ffffffffffffffffffffffffffffffffffffffff021916905560028201600090556003820160006101000a81549060ff02191690556003820160016101000a81549060ff021916905560048201600090556005820160006123b891906138f7565b60068201600090555050837f5a87909bff68caaaaf0b3fd9c74eeccc928832f879315e5c6fb7a73612f26c0c826040516123f29190615073565b60405180910390a250505050565b60606012600083815260200190815260200160002080548060200260200160405190810160405280929190818152602001828054801561245f57602002820191906000526020600020905b81548152602001906001019080831161244b575b50505050509050919050565b600b818154811061247b57600080fd5b906000526020600020016000915090505481565b60045481565b6000600d600083815260200190815260200160002060030160009054906101000a900460ff169050919050565b6060600080600080600c60008781526020019081526020016000206040518060a00160405290816000820180546124f89061466b565b80601f01602080910402602001604051908101604052809291908181526020018280546125249061466b565b80156125715780601f1061254657610100808354040283529160200191612571565b820191906000526020600020905b81548152906001019060200180831161255457829003601f168201915b50505050508152602001600182015481526020016002820160009054906101000a900473ffffffffffffffffffffffffffffffffffffffff1673ffffffffffffffffffffffffffffffffffffffff1673ffffffffffffffffffffffffffffffffffffffff168152602001600382015481526020016004820160009054906101000a900460ff161515151581525050905080600001518160200151826040015183608001519450945094509450509193509193565b60055481565b6000612635613299565b600260009054906101000a900473ffffffffffffffffffffffffffffffffffffffff1673ffffffffffffffffffffffffffffffffffffffff166323b872dd33306007546040518463ffffffff1660e01b815260040161269693929190614483565b6020604051808303816000875af11580156126b5573d6000803e3d6000fd5b505050506040513d601f19601f820116820180604052508101906126d991906144cf565b612718576040517f08c379a000000000000000000000000000000000000000000000000000000000815260040161270f906150da565b60405180910390fd5b6005600081548092919061272b90614597565b9190505590506040518061010001604052808481526020013373ffffffffffffffffffffffffffffffffffffffff168152602001600081526020016000600381111561277a57612779613b3e565b5b815260200183600181111561279257612791613b3e565b5b8152602001428152602001604051806020016040528060008152508152602001600754815250600d60008381526020019081526020016000206000820151816000015560208201518160010160006101000a81548173ffffffffffffffffffffffffffffffffffffffff021916908373ffffffffffffffffffffffffffffffffffffffff1602179055506040820151816002015560608201518160030160006101000a81548160ff0219169083600381111561285157612850613b3e565b5b021790555060808201518160030160016101000a81548160ff0219169083600181111561288157612880613b3e565b5b021790555060a0820151816004015560c08201518160050190816128a5919061486d565b5060e08201518160060155905050601160003373ffffffffffffffffffffffffffffffffffffffff1673ffffffffffffffffffffffffffffffffffffffff1681526020019081526020016000208190806001815401808255809150506001900390600052602060002001600090919091909150553373ffffffffffffffffffffffffffffffffffffffff1683827f1ccfbaf950885ccc2d47e4f1bd3a4fb1beab6c905410a090d1b265ecdae44b7e8560405161296191906150fa565b60405180910390a4612972816135b3565b807f11b03c284cc2f2f20a0797445fdd3b96339380cd6fbb5a0bf34ba9afa7d7027160016040516129a391906141e5565b60405180910390a23373ffffffffffffffffffffffffffffffffffffffff1683827f1ccfbaf950885ccc2d47e4f1bd3a4fb1beab6c905410a090d1b265ecdae44b7e856040516129f391906150fa565b60405180910390a4612a036132e8565b92915050565b60116020528160005260406000208181548110612a2557600080fd5b90600052602060002001600091509150505481565b6000612a44613299565b601060003373ffffffffffffffffffffffffffffffffffffffff1673ffffffffffffffffffffffffffffffffffffffff16815260200190815260200160002054905060008111612ac9576040517f08c379a0000000000000000000000000000000000000000000000000000000008152600401612ac090615161565b60405180910390fd5b6000601060003373ffffffffffffffffffffffffffffffffffffffff1673ffffffffffffffffffffffffffffffffffffffff16815260200190815260200160002081905550600260009054906101000a900473ffffffffffffffffffffffffffffffffffffffff1673ffffffffffffffffffffffffffffffffffffffff1663a9059cbb33836040518363ffffffff1660e01b8152600401612b6b929190614a85565b6020604051808303816000875af1158015612b8a573d6000803e3d6000fd5b505050506040513d601f19601f82011682018060405250810190612bae91906144cf565b612bed576040517f08c379a0000000000000000000000000000000000000000000000000000000008152600401612be4906151cd565b60405180910390fd5b3373ffffffffffffffffffffffffffffffffffffffff167f8a43c4352486ec339f487f64af78ca5cbf06cd47833f073d3baf3a193e50316182604051612c339190613ab5565b60405180910390a2612c436132e8565b90565b6000600d600085815260200190815260200160002090503373ffffffffffffffffffffffffffffffffffffffff16600e60008360020154815260200190815260200160002060000160009054906101000a900473ffffffffffffffffffffffffffffffffffffffff1673ffffffffffffffffffffffffffffffffffffffff1614612d05576040517f08c379a0000000000000000000000000000000000000000000000000000000008152600401612cfc90615239565b60405180910390fd5b60016003811115612d1957612d18613b3e565b5b8160030160009054906101000a900460ff166003811115612d3d57612d3c613b3e565b5b14612d7d576040517f08c379a0000000000000000000000000000000000000000000000000000000008152600401612d74906152a5565b60405180910390fd5b60028160030160006101000a81548160ff02191690836003811115612da557612da4613b3e565b5b02179055508282826005019182612dbd9291906152d0565b50600e6000826002015481526020019081526020016000206003016000815480929190612de990614597565b9190505550837f24f3a78b4012b95741ca9128e65f9375a155dd95645fd6d2784af82f053756218484604051612e209291906153a0565b60405180910390a2837f11b03c284cc2f2f20a0797445fdd3b96339380cd6fbb5a0bf34ba9afa7d702716002604051612e5991906141e5565b60405180910390a250505050565b600c602052806000526040600020600091509050806000018054612e8a9061466b565b80601f0160208091040260200160405190810160405280929190818152602001828054612eb69061466b565b8015612f035780601f10612ed857610100808354040283529160200191612f03565b820191906000526020600020905b815481529060010190602001808311612ee657829003601f168201915b5050505050908060010154908060020160009054906101000a900473ffffffffffffffffffffffffffffffffffffffff16908060030154908060040160009054906101000a900460ff16905085565b612f5a613299565b6000600e600083815260200190815260200160002090508060000160009054906101000a900473ffffffffffffffffffffffffffffffffffffffff1673ffffffffffffffffffffffffffffffffffffffff163373ffffffffffffffffffffffffffffffffffffffff1614613003576040517f08c379a0000000000000000000000000000000000000000000000000000000008152600401612ffa90615410565b60405180910390fd5b8060020160009054906101000a900460ff16613054576040517f08c379a000000000000000000000000000000000000000000000000000000000815260040161304b9061547c565b60405180910390fd5b60008160020160006101000a81548160ff021916908315150217905550600260009054906101000a900473ffffffffffffffffffffffffffffffffffffffff1673ffffffffffffffffffffffffffffffffffffffff166323b872dd3033600e6000878152602001908152602001600020600101546040518463ffffffff1660e01b81526004016130e693929190614483565b6020604051808303816000875af1158015613105573d6000803e3d6000fd5b505050506040513d601f19601f8201168201806040525081019061312991906144cf565b50600e60008381526020019081526020016000206001015460096000828254613152919061549c565b92505081905550817f225b982f3f68d9ecd9aaa2ece1c491786e6e4bf7ac4028b1ce7024691475383c60405160405180910390a25061318f6132e8565b50565b61319a61321b565b600073ffffffffffffffffffffffffffffffffffffffff168173ffffffffffffffffffffffffffffffffffffffff1603613209576040517f08c379a000000000000000000000000000000000000000000000000000000000815260040161320090615542565b60405180910390fd5b613212816134ed565b50565b60085481565b613223613870565b73ffffffffffffffffffffffffffffffffffffffff16613241612132565b73ffffffffffffffffffffffffffffffffffffffff1614613297576040517f08c379a000000000000000000000000000000000000000000000000000000000815260040161328e906155ae565b60405180910390fd5b565b6002600054036132de576040517f08c379a00000000000000000000000000000000000000000000000000000000081526004016132d59061561a565b60405180910390fd5b6002600081905550565b6001600081905550565b6132fa613937565b6000805b600b8054905081101561340a576000600e60008381526020019081526020016000206040518060c00160405290816000820160009054906101000a900473ffffffffffffffffffffffffffffffffffffffff1673ffffffffffffffffffffffffffffffffffffffff1673ffffffffffffffffffffffffffffffffffffffff168152602001600182015481526020016002820160009054906101000a900460ff161515151581526020016002820160019054906101000a900460ff161515151581526020016003820154815260200160048201548152505090508060200151836133e791906145df565b9250828510156133fc578093505050506134e8565b5080806001019150506132fe565b50600e60006001600b80549050613421919061549c565b81526020019081526020016000206040518060c00160405290816000820160009054906101000a900473ffffffffffffffffffffffffffffffffffffffff1673ffffffffffffffffffffffffffffffffffffffff1673ffffffffffffffffffffffffffffffffffffffff168152602001600182015481526020016002820160009054906101000a900460ff161515151581526020016002820160019054906101000a900460ff16151515158152602001600382015481526020016004820154815250509150505b919050565b6000600160009054906101000a900473ffffffffffffffffffffffffffffffffffffffff16905081600160006101000a81548173ffffffffffffffffffffffffffffffffffffffff021916908373ffffffffffffffffffffffffffffffffffffffff1602179055508173ffffffffffffffffffffffffffffffffffffffff168173ffffffffffffffffffffffffffffffffffffffff167f8be0079c531659141344cd1fd0a4f28419497f9722a3daafe3b4186f6b6457e060405160405180910390a35050565b600060038111156135c7576135c6613b3e565b5b600d600083815260200190815260200160002060030160009054906101000a900460ff1660038111156135fd576135fc613b3e565b5b1461363d576040517f08c379a000000000000000000000000000000000000000000000000000000000815260040161363490614a65565b60405180910390fd5b600060095411613682576040517f08c379a000000000000000000000000000000000000000000000000000000000815260040161367990615686565b60405180910390fd5b6000600360009054906101000a900473ffffffffffffffffffffffffffffffffffffffff1673ffffffffffffffffffffffffffffffffffffffff1663e726f2e160016040518263ffffffff1660e01b81526004016136e091906156f1565b6020604051808303816000875af11580156136ff573d6000803e3d6000fd5b505050506040513d601f19601f82011682018060405250810190613723919061570c565b90508160136000838152602001908152602001600020819055506001600d600084815260200190815260200160002060030160006101000a81548160ff0219169083600381111561377757613776613b3e565b5b0217905550817f11b03c284cc2f2f20a0797445fdd3b96339380cd6fbb5a0bf34ba9afa7d7027160016040516137ad91906141e5565b60405180910390a26000600360009054906101000a900473ffffffffffffffffffffffffffffffffffffffff1673ffffffffffffffffffffffffffffffffffffffff1663d8a4676f836040518263ffffffff1660e01b81526004016138129190613ab5565b600060405180830381865afa15801561382f573d6000803e3d6000fd5b505050506040513d6000823e3d601f19601f820116820180604052508101906138589190614caa565b509050801561386b5761386a836116a8565b5b505050565b600033905090565b60405180610100016040528060008152602001600073ffffffffffffffffffffffffffffffffffffffff16815260200160008152602001600060038111156138c3576138c2613b3e565b5b8152602001600060018111156138dc576138db613b3e565b5b81526020016000815260200160608152602001600081525090565b5080546139039061466b565b6000825580601f106139155750613934565b601f0160209004906000526020600020908101906139339190613987565b5b50565b6040518060c00160405280600073ffffffffffffffffffffffffffffffffffffffff1681526020016000815260200160001515815260200160001515815260200160008152602001600081525090565b5b808211156139a0576000816000905550600101613988565b5090565b6000604051905090565b600080fd5b600080fd5b6000819050919050565b6139cb816139b8565b81146139d657600080fd5b50565b6000813590506139e8816139c2565b92915050565b60008115159050919050565b613a03816139ee565b8114613a0e57600080fd5b50565b600081359050613a20816139fa565b92915050565b60008060408385031215613a3d57613a3c6139ae565b5b6000613a4b858286016139d9565b9250506020613a5c85828601613a11565b9150509250929050565b60008060408385031215613a7d57613a7c6139ae565b5b6000613a8b858286016139d9565b9250506020613a9c858286016139d9565b9150509250929050565b613aaf816139b8565b82525050565b6000602082019050613aca6000830184613aa6565b92915050565b600060208284031215613ae657613ae56139ae565b5b6000613af4848285016139d9565b91505092915050565b600073ffffffffffffffffffffffffffffffffffffffff82169050919050565b6000613b2882613afd565b9050919050565b613b3881613b1d565b82525050565b7f4e487b7100000000000000000000000000000000000000000000000000000000600052602160045260246000fd5b60048110613b7e57613b7d613b3e565b5b50565b6000819050613b8f82613b6d565b919050565b6000613b9f82613b81565b9050919050565b613baf81613b94565b82525050565b60028110613bc657613bc5613b3e565b5b50565b6000819050613bd782613bb5565b919050565b6000613be782613bc9565b9050919050565b613bf781613bdc565b82525050565b600081519050919050565b600082825260208201905092915050565b60005b83811015613c37578082015181840152602081019050613c1c565b60008484015250505050565b6000601f19601f8301169050919050565b6000613c5f82613bfd565b613c698185613c08565b9350613c79818560208601613c19565b613c8281613c43565b840191505092915050565b600061010082019050613ca3600083018b613aa6565b613cb0602083018a613b2f565b613cbd6040830189613aa6565b613cca6060830188613ba6565b613cd76080830187613bee565b613ce460a0830186613aa6565b81810360c0830152613cf68185613c54565b9050613d0560e0830184613aa6565b9998505050505050505050565b613d1b816139ee565b82525050565b600060c082019050613d366000830189613b2f565b613d436020830188613aa6565b613d506040830187613d12565b613d5d6060830186613d12565b613d6a6080830185613aa6565b613d7760a0830184613aa6565b979650505050505050565b600080fd5b600080fd5b600080fd5b60008083601f840112613da757613da6613d82565b5b8235905067ffffffffffffffff811115613dc457613dc3613d87565b5b602083019150836001820283011115613de057613ddf613d8c565b5b9250929050565b60008060008060608587031215613e0157613e006139ae565b5b600085013567ffffffffffffffff811115613e1f57613e1e6139b3565b5b613e2b87828801613d91565b94509450506020613e3e878288016139d9565b9250506040613e4f87828801613a11565b91505092959194509250565b613e6481613b1d565b8114613e6f57600080fd5b50565b600081359050613e8181613e5b565b92915050565b600060208284031215613e9d57613e9c6139ae565b5b6000613eab84828501613e72565b91505092915050565b600081519050919050565b600082825260208201905092915050565b6000819050602082019050919050565b613ee9816139b8565b82525050565b6000613efb8383613ee0565b60208301905092915050565b6000602082019050919050565b6000613f1f82613eb4565b613f298185613ebf565b9350613f3483613ed0565b8060005b83811015613f65578151613f4c8882613eef565b9750613f5783613f07565b925050600181019050613f38565b5085935050505092915050565b60006020820190508181036000830152613f8c8184613f14565b905092915050565b613f9d81613b1d565b82525050565b613fac81613b94565b82525050565b613fbb81613bdc565b82525050565b600082825260208201905092915050565b6000613fdd82613bfd565b613fe78185613fc1565b9350613ff7818560208601613c19565b61400081613c43565b840191505092915050565b6000610100830160008301516140246000860182613ee0565b5060208301516140376020860182613f94565b50604083015161404a6040860182613ee0565b50606083015161405d6060860182613fa3565b5060808301516140706080860182613fb2565b5060a083015161408360a0860182613ee0565b5060c083015184820360c086015261409b8282613fd2565b91505060e08301516140b060e0860182613ee0565b508091505092915050565b600060208201905081810360008301526140d5818461400b565b905092915050565b6000819050919050565b60006141026140fd6140f884613afd565b6140dd565b613afd565b9050919050565b6000614114826140e7565b9050919050565b600061412682614109565b9050919050565b6141368161411b565b82525050565b6000602082019050614151600083018461412d565b92915050565b600060608201905061416c6000830186613aa6565b6141796020830185613aa6565b6141866040830184613aa6565b949350505050565b600061419982614109565b9050919050565b6141a98161418e565b82525050565b60006020820190506141c460008301846141a0565b92915050565b60006020820190506141df6000830184613b2f565b92915050565b60006020820190506141fa6000830184613ba6565b92915050565b6000608082019050818103600083015261421a8187613c54565b90506142296020830186613aa6565b6142366040830185613b2f565b6142436060830184613d12565b95945050505050565b6002811061425957600080fd5b50565b60008135905061426b8161424c565b92915050565b60008060408385031215614288576142876139ae565b5b6000614296858286016139d9565b92505060206142a78582860161425c565b9150509250929050565b600080604083850312156142c8576142c76139ae565b5b60006142d685828601613e72565b92505060206142e7858286016139d9565b9150509250929050565b60008060006040848603121561430a576143096139ae565b5b6000614318868287016139d9565b935050602084013567ffffffffffffffff811115614339576143386139b3565b5b61434586828701613d91565b92509250509250925092565b600060a082019050818103600083015261436b8188613c54565b905061437a6020830187613aa6565b6143876040830186613b2f565b6143946060830185613aa6565b6143a16080830184613d12565b9695505050505050565b7f496e73756666696369656e74207374616b650000000000000000000000000000600082015250565b60006143e1601283613c08565b91506143ec826143ab565b602082019050919050565b60006020820190508181036000830152614410816143d4565b9050919050565b7f4e6f646520616c72656164792072656769737465726564000000000000000000600082015250565b600061444d601783613c08565b915061445882614417565b602082019050919050565b6000602082019050818103600083015261447c81614440565b9050919050565b60006060820190506144986000830186613b2f565b6144a56020830185613b2f565b6144b26040830184613aa6565b949350505050565b6000815190506144c9816139fa565b92915050565b6000602082840312156144e5576144e46139ae565b5b60006144f3848285016144ba565b91505092915050565b7f5374616b65204e6f742052656365697665640000000000000000000000000000600082015250565b6000614532601283613c08565b915061453d826144fc565b602082019050919050565b6000602082019050818103600083015261456181614525565b9050919050565b7f4e487b7100000000000000000000000000000000000000000000000000000000600052601160045260246000fd5b60006145a2826139b8565b91507fffffffffffffffffffffffffffffffffffffffffffffffffffffffffffffffff82036145d4576145d3614568565b5b600182019050919050565b60006145ea826139b8565b91506145f5836139b8565b925082820190508082111561460d5761460c614568565b5b92915050565b60006040820190506146286000830185613aa6565b6146356020830184613d12565b9392505050565b7f4e487b7100000000000000000000000000000000000000000000000000000000600052602260045260246000fd5b6000600282049050600182168061468357607f821691505b6020821081036146965761469561463c565b5b50919050565b7f4e487b7100000000000000000000000000000000000000000000000000000000600052604160045260246000fd5b60008190508160005260206000209050919050565b60006020601f8301049050919050565b600082821b905092915050565b60006008830261472d7fffffffffffffffffffffffffffffffffffffffffffffffffffffffffffffffff826146f0565b61473786836146f0565b95508019841693508086168417925050509392505050565b600061476a614765614760846139b8565b6140dd565b6139b8565b9050919050565b6000819050919050565b6147848361474f565b61479861479082614771565b8484546146fd565b825550505050565b600090565b6147ad6147a0565b6147b881848461477b565b505050565b5b818110156147dc576147d16000826147a5565b6001810190506147be565b5050565b601f821115614821576147f2816146cb565b6147fb846146e0565b8101602085101561480a578190505b61481e614816856146e0565b8301826147bd565b50505b505050565b600082821c905092915050565b600061484460001984600802614826565b1980831691505092915050565b600061485d8383614833565b9150826002028217905092915050565b61487682613bfd565b67ffffffffffffffff81111561488f5761488e61469c565b5b614899825461466b565b6148a48282856147e0565b600060209050601f8311600181146148d757600084156148c5578287015190505b6148cf8582614851565b865550614937565b601f1984166148e5866146cb565b60005b8281101561490d578489015182556001820191506020850194506020810190506148e8565b8683101561492a5784890151614926601f891682614833565b8355505b6001600288020188555050505b505050505050565b82818337600083830152505050565b600061495a8385613c08565b935061496783858461493f565b61497083613c43565b840190509392505050565b6000604082019050818103600083015261499681858761494e565b90506149a56020830184613d12565b949350505050565b7f4e6f74206a6f6220726571756573746572000000000000000000000000000000600082015250565b60006149e3601183613c08565b91506149ee826149ad565b602082019050919050565b60006020820190508181036000830152614a12816149d6565b9050919050565b7f4a6f62206e6f742070656e64696e670000000000000000000000000000000000600082015250565b6000614a4f600f83613c08565b9150614a5a82614a19565b602082019050919050565b60006020820190508181036000830152614a7e81614a42565b9050919050565b6000604082019050614a9a6000830185613b2f565b614aa76020830184613aa6565b9392505050565b7f526566756e64206661696c656400000000000000000000000000000000000000600082015250565b6000614ae4600d83613c08565b9150614aef82614aae565b602082019050919050565b60006020820190508181036000830152614b1381614ad7565b9050919050565b7f46656520746f6f20686967680000000000000000000000000000000000000000600082015250565b6000614b50600c83613c08565b9150614b5b82614b1a565b602082019050919050565b60006020820190508181036000830152614b7f81614b43565b9050919050565b614b8f82613c43565b810181811067ffffffffffffffff82111715614bae57614bad61469c565b5b80604052505050565b6000614bc16139a4565b9050614bcd8282614b86565b919050565b600067ffffffffffffffff821115614bed57614bec61469c565b5b602082029050602081019050919050565b600081519050614c0d816139c2565b92915050565b6000614c26614c2184614bd2565b614bb7565b90508083825260208201905060208402830185811115614c4957614c48613d8c565b5b835b81811015614c725780614c5e8882614bfe565b845260208401935050602081019050614c4b565b5050509392505050565b600082601f830112614c9157614c90613d82565b5b8151614ca1848260208601614c13565b91505092915050565b60008060408385031215614cc157614cc06139ae565b5b6000614ccf858286016144ba565b925050602083015167ffffffffffffffff811115614cf057614cef6139b3565b5b614cfc85828601614c7c565b9150509250929050565b7f52616e646f6d206e756d626572206e6f742079657420617661696c61626c6500600082015250565b6000614d3c601f83613c08565b9150614d4782614d06565b602082019050919050565b60006020820190508181036000830152614d6b81614d2f565b9050919050565b7f4a6f62206e6f742070726f63657373696e670000000000000000000000000000600082015250565b6000614da8601283613c08565b9150614db382614d72565b602082019050919050565b60006020820190508181036000830152614dd781614d9b565b9050919050565b7f4e487b7100000000000000000000000000000000000000000000000000000000600052603260045260246000fd5b7f4e487b7100000000000000000000000000000000000000000000000000000000600052601260045260246000fd5b6000614e47826139b8565b9150614e52836139b8565b925082614e6257614e61614e0d565b5b828206905092915050565b7f4a6f62206e6f7420636f6d706c65746564000000000000000000000000000000600082015250565b6000614ea3601183613c08565b9150614eae82614e6d565b602082019050919050565b60006020820190508181036000830152614ed281614e96565b9050919050565b600081549050614ee88161466b565b9050919050565b818103614efd575050614fd5565b614f0682614ed9565b67ffffffffffffffff811115614f1f57614f1e61469c565b5b614f29825461466b565b614f348282856147e0565b6000601f831160018114614f635760008415614f51578287015490505b614f5b8582614851565b865550614fce565b601f198416614f71876146cb565b9650614f7c866146cb565b60005b82811015614fa457848901548255600182019150600185019450602081019050614f7f565b86831015614fc15784890154614fbd601f891682614833565b8355505b6001600288020188555050505b5050505050505b565b6000614fe2826139b8565b9150614fed836139b8565b9250828202614ffb816139b8565b9150828204841483151761501257615011614568565b5b5092915050565b6000615024826139b8565b915061502f836139b8565b92508261503f5761503e614e0d565b5b828204905092915050565b6000615055826139b8565b91506000820361506857615067614568565b5b600182039050919050565b60006020820190506150886000830184613d12565b92915050565b7f5061796d656e74206661696c6564000000000000000000000000000000000000600082015250565b60006150c4600e83613c08565b91506150cf8261508e565b602082019050919050565b600060208201905081810360008301526150f3816150b7565b9050919050565b600060208201905061510f6000830184613bee565b92915050565b7f4e6f2070656e64696e6720726577617264730000000000000000000000000000600082015250565b600061514b601283613c08565b915061515682615115565b602082019050919050565b6000602082019050818103600083015261517a8161513e565b9050919050565b7f5472616e73666572206661696c65640000000000000000000000000000000000600082015250565b60006151b7600f83613c08565b91506151c282615181565b602082019050919050565b600060208201905081810360008301526151e6816151aa565b9050919050565b7f4e6f742061737369676e6564206e6f6465000000000000000000000000000000600082015250565b6000615223601183613c08565b915061522e826151ed565b602082019050919050565b6000602082019050818103600083015261525281615216565b9050919050565b7f4a6f62206e6f7420696e2070726f63657373696e670000000000000000000000600082015250565b600061528f601583613c08565b915061529a82615259565b602082019050919050565b600060208201905081810360008301526152be81615282565b9050919050565b600082905092915050565b6152da83836152c5565b67ffffffffffffffff8111156152f3576152f261469c565b5b6152fd825461466b565b6153088282856147e0565b6000601f8311600181146153375760008415615325578287013590505b61532f8582614851565b865550615397565b601f198416615345866146cb565b60005b8281101561536d57848901358255600182019150602085019450602081019050615348565b8683101561538a5784890135615386601f891682614833565b8355505b6001600288020188555050505b50505050505050565b600060208201905081810360008301526153bb81848661494e565b90509392505050565b7f4e6f74206e6f6465206f776e6572000000000000000000000000000000000000600082015250565b60006153fa600e83613c08565b9150615405826153c4565b602082019050919050565b60006020820190508181036000830152615429816153ed565b9050919050565b7f4e6f646520616c726561647920696e6163746976650000000000000000000000600082015250565b6000615466601583613c08565b915061547182615430565b602082019050919050565b6000602082019050818103600083015261549581615459565b9050919050565b60006154a7826139b8565b91506154b2836139b8565b92508282039050818111156154ca576154c9614568565b5b92915050565b7f4f776e61626c653a206e6577206f776e657220697320746865207a65726f206160008201527f6464726573730000000000000000000000000000000000000000000000000000602082015250565b600061552c602683613c08565b9150615537826154d0565b604082019050919050565b6000602082019050818103600083015261555b8161551f565b9050919050565b7f4f776e61626c653a2063616c6c6572206973206e6f7420746865206f776e6572600082015250565b6000615598602083613c08565b91506155a382615562565b602082019050919050565b600060208201905081810360008301526155c78161558b565b9050919050565b7f5265656e7472616e637947756172643a207265656e7472616e742063616c6c00600082015250565b6000615604601f83613c08565b915061560f826155ce565b602082019050919050565b60006020820190508181036000830152615633816155f7565b9050919050565b7f4e6f206e6f646573207374616b65640000000000000000000000000000000000600082015250565b6000615670600f83613c08565b915061567b8261563a565b602082019050919050565b6000602082019050818103600083015261569f81615663565b9050919050565b6000819050919050565b600063ffffffff82169050919050565b60006156db6156d66156d1846156a6565b6140dd565b6156b0565b9050919050565b6156eb816156c0565b82525050565b600060208201905061570660008301846156e2565b92915050565b600060208284031215615722576157216139ae565b5b600061573084828501614bfe565b9150509291505056fea2646970667358221220c9a826a9aeaee7c2578b6f874a0b4657f5753acac4673378ec2914f768a585d964736f6c63430008190033","opcodes":"PUSH1 0xC0 PUSH1 0x40 MSTORE CALLVALUE DUP1 ISZERO PUSH2 0x10 JUMPI PUSH1 0x0 DUP1 REVERT JUMPDEST POP PUSH1 0x40 MLOAD PUSH2 0x5A06 CODESIZE SUB DUP1 PUSH2 0x5A06 DUP4 CODECOPY DUP2 DUP2 ADD PUSH1 0x40 MSTORE DUP2 ADD SWAP1 PUSH2 0x32 SWAP2 SWAP1 PUSH2 0x238 JUMP JUMPDEST PUSH1 0x1 PUSH1 0x0 DUP2 SWAP1 SSTORE POP PUSH2 0x56 PUSH2 0x4B PUSH2 0x107 PUSH1 0x20 SHL PUSH1 0x20 SHR JUMP JUMPDEST PUSH2 0x10F PUSH1 0x20 SHL PUSH1 0x20 SHR JUMP JUMPDEST DUP1 PUSH1 0x3 PUSH1 0x0 PUSH2 0x100 EXP DUP2 SLOAD DUP2 PUSH20 0xFFFFFFFFFFFFFFFFFFFFFFFFFFFFFFFFFFFFFFFF MUL NOT AND SWAP1 DUP4 PUSH20 0xFFFFFFFFFFFFFFFFFFFFFFFFFFFFFFFFFFFFFFFF AND MUL OR SWAP1 SSTORE POP DUP2 PUSH1 0x2 PUSH1 0x0 PUSH2 0x100 EXP DUP2 SLOAD DUP2 PUSH20 0xFFFFFFFFFFFFFFFFFFFFFFFFFFFFFFFFFFFFFFFF MUL NOT AND SWAP1 DUP4 PUSH20 0xFFFFFFFFFFFFFFFFFFFFFFFFFFFFFFFFFFFFFFFF AND MUL OR SWAP1 SSTORE POP PUSH9 0x56BC75E2D63100000 PUSH1 0x7 DUP2 SWAP1 SSTORE POP PUSH1 0x50 PUSH1 0x8 DUP2 SWAP1 SSTORE POP PUSH9 0x3635C9ADC5DEA00000 PUSH1 0xA DUP2 SWAP1 SSTORE POP POP POP PUSH2 0x278 JUMP JUMPDEST PUSH1 0x0 CALLER SWAP1 POP SWAP1 JUMP JUMPDEST PUSH1 0x0 PUSH1 0x1 PUSH1 0x0 SWAP1 SLOAD SWAP1 PUSH2 0x100 EXP SWAP1 DIV PUSH20 0xFFFFFFFFFFFFFFFFFFFFFFFFFFFFFFFFFFFFFFFF AND SWAP1 POP DUP2 PUSH1 0x1 PUSH1 0x0 PUSH2 0x100 EXP DUP2 SLOAD DUP2 PUSH20 0xFFFFFFFFFFFFFFFFFFFFFFFFFFFFFFFFFFFFFFFF MUL NOT AND SWAP1 DUP4 PUSH20 0xFFFFFFFFFFFFFFFFFFFFFFFFFFFFFFFFFFFFFFFF AND MUL OR SWAP1 SSTORE POP DUP2 PUSH20 0xFFFFFFFFFFFFFFFFFFFFFFFFFFFFFFFFFFFFFFFF AND DUP2 PUSH20 0xFFFFFFFFFFFFFFFFFFFFFFFFFFFFFFFFFFFFFFFF AND PUSH32 0x8BE0079C531659141344CD1FD0A4F28419497F9722A3DAAFE3B4186F6B6457E0 PUSH1 0x40 MLOAD PUSH1 0x40 MLOAD DUP1 SWAP2 SUB SWAP1 LOG3 POP POP JUMP JUMPDEST PUSH1 0x0 DUP1 REVERT JUMPDEST PUSH1 0x0 PUSH20 0xFFFFFFFFFFFFFFFFFFFFFFFFFFFFFFFFFFFFFFFF DUP3 AND SWAP1 POP SWAP2 SWAP1 POP JUMP JUMPDEST PUSH1 0x0 PUSH2 0x205 DUP3 PUSH2 0x1DA JUMP JUMPDEST SWAP1 POP SWAP2 SWAP1 POP JUMP JUMPDEST PUSH2 0x215 DUP2 PUSH2 0x1FA JUMP JUMPDEST DUP2 EQ PUSH2 0x220 JUMPI PUSH1 0x0 DUP1 REVERT JUMPDEST POP JUMP JUMPDEST PUSH1 0x0 DUP2 MLOAD SWAP1 POP PUSH2 0x232 DUP2 PUSH2 0x20C JUMP JUMPDEST SWAP3 SWAP2 POP POP JUMP JUMPDEST PUSH1 0x0 DUP1 PUSH1 0x40 DUP4 DUP6 SUB SLT ISZERO PUSH2 0x24F JUMPI PUSH2 0x24E PUSH2 0x1D5 JUMP JUMPDEST JUMPDEST PUSH1 0x0 PUSH2 0x25D DUP6 DUP3 DUP7 ADD PUSH2 0x223 JUMP JUMPDEST SWAP3 POP POP PUSH1 0x20 PUSH2 0x26E DUP6 DUP3 DUP7 ADD PUSH2 0x223 JUMP JUMPDEST SWAP2 POP POP SWAP3 POP SWAP3 SWAP1 POP JUMP JUMPDEST PUSH1 0x80 MLOAD PUSH1 0xA0 MLOAD PUSH2 0x576F PUSH2 0x297 PUSH1 0x0 CODECOPY PUSH1 0x0 POP POP PUSH1 0x0 POP POP PUSH2 0x576F PUSH1 0x0 RETURN INVALID PUSH1 0x80 PUSH1 0x40 MSTORE PUSH1 0x4 CALLDATASIZE LT PUSH2 0x251 JUMPI PUSH1 0x0 CALLDATALOAD PUSH1 0xE0 SHR DUP1 PUSH4 0x670FED39 GT PUSH2 0x139 JUMPI DUP1 PUSH4 0xA6C58B63 GT PUSH2 0xB6 JUMPI DUP1 PUSH4 0xC7B8981C GT PUSH2 0x7A JUMPI DUP1 PUSH4 0xC7B8981C EQ PUSH2 0x96E JUMPI DUP1 PUSH4 0xE2322085 EQ PUSH2 0x999 JUMPI DUP1 PUSH4 0xE6821BF5 EQ PUSH2 0x9C2 JUMPI DUP1 PUSH4 0xE9D63830 EQ PUSH2 0xA03 JUMPI DUP1 PUSH4 0xF2FDE38B EQ PUSH2 0xA2C JUMPI DUP1 PUSH4 0xF4162530 EQ PUSH2 0xA55 JUMPI PUSH2 0x251 JUMP JUMPDEST DUP1 PUSH4 0xA6C58B63 EQ PUSH2 0x84C JUMPI DUP1 PUSH4 0xAB1A5CB7 EQ PUSH2 0x889 JUMPI DUP1 PUSH4 0xB0C2AA5E EQ PUSH2 0x8C9 JUMPI DUP1 PUSH4 0xB9D03A2A EQ PUSH2 0x8F4 JUMPI DUP1 PUSH4 0xC17FF9D2 EQ PUSH2 0x931 JUMPI PUSH2 0x251 JUMP JUMPDEST DUP1 PUSH4 0x8DA5CB5B GT PUSH2 0xFD JUMPI DUP1 PUSH4 0x8DA5CB5B EQ PUSH2 0x753 JUMPI DUP1 PUSH4 0x8F21BFE9 EQ PUSH2 0x77E JUMPI DUP1 PUSH4 0x909D5CE6 EQ PUSH2 0x7A7 JUMPI DUP1 PUSH4 0x98543166 EQ PUSH2 0x7E4 JUMPI DUP1 PUSH4 0xA062AB2B EQ PUSH2 0x821 JUMPI PUSH2 0x251 JUMP JUMPDEST DUP1 PUSH4 0x670FED39 EQ PUSH2 0x680 JUMPI DUP1 PUSH4 0x6858A3F3 EQ PUSH2 0x6BD JUMPI DUP1 PUSH4 0x6CBC2A22 EQ PUSH2 0x6E8 JUMPI DUP1 PUSH4 0x715018A6 EQ PUSH2 0x711 JUMPI DUP1 PUSH4 0x817B1CD2 EQ PUSH2 0x728 JUMPI PUSH2 0x251 JUMP JUMPDEST DUP1 PUSH4 0x31D7A262 GT PUSH2 0x1D2 JUMPI DUP1 PUSH4 0x4CAC35C6 GT PUSH2 0x196 JUMPI DUP1 PUSH4 0x4CAC35C6 EQ PUSH2 0x555 JUMPI DUP1 PUSH4 0x556A6121 EQ PUSH2 0x592 JUMPI DUP1 PUSH4 0x55A373D6 EQ PUSH2 0x5BD JUMPI DUP1 PUSH4 0x59974E38 EQ PUSH2 0x5E8 JUMPI DUP1 PUSH4 0x5AFBBA47 EQ PUSH2 0x611 JUMPI DUP1 PUSH4 0x645E013C EQ PUSH2 0x653 JUMPI PUSH2 0x251 JUMP JUMPDEST DUP1 PUSH4 0x31D7A262 EQ PUSH2 0x45E JUMPI DUP1 PUSH4 0x375B3C0A EQ PUSH2 0x49B JUMPI DUP1 PUSH4 0x3FA7276C EQ PUSH2 0x4C6 JUMPI DUP1 PUSH4 0x495BD94E EQ PUSH2 0x503 JUMPI DUP1 PUSH4 0x4AC8A529 EQ PUSH2 0x52C JUMPI PUSH2 0x251 JUMP JUMPDEST DUP1 PUSH4 0x1D69DE07 GT PUSH2 0x219 JUMPI DUP1 PUSH4 0x1D69DE07 EQ PUSH2 0x360 JUMPI DUP1 PUSH4 0x1DFFA3DC EQ PUSH2 0x39D JUMPI DUP1 PUSH4 0x20ECA391 EQ PUSH2 0x3C6 JUMPI DUP1 PUSH4 0x2F704CB5 EQ PUSH2 0x3F1 JUMPI DUP1 PUSH4 0x315CF0C6 EQ PUSH2 0x435 JUMPI PUSH2 0x251 JUMP JUMPDEST DUP1 PUSH4 0x978F39D EQ PUSH2 0x256 JUMPI DUP1 PUSH4 0x1137F160 EQ PUSH2 0x27F JUMPI DUP1 PUSH4 0x1680B35C EQ PUSH2 0x2BC JUMPI DUP1 PUSH4 0x180AEDF3 EQ PUSH2 0x2DA JUMPI DUP1 PUSH4 0x1C53C280 EQ PUSH2 0x31E JUMPI JUMPDEST PUSH1 0x0 DUP1 REVERT JUMPDEST CALLVALUE DUP1 ISZERO PUSH2 0x262 JUMPI PUSH1 0x0 DUP1 REVERT JUMPDEST POP PUSH2 0x27D PUSH1 0x4 DUP1 CALLDATASIZE SUB DUP2 ADD SWAP1 PUSH2 0x278 SWAP2 SWAP1 PUSH2 0x3A26 JUMP JUMPDEST PUSH2 0xA80 JUMP JUMPDEST STOP JUMPDEST CALLVALUE DUP1 ISZERO PUSH2 0x28B JUMPI PUSH1 0x0 DUP1 REVERT JUMPDEST POP PUSH2 0x2A6 PUSH1 0x4 DUP1 CALLDATASIZE SUB DUP2 ADD SWAP1 PUSH2 0x2A1 SWAP2 SWAP1 PUSH2 0x3A66 JUMP JUMPDEST PUSH2 0xABA JUMP JUMPDEST PUSH1 0x40 MLOAD PUSH2 0x2B3 SWAP2 SWAP1 PUSH2 0x3AB5 JUMP JUMPDEST PUSH1 0x40 MLOAD DUP1 SWAP2 SUB SWAP1 RETURN JUMPDEST PUSH2 0x2C4 PUSH2 0xAEB JUMP JUMPDEST PUSH1 0x40 MLOAD PUSH2 0x2D1 SWAP2 SWAP1 PUSH2 0x3AB5 JUMP JUMPDEST PUSH1 0x40 MLOAD DUP1 SWAP2 SUB SWAP1 RETURN JUMPDEST CALLVALUE DUP1 ISZERO PUSH2 0x2E6 JUMPI PUSH1 0x0 DUP1 REVERT JUMPDEST POP PUSH2 0x301 PUSH1 0x4 DUP1 CALLDATASIZE SUB DUP2 ADD SWAP1 PUSH2 0x2FC SWAP2 SWAP1 PUSH2 0x3AD0 JUMP JUMPDEST PUSH2 0xEB8 JUMP JUMPDEST PUSH1 0x40 MLOAD PUSH2 0x315 SWAP9 SWAP8 SWAP7 SWAP6 SWAP5 SWAP4 SWAP3 SWAP2 SWAP1 PUSH2 0x3C8D JUMP JUMPDEST PUSH1 0x40 MLOAD DUP1 SWAP2 SUB SWAP1 RETURN JUMPDEST CALLVALUE DUP1 ISZERO PUSH2 0x32A JUMPI PUSH1 0x0 DUP1 REVERT JUMPDEST POP PUSH2 0x345 PUSH1 0x4 DUP1 CALLDATASIZE SUB DUP2 ADD SWAP1 PUSH2 0x340 SWAP2 SWAP1 PUSH2 0x3AD0 JUMP JUMPDEST PUSH2 0xFC2 JUMP JUMPDEST PUSH1 0x40 MLOAD PUSH2 0x357 SWAP7 SWAP6 SWAP5 SWAP4 SWAP3 SWAP2 SWAP1 PUSH2 0x3D21 JUMP JUMPDEST PUSH1 0x40 MLOAD DUP1 SWAP2 SUB SWAP1 RETURN JUMPDEST CALLVALUE DUP1 ISZERO PUSH2 0x36C JUMPI PUSH1 0x0 DUP1 REVERT JUMPDEST POP PUSH2 0x387 PUSH1 0x4 DUP1 CALLDATASIZE SUB DUP2 ADD SWAP1 PUSH2 0x382 SWAP2 SWAP1 PUSH2 0x3DE7 JUMP JUMPDEST PUSH2 0x1038 JUMP JUMPDEST PUSH1 0x40 MLOAD PUSH2 0x394 SWAP2 SWAP1 PUSH2 0x3AB5 JUMP JUMPDEST PUSH1 0x40 MLOAD DUP1 SWAP2 SUB SWAP1 RETURN JUMPDEST CALLVALUE DUP1 ISZERO PUSH2 0x3A9 JUMPI PUSH1 0x0 DUP1 REVERT JUMPDEST POP PUSH2 0x3C4 PUSH1 0x4 DUP1 CALLDATASIZE SUB DUP2 ADD SWAP1 PUSH2 0x3BF SWAP2 SWAP1 PUSH2 0x3AD0 JUMP JUMPDEST PUSH2 0x11D8 JUMP JUMPDEST STOP JUMPDEST CALLVALUE DUP1 ISZERO PUSH2 0x3D2 JUMPI PUSH1 0x0 DUP1 REVERT JUMPDEST POP PUSH2 0x3DB PUSH2 0x1456 JUMP JUMPDEST PUSH1 0x40 MLOAD PUSH2 0x3E8 SWAP2 SWAP1 PUSH2 0x3AB5 JUMP JUMPDEST PUSH1 0x40 MLOAD DUP1 SWAP2 SUB SWAP1 RETURN JUMPDEST CALLVALUE DUP1 ISZERO PUSH2 0x3FD JUMPI PUSH1 0x0 DUP1 REVERT JUMPDEST POP PUSH2 0x418 PUSH1 0x4 DUP1 CALLDATASIZE SUB DUP2 ADD SWAP1 PUSH2 0x413 SWAP2 SWAP1 PUSH2 0x3AD0 JUMP JUMPDEST PUSH2 0x145C JUMP JUMPDEST PUSH1 0x40 MLOAD PUSH2 0x42C SWAP9 SWAP8 SWAP7 SWAP6 SWAP5 SWAP4 SWAP3 SWAP2 SWAP1 PUSH2 0x3C8D JUMP JUMPDEST PUSH1 0x40 MLOAD DUP1 SWAP2 SUB SWAP1 RETURN JUMPDEST CALLVALUE DUP1 ISZERO PUSH2 0x441 JUMPI PUSH1 0x0 DUP1 REVERT JUMPDEST POP PUSH2 0x45C PUSH1 0x4 DUP1 CALLDATASIZE SUB DUP2 ADD SWAP1 PUSH2 0x457 SWAP2 SWAP1 PUSH2 0x3AD0 JUMP JUMPDEST PUSH2 0x1566 JUMP JUMPDEST STOP JUMPDEST CALLVALUE DUP1 ISZERO PUSH2 0x46A JUMPI PUSH1 0x0 DUP1 REVERT JUMPDEST POP PUSH2 0x485 PUSH1 0x4 DUP1 CALLDATASIZE SUB DUP2 ADD SWAP1 PUSH2 0x480 SWAP2 SWAP1 PUSH2 0x3E87 JUMP JUMPDEST PUSH2 0x15F3 JUMP JUMPDEST PUSH1 0x40 MLOAD PUSH2 0x492 SWAP2 SWAP1 PUSH2 0x3AB5 JUMP JUMPDEST PUSH1 0x40 MLOAD DUP1 SWAP2 SUB SWAP1 RETURN JUMPDEST CALLVALUE DUP1 ISZERO PUSH2 0x4A7 JUMPI PUSH1 0x0 DUP1 REVERT JUMPDEST POP PUSH2 0x4B0 PUSH2 0x160B JUMP JUMPDEST PUSH1 0x40 MLOAD PUSH2 0x4BD SWAP2 SWAP1 PUSH2 0x3AB5 JUMP JUMPDEST PUSH1 0x40 MLOAD DUP1 SWAP2 SUB SWAP1 RETURN JUMPDEST CALLVALUE DUP1 ISZERO PUSH2 0x4D2 JUMPI PUSH1 0x0 DUP1 REVERT JUMPDEST POP PUSH2 0x4ED PUSH1 0x4 DUP1 CALLDATASIZE SUB DUP2 ADD SWAP1 PUSH2 0x4E8 SWAP2 SWAP1 PUSH2 0x3E87 JUMP JUMPDEST PUSH2 0x1611 JUMP JUMPDEST PUSH1 0x40 MLOAD PUSH2 0x4FA SWAP2 SWAP1 PUSH2 0x3F72 JUMP JUMPDEST PUSH1 0x40 MLOAD DUP1 SWAP2 SUB SWAP1 RETURN JUMPDEST CALLVALUE DUP1 ISZERO PUSH2 0x50F JUMPI PUSH1 0x0 DUP1 REVERT JUMPDEST POP PUSH2 0x52A PUSH1 0x4 DUP1 CALLDATASIZE SUB DUP2 ADD SWAP1 PUSH2 0x525 SWAP2 SWAP1 PUSH2 0x3AD0 JUMP JUMPDEST PUSH2 0x16A8 JUMP JUMPDEST STOP JUMPDEST CALLVALUE DUP1 ISZERO PUSH2 0x538 JUMPI PUSH1 0x0 DUP1 REVERT JUMPDEST POP PUSH2 0x553 PUSH1 0x4 DUP1 CALLDATASIZE SUB DUP2 ADD SWAP1 PUSH2 0x54E SWAP2 SWAP1 PUSH2 0x3AD0 JUMP JUMPDEST PUSH2 0x19BB JUMP JUMPDEST STOP JUMPDEST CALLVALUE DUP1 ISZERO PUSH2 0x561 JUMPI PUSH1 0x0 DUP1 REVERT JUMPDEST POP PUSH2 0x57C PUSH1 0x4 DUP1 CALLDATASIZE SUB DUP2 ADD SWAP1 PUSH2 0x577 SWAP2 SWAP1 PUSH2 0x3AD0 JUMP JUMPDEST PUSH2 0x1BB0 JUMP JUMPDEST PUSH1 0x40 MLOAD PUSH2 0x589 SWAP2 SWAP1 PUSH2 0x40BB JUMP JUMPDEST PUSH1 0x40 MLOAD DUP1 SWAP2 SUB SWAP1 RETURN JUMPDEST CALLVALUE DUP1 ISZERO PUSH2 0x59E JUMPI PUSH1 0x0 DUP1 REVERT JUMPDEST POP PUSH2 0x5A7 PUSH2 0x1D64 JUMP JUMPDEST PUSH1 0x40 MLOAD PUSH2 0x5B4 SWAP2 SWAP1 PUSH2 0x3AB5 JUMP JUMPDEST PUSH1 0x40 MLOAD DUP1 SWAP2 SUB SWAP1 RETURN JUMPDEST CALLVALUE DUP1 ISZERO PUSH2 0x5C9 JUMPI PUSH1 0x0 DUP1 REVERT JUMPDEST POP PUSH2 0x5D2 PUSH2 0x1D6A JUMP JUMPDEST PUSH1 0x40 MLOAD PUSH2 0x5DF SWAP2 SWAP1 PUSH2 0x413C JUMP JUMPDEST PUSH1 0x40 MLOAD DUP1 SWAP2 SUB SWAP1 RETURN JUMPDEST CALLVALUE DUP1 ISZERO PUSH2 0x5F4 JUMPI PUSH1 0x0 DUP1 REVERT JUMPDEST POP PUSH2 0x60F PUSH1 0x4 DUP1 CALLDATASIZE SUB DUP2 ADD SWAP1 PUSH2 0x60A SWAP2 SWAP1 PUSH2 0x3AD0 JUMP JUMPDEST PUSH2 0x1D90 JUMP JUMPDEST STOP JUMPDEST CALLVALUE DUP1 ISZERO PUSH2 0x61D JUMPI PUSH1 0x0 DUP1 REVERT JUMPDEST POP PUSH2 0x638 PUSH1 0x4 DUP1 CALLDATASIZE SUB DUP2 ADD SWAP1 PUSH2 0x633 SWAP2 SWAP1 PUSH2 0x3AD0 JUMP JUMPDEST PUSH2 0x1F6F JUMP JUMPDEST PUSH1 0x40 MLOAD PUSH2 0x64A SWAP7 SWAP6 SWAP5 SWAP4 SWAP3 SWAP2 SWAP1 PUSH2 0x3D21 JUMP JUMPDEST PUSH1 0x40 MLOAD DUP1 SWAP2 SUB SWAP1 RETURN JUMPDEST CALLVALUE DUP1 ISZERO PUSH2 0x65F JUMPI PUSH1 0x0 DUP1 REVERT JUMPDEST POP PUSH2 0x668 PUSH2 0x2078 JUMP JUMPDEST PUSH1 0x40 MLOAD PUSH2 0x677 SWAP4 SWAP3 SWAP2 SWAP1 PUSH2 0x4157 JUMP JUMPDEST PUSH1 0x40 MLOAD DUP1 SWAP2 SUB SWAP1 RETURN JUMPDEST CALLVALUE DUP1 ISZERO PUSH2 0x68C JUMPI PUSH1 0x0 DUP1 REVERT JUMPDEST POP PUSH2 0x6A7 PUSH1 0x4 DUP1 CALLDATASIZE SUB DUP2 ADD SWAP1 PUSH2 0x6A2 SWAP2 SWAP1 PUSH2 0x3E87 JUMP JUMPDEST PUSH2 0x2091 JUMP JUMPDEST PUSH1 0x40 MLOAD PUSH2 0x6B4 SWAP2 SWAP1 PUSH2 0x3AB5 JUMP JUMPDEST PUSH1 0x40 MLOAD DUP1 SWAP2 SUB SWAP1 RETURN JUMPDEST CALLVALUE DUP1 ISZERO PUSH2 0x6C9 JUMPI PUSH1 0x0 DUP1 REVERT JUMPDEST POP PUSH2 0x6D2 PUSH2 0x20A9 JUMP JUMPDEST PUSH1 0x40 MLOAD PUSH2 0x6DF SWAP2 SWAP1 PUSH2 0x41AF JUMP JUMPDEST PUSH1 0x40 MLOAD DUP1 SWAP2 SUB SWAP1 RETURN JUMPDEST CALLVALUE DUP1 ISZERO PUSH2 0x6F4 JUMPI PUSH1 0x0 DUP1 REVERT JUMPDEST POP PUSH2 0x70F PUSH1 0x4 DUP1 CALLDATASIZE SUB DUP2 ADD SWAP1 PUSH2 0x70A SWAP2 SWAP1 PUSH2 0x3AD0 JUMP JUMPDEST PUSH2 0x20CF JUMP JUMPDEST STOP JUMPDEST CALLVALUE DUP1 ISZERO PUSH2 0x71D JUMPI PUSH1 0x0 DUP1 REVERT JUMPDEST POP PUSH2 0x726 PUSH2 0x2118 JUMP JUMPDEST STOP JUMPDEST CALLVALUE DUP1 ISZERO PUSH2 0x734 JUMPI PUSH1 0x0 DUP1 REVERT JUMPDEST POP PUSH2 0x73D PUSH2 0x212C JUMP JUMPDEST PUSH1 0x40 MLOAD PUSH2 0x74A SWAP2 SWAP1 PUSH2 0x3AB5 JUMP JUMPDEST PUSH1 0x40 MLOAD DUP1 SWAP2 SUB SWAP1 RETURN JUMPDEST CALLVALUE DUP1 ISZERO PUSH2 0x75F JUMPI PUSH1 0x0 DUP1 REVERT JUMPDEST POP PUSH2 0x768 PUSH2 0x2132 JUMP JUMPDEST PUSH1 0x40 MLOAD PUSH2 0x775 SWAP2 SWAP1 PUSH2 0x41CA JUMP JUMPDEST PUSH1 0x40 MLOAD DUP1 SWAP2 SUB SWAP1 RETURN JUMPDEST CALLVALUE DUP1 ISZERO PUSH2 0x78A JUMPI PUSH1 0x0 DUP1 REVERT JUMPDEST POP PUSH2 0x7A5 PUSH1 0x4 DUP1 CALLDATASIZE SUB DUP2 ADD SWAP1 PUSH2 0x7A0 SWAP2 SWAP1 PUSH2 0x3A26 JUMP JUMPDEST PUSH2 0x215C JUMP JUMPDEST STOP JUMPDEST CALLVALUE DUP1 ISZERO PUSH2 0x7B3 JUMPI PUSH1 0x0 DUP1 REVERT JUMPDEST POP PUSH2 0x7CE PUSH1 0x4 DUP1 CALLDATASIZE SUB DUP2 ADD SWAP1 PUSH2 0x7C9 SWAP2 SWAP1 PUSH2 0x3AD0 JUMP JUMPDEST PUSH2 0x2400 JUMP JUMPDEST PUSH1 0x40 MLOAD PUSH2 0x7DB SWAP2 SWAP1 PUSH2 0x3F72 JUMP JUMPDEST PUSH1 0x40 MLOAD DUP1 SWAP2 SUB SWAP1 RETURN JUMPDEST CALLVALUE DUP1 ISZERO PUSH2 0x7F0 JUMPI PUSH1 0x0 DUP1 REVERT JUMPDEST POP PUSH2 0x80B PUSH1 0x4 DUP1 CALLDATASIZE SUB DUP2 ADD SWAP1 PUSH2 0x806 SWAP2 SWAP1 PUSH2 0x3AD0 JUMP JUMPDEST PUSH2 0x246B JUMP JUMPDEST PUSH1 0x40 MLOAD PUSH2 0x818 SWAP2 SWAP1 PUSH2 0x3AB5 JUMP JUMPDEST PUSH1 0x40 MLOAD DUP1 SWAP2 SUB SWAP1 RETURN JUMPDEST CALLVALUE DUP1 ISZERO PUSH2 0x82D JUMPI PUSH1 0x0 DUP1 REVERT JUMPDEST POP PUSH2 0x836 PUSH2 0x248F JUMP JUMPDEST PUSH1 0x40 MLOAD PUSH2 0x843 SWAP2 SWAP1 PUSH2 0x3AB5 JUMP JUMPDEST PUSH1 0x40 MLOAD DUP1 SWAP2 SUB SWAP1 RETURN JUMPDEST CALLVALUE DUP1 ISZERO PUSH2 0x858 JUMPI PUSH1 0x0 DUP1 REVERT JUMPDEST POP PUSH2 0x873 PUSH1 0x4 DUP1 CALLDATASIZE SUB DUP2 ADD SWAP1 PUSH2 0x86E SWAP2 SWAP1 PUSH2 0x3AD0 JUMP JUMPDEST PUSH2 0x2495 JUMP JUMPDEST PUSH1 0x40 MLOAD PUSH2 0x880 SWAP2 SWAP1 PUSH2 0x41E5 JUMP JUMPDEST PUSH1 0x40 MLOAD DUP1 SWAP2 SUB SWAP1 RETURN JUMPDEST CALLVALUE DUP1 ISZERO PUSH2 0x895 JUMPI PUSH1 0x0 DUP1 REVERT JUMPDEST POP PUSH2 0x8B0 PUSH1 0x4 DUP1 CALLDATASIZE SUB DUP2 ADD SWAP1 PUSH2 0x8AB SWAP2 SWAP1 PUSH2 0x3AD0 JUMP JUMPDEST PUSH2 0x24C2 JUMP JUMPDEST PUSH1 0x40 MLOAD PUSH2 0x8C0 SWAP5 SWAP4 SWAP3 SWAP2 SWAP1 PUSH2 0x4200 JUMP JUMPDEST PUSH1 0x40 MLOAD DUP1 SWAP2 SUB SWAP1 RETURN JUMPDEST CALLVALUE DUP1 ISZERO PUSH2 0x8D5 JUMPI PUSH1 0x0 DUP1 REVERT JUMPDEST POP PUSH2 0x8DE PUSH2 0x2625 JUMP JUMPDEST PUSH1 0x40 MLOAD PUSH2 0x8EB SWAP2 SWAP1 PUSH2 0x3AB5 JUMP JUMPDEST PUSH1 0x40 MLOAD DUP1 SWAP2 SUB SWAP1 RETURN JUMPDEST CALLVALUE DUP1 ISZERO PUSH2 0x900 JUMPI PUSH1 0x0 DUP1 REVERT JUMPDEST POP PUSH2 0x91B PUSH1 0x4 DUP1 CALLDATASIZE SUB DUP2 ADD SWAP1 PUSH2 0x916 SWAP2 SWAP1 PUSH2 0x4271 JUMP JUMPDEST PUSH2 0x262B JUMP JUMPDEST PUSH1 0x40 MLOAD PUSH2 0x928 SWAP2 SWAP1 PUSH2 0x3AB5 JUMP JUMPDEST PUSH1 0x40 MLOAD DUP1 SWAP2 SUB SWAP1 RETURN JUMPDEST CALLVALUE DUP1 ISZERO PUSH2 0x93D JUMPI PUSH1 0x0 DUP1 REVERT JUMPDEST POP PUSH2 0x958 PUSH1 0x4 DUP1 CALLDATASIZE SUB DUP2 ADD SWAP1 PUSH2 0x953 SWAP2 SWAP1 PUSH2 0x42B1 JUMP JUMPDEST PUSH2 0x2A09 JUMP JUMPDEST PUSH1 0x40 MLOAD PUSH2 0x965 SWAP2 SWAP1 PUSH2 0x3AB5 JUMP JUMPDEST PUSH1 0x40 MLOAD DUP1 SWAP2 SUB SWAP1 RETURN JUMPDEST CALLVALUE DUP1 ISZERO PUSH2 0x97A JUMPI PUSH1 0x0 DUP1 REVERT JUMPDEST POP PUSH2 0x983 PUSH2 0x2A3A JUMP JUMPDEST PUSH1 0x40 MLOAD PUSH2 0x990 SWAP2 SWAP1 PUSH2 0x3AB5 JUMP JUMPDEST PUSH1 0x40 MLOAD DUP1 SWAP2 SUB SWAP1 RETURN JUMPDEST CALLVALUE DUP1 ISZERO PUSH2 0x9A5 JUMPI PUSH1 0x0 DUP1 REVERT JUMPDEST POP PUSH2 0x9C0 PUSH1 0x4 DUP1 CALLDATASIZE SUB DUP2 ADD SWAP1 PUSH2 0x9BB SWAP2 SWAP1 PUSH2 0x42F1 JUMP JUMPDEST PUSH2 0x2C46 JUMP JUMPDEST STOP JUMPDEST CALLVALUE DUP1 ISZERO PUSH2 0x9CE JUMPI PUSH1 0x0 DUP1 REVERT JUMPDEST POP PUSH2 0x9E9 PUSH1 0x4 DUP1 CALLDATASIZE SUB DUP2 ADD SWAP1 PUSH2 0x9E4 SWAP2 SWAP1 PUSH2 0x3AD0 JUMP JUMPDEST PUSH2 0x2E67 JUMP JUMPDEST PUSH1 0x40 MLOAD PUSH2 0x9FA SWAP6 SWAP5 SWAP4 SWAP3 SWAP2 SWAP1 PUSH2 0x4351 JUMP JUMPDEST PUSH1 0x40 MLOAD DUP1 SWAP2 SUB SWAP1 RETURN JUMPDEST CALLVALUE DUP1 ISZERO PUSH2 0xA0F JUMPI PUSH1 0x0 DUP1 REVERT JUMPDEST POP PUSH2 0xA2A PUSH1 0x4 DUP1 CALLDATASIZE SUB DUP2 ADD SWAP1 PUSH2 0xA25 SWAP2 SWAP1 PUSH2 0x3AD0 JUMP JUMPDEST PUSH2 0x2F52 JUMP JUMPDEST STOP JUMPDEST CALLVALUE DUP1 ISZERO PUSH2 0xA38 JUMPI PUSH1 0x0 DUP1 REVERT JUMPDEST POP PUSH2 0xA53 PUSH1 0x4 DUP1 CALLDATASIZE SUB DUP2 ADD SWAP1 PUSH2 0xA4E SWAP2 SWAP1 PUSH2 0x3E87 JUMP JUMPDEST PUSH2 0x3192 JUMP JUMPDEST STOP JUMPDEST CALLVALUE DUP1 ISZERO PUSH2 0xA61 JUMPI PUSH1 0x0 DUP1 REVERT JUMPDEST POP PUSH2 0xA6A PUSH2 0x3215 JUMP JUMPDEST PUSH1 0x40 MLOAD PUSH2 0xA77 SWAP2 SWAP1 PUSH2 0x3AB5 JUMP JUMPDEST PUSH1 0x40 MLOAD DUP1 SWAP2 SUB SWAP1 RETURN JUMPDEST PUSH2 0xA88 PUSH2 0x321B JUMP JUMPDEST DUP1 PUSH1 0xE PUSH1 0x0 DUP5 DUP2 MSTORE PUSH1 0x20 ADD SWAP1 DUP2 MSTORE PUSH1 0x20 ADD PUSH1 0x0 KECCAK256 PUSH1 0x2 ADD PUSH1 0x1 PUSH2 0x100 EXP DUP2 SLOAD DUP2 PUSH1 0xFF MUL NOT AND SWAP1 DUP4 ISZERO ISZERO MUL OR SWAP1 SSTORE POP POP POP JUMP JUMPDEST PUSH1 0x12 PUSH1 0x20 MSTORE DUP2 PUSH1 0x0 MSTORE PUSH1 0x40 PUSH1 0x0 KECCAK256 DUP2 DUP2 SLOAD DUP2 LT PUSH2 0xAD6 JUMPI PUSH1 0x0 DUP1 REVERT JUMPDEST SWAP1 PUSH1 0x0 MSTORE PUSH1 0x20 PUSH1 0x0 KECCAK256 ADD PUSH1 0x0 SWAP2 POP SWAP2 POP POP SLOAD DUP2 JUMP JUMPDEST PUSH1 0x0 PUSH1 0xA SLOAD CALLVALUE LT ISZERO PUSH2 0xB32 JUMPI PUSH1 0x40 MLOAD PUSH32 0x8C379A000000000000000000000000000000000000000000000000000000000 DUP2 MSTORE PUSH1 0x4 ADD PUSH2 0xB29 SWAP1 PUSH2 0x43F7 JUMP JUMPDEST PUSH1 0x40 MLOAD DUP1 SWAP2 SUB SWAP1 REVERT JUMPDEST PUSH1 0x0 ISZERO ISZERO PUSH1 0xE PUSH1 0x0 PUSH1 0xF PUSH1 0x0 CALLER PUSH20 0xFFFFFFFFFFFFFFFFFFFFFFFFFFFFFFFFFFFFFFFF AND PUSH20 0xFFFFFFFFFFFFFFFFFFFFFFFFFFFFFFFFFFFFFFFF AND DUP2 MSTORE PUSH1 0x20 ADD SWAP1 DUP2 MSTORE PUSH1 0x20 ADD PUSH1 0x0 KECCAK256 SLOAD DUP2 MSTORE PUSH1 0x20 ADD SWAP1 DUP2 MSTORE PUSH1 0x20 ADD PUSH1 0x0 KECCAK256 PUSH1 0x2 ADD PUSH1 0x0 SWAP1 SLOAD SWAP1 PUSH2 0x100 EXP SWAP1 DIV PUSH1 0xFF AND ISZERO ISZERO EQ PUSH2 0xBDB JUMPI PUSH1 0x40 MLOAD PUSH32 0x8C379A000000000000000000000000000000000000000000000000000000000 DUP2 MSTORE PUSH1 0x4 ADD PUSH2 0xBD2 SWAP1 PUSH2 0x4463 JUMP JUMPDEST PUSH1 0x40 MLOAD DUP1 SWAP2 SUB SWAP1 REVERT JUMPDEST PUSH1 0x2 PUSH1 0x0 SWAP1 SLOAD SWAP1 PUSH2 0x100 EXP SWAP1 DIV PUSH20 0xFFFFFFFFFFFFFFFFFFFFFFFFFFFFFFFFFFFFFFFF AND PUSH20 0xFFFFFFFFFFFFFFFFFFFFFFFFFFFFFFFFFFFFFFFF AND PUSH4 0x23B872DD CALLER ADDRESS PUSH1 0xA SLOAD PUSH1 0x40 MLOAD DUP5 PUSH4 0xFFFFFFFF AND PUSH1 0xE0 SHL DUP2 MSTORE PUSH1 0x4 ADD PUSH2 0xC3C SWAP4 SWAP3 SWAP2 SWAP1 PUSH2 0x4483 JUMP JUMPDEST PUSH1 0x20 PUSH1 0x40 MLOAD DUP1 DUP4 SUB DUP2 PUSH1 0x0 DUP8 GAS CALL ISZERO DUP1 ISZERO PUSH2 0xC5B JUMPI RETURNDATASIZE PUSH1 0x0 DUP1 RETURNDATACOPY RETURNDATASIZE PUSH1 0x0 REVERT JUMPDEST POP POP POP POP PUSH1 0x40 MLOAD RETURNDATASIZE PUSH1 0x1F NOT PUSH1 0x1F DUP3 ADD AND DUP3 ADD DUP1 PUSH1 0x40 MSTORE POP DUP2 ADD SWAP1 PUSH2 0xC7F SWAP2 SWAP1 PUSH2 0x44CF JUMP JUMPDEST PUSH2 0xCBE JUMPI PUSH1 0x40 MLOAD PUSH32 0x8C379A000000000000000000000000000000000000000000000000000000000 DUP2 MSTORE PUSH1 0x4 ADD PUSH2 0xCB5 SWAP1 PUSH2 0x4548 JUMP JUMPDEST PUSH1 0x40 MLOAD DUP1 SWAP2 SUB SWAP1 REVERT JUMPDEST PUSH1 0x6 PUSH1 0x0 DUP2 SLOAD DUP1 SWAP3 SWAP2 SWAP1 PUSH2 0xCD1 SWAP1 PUSH2 0x4597 JUMP JUMPDEST SWAP2 SWAP1 POP SSTORE SWAP1 POP PUSH1 0xB DUP2 SWAP1 DUP1 PUSH1 0x1 DUP2 SLOAD ADD DUP1 DUP3 SSTORE DUP1 SWAP2 POP POP PUSH1 0x1 SWAP1 SUB SWAP1 PUSH1 0x0 MSTORE PUSH1 0x20 PUSH1 0x0 KECCAK256 ADD PUSH1 0x0 SWAP1 SWAP2 SWAP1 SWAP2 SWAP1 SWAP2 POP SSTORE PUSH1 0x40 MLOAD DUP1 PUSH1 0xC0 ADD PUSH1 0x40 MSTORE DUP1 CALLER PUSH20 0xFFFFFFFFFFFFFFFFFFFFFFFFFFFFFFFFFFFFFFFF AND DUP2 MSTORE PUSH1 0x20 ADD CALLVALUE DUP2 MSTORE PUSH1 0x20 ADD PUSH1 0x1 ISZERO ISZERO DUP2 MSTORE PUSH1 0x20 ADD PUSH1 0x0 ISZERO ISZERO DUP2 MSTORE PUSH1 0x20 ADD PUSH1 0x0 DUP2 MSTORE PUSH1 0x20 ADD PUSH1 0x0 DUP2 MSTORE POP PUSH1 0xE PUSH1 0x0 DUP4 DUP2 MSTORE PUSH1 0x20 ADD SWAP1 DUP2 MSTORE PUSH1 0x20 ADD PUSH1 0x0 KECCAK256 PUSH1 0x0 DUP3 ADD MLOAD DUP2 PUSH1 0x0 ADD PUSH1 0x0 PUSH2 0x100 EXP DUP2 SLOAD DUP2 PUSH20 0xFFFFFFFFFFFFFFFFFFFFFFFFFFFFFFFFFFFFFFFF MUL NOT AND SWAP1 DUP4 PUSH20 0xFFFFFFFFFFFFFFFFFFFFFFFFFFFFFFFFFFFFFFFF AND MUL OR SWAP1 SSTORE POP PUSH1 0x20 DUP3 ADD MLOAD DUP2 PUSH1 0x1 ADD SSTORE PUSH1 0x40 DUP3 ADD MLOAD DUP2 PUSH1 0x2 ADD PUSH1 0x0 PUSH2 0x100 EXP DUP2 SLOAD DUP2 PUSH1 0xFF MUL NOT AND SWAP1 DUP4 ISZERO ISZERO MUL OR SWAP1 SSTORE POP PUSH1 0x60 DUP3 ADD MLOAD DUP2 PUSH1 0x2 ADD PUSH1 0x1 PUSH2 0x100 EXP DUP2 SLOAD DUP2 PUSH1 0xFF MUL NOT AND SWAP1 DUP4 ISZERO ISZERO MUL OR SWAP1 SSTORE POP PUSH1 0x80 DUP3 ADD MLOAD DUP2 PUSH1 0x3 ADD SSTORE PUSH1 0xA0 DUP3 ADD MLOAD DUP2 PUSH1 0x4 ADD SSTORE SWAP1 POP POP DUP1 PUSH1 0xF PUSH1 0x0 CALLER PUSH20 0xFFFFFFFFFFFFFFFFFFFFFFFFFFFFFFFFFFFFFFFF AND PUSH20 0xFFFFFFFFFFFFFFFFFFFFFFFFFFFFFFFFFFFFFFFF AND DUP2 MSTORE PUSH1 0x20 ADD SWAP1 DUP2 MSTORE PUSH1 0x20 ADD PUSH1 0x0 KECCAK256 DUP2 SWAP1 SSTORE POP CALLVALUE PUSH1 0x9 PUSH1 0x0 DUP3 DUP3 SLOAD PUSH2 0xE5C SWAP2 SWAP1 PUSH2 0x45DF JUMP JUMPDEST SWAP3 POP POP DUP2 SWAP1 SSTORE POP CALLER PUSH20 0xFFFFFFFFFFFFFFFFFFFFFFFFFFFFFFFFFFFFFFFF AND DUP2 PUSH32 0xF0A3714A86F16E40832D97FCBC7F9FBB87E01231324496AAD3F7D01AC3D283BA CALLVALUE PUSH1 0x0 PUSH1 0x40 MLOAD PUSH2 0xEAD SWAP3 SWAP2 SWAP1 PUSH2 0x4613 JUMP JUMPDEST PUSH1 0x40 MLOAD DUP1 SWAP2 SUB SWAP1 LOG3 SWAP1 JUMP JUMPDEST PUSH1 0xD PUSH1 0x20 MSTORE DUP1 PUSH1 0x0 MSTORE PUSH1 0x40 PUSH1 0x0 KECCAK256 PUSH1 0x0 SWAP2 POP SWAP1 POP DUP1 PUSH1 0x0 ADD SLOAD SWAP1 DUP1 PUSH1 0x1 ADD PUSH1 0x0 SWAP1 SLOAD SWAP1 PUSH2 0x100 EXP SWAP1 DIV PUSH20 0xFFFFFFFFFFFFFFFFFFFFFFFFFFFFFFFFFFFFFFFF AND SWAP1 DUP1 PUSH1 0x2 ADD SLOAD SWAP1 DUP1 PUSH1 0x3 ADD PUSH1 0x0 SWAP1 SLOAD SWAP1 PUSH2 0x100 EXP SWAP1 DIV PUSH1 0xFF AND SWAP1 DUP1 PUSH1 0x3 ADD PUSH1 0x1 SWAP1 SLOAD SWAP1 PUSH2 0x100 EXP SWAP1 DIV PUSH1 0xFF AND SWAP1 DUP1 PUSH1 0x4 ADD SLOAD SWAP1 DUP1 PUSH1 0x5 ADD DUP1 SLOAD PUSH2 0xF39 SWAP1 PUSH2 0x466B JUMP JUMPDEST DUP1 PUSH1 0x1F ADD PUSH1 0x20 DUP1 SWAP2 DIV MUL PUSH1 0x20 ADD PUSH1 0x40 MLOAD SWAP1 DUP2 ADD PUSH1 0x40 MSTORE DUP1 SWAP3 SWAP2 SWAP1 DUP2 DUP2 MSTORE PUSH1 0x20 ADD DUP3 DUP1 SLOAD PUSH2 0xF65 SWAP1 PUSH2 0x466B JUMP JUMPDEST DUP1 ISZERO PUSH2 0xFB2 JUMPI DUP1 PUSH1 0x1F LT PUSH2 0xF87 JUMPI PUSH2 0x100 DUP1 DUP4 SLOAD DIV MUL DUP4 MSTORE SWAP2 PUSH1 0x20 ADD SWAP2 PUSH2 0xFB2 JUMP JUMPDEST DUP3 ADD SWAP2 SWAP1 PUSH1 0x0 MSTORE PUSH1 0x20 PUSH1 0x0 KECCAK256 SWAP1 JUMPDEST DUP2 SLOAD DUP2 MSTORE SWAP1 PUSH1 0x1 ADD SWAP1 PUSH1 0x20 ADD DUP1 DUP4 GT PUSH2 0xF95 JUMPI DUP3 SWAP1 SUB PUSH1 0x1F AND DUP3 ADD SWAP2 JUMPDEST POP POP POP POP POP SWAP1 DUP1 PUSH1 0x6 ADD SLOAD SWAP1 POP DUP9 JUMP JUMPDEST PUSH1 0xE PUSH1 0x20 MSTORE DUP1 PUSH1 0x0 MSTORE PUSH1 0x40 PUSH1 0x0 KECCAK256 PUSH1 0x0 SWAP2 POP SWAP1 POP DUP1 PUSH1 0x0 ADD PUSH1 0x0 SWAP1 SLOAD SWAP1 PUSH2 0x100 EXP SWAP1 DIV PUSH20 0xFFFFFFFFFFFFFFFFFFFFFFFFFFFFFFFFFFFFFFFF AND SWAP1 DUP1 PUSH1 0x1 ADD SLOAD SWAP1 DUP1 PUSH1 0x2 ADD PUSH1 0x0 SWAP1 SLOAD SWAP1 PUSH2 0x100 EXP SWAP1 DIV PUSH1 0xFF AND SWAP1 DUP1 PUSH1 0x2 ADD PUSH1 0x1 SWAP1 SLOAD SWAP1 PUSH2 0x100 EXP SWAP1 DIV PUSH1 0xFF AND SWAP1 DUP1 PUSH1 0x3 ADD SLOAD SWAP1 DUP1 PUSH1 0x4 ADD SLOAD SWAP1 POP DUP7 JUMP JUMPDEST PUSH1 0x0 PUSH1 0x4 PUSH1 0x0 DUP2 SLOAD DUP1 SWAP3 SWAP2 SWAP1 PUSH2 0x104D SWAP1 PUSH2 0x4597 JUMP JUMPDEST SWAP2 SWAP1 POP SSTORE SWAP1 POP PUSH1 0x40 MLOAD DUP1 PUSH1 0xA0 ADD PUSH1 0x40 MSTORE DUP1 DUP7 DUP7 DUP1 DUP1 PUSH1 0x1F ADD PUSH1 0x20 DUP1 SWAP2 DIV MUL PUSH1 0x20 ADD PUSH1 0x40 MLOAD SWAP1 DUP2 ADD PUSH1 0x40 MSTORE DUP1 SWAP4 SWAP3 SWAP2 SWAP1 DUP2 DUP2 MSTORE PUSH1 0x20 ADD DUP4 DUP4 DUP1 DUP3 DUP5 CALLDATACOPY PUSH1 0x0 DUP2 DUP5 ADD MSTORE PUSH1 0x1F NOT PUSH1 0x1F DUP3 ADD AND SWAP1 POP DUP1 DUP4 ADD SWAP3 POP POP POP POP POP POP POP DUP2 MSTORE PUSH1 0x20 ADD DUP5 DUP2 MSTORE PUSH1 0x20 ADD CALLER PUSH20 0xFFFFFFFFFFFFFFFFFFFFFFFFFFFFFFFFFFFFFFFF AND DUP2 MSTORE PUSH1 0x20 ADD TIMESTAMP DUP2 MSTORE PUSH1 0x20 ADD DUP4 ISZERO ISZERO DUP2 MSTORE POP PUSH1 0xC PUSH1 0x0 DUP4 DUP2 MSTORE PUSH1 0x20 ADD SWAP1 DUP2 MSTORE PUSH1 0x20 ADD PUSH1 0x0 KECCAK256 PUSH1 0x0 DUP3 ADD MLOAD DUP2 PUSH1 0x0 ADD SWAP1 DUP2 PUSH2 0x10FE SWAP2 SWAP1 PUSH2 0x486D JUMP JUMPDEST POP PUSH1 0x20 DUP3 ADD MLOAD DUP2 PUSH1 0x1 ADD SSTORE PUSH1 0x40 DUP3 ADD MLOAD DUP2 PUSH1 0x2 ADD PUSH1 0x0 PUSH2 0x100 EXP DUP2 SLOAD DUP2 PUSH20 0xFFFFFFFFFFFFFFFFFFFFFFFFFFFFFFFFFFFFFFFF MUL NOT AND SWAP1 DUP4 PUSH20 0xFFFFFFFFFFFFFFFFFFFFFFFFFFFFFFFFFFFFFFFF AND MUL OR SWAP1 SSTORE POP PUSH1 0x60 DUP3 ADD MLOAD DUP2 PUSH1 0x3 ADD SSTORE PUSH1 0x80 DUP3 ADD MLOAD DUP2 PUSH1 0x4 ADD PUSH1 0x0 PUSH2 0x100 EXP DUP2 SLOAD DUP2 PUSH1 0xFF MUL NOT AND SWAP1 DUP4 ISZERO ISZERO MUL OR SWAP1 SSTORE POP SWAP1 POP POP CALLER PUSH20 0xFFFFFFFFFFFFFFFFFFFFFFFFFFFFFFFFFFFFFFFF AND DUP2 PUSH32 0xF459891C2199663ACD138B6611495D64C2F522C1E679F4A267755319DC051FFB DUP8 DUP8 DUP7 PUSH1 0x40 MLOAD PUSH2 0x11C8 SWAP4 SWAP3 SWAP2 SWAP1 PUSH2 0x497B JUMP JUMPDEST PUSH1 0x40 MLOAD DUP1 SWAP2 SUB SWAP1 LOG3 SWAP5 SWAP4 POP POP POP POP JUMP JUMPDEST PUSH2 0x11E0 PUSH2 0x3299 JUMP JUMPDEST PUSH1 0x0 PUSH1 0xD PUSH1 0x0 DUP4 DUP2 MSTORE PUSH1 0x20 ADD SWAP1 DUP2 MSTORE PUSH1 0x20 ADD PUSH1 0x0 KECCAK256 SWAP1 POP DUP1 PUSH1 0x1 ADD PUSH1 0x0 SWAP1 SLOAD SWAP1 PUSH2 0x100 EXP SWAP1 DIV PUSH20 0xFFFFFFFFFFFFFFFFFFFFFFFFFFFFFFFFFFFFFFFF AND PUSH20 0xFFFFFFFFFFFFFFFFFFFFFFFFFFFFFFFFFFFFFFFF AND CALLER PUSH20 0xFFFFFFFFFFFFFFFFFFFFFFFFFFFFFFFFFFFFFFFF AND EQ PUSH2 0x1289 JUMPI PUSH1 0x40 MLOAD PUSH32 0x8C379A000000000000000000000000000000000000000000000000000000000 DUP2 MSTORE PUSH1 0x4 ADD PUSH2 0x1280 SWAP1 PUSH2 0x49F9 JUMP JUMPDEST PUSH1 0x40 MLOAD DUP1 SWAP2 SUB SWAP1 REVERT JUMPDEST PUSH1 0x0 PUSH1 0x3 DUP2 GT ISZERO PUSH2 0x129D JUMPI PUSH2 0x129C PUSH2 0x3B3E JUMP JUMPDEST JUMPDEST DUP2 PUSH1 0x3 ADD PUSH1 0x0 SWAP1 SLOAD SWAP1 PUSH2 0x100 EXP SWAP1 DIV PUSH1 0xFF AND PUSH1 0x3 DUP2 GT ISZERO PUSH2 0x12C1 JUMPI PUSH2 0x12C0 PUSH2 0x3B3E JUMP JUMPDEST JUMPDEST EQ PUSH2 0x1301 JUMPI PUSH1 0x40 MLOAD PUSH32 0x8C379A000000000000000000000000000000000000000000000000000000000 DUP2 MSTORE PUSH1 0x4 ADD PUSH2 0x12F8 SWAP1 PUSH2 0x4A65 JUMP JUMPDEST PUSH1 0x40 MLOAD DUP1 SWAP2 SUB SWAP1 REVERT JUMPDEST PUSH1 0x3 DUP2 PUSH1 0x3 ADD PUSH1 0x0 PUSH2 0x100 EXP DUP2 SLOAD DUP2 PUSH1 0xFF MUL NOT AND SWAP1 DUP4 PUSH1 0x3 DUP2 GT ISZERO PUSH2 0x1329 JUMPI PUSH2 0x1328 PUSH2 0x3B3E JUMP JUMPDEST JUMPDEST MUL OR SWAP1 SSTORE POP PUSH1 0x2 PUSH1 0x0 SWAP1 SLOAD SWAP1 PUSH2 0x100 EXP SWAP1 DIV PUSH20 0xFFFFFFFFFFFFFFFFFFFFFFFFFFFFFFFFFFFFFFFF AND PUSH20 0xFFFFFFFFFFFFFFFFFFFFFFFFFFFFFFFFFFFFFFFF AND PUSH4 0xA9059CBB CALLER DUP4 PUSH1 0x6 ADD SLOAD PUSH1 0x40 MLOAD DUP4 PUSH4 0xFFFFFFFF AND PUSH1 0xE0 SHL DUP2 MSTORE PUSH1 0x4 ADD PUSH2 0x138F SWAP3 SWAP2 SWAP1 PUSH2 0x4A85 JUMP JUMPDEST PUSH1 0x20 PUSH1 0x40 MLOAD DUP1 DUP4 SUB DUP2 PUSH1 0x0 DUP8 GAS CALL ISZERO DUP1 ISZERO PUSH2 0x13AE JUMPI RETURNDATASIZE PUSH1 0x0 DUP1 RETURNDATACOPY RETURNDATASIZE PUSH1 0x0 REVERT JUMPDEST POP POP POP POP PUSH1 0x40 MLOAD RETURNDATASIZE PUSH1 0x1F NOT PUSH1 0x1F DUP3 ADD AND DUP3 ADD DUP1 PUSH1 0x40 MSTORE POP DUP2 ADD SWAP1 PUSH2 0x13D2 SWAP2 SWAP1 PUSH2 0x44CF JUMP JUMPDEST PUSH2 0x1411 JUMPI PUSH1 0x40 MLOAD PUSH32 0x8C379A000000000000000000000000000000000000000000000000000000000 DUP2 MSTORE PUSH1 0x4 ADD PUSH2 0x1408 SWAP1 PUSH2 0x4AFA JUMP JUMPDEST PUSH1 0x40 MLOAD DUP1 SWAP2 SUB SWAP1 REVERT JUMPDEST DUP2 PUSH32 0x11B03C284CC2F2F20A0797445FDD3B96339380CD6FBB5A0BF34BA9AFA7D70271 PUSH1 0x3 PUSH1 0x40 MLOAD PUSH2 0x1442 SWAP2 SWAP1 PUSH2 0x41E5 JUMP JUMPDEST PUSH1 0x40 MLOAD DUP1 SWAP2 SUB SWAP1 LOG2 POP PUSH2 0x1453 PUSH2 0x32E8 JUMP JUMPDEST POP JUMP JUMPDEST PUSH1 0x6 SLOAD DUP2 JUMP JUMPDEST PUSH1 0x14 PUSH1 0x20 MSTORE DUP1 PUSH1 0x0 MSTORE PUSH1 0x40 PUSH1 0x0 KECCAK256 PUSH1 0x0 SWAP2 POP SWAP1 POP DUP1 PUSH1 0x0 ADD SLOAD SWAP1 DUP1 PUSH1 0x1 ADD PUSH1 0x0 SWAP1 SLOAD SWAP1 PUSH2 0x100 EXP SWAP1 DIV PUSH20 0xFFFFFFFFFFFFFFFFFFFFFFFFFFFFFFFFFFFFFFFF AND SWAP1 DUP1 PUSH1 0x2 ADD SLOAD SWAP1 DUP1 PUSH1 0x3 ADD PUSH1 0x0 SWAP1 SLOAD SWAP1 PUSH2 0x100 EXP SWAP1 DIV PUSH1 0xFF AND SWAP1 DUP1 PUSH1 0x3 ADD PUSH1 0x1 SWAP1 SLOAD SWAP1 PUSH2 0x100 EXP SWAP1 DIV PUSH1 0xFF AND SWAP1 DUP1 PUSH1 0x4 ADD SLOAD SWAP1 DUP1 PUSH1 0x5 ADD DUP1 SLOAD PUSH2 0x14DD SWAP1 PUSH2 0x466B JUMP JUMPDEST DUP1 PUSH1 0x1F ADD PUSH1 0x20 DUP1 SWAP2 DIV MUL PUSH1 0x20 ADD PUSH1 0x40 MLOAD SWAP1 DUP2 ADD PUSH1 0x40 MSTORE DUP1 SWAP3 SWAP2 SWAP1 DUP2 DUP2 MSTORE PUSH1 0x20 ADD DUP3 DUP1 SLOAD PUSH2 0x1509 SWAP1 PUSH2 0x466B JUMP JUMPDEST DUP1 ISZERO PUSH2 0x1556 JUMPI DUP1 PUSH1 0x1F LT PUSH2 0x152B JUMPI PUSH2 0x100 DUP1 DUP4 SLOAD DIV MUL DUP4 MSTORE SWAP2 PUSH1 0x20 ADD SWAP2 PUSH2 0x1556 JUMP JUMPDEST DUP3 ADD SWAP2 SWAP1 PUSH1 0x0 MSTORE PUSH1 0x20 PUSH1 0x0 KECCAK256 SWAP1 JUMPDEST DUP2 SLOAD DUP2 MSTORE SWAP1 PUSH1 0x1 ADD SWAP1 PUSH1 0x20 ADD DUP1 DUP4 GT PUSH2 0x1539 JUMPI DUP3 SWAP1 SUB PUSH1 0x1F AND DUP3 ADD SWAP2 JUMPDEST POP POP POP POP POP SWAP1 DUP1 PUSH1 0x6 ADD SLOAD SWAP1 POP DUP9 JUMP JUMPDEST PUSH2 0x156E PUSH2 0x321B JUMP JUMPDEST PUSH1 0x64 DUP2 GT ISZERO PUSH2 0x15B2 JUMPI PUSH1 0x40 MLOAD PUSH32 0x8C379A000000000000000000000000000000000000000000000000000000000 DUP2 MSTORE PUSH1 0x4 ADD PUSH2 0x15A9 SWAP1 PUSH2 0x4B66 JUMP JUMPDEST PUSH1 0x40 MLOAD DUP1 SWAP2 SUB SWAP1 REVERT JUMPDEST DUP1 PUSH1 0x8 DUP2 SWAP1 SSTORE POP PUSH32 0x655013895C0FB569CD19E94BAA5678A65018A104FA01CC5ED169EB77A3ABDEB3 DUP2 PUSH1 0x40 MLOAD PUSH2 0x15E8 SWAP2 SWAP1 PUSH2 0x3AB5 JUMP JUMPDEST PUSH1 0x40 MLOAD DUP1 SWAP2 SUB SWAP1 LOG1 POP JUMP JUMPDEST PUSH1 0x10 PUSH1 0x20 MSTORE DUP1 PUSH1 0x0 MSTORE PUSH1 0x40 PUSH1 0x0 KECCAK256 PUSH1 0x0 SWAP2 POP SWAP1 POP SLOAD DUP2 JUMP JUMPDEST PUSH1 0xA SLOAD DUP2 JUMP JUMPDEST PUSH1 0x60 PUSH1 0x11 PUSH1 0x0 DUP4 PUSH20 0xFFFFFFFFFFFFFFFFFFFFFFFFFFFFFFFFFFFFFFFF AND PUSH20 0xFFFFFFFFFFFFFFFFFFFFFFFFFFFFFFFFFFFFFFFF AND DUP2 MSTORE PUSH1 0x20 ADD SWAP1 DUP2 MSTORE PUSH1 0x20 ADD PUSH1 0x0 KECCAK256 DUP1 SLOAD DUP1 PUSH1 0x20 MUL PUSH1 0x20 ADD PUSH1 0x40 MLOAD SWAP1 DUP2 ADD PUSH1 0x40 MSTORE DUP1 SWAP3 SWAP2 SWAP1 DUP2 DUP2 MSTORE PUSH1 0x20 ADD DUP3 DUP1 SLOAD DUP1 ISZERO PUSH2 0x169C JUMPI PUSH1 0x20 MUL DUP3 ADD SWAP2 SWAP1 PUSH1 0x0 MSTORE PUSH1 0x20 PUSH1 0x0 KECCAK256 SWAP1 JUMPDEST DUP2 SLOAD DUP2 MSTORE PUSH1 0x20 ADD SWAP1 PUSH1 0x1 ADD SWAP1 DUP1 DUP4 GT PUSH2 0x1688 JUMPI JUMPDEST POP POP POP POP POP SWAP1 POP SWAP2 SWAP1 POP JUMP JUMPDEST PUSH1 0x0 PUSH1 0x13 PUSH1 0x0 DUP4 DUP2 MSTORE PUSH1 0x20 ADD SWAP1 DUP2 MSTORE PUSH1 0x20 ADD PUSH1 0x0 KECCAK256 SLOAD SWAP1 POP PUSH1 0x0 DUP1 PUSH1 0x3 PUSH1 0x0 SWAP1 SLOAD SWAP1 PUSH2 0x100 EXP SWAP1 DIV PUSH20 0xFFFFFFFFFFFFFFFFFFFFFFFFFFFFFFFFFFFFFFFF AND PUSH20 0xFFFFFFFFFFFFFFFFFFFFFFFFFFFFFFFFFFFFFFFF AND PUSH4 0xD8A4676F DUP5 PUSH1 0x40 MLOAD DUP3 PUSH4 0xFFFFFFFF AND PUSH1 0xE0 SHL DUP2 MSTORE PUSH1 0x4 ADD PUSH2 0x171E SWAP2 SWAP1 PUSH2 0x3AB5 JUMP JUMPDEST PUSH1 0x0 PUSH1 0x40 MLOAD DUP1 DUP4 SUB DUP2 DUP7 GAS STATICCALL ISZERO DUP1 ISZERO PUSH2 0x173B JUMPI RETURNDATASIZE PUSH1 0x0 DUP1 RETURNDATACOPY RETURNDATASIZE PUSH1 0x0 REVERT JUMPDEST POP POP POP POP PUSH1 0x40 MLOAD RETURNDATASIZE PUSH1 0x0 DUP3 RETURNDATACOPY RETURNDATASIZE PUSH1 0x1F NOT PUSH1 0x1F DUP3 ADD AND DUP3 ADD DUP1 PUSH1 0x40 MSTORE POP DUP2 ADD SWAP1 PUSH2 0x1764 SWAP2 SWAP1 PUSH2 0x4CAA JUMP JUMPDEST SWAP2 POP SWAP2 POP DUP2 PUSH2 0x17A8 JUMPI PUSH1 0x40 MLOAD PUSH32 0x8C379A000000000000000000000000000000000000000000000000000000000 DUP2 MSTORE PUSH1 0x4 ADD PUSH2 0x179F SWAP1 PUSH2 0x4D52 JUMP JUMPDEST PUSH1 0x40 MLOAD DUP1 SWAP2 SUB SWAP1 REVERT JUMPDEST PUSH1 0x1 PUSH1 0x3 DUP2 GT ISZERO PUSH2 0x17BC JUMPI PUSH2 0x17BB PUSH2 0x3B3E JUMP JUMPDEST JUMPDEST PUSH1 0xD PUSH1 0x0 DUP7 DUP2 MSTORE PUSH1 0x20 ADD SWAP1 DUP2 MSTORE PUSH1 0x20 ADD PUSH1 0x0 KECCAK256 PUSH1 0x3 ADD PUSH1 0x0 SWAP1 SLOAD SWAP1 PUSH2 0x100 EXP SWAP1 DIV PUSH1 0xFF AND PUSH1 0x3 DUP2 GT ISZERO PUSH2 0x17F2 JUMPI PUSH2 0x17F1 PUSH2 0x3B3E JUMP JUMPDEST JUMPDEST EQ PUSH2 0x1832 JUMPI PUSH1 0x40 MLOAD PUSH32 0x8C379A000000000000000000000000000000000000000000000000000000000 DUP2 MSTORE PUSH1 0x4 ADD PUSH2 0x1829 SWAP1 PUSH2 0x4DBE JUMP JUMPDEST PUSH1 0x40 MLOAD DUP1 SWAP2 SUB SWAP1 REVERT JUMPDEST PUSH1 0x0 PUSH1 0x9 SLOAD DUP3 PUSH1 0x0 DUP2 MLOAD DUP2 LT PUSH2 0x184B JUMPI PUSH2 0x184A PUSH2 0x4DDE JUMP JUMPDEST JUMPDEST PUSH1 0x20 MUL PUSH1 0x20 ADD ADD MLOAD PUSH2 0x185D SWAP2 SWAP1 PUSH2 0x4E3C JUMP JUMPDEST SWAP1 POP PUSH1 0x0 PUSH2 0x186A DUP3 PUSH2 0x32F2 JUMP JUMPDEST SWAP1 POP PUSH1 0xF PUSH1 0x0 DUP3 PUSH1 0x0 ADD MLOAD PUSH20 0xFFFFFFFFFFFFFFFFFFFFFFFFFFFFFFFFFFFFFFFF AND PUSH20 0xFFFFFFFFFFFFFFFFFFFFFFFFFFFFFFFFFFFFFFFF AND DUP2 MSTORE PUSH1 0x20 ADD SWAP1 DUP2 MSTORE PUSH1 0x20 ADD PUSH1 0x0 KECCAK256 SLOAD PUSH1 0xD PUSH1 0x0 DUP9 DUP2 MSTORE PUSH1 0x20 ADD SWAP1 DUP2 MSTORE PUSH1 0x20 ADD PUSH1 0x0 KECCAK256 PUSH1 0x2 ADD DUP2 SWAP1 SSTORE POP PUSH1 0x2 PUSH1 0xD PUSH1 0x0 DUP9 DUP2 MSTORE PUSH1 0x20 ADD SWAP1 DUP2 MSTORE PUSH1 0x20 ADD PUSH1 0x0 KECCAK256 PUSH1 0x3 ADD PUSH1 0x0 PUSH2 0x100 EXP DUP2 SLOAD DUP2 PUSH1 0xFF MUL NOT AND SWAP1 DUP4 PUSH1 0x3 DUP2 GT ISZERO PUSH2 0x1904 JUMPI PUSH2 0x1903 PUSH2 0x3B3E JUMP JUMPDEST JUMPDEST MUL OR SWAP1 SSTORE POP DUP6 PUSH32 0x11B03C284CC2F2F20A0797445FDD3B96339380CD6FBB5A0BF34BA9AFA7D70271 PUSH1 0x1 PUSH1 0x40 MLOAD PUSH2 0x193A SWAP2 SWAP1 PUSH2 0x41E5 JUMP JUMPDEST PUSH1 0x40 MLOAD DUP1 SWAP2 SUB SWAP1 LOG2 PUSH1 0xF PUSH1 0x0 DUP3 PUSH1 0x0 ADD MLOAD PUSH20 0xFFFFFFFFFFFFFFFFFFFFFFFFFFFFFFFFFFFFFFFF AND PUSH20 0xFFFFFFFFFFFFFFFFFFFFFFFFFFFFFFFFFFFFFFFF AND DUP2 MSTORE PUSH1 0x20 ADD SWAP1 DUP2 MSTORE PUSH1 0x20 ADD PUSH1 0x0 KECCAK256 SLOAD DUP7 PUSH32 0x4B8A5D57E97AF561BEFA88FA50F03D0E54EDA0AABB3B7B71F442453F78AD92D0 PUSH1 0x40 MLOAD PUSH1 0x40 MLOAD DUP1 SWAP2 SUB SWAP1 LOG3 POP POP POP POP POP POP JUMP JUMPDEST PUSH1 0x0 PUSH1 0xD PUSH1 0x0 DUP4 DUP2 MSTORE PUSH1 0x20 ADD SWAP1 DUP2 MSTORE PUSH1 0x20 ADD PUSH1 0x0 KECCAK256 SWAP1 POP PUSH1 0x2 PUSH1 0x3 DUP2 GT ISZERO PUSH2 0x19E6 JUMPI PUSH2 0x19E5 PUSH2 0x3B3E JUMP JUMPDEST JUMPDEST DUP2 PUSH1 0x3 ADD PUSH1 0x0 SWAP1 SLOAD SWAP1 PUSH2 0x100 EXP SWAP1 DIV PUSH1 0xFF AND PUSH1 0x3 DUP2 GT ISZERO PUSH2 0x1A0A JUMPI PUSH2 0x1A09 PUSH2 0x3B3E JUMP JUMPDEST JUMPDEST EQ PUSH2 0x1A4A JUMPI PUSH1 0x40 MLOAD PUSH32 0x8C379A000000000000000000000000000000000000000000000000000000000 DUP2 MSTORE PUSH1 0x4 ADD PUSH2 0x1A41 SWAP1 PUSH2 0x4EB9 JUMP JUMPDEST PUSH1 0x40 MLOAD DUP1 SWAP2 SUB SWAP1 REVERT JUMPDEST DUP1 PUSH1 0x14 PUSH1 0x0 DUP5 DUP2 MSTORE PUSH1 0x20 ADD SWAP1 DUP2 MSTORE PUSH1 0x20 ADD PUSH1 0x0 KECCAK256 PUSH1 0x0 DUP3 ADD SLOAD DUP2 PUSH1 0x0 ADD SSTORE PUSH1 0x1 DUP3 ADD PUSH1 0x0 SWAP1 SLOAD SWAP1 PUSH2 0x100 EXP SWAP1 DIV PUSH20 0xFFFFFFFFFFFFFFFFFFFFFFFFFFFFFFFFFFFFFFFF AND DUP2 PUSH1 0x1 ADD PUSH1 0x0 PUSH2 0x100 EXP DUP2 SLOAD DUP2 PUSH20 0xFFFFFFFFFFFFFFFFFFFFFFFFFFFFFFFFFFFFFFFF MUL NOT AND SWAP1 DUP4 PUSH20 0xFFFFFFFFFFFFFFFFFFFFFFFFFFFFFFFFFFFFFFFF AND MUL OR SWAP1 SSTORE POP PUSH1 0x2 DUP3 ADD SLOAD DUP2 PUSH1 0x2 ADD SSTORE PUSH1 0x3 DUP3 ADD PUSH1 0x0 SWAP1 SLOAD SWAP1 PUSH2 0x100 EXP SWAP1 DIV PUSH1 0xFF AND DUP2 PUSH1 0x3 ADD PUSH1 0x0 PUSH2 0x100 EXP DUP2 SLOAD DUP2 PUSH1 0xFF MUL NOT AND SWAP1 DUP4 PUSH1 0x3 DUP2 GT ISZERO PUSH2 0x1B11 JUMPI PUSH2 0x1B10 PUSH2 0x3B3E JUMP JUMPDEST JUMPDEST MUL OR SWAP1 SSTORE POP PUSH1 0x3 DUP3 ADD PUSH1 0x1 SWAP1 SLOAD SWAP1 PUSH2 0x100 EXP SWAP1 DIV PUSH1 0xFF AND DUP2 PUSH1 0x3 ADD PUSH1 0x1 PUSH2 0x100 EXP DUP2 SLOAD DUP2 PUSH1 0xFF MUL NOT AND SWAP1 DUP4 PUSH1 0x1 DUP2 GT ISZERO PUSH2 0x1B4E JUMPI PUSH2 0x1B4D PUSH2 0x3B3E JUMP JUMPDEST JUMPDEST MUL OR SWAP1 SSTORE POP PUSH1 0x4 DUP3 ADD SLOAD DUP2 PUSH1 0x4 ADD SSTORE PUSH1 0x5 DUP3 ADD DUP2 PUSH1 0x5 ADD SWAP1 DUP2 PUSH2 0x1B71 SWAP2 SWAP1 PUSH2 0x4EEF JUMP JUMPDEST POP PUSH1 0x6 DUP3 ADD SLOAD DUP2 PUSH1 0x6 ADD SSTORE SWAP1 POP POP DUP2 PUSH32 0xBE50084412C1B5B360C595D895466A9298980A464614CE7FD487FB4C7421F426 PUSH1 0x40 MLOAD PUSH1 0x40 MLOAD DUP1 SWAP2 SUB SWAP1 LOG2 POP POP JUMP JUMPDEST PUSH2 0x1BB8 PUSH2 0x3878 JUMP JUMPDEST PUSH1 0xD PUSH1 0x0 DUP4 DUP2 MSTORE PUSH1 0x20 ADD SWAP1 DUP2 MSTORE PUSH1 0x20 ADD PUSH1 0x0 KECCAK256 PUSH1 0x40 MLOAD DUP1 PUSH2 0x100 ADD PUSH1 0x40 MSTORE SWAP1 DUP2 PUSH1 0x0 DUP3 ADD SLOAD DUP2 MSTORE PUSH1 0x20 ADD PUSH1 0x1 DUP3 ADD PUSH1 0x0 SWAP1 SLOAD SWAP1 PUSH2 0x100 EXP SWAP1 DIV PUSH20 0xFFFFFFFFFFFFFFFFFFFFFFFFFFFFFFFFFFFFFFFF AND PUSH20 0xFFFFFFFFFFFFFFFFFFFFFFFFFFFFFFFFFFFFFFFF AND PUSH20 0xFFFFFFFFFFFFFFFFFFFFFFFFFFFFFFFFFFFFFFFF AND DUP2 MSTORE PUSH1 0x20 ADD PUSH1 0x2 DUP3 ADD SLOAD DUP2 MSTORE PUSH1 0x20 ADD PUSH1 0x3 DUP3 ADD PUSH1 0x0 SWAP1 SLOAD SWAP1 PUSH2 0x100 EXP SWAP1 DIV PUSH1 0xFF AND PUSH1 0x3 DUP2 GT ISZERO PUSH2 0x1C66 JUMPI PUSH2 0x1C65 PUSH2 0x3B3E JUMP JUMPDEST JUMPDEST PUSH1 0x3 DUP2 GT ISZERO PUSH2 0x1C78 JUMPI PUSH2 0x1C77 PUSH2 0x3B3E JUMP JUMPDEST JUMPDEST DUP2 MSTORE PUSH1 0x20 ADD PUSH1 0x3 DUP3 ADD PUSH1 0x1 SWAP1 SLOAD SWAP1 PUSH2 0x100 EXP SWAP1 DIV PUSH1 0xFF AND PUSH1 0x1 DUP2 GT ISZERO PUSH2 0x1CA1 JUMPI PUSH2 0x1CA0 PUSH2 0x3B3E JUMP JUMPDEST JUMPDEST PUSH1 0x1 DUP2 GT ISZERO PUSH2 0x1CB3 JUMPI PUSH2 0x1CB2 PUSH2 0x3B3E JUMP JUMPDEST JUMPDEST DUP2 MSTORE PUSH1 0x20 ADD PUSH1 0x4 DUP3 ADD SLOAD DUP2 MSTORE PUSH1 0x20 ADD PUSH1 0x5 DUP3 ADD DUP1 SLOAD PUSH2 0x1CD1 SWAP1 PUSH2 0x466B JUMP JUMPDEST DUP1 PUSH1 0x1F ADD PUSH1 0x20 DUP1 SWAP2 DIV MUL PUSH1 0x20 ADD PUSH1 0x40 MLOAD SWAP1 DUP2 ADD PUSH1 0x40 MSTORE DUP1 SWAP3 SWAP2 SWAP1 DUP2 DUP2 MSTORE PUSH1 0x20 ADD DUP3 DUP1 SLOAD PUSH2 0x1CFD SWAP1 PUSH2 0x466B JUMP JUMPDEST DUP1 ISZERO PUSH2 0x1D4A JUMPI DUP1 PUSH1 0x1F LT PUSH2 0x1D1F JUMPI PUSH2 0x100 DUP1 DUP4 SLOAD DIV MUL DUP4 MSTORE SWAP2 PUSH1 0x20 ADD SWAP2 PUSH2 0x1D4A JUMP JUMPDEST DUP3 ADD SWAP2 SWAP1 PUSH1 0x0 MSTORE PUSH1 0x20 PUSH1 0x0 KECCAK256 SWAP1 JUMPDEST DUP2 SLOAD DUP2 MSTORE SWAP1 PUSH1 0x1 ADD SWAP1 PUSH1 0x20 ADD DUP1 DUP4 GT PUSH2 0x1D2D JUMPI DUP3 SWAP1 SUB PUSH1 0x1F AND DUP3 ADD SWAP2 JUMPDEST POP POP POP POP POP DUP2 MSTORE PUSH1 0x20 ADD PUSH1 0x6 DUP3 ADD SLOAD DUP2 MSTORE POP POP SWAP1 POP SWAP2 SWAP1 POP JUMP JUMPDEST PUSH1 0x7 SLOAD DUP2 JUMP JUMPDEST PUSH1 0x2 PUSH1 0x0 SWAP1 SLOAD SWAP1 PUSH2 0x100 EXP SWAP1 DIV PUSH20 0xFFFFFFFFFFFFFFFFFFFFFFFFFFFFFFFFFFFFFFFF AND DUP2 JUMP JUMPDEST PUSH2 0x1D98 PUSH2 0x3299 JUMP JUMPDEST PUSH1 0x0 PUSH1 0xD PUSH1 0x0 DUP4 DUP2 MSTORE PUSH1 0x20 ADD SWAP1 DUP2 MSTORE PUSH1 0x20 ADD PUSH1 0x0 KECCAK256 SWAP1 POP PUSH1 0x2 PUSH1 0x3 DUP2 GT ISZERO PUSH2 0x1DC3 JUMPI PUSH2 0x1DC2 PUSH2 0x3B3E JUMP JUMPDEST JUMPDEST DUP2 PUSH1 0x3 ADD PUSH1 0x0 SWAP1 SLOAD SWAP1 PUSH2 0x100 EXP SWAP1 DIV PUSH1 0xFF AND PUSH1 0x3 DUP2 GT ISZERO PUSH2 0x1DE7 JUMPI PUSH2 0x1DE6 PUSH2 0x3B3E JUMP JUMPDEST JUMPDEST EQ PUSH2 0x1E27 JUMPI PUSH1 0x40 MLOAD PUSH32 0x8C379A000000000000000000000000000000000000000000000000000000000 DUP2 MSTORE PUSH1 0x4 ADD PUSH2 0x1E1E SWAP1 PUSH2 0x4EB9 JUMP JUMPDEST PUSH1 0x40 MLOAD DUP1 SWAP2 SUB SWAP1 REVERT JUMPDEST PUSH1 0x0 PUSH1 0x64 PUSH1 0x8 SLOAD DUP4 PUSH1 0x6 ADD SLOAD PUSH2 0x1E3D SWAP2 SWAP1 PUSH2 0x4FD7 JUMP JUMPDEST PUSH2 0x1E47 SWAP2 SWAP1 PUSH2 0x5019 JUMP JUMPDEST SWAP1 POP DUP1 PUSH1 0x10 PUSH1 0x0 PUSH1 0xE PUSH1 0x0 DUP7 PUSH1 0x2 ADD SLOAD DUP2 MSTORE PUSH1 0x20 ADD SWAP1 DUP2 MSTORE PUSH1 0x20 ADD PUSH1 0x0 KECCAK256 PUSH1 0x0 ADD PUSH1 0x0 SWAP1 SLOAD SWAP1 PUSH2 0x100 EXP SWAP1 DIV PUSH20 0xFFFFFFFFFFFFFFFFFFFFFFFFFFFFFFFFFFFFFFFF AND PUSH20 0xFFFFFFFFFFFFFFFFFFFFFFFFFFFFFFFFFFFFFFFF AND PUSH20 0xFFFFFFFFFFFFFFFFFFFFFFFFFFFFFFFFFFFFFFFF AND DUP2 MSTORE PUSH1 0x20 ADD SWAP1 DUP2 MSTORE PUSH1 0x20 ADD PUSH1 0x0 KECCAK256 PUSH1 0x0 DUP3 DUP3 SLOAD PUSH2 0x1ED2 SWAP2 SWAP1 PUSH2 0x45DF JUMP JUMPDEST SWAP3 POP POP DUP2 SWAP1 SSTORE POP PUSH1 0xE PUSH1 0x0 DUP4 PUSH1 0x2 ADD SLOAD DUP2 MSTORE PUSH1 0x20 ADD SWAP1 DUP2 MSTORE PUSH1 0x20 ADD PUSH1 0x0 KECCAK256 PUSH1 0x0 ADD PUSH1 0x0 SWAP1 SLOAD SWAP1 PUSH2 0x100 EXP SWAP1 DIV PUSH20 0xFFFFFFFFFFFFFFFFFFFFFFFFFFFFFFFFFFFFFFFF AND PUSH20 0xFFFFFFFFFFFFFFFFFFFFFFFFFFFFFFFFFFFFFFFF AND DUP4 PUSH32 0x4CBFA67F54CF0255619787991CB52AA46C0D3EE5CFABB0ABF659F2B310F47485 DUP4 PUSH1 0x40 MLOAD PUSH2 0x1F5A SWAP2 SWAP1 PUSH2 0x3AB5 JUMP JUMPDEST PUSH1 0x40 MLOAD DUP1 SWAP2 SUB SWAP1 LOG3 POP POP PUSH2 0x1F6C PUSH2 0x32E8 JUMP JUMPDEST POP JUMP JUMPDEST PUSH1 0x0 DUP1 PUSH1 0x0 DUP1 PUSH1 0x0 DUP1 PUSH1 0x0 PUSH1 0xE PUSH1 0x0 DUP10 DUP2 MSTORE PUSH1 0x20 ADD SWAP1 DUP2 MSTORE PUSH1 0x20 ADD PUSH1 0x0 KECCAK256 PUSH1 0x40 MLOAD DUP1 PUSH1 0xC0 ADD PUSH1 0x40 MSTORE SWAP1 DUP2 PUSH1 0x0 DUP3 ADD PUSH1 0x0 SWAP1 SLOAD SWAP1 PUSH2 0x100 EXP SWAP1 DIV PUSH20 0xFFFFFFFFFFFFFFFFFFFFFFFFFFFFFFFFFFFFFFFF AND PUSH20 0xFFFFFFFFFFFFFFFFFFFFFFFFFFFFFFFFFFFFFFFF AND PUSH20 0xFFFFFFFFFFFFFFFFFFFFFFFFFFFFFFFFFFFFFFFF AND DUP2 MSTORE PUSH1 0x20 ADD PUSH1 0x1 DUP3 ADD SLOAD DUP2 MSTORE PUSH1 0x20 ADD PUSH1 0x2 DUP3 ADD PUSH1 0x0 SWAP1 SLOAD SWAP1 PUSH2 0x100 EXP SWAP1 DIV PUSH1 0xFF AND ISZERO ISZERO ISZERO ISZERO DUP2 MSTORE PUSH1 0x20 ADD PUSH1 0x2 DUP3 ADD PUSH1 0x1 SWAP1 SLOAD SWAP1 PUSH2 0x100 EXP SWAP1 DIV PUSH1 0xFF AND ISZERO ISZERO ISZERO ISZERO DUP2 MSTORE PUSH1 0x20 ADD PUSH1 0x3 DUP3 ADD SLOAD DUP2 MSTORE PUSH1 0x20 ADD PUSH1 0x4 DUP3 ADD SLOAD DUP2 MSTORE POP POP SWAP1 POP DUP1 PUSH1 0x0 ADD MLOAD DUP2 PUSH1 0x20 ADD MLOAD DUP3 PUSH1 0x40 ADD MLOAD DUP4 PUSH1 0x60 ADD MLOAD DUP5 PUSH1 0x80 ADD MLOAD DUP6 PUSH1 0xA0 ADD MLOAD SWAP7 POP SWAP7 POP SWAP7 POP SWAP7 POP SWAP7 POP SWAP7 POP POP SWAP2 SWAP4 SWAP6 POP SWAP2 SWAP4 SWAP6 JUMP JUMPDEST PUSH1 0x0 DUP1 PUSH1 0x0 PUSH1 0x4 SLOAD PUSH1 0x5 SLOAD PUSH1 0x6 SLOAD SWAP3 POP SWAP3 POP SWAP3 POP SWAP1 SWAP2 SWAP3 JUMP JUMPDEST PUSH1 0xF PUSH1 0x20 MSTORE DUP1 PUSH1 0x0 MSTORE PUSH1 0x40 PUSH1 0x0 KECCAK256 PUSH1 0x0 SWAP2 POP SWAP1 POP SLOAD DUP2 JUMP JUMPDEST PUSH1 0x3 PUSH1 0x0 SWAP1 SLOAD SWAP1 PUSH2 0x100 EXP SWAP1 DIV PUSH20 0xFFFFFFFFFFFFFFFFFFFFFFFFFFFFFFFFFFFFFFFF AND DUP2 JUMP JUMPDEST PUSH2 0x20D7 PUSH2 0x321B JUMP JUMPDEST DUP1 PUSH1 0x7 DUP2 SWAP1 SSTORE POP PUSH32 0x66CBCA4F3C64FECF1DCB9CE094ABCF7F68C3450A1D4E3A8E917DD621EDB4EBE0 DUP2 PUSH1 0x40 MLOAD PUSH2 0x210D SWAP2 SWAP1 PUSH2 0x3AB5 JUMP JUMPDEST PUSH1 0x40 MLOAD DUP1 SWAP2 SUB SWAP1 LOG1 POP JUMP JUMPDEST PUSH2 0x2120 PUSH2 0x321B JUMP JUMPDEST PUSH2 0x212A PUSH1 0x0 PUSH2 0x34ED JUMP JUMPDEST JUMP JUMPDEST PUSH1 0x9 SLOAD DUP2 JUMP JUMPDEST PUSH1 0x0 PUSH1 0x1 PUSH1 0x0 SWAP1 SLOAD SWAP1 PUSH2 0x100 EXP SWAP1 DIV PUSH20 0xFFFFFFFFFFFFFFFFFFFFFFFFFFFFFFFFFFFFFFFF AND SWAP1 POP SWAP1 JUMP JUMPDEST PUSH2 0x2164 PUSH2 0x321B JUMP JUMPDEST PUSH1 0x0 PUSH1 0xD PUSH1 0x0 DUP5 DUP2 MSTORE PUSH1 0x20 ADD SWAP1 DUP2 MSTORE PUSH1 0x20 ADD PUSH1 0x0 KECCAK256 SWAP1 POP PUSH1 0x2 PUSH1 0x3 DUP2 GT ISZERO PUSH2 0x218F JUMPI PUSH2 0x218E PUSH2 0x3B3E JUMP JUMPDEST JUMPDEST DUP2 PUSH1 0x3 ADD PUSH1 0x0 SWAP1 SLOAD SWAP1 PUSH2 0x100 EXP SWAP1 DIV PUSH1 0xFF AND PUSH1 0x3 DUP2 GT ISZERO PUSH2 0x21B3 JUMPI PUSH2 0x21B2 PUSH2 0x3B3E JUMP JUMPDEST JUMPDEST EQ PUSH2 0x21F3 JUMPI PUSH1 0x40 MLOAD PUSH32 0x8C379A000000000000000000000000000000000000000000000000000000000 DUP2 MSTORE PUSH1 0x4 ADD PUSH2 0x21EA SWAP1 PUSH2 0x4EB9 JUMP JUMPDEST PUSH1 0x40 MLOAD DUP1 SWAP2 SUB SWAP1 REVERT JUMPDEST PUSH1 0x0 DUP3 SWAP1 POP DUP1 PUSH2 0x232D JUMPI PUSH1 0xE PUSH1 0x0 DUP4 PUSH1 0x2 ADD SLOAD DUP2 MSTORE PUSH1 0x20 ADD SWAP1 DUP2 MSTORE PUSH1 0x20 ADD PUSH1 0x0 KECCAK256 PUSH1 0x4 ADD PUSH1 0x0 DUP2 SLOAD DUP1 SWAP3 SWAP2 SWAP1 PUSH2 0x2228 SWAP1 PUSH2 0x504A JUMP JUMPDEST SWAP2 SWAP1 POP SSTORE POP PUSH1 0x2 PUSH1 0x0 SWAP1 SLOAD SWAP1 PUSH2 0x100 EXP SWAP1 DIV PUSH20 0xFFFFFFFFFFFFFFFFFFFFFFFFFFFFFFFFFFFFFFFF AND PUSH20 0xFFFFFFFFFFFFFFFFFFFFFFFFFFFFFFFFFFFFFFFF AND PUSH4 0x23B872DD PUSH1 0xE PUSH1 0x0 DUP6 PUSH1 0x2 ADD SLOAD DUP2 MSTORE PUSH1 0x20 ADD SWAP1 DUP2 MSTORE PUSH1 0x20 ADD PUSH1 0x0 KECCAK256 PUSH1 0x0 ADD PUSH1 0x0 SWAP1 SLOAD SWAP1 PUSH2 0x100 EXP SWAP1 DIV PUSH20 0xFFFFFFFFFFFFFFFFFFFFFFFFFFFFFFFFFFFFFFFF AND ADDRESS PUSH1 0xE PUSH1 0x0 DUP8 PUSH1 0x2 ADD SLOAD DUP2 MSTORE PUSH1 0x20 ADD SWAP1 DUP2 MSTORE PUSH1 0x20 ADD PUSH1 0x0 KECCAK256 PUSH1 0x1 ADD SLOAD PUSH1 0x40 MLOAD DUP5 PUSH4 0xFFFFFFFF AND PUSH1 0xE0 SHL DUP2 MSTORE PUSH1 0x4 ADD PUSH2 0x22E0 SWAP4 SWAP3 SWAP2 SWAP1 PUSH2 0x4483 JUMP JUMPDEST PUSH1 0x20 PUSH1 0x40 MLOAD DUP1 DUP4 SUB DUP2 PUSH1 0x0 DUP8 GAS CALL ISZERO DUP1 ISZERO PUSH2 0x22FF JUMPI RETURNDATASIZE PUSH1 0x0 DUP1 RETURNDATACOPY RETURNDATASIZE PUSH1 0x0 REVERT JUMPDEST POP POP POP POP PUSH1 0x40 MLOAD RETURNDATASIZE PUSH1 0x1F NOT PUSH1 0x1F DUP3 ADD AND DUP3 ADD DUP1 PUSH1 0x40 MSTORE POP DUP2 ADD SWAP1 PUSH2 0x2323 SWAP2 SWAP1 PUSH2 0x44CF JUMP JUMPDEST PUSH2 0x232C JUMPI PUSH1 0x0 DUP1 REVERT JUMPDEST JUMPDEST PUSH1 0x14 PUSH1 0x0 DUP6 DUP2 MSTORE PUSH1 0x20 ADD SWAP1 DUP2 MSTORE PUSH1 0x20 ADD PUSH1 0x0 KECCAK256 PUSH1 0x0 DUP1 DUP3 ADD PUSH1 0x0 SWAP1 SSTORE PUSH1 0x1 DUP3 ADD PUSH1 0x0 PUSH2 0x100 EXP DUP2 SLOAD SWAP1 PUSH20 0xFFFFFFFFFFFFFFFFFFFFFFFFFFFFFFFFFFFFFFFF MUL NOT AND SWAP1 SSTORE PUSH1 0x2 DUP3 ADD PUSH1 0x0 SWAP1 SSTORE PUSH1 0x3 DUP3 ADD PUSH1 0x0 PUSH2 0x100 EXP DUP2 SLOAD SWAP1 PUSH1 0xFF MUL NOT AND SWAP1 SSTORE PUSH1 0x3 DUP3 ADD PUSH1 0x1 PUSH2 0x100 EXP DUP2 SLOAD SWAP1 PUSH1 0xFF MUL NOT AND SWAP1 SSTORE PUSH1 0x4 DUP3 ADD PUSH1 0x0 SWAP1 SSTORE PUSH1 0x5 DUP3 ADD PUSH1 0x0 PUSH2 0x23B8 SWAP2 SWAP1 PUSH2 0x38F7 JUMP JUMPDEST PUSH1 0x6 DUP3 ADD PUSH1 0x0 SWAP1 SSTORE POP POP DUP4 PUSH32 0x5A87909BFF68CAAAAF0B3FD9C74EECCC928832F879315E5C6FB7A73612F26C0C DUP3 PUSH1 0x40 MLOAD PUSH2 0x23F2 SWAP2 SWAP1 PUSH2 0x5073 JUMP JUMPDEST PUSH1 0x40 MLOAD DUP1 SWAP2 SUB SWAP1 LOG2 POP POP POP POP JUMP JUMPDEST PUSH1 0x60 PUSH1 0x12 PUSH1 0x0 DUP4 DUP2 MSTORE PUSH1 0x20 ADD SWAP1 DUP2 MSTORE PUSH1 0x20 ADD PUSH1 0x0 KECCAK256 DUP1 SLOAD DUP1 PUSH1 0x20 MUL PUSH1 0x20 ADD PUSH1 0x40 MLOAD SWAP1 DUP2 ADD PUSH1 0x40 MSTORE DUP1 SWAP3 SWAP2 SWAP1 DUP2 DUP2 MSTORE PUSH1 0x20 ADD DUP3 DUP1 SLOAD DUP1 ISZERO PUSH2 0x245F JUMPI PUSH1 0x20 MUL DUP3 ADD SWAP2 SWAP1 PUSH1 0x0 MSTORE PUSH1 0x20 PUSH1 0x0 KECCAK256 SWAP1 JUMPDEST DUP2 SLOAD DUP2 MSTORE PUSH1 0x20 ADD SWAP1 PUSH1 0x1 ADD SWAP1 DUP1 DUP4 GT PUSH2 0x244B JUMPI JUMPDEST POP POP POP POP POP SWAP1 POP SWAP2 SWAP1 POP JUMP JUMPDEST PUSH1 0xB DUP2 DUP2 SLOAD DUP2 LT PUSH2 0x247B JUMPI PUSH1 0x0 DUP1 REVERT JUMPDEST SWAP1 PUSH1 0x0 MSTORE PUSH1 0x20 PUSH1 0x0 KECCAK256 ADD PUSH1 0x0 SWAP2 POP SWAP1 POP SLOAD DUP2 JUMP JUMPDEST PUSH1 0x4 SLOAD DUP2 JUMP JUMPDEST PUSH1 0x0 PUSH1 0xD PUSH1 0x0 DUP4 DUP2 MSTORE PUSH1 0x20 ADD SWAP1 DUP2 MSTORE PUSH1 0x20 ADD PUSH1 0x0 KECCAK256 PUSH1 0x3 ADD PUSH1 0x0 SWAP1 SLOAD SWAP1 PUSH2 0x100 EXP SWAP1 DIV PUSH1 0xFF AND SWAP1 POP SWAP2 SWAP1 POP JUMP JUMPDEST PUSH1 0x60 PUSH1 0x0 DUP1 PUSH1 0x0 DUP1 PUSH1 0xC PUSH1 0x0 DUP8 DUP2 MSTORE PUSH1 0x20 ADD SWAP1 DUP2 MSTORE PUSH1 0x20 ADD PUSH1 0x0 KECCAK256 PUSH1 0x40 MLOAD DUP1 PUSH1 0xA0 ADD PUSH1 0x40 MSTORE SWAP1 DUP2 PUSH1 0x0 DUP3 ADD DUP1 SLOAD PUSH2 0x24F8 SWAP1 PUSH2 0x466B JUMP JUMPDEST DUP1 PUSH1 0x1F ADD PUSH1 0x20 DUP1 SWAP2 DIV MUL PUSH1 0x20 ADD PUSH1 0x40 MLOAD SWAP1 DUP2 ADD PUSH1 0x40 MSTORE DUP1 SWAP3 SWAP2 SWAP1 DUP2 DUP2 MSTORE PUSH1 0x20 ADD DUP3 DUP1 SLOAD PUSH2 0x2524 SWAP1 PUSH2 0x466B JUMP JUMPDEST DUP1 ISZERO PUSH2 0x2571 JUMPI DUP1 PUSH1 0x1F LT PUSH2 0x2546 JUMPI PUSH2 0x100 DUP1 DUP4 SLOAD DIV MUL DUP4 MSTORE SWAP2 PUSH1 0x20 ADD SWAP2 PUSH2 0x2571 JUMP JUMPDEST DUP3 ADD SWAP2 SWAP1 PUSH1 0x0 MSTORE PUSH1 0x20 PUSH1 0x0 KECCAK256 SWAP1 JUMPDEST DUP2 SLOAD DUP2 MSTORE SWAP1 PUSH1 0x1 ADD SWAP1 PUSH1 0x20 ADD DUP1 DUP4 GT PUSH2 0x2554 JUMPI DUP3 SWAP1 SUB PUSH1 0x1F AND DUP3 ADD SWAP2 JUMPDEST POP POP POP POP POP DUP2 MSTORE PUSH1 0x20 ADD PUSH1 0x1 DUP3 ADD SLOAD DUP2 MSTORE PUSH1 0x20 ADD PUSH1 0x2 DUP3 ADD PUSH1 0x0 SWAP1 SLOAD SWAP1 PUSH2 0x100 EXP SWAP1 DIV PUSH20 0xFFFFFFFFFFFFFFFFFFFFFFFFFFFFFFFFFFFFFFFF AND PUSH20 0xFFFFFFFFFFFFFFFFFFFFFFFFFFFFFFFFFFFFFFFF AND PUSH20 0xFFFFFFFFFFFFFFFFFFFFFFFFFFFFFFFFFFFFFFFF AND DUP2 MSTORE PUSH1 0x20 ADD PUSH1 0x3 DUP3 ADD SLOAD DUP2 MSTORE PUSH1 0x20 ADD PUSH1 0x4 DUP3 ADD PUSH1 0x0 SWAP1 SLOAD SWAP1 PUSH2 0x100 EXP SWAP1 DIV PUSH1 0xFF AND ISZERO ISZERO ISZERO ISZERO DUP2 MSTORE POP POP SWAP1 POP DUP1 PUSH1 0x0 ADD MLOAD DUP2 PUSH1 0x20 ADD MLOAD DUP3 PUSH1 0x40 ADD MLOAD DUP4 PUSH1 0x80 ADD MLOAD SWAP5 POP SWAP5 POP SWAP5 POP SWAP5 POP POP SWAP2 SWAP4 POP SWAP2 SWAP4 JUMP JUMPDEST PUSH1 0x5 SLOAD DUP2 JUMP JUMPDEST PUSH1 0x0 PUSH2 0x2635 PUSH2 0x3299 JUMP JUMPDEST PUSH1 0x2 PUSH1 0x0 SWAP1 SLOAD SWAP1 PUSH2 0x100 EXP SWAP1 DIV PUSH20 0xFFFFFFFFFFFFFFFFFFFFFFFFFFFFFFFFFFFFFFFF AND PUSH20 0xFFFFFFFFFFFFFFFFFFFFFFFFFFFFFFFFFFFFFFFF AND PUSH4 0x23B872DD CALLER ADDRESS PUSH1 0x7 SLOAD PUSH1 0x40 MLOAD DUP5 PUSH4 0xFFFFFFFF AND PUSH1 0xE0 SHL DUP2 MSTORE PUSH1 0x4 ADD PUSH2 0x2696 SWAP4 SWAP3 SWAP2 SWAP1 PUSH2 0x4483 JUMP JUMPDEST PUSH1 0x20 PUSH1 0x40 MLOAD DUP1 DUP4 SUB DUP2 PUSH1 0x0 DUP8 GAS CALL ISZERO DUP1 ISZERO PUSH2 0x26B5 JUMPI RETURNDATASIZE PUSH1 0x0 DUP1 RETURNDATACOPY RETURNDATASIZE PUSH1 0x0 REVERT JUMPDEST POP POP POP POP PUSH1 0x40 MLOAD RETURNDATASIZE PUSH1 0x1F NOT PUSH1 0x1F DUP3 ADD AND DUP3 ADD DUP1 PUSH1 0x40 MSTORE POP DUP2 ADD SWAP1 PUSH2 0x26D9 SWAP2 SWAP1 PUSH2 0x44CF JUMP JUMPDEST PUSH2 0x2718 JUMPI PUSH1 0x40 MLOAD PUSH32 0x8C379A000000000000000000000000000000000000000000000000000000000 DUP2 MSTORE PUSH1 0x4 ADD PUSH2 0x270F SWAP1 PUSH2 0x50DA JUMP JUMPDEST PUSH1 0x40 MLOAD DUP1 SWAP2 SUB SWAP1 REVERT JUMPDEST PUSH1 0x5 PUSH1 0x0 DUP2 SLOAD DUP1 SWAP3 SWAP2 SWAP1 PUSH2 0x272B SWAP1 PUSH2 0x4597 JUMP JUMPDEST SWAP2 SWAP1 POP SSTORE SWAP1 POP PUSH1 0x40 MLOAD DUP1 PUSH2 0x100 ADD PUSH1 0x40 MSTORE DUP1 DUP5 DUP2 MSTORE PUSH1 0x20 ADD CALLER PUSH20 0xFFFFFFFFFFFFFFFFFFFFFFFFFFFFFFFFFFFFFFFF AND DUP2 MSTORE PUSH1 0x20 ADD PUSH1 0x0 DUP2 MSTORE PUSH1 0x20 ADD PUSH1 0x0 PUSH1 0x3 DUP2 GT ISZERO PUSH2 0x277A JUMPI PUSH2 0x2779 PUSH2 0x3B3E JUMP JUMPDEST JUMPDEST DUP2 MSTORE PUSH1 0x20 ADD DUP4 PUSH1 0x1 DUP2 GT ISZERO PUSH2 0x2792 JUMPI PUSH2 0x2791 PUSH2 0x3B3E JUMP JUMPDEST JUMPDEST DUP2 MSTORE PUSH1 0x20 ADD TIMESTAMP DUP2 MSTORE PUSH1 0x20 ADD PUSH1 0x40 MLOAD DUP1 PUSH1 0x20 ADD PUSH1 0x40 MSTORE DUP1 PUSH1 0x0 DUP2 MSTORE POP DUP2 MSTORE PUSH1 0x20 ADD PUSH1 0x7 SLOAD DUP2 MSTORE POP PUSH1 0xD PUSH1 0x0 DUP4 DUP2 MSTORE PUSH1 0x20 ADD SWAP1 DUP2 MSTORE PUSH1 0x20 ADD PUSH1 0x0 KECCAK256 PUSH1 0x0 DUP3 ADD MLOAD DUP2 PUSH1 0x0 ADD SSTORE PUSH1 0x20 DUP3 ADD MLOAD DUP2 PUSH1 0x1 ADD PUSH1 0x0 PUSH2 0x100 EXP DUP2 SLOAD DUP2 PUSH20 0xFFFFFFFFFFFFFFFFFFFFFFFFFFFFFFFFFFFFFFFF MUL NOT AND SWAP1 DUP4 PUSH20 0xFFFFFFFFFFFFFFFFFFFFFFFFFFFFFFFFFFFFFFFF AND MUL OR SWAP1 SSTORE POP PUSH1 0x40 DUP3 ADD MLOAD DUP2 PUSH1 0x2 ADD SSTORE PUSH1 0x60 DUP3 ADD MLOAD DUP2 PUSH1 0x3 ADD PUSH1 0x0 PUSH2 0x100 EXP DUP2 SLOAD DUP2 PUSH1 0xFF MUL NOT AND SWAP1 DUP4 PUSH1 0x3 DUP2 GT ISZERO PUSH2 0x2851 JUMPI PUSH2 0x2850 PUSH2 0x3B3E JUMP JUMPDEST JUMPDEST MUL OR SWAP1 SSTORE POP PUSH1 0x80 DUP3 ADD MLOAD DUP2 PUSH1 0x3 ADD PUSH1 0x1 PUSH2 0x100 EXP DUP2 SLOAD DUP2 PUSH1 0xFF MUL NOT AND SWAP1 DUP4 PUSH1 0x1 DUP2 GT ISZERO PUSH2 0x2881 JUMPI PUSH2 0x2880 PUSH2 0x3B3E JUMP JUMPDEST JUMPDEST MUL OR SWAP1 SSTORE POP PUSH1 0xA0 DUP3 ADD MLOAD DUP2 PUSH1 0x4 ADD SSTORE PUSH1 0xC0 DUP3 ADD MLOAD DUP2 PUSH1 0x5 ADD SWAP1 DUP2 PUSH2 0x28A5 SWAP2 SWAP1 PUSH2 0x486D JUMP JUMPDEST POP PUSH1 0xE0 DUP3 ADD MLOAD DUP2 PUSH1 0x6 ADD SSTORE SWAP1 POP POP PUSH1 0x11 PUSH1 0x0 CALLER PUSH20 0xFFFFFFFFFFFFFFFFFFFFFFFFFFFFFFFFFFFFFFFF AND PUSH20 0xFFFFFFFFFFFFFFFFFFFFFFFFFFFFFFFFFFFFFFFF AND DUP2 MSTORE PUSH1 0x20 ADD SWAP1 DUP2 MSTORE PUSH1 0x20 ADD PUSH1 0x0 KECCAK256 DUP2 SWAP1 DUP1 PUSH1 0x1 DUP2 SLOAD ADD DUP1 DUP3 SSTORE DUP1 SWAP2 POP POP PUSH1 0x1 SWAP1 SUB SWAP1 PUSH1 0x0 MSTORE PUSH1 0x20 PUSH1 0x0 KECCAK256 ADD PUSH1 0x0 SWAP1 SWAP2 SWAP1 SWAP2 SWAP1 SWAP2 POP SSTORE CALLER PUSH20 0xFFFFFFFFFFFFFFFFFFFFFFFFFFFFFFFFFFFFFFFF AND DUP4 DUP3 PUSH32 0x1CCFBAF950885CCC2D47E4F1BD3A4FB1BEAB6C905410A090D1B265ECDAE44B7E DUP6 PUSH1 0x40 MLOAD PUSH2 0x2961 SWAP2 SWAP1 PUSH2 0x50FA JUMP JUMPDEST PUSH1 0x40 MLOAD DUP1 SWAP2 SUB SWAP1 LOG4 PUSH2 0x2972 DUP2 PUSH2 0x35B3 JUMP JUMPDEST DUP1 PUSH32 0x11B03C284CC2F2F20A0797445FDD3B96339380CD6FBB5A0BF34BA9AFA7D70271 PUSH1 0x1 PUSH1 0x40 MLOAD PUSH2 0x29A3 SWAP2 SWAP1 PUSH2 0x41E5 JUMP JUMPDEST PUSH1 0x40 MLOAD DUP1 SWAP2 SUB SWAP1 LOG2 CALLER PUSH20 0xFFFFFFFFFFFFFFFFFFFFFFFFFFFFFFFFFFFFFFFF AND DUP4 DUP3 PUSH32 0x1CCFBAF950885CCC2D47E4F1BD3A4FB1BEAB6C905410A090D1B265ECDAE44B7E DUP6 PUSH1 0x40 MLOAD PUSH2 0x29F3 SWAP2 SWAP1 PUSH2 0x50FA JUMP JUMPDEST PUSH1 0x40 MLOAD DUP1 SWAP2 SUB SWAP1 LOG4 PUSH2 0x2A03 PUSH2 0x32E8 JUMP JUMPDEST SWAP3 SWAP2 POP POP JUMP JUMPDEST PUSH1 0x11 PUSH1 0x20 MSTORE DUP2 PUSH1 0x0 MSTORE PUSH1 0x40 PUSH1 0x0 KECCAK256 DUP2 DUP2 SLOAD DUP2 LT PUSH2 0x2A25 JUMPI PUSH1 0x0 DUP1 REVERT JUMPDEST SWAP1 PUSH1 0x0 MSTORE PUSH1 0x20 PUSH1 0x0 KECCAK256 ADD PUSH1 0x0 SWAP2 POP SWAP2 POP POP SLOAD DUP2 JUMP JUMPDEST PUSH1 0x0 PUSH2 0x2A44 PUSH2 0x3299 JUMP JUMPDEST PUSH1 0x10 PUSH1 0x0 CALLER PUSH20 0xFFFFFFFFFFFFFFFFFFFFFFFFFFFFFFFFFFFFFFFF AND PUSH20 0xFFFFFFFFFFFFFFFFFFFFFFFFFFFFFFFFFFFFFFFF AND DUP2 MSTORE PUSH1 0x20 ADD SWAP1 DUP2 MSTORE PUSH1 0x20 ADD PUSH1 0x0 KECCAK256 SLOAD SWAP1 POP PUSH1 0x0 DUP2 GT PUSH2 0x2AC9 JUMPI PUSH1 0x40 MLOAD PUSH32 0x8C379A000000000000000000000000000000000000000000000000000000000 DUP2 MSTORE PUSH1 0x4 ADD PUSH2 0x2AC0 SWAP1 PUSH2 0x5161 JUMP JUMPDEST PUSH1 0x40 MLOAD DUP1 SWAP2 SUB SWAP1 REVERT JUMPDEST PUSH1 0x0 PUSH1 0x10 PUSH1 0x0 CALLER PUSH20 0xFFFFFFFFFFFFFFFFFFFFFFFFFFFFFFFFFFFFFFFF AND PUSH20 0xFFFFFFFFFFFFFFFFFFFFFFFFFFFFFFFFFFFFFFFF AND DUP2 MSTORE PUSH1 0x20 ADD SWAP1 DUP2 MSTORE PUSH1 0x20 ADD PUSH1 0x0 KECCAK256 DUP2 SWAP1 SSTORE POP PUSH1 0x2 PUSH1 0x0 SWAP1 SLOAD SWAP1 PUSH2 0x100 EXP SWAP1 DIV PUSH20 0xFFFFFFFFFFFFFFFFFFFFFFFFFFFFFFFFFFFFFFFF AND PUSH20 0xFFFFFFFFFFFFFFFFFFFFFFFFFFFFFFFFFFFFFFFF AND PUSH4 0xA9059CBB CALLER DUP4 PUSH1 0x40 MLOAD DUP4 PUSH4 0xFFFFFFFF AND PUSH1 0xE0 SHL DUP2 MSTORE PUSH1 0x4 ADD PUSH2 0x2B6B SWAP3 SWAP2 SWAP1 PUSH2 0x4A85 JUMP JUMPDEST PUSH1 0x20 PUSH1 0x40 MLOAD DUP1 DUP4 SUB DUP2 PUSH1 0x0 DUP8 GAS CALL ISZERO DUP1 ISZERO PUSH2 0x2B8A JUMPI RETURNDATASIZE PUSH1 0x0 DUP1 RETURNDATACOPY RETURNDATASIZE PUSH1 0x0 REVERT JUMPDEST POP POP POP POP PUSH1 0x40 MLOAD RETURNDATASIZE PUSH1 0x1F NOT PUSH1 0x1F DUP3 ADD AND DUP3 ADD DUP1 PUSH1 0x40 MSTORE POP DUP2 ADD SWAP1 PUSH2 0x2BAE SWAP2 SWAP1 PUSH2 0x44CF JUMP JUMPDEST PUSH2 0x2BED JUMPI PUSH1 0x40 MLOAD PUSH32 0x8C379A000000000000000000000000000000000000000000000000000000000 DUP2 MSTORE PUSH1 0x4 ADD PUSH2 0x2BE4 SWAP1 PUSH2 0x51CD JUMP JUMPDEST PUSH1 0x40 MLOAD DUP1 SWAP2 SUB SWAP1 REVERT JUMPDEST CALLER PUSH20 0xFFFFFFFFFFFFFFFFFFFFFFFFFFFFFFFFFFFFFFFF AND PUSH32 0x8A43C4352486EC339F487F64AF78CA5CBF06CD47833F073D3BAF3A193E503161 DUP3 PUSH1 0x40 MLOAD PUSH2 0x2C33 SWAP2 SWAP1 PUSH2 0x3AB5 JUMP JUMPDEST PUSH1 0x40 MLOAD DUP1 SWAP2 SUB SWAP1 LOG2 PUSH2 0x2C43 PUSH2 0x32E8 JUMP JUMPDEST SWAP1 JUMP JUMPDEST PUSH1 0x0 PUSH1 0xD PUSH1 0x0 DUP6 DUP2 MSTORE PUSH1 0x20 ADD SWAP1 DUP2 MSTORE PUSH1 0x20 ADD PUSH1 0x0 KECCAK256 SWAP1 POP CALLER PUSH20 0xFFFFFFFFFFFFFFFFFFFFFFFFFFFFFFFFFFFFFFFF AND PUSH1 0xE PUSH1 0x0 DUP4 PUSH1 0x2 ADD SLOAD DUP2 MSTORE PUSH1 0x20 ADD SWAP1 DUP2 MSTORE PUSH1 0x20 ADD PUSH1 0x0 KECCAK256 PUSH1 0x0 ADD PUSH1 0x0 SWAP1 SLOAD SWAP1 PUSH2 0x100 EXP SWAP1 DIV PUSH20 0xFFFFFFFFFFFFFFFFFFFFFFFFFFFFFFFFFFFFFFFF AND PUSH20 0xFFFFFFFFFFFFFFFFFFFFFFFFFFFFFFFFFFFFFFFF AND EQ PUSH2 0x2D05 JUMPI PUSH1 0x40 MLOAD PUSH32 0x8C379A000000000000000000000000000000000000000000000000000000000 DUP2 MSTORE PUSH1 0x4 ADD PUSH2 0x2CFC SWAP1 PUSH2 0x5239 JUMP JUMPDEST PUSH1 0x40 MLOAD DUP1 SWAP2 SUB SWAP1 REVERT JUMPDEST PUSH1 0x1 PUSH1 0x3 DUP2 GT ISZERO PUSH2 0x2D19 JUMPI PUSH2 0x2D18 PUSH2 0x3B3E JUMP JUMPDEST JUMPDEST DUP2 PUSH1 0x3 ADD PUSH1 0x0 SWAP1 SLOAD SWAP1 PUSH2 0x100 EXP SWAP1 DIV PUSH1 0xFF AND PUSH1 0x3 DUP2 GT ISZERO PUSH2 0x2D3D JUMPI PUSH2 0x2D3C PUSH2 0x3B3E JUMP JUMPDEST JUMPDEST EQ PUSH2 0x2D7D JUMPI PUSH1 0x40 MLOAD PUSH32 0x8C379A000000000000000000000000000000000000000000000000000000000 DUP2 MSTORE PUSH1 0x4 ADD PUSH2 0x2D74 SWAP1 PUSH2 0x52A5 JUMP JUMPDEST PUSH1 0x40 MLOAD DUP1 SWAP2 SUB SWAP1 REVERT JUMPDEST PUSH1 0x2 DUP2 PUSH1 0x3 ADD PUSH1 0x0 PUSH2 0x100 EXP DUP2 SLOAD DUP2 PUSH1 0xFF MUL NOT AND SWAP1 DUP4 PUSH1 0x3 DUP2 GT ISZERO PUSH2 0x2DA5 JUMPI PUSH2 0x2DA4 PUSH2 0x3B3E JUMP JUMPDEST JUMPDEST MUL OR SWAP1 SSTORE POP DUP3 DUP3 DUP3 PUSH1 0x5 ADD SWAP2 DUP3 PUSH2 0x2DBD SWAP3 SWAP2 SWAP1 PUSH2 0x52D0 JUMP JUMPDEST POP PUSH1 0xE PUSH1 0x0 DUP3 PUSH1 0x2 ADD SLOAD DUP2 MSTORE PUSH1 0x20 ADD SWAP1 DUP2 MSTORE PUSH1 0x20 ADD PUSH1 0x0 KECCAK256 PUSH1 0x3 ADD PUSH1 0x0 DUP2 SLOAD DUP1 SWAP3 SWAP2 SWAP1 PUSH2 0x2DE9 SWAP1 PUSH2 0x4597 JUMP JUMPDEST SWAP2 SWAP1 POP SSTORE POP DUP4 PUSH32 0x24F3A78B4012B95741CA9128E65F9375A155DD95645FD6D2784AF82F05375621 DUP5 DUP5 PUSH1 0x40 MLOAD PUSH2 0x2E20 SWAP3 SWAP2 SWAP1 PUSH2 0x53A0 JUMP JUMPDEST PUSH1 0x40 MLOAD DUP1 SWAP2 SUB SWAP1 LOG2 DUP4 PUSH32 0x11B03C284CC2F2F20A0797445FDD3B96339380CD6FBB5A0BF34BA9AFA7D70271 PUSH1 0x2 PUSH1 0x40 MLOAD PUSH2 0x2E59 SWAP2 SWAP1 PUSH2 0x41E5 JUMP JUMPDEST PUSH1 0x40 MLOAD DUP1 SWAP2 SUB SWAP1 LOG2 POP POP POP POP JUMP JUMPDEST PUSH1 0xC PUSH1 0x20 MSTORE DUP1 PUSH1 0x0 MSTORE PUSH1 0x40 PUSH1 0x0 KECCAK256 PUSH1 0x0 SWAP2 POP SWAP1 POP DUP1 PUSH1 0x0 ADD DUP1 SLOAD PUSH2 0x2E8A SWAP1 PUSH2 0x466B JUMP JUMPDEST DUP1 PUSH1 0x1F ADD PUSH1 0x20 DUP1 SWAP2 DIV MUL PUSH1 0x20 ADD PUSH1 0x40 MLOAD SWAP1 DUP2 ADD PUSH1 0x40 MSTORE DUP1 SWAP3 SWAP2 SWAP1 DUP2 DUP2 MSTORE PUSH1 0x20 ADD DUP3 DUP1 SLOAD PUSH2 0x2EB6 SWAP1 PUSH2 0x466B JUMP JUMPDEST DUP1 ISZERO PUSH2 0x2F03 JUMPI DUP1 PUSH1 0x1F LT PUSH2 0x2ED8 JUMPI PUSH2 0x100 DUP1 DUP4 SLOAD DIV MUL DUP4 MSTORE SWAP2 PUSH1 0x20 ADD SWAP2 PUSH2 0x2F03 JUMP JUMPDEST DUP3 ADD SWAP2 SWAP1 PUSH1 0x0 MSTORE PUSH1 0x20 PUSH1 0x0 KECCAK256 SWAP1 JUMPDEST DUP2 SLOAD DUP2 MSTORE SWAP1 PUSH1 0x1 ADD SWAP1 PUSH1 0x20 ADD DUP1 DUP4 GT PUSH2 0x2EE6 JUMPI DUP3 SWAP1 SUB PUSH1 0x1F AND DUP3 ADD SWAP2 JUMPDEST POP POP POP POP POP SWAP1 DUP1 PUSH1 0x1 ADD SLOAD SWAP1 DUP1 PUSH1 0x2 ADD PUSH1 0x0 SWAP1 SLOAD SWAP1 PUSH2 0x100 EXP SWAP1 DIV PUSH20 0xFFFFFFFFFFFFFFFFFFFFFFFFFFFFFFFFFFFFFFFF AND SWAP1 DUP1 PUSH1 0x3 ADD SLOAD SWAP1 DUP1 PUSH1 0x4 ADD PUSH1 0x0 SWAP1 SLOAD SWAP1 PUSH2 0x100 EXP SWAP1 DIV PUSH1 0xFF AND SWAP1 POP DUP6 JUMP JUMPDEST PUSH2 0x2F5A PUSH2 0x3299 JUMP JUMPDEST PUSH1 0x0 PUSH1 0xE PUSH1 0x0 DUP4 DUP2 MSTORE PUSH1 0x20 ADD SWAP1 DUP2 MSTORE PUSH1 0x20 ADD PUSH1 0x0 KECCAK256 SWAP1 POP DUP1 PUSH1 0x0 ADD PUSH1 0x0 SWAP1 SLOAD SWAP1 PUSH2 0x100 EXP SWAP1 DIV PUSH20 0xFFFFFFFFFFFFFFFFFFFFFFFFFFFFFFFFFFFFFFFF AND PUSH20 0xFFFFFFFFFFFFFFFFFFFFFFFFFFFFFFFFFFFFFFFF AND CALLER PUSH20 0xFFFFFFFFFFFFFFFFFFFFFFFFFFFFFFFFFFFFFFFF AND EQ PUSH2 0x3003 JUMPI PUSH1 0x40 MLOAD PUSH32 0x8C379A000000000000000000000000000000000000000000000000000000000 DUP2 MSTORE PUSH1 0x4 ADD PUSH2 0x2FFA SWAP1 PUSH2 0x5410 JUMP JUMPDEST PUSH1 0x40 MLOAD DUP1 SWAP2 SUB SWAP1 REVERT JUMPDEST DUP1 PUSH1 0x2 ADD PUSH1 0x0 SWAP1 SLOAD SWAP1 PUSH2 0x100 EXP SWAP1 DIV PUSH1 0xFF AND PUSH2 0x3054 JUMPI PUSH1 0x40 MLOAD PUSH32 0x8C379A000000000000000000000000000000000000000000000000000000000 DUP2 MSTORE PUSH1 0x4 ADD PUSH2 0x304B SWAP1 PUSH2 0x547C JUMP JUMPDEST PUSH1 0x40 MLOAD DUP1 SWAP2 SUB SWAP1 REVERT JUMPDEST PUSH1 0x0 DUP2 PUSH1 0x2 ADD PUSH1 0x0 PUSH2 0x100 EXP DUP2 SLOAD DUP2 PUSH1 0xFF MUL NOT AND SWAP1 DUP4 ISZERO ISZERO MUL OR SWAP1 SSTORE POP PUSH1 0x2 PUSH1 0x0 SWAP1 SLOAD SWAP1 PUSH2 0x100 EXP SWAP1 DIV PUSH20 0xFFFFFFFFFFFFFFFFFFFFFFFFFFFFFFFFFFFFFFFF AND PUSH20 0xFFFFFFFFFFFFFFFFFFFFFFFFFFFFFFFFFFFFFFFF AND PUSH4 0x23B872DD ADDRESS CALLER PUSH1 0xE PUSH1 0x0 DUP8 DUP2 MSTORE PUSH1 0x20 ADD SWAP1 DUP2 MSTORE PUSH1 0x20 ADD PUSH1 0x0 KECCAK256 PUSH1 0x1 ADD SLOAD PUSH1 0x40 MLOAD DUP5 PUSH4 0xFFFFFFFF AND PUSH1 0xE0 SHL DUP2 MSTORE PUSH1 0x4 ADD PUSH2 0x30E6 SWAP4 SWAP3 SWAP2 SWAP1 PUSH2 0x4483 JUMP JUMPDEST PUSH1 0x20 PUSH1 0x40 MLOAD DUP1 DUP4 SUB DUP2 PUSH1 0x0 DUP8 GAS CALL ISZERO DUP1 ISZERO PUSH2 0x3105 JUMPI RETURNDATASIZE PUSH1 0x0 DUP1 RETURNDATACOPY RETURNDATASIZE PUSH1 0x0 REVERT JUMPDEST POP POP POP POP PUSH1 0x40 MLOAD RETURNDATASIZE PUSH1 0x1F NOT PUSH1 0x1F DUP3 ADD AND DUP3 ADD DUP1 PUSH1 0x40 MSTORE POP DUP2 ADD SWAP1 PUSH2 0x3129 SWAP2 SWAP1 PUSH2 0x44CF JUMP JUMPDEST POP PUSH1 0xE PUSH1 0x0 DUP4 DUP2 MSTORE PUSH1 0x20 ADD SWAP1 DUP2 MSTORE PUSH1 0x20 ADD PUSH1 0x0 KECCAK256 PUSH1 0x1 ADD SLOAD PUSH1 0x9 PUSH1 0x0 DUP3 DUP3 SLOAD PUSH2 0x3152 SWAP2 SWAP1 PUSH2 0x549C JUMP JUMPDEST SWAP3 POP POP DUP2 SWAP1 SSTORE POP DUP2 PUSH32 0x225B982F3F68D9ECD9AAA2ECE1C491786E6E4BF7AC4028B1CE7024691475383C PUSH1 0x40 MLOAD PUSH1 0x40 MLOAD DUP1 SWAP2 SUB SWAP1 LOG2 POP PUSH2 0x318F PUSH2 0x32E8 JUMP JUMPDEST POP JUMP JUMPDEST PUSH2 0x319A PUSH2 0x321B JUMP JUMPDEST PUSH1 0x0 PUSH20 0xFFFFFFFFFFFFFFFFFFFFFFFFFFFFFFFFFFFFFFFF AND DUP2 PUSH20 0xFFFFFFFFFFFFFFFFFFFFFFFFFFFFFFFFFFFFFFFF AND SUB PUSH2 0x3209 JUMPI PUSH1 0x40 MLOAD PUSH32 0x8C379A000000000000000000000000000000000000000000000000000000000 DUP2 MSTORE PUSH1 0x4 ADD PUSH2 0x3200 SWAP1 PUSH2 0x5542 JUMP JUMPDEST PUSH1 0x40 MLOAD DUP1 SWAP2 SUB SWAP1 REVERT JUMPDEST PUSH2 0x3212 DUP2 PUSH2 0x34ED JUMP JUMPDEST POP JUMP JUMPDEST PUSH1 0x8 SLOAD DUP2 JUMP JUMPDEST PUSH2 0x3223 PUSH2 0x3870 JUMP JUMPDEST PUSH20 0xFFFFFFFFFFFFFFFFFFFFFFFFFFFFFFFFFFFFFFFF AND PUSH2 0x3241 PUSH2 0x2132 JUMP JUMPDEST PUSH20 0xFFFFFFFFFFFFFFFFFFFFFFFFFFFFFFFFFFFFFFFF AND EQ PUSH2 0x3297 JUMPI PUSH1 0x40 MLOAD PUSH32 0x8C379A000000000000000000000000000000000000000000000000000000000 DUP2 MSTORE PUSH1 0x4 ADD PUSH2 0x328E SWAP1 PUSH2 0x55AE JUMP JUMPDEST PUSH1 0x40 MLOAD DUP1 SWAP2 SUB SWAP1 REVERT JUMPDEST JUMP JUMPDEST PUSH1 0x2 PUSH1 0x0 SLOAD SUB PUSH2 0x32DE JUMPI PUSH1 0x40 MLOAD PUSH32 0x8C379A000000000000000000000000000000000000000000000000000000000 DUP2 MSTORE PUSH1 0x4 ADD PUSH2 0x32D5 SWAP1 PUSH2 0x561A JUMP JUMPDEST PUSH1 0x40 MLOAD DUP1 SWAP2 SUB SWAP1 REVERT JUMPDEST PUSH1 0x2 PUSH1 0x0 DUP2 SWAP1 SSTORE POP JUMP JUMPDEST PUSH1 0x1 PUSH1 0x0 DUP2 SWAP1 SSTORE POP JUMP JUMPDEST PUSH2 0x32FA PUSH2 0x3937 JUMP JUMPDEST PUSH1 0x0 DUP1 JUMPDEST PUSH1 0xB DUP1 SLOAD SWAP1 POP DUP2 LT ISZERO PUSH2 0x340A JUMPI PUSH1 0x0 PUSH1 0xE PUSH1 0x0 DUP4 DUP2 MSTORE PUSH1 0x20 ADD SWAP1 DUP2 MSTORE PUSH1 0x20 ADD PUSH1 0x0 KECCAK256 PUSH1 0x40 MLOAD DUP1 PUSH1 0xC0 ADD PUSH1 0x40 MSTORE SWAP1 DUP2 PUSH1 0x0 DUP3 ADD PUSH1 0x0 SWAP1 SLOAD SWAP1 PUSH2 0x100 EXP SWAP1 DIV PUSH20 0xFFFFFFFFFFFFFFFFFFFFFFFFFFFFFFFFFFFFFFFF AND PUSH20 0xFFFFFFFFFFFFFFFFFFFFFFFFFFFFFFFFFFFFFFFF AND PUSH20 0xFFFFFFFFFFFFFFFFFFFFFFFFFFFFFFFFFFFFFFFF AND DUP2 MSTORE PUSH1 0x20 ADD PUSH1 0x1 DUP3 ADD SLOAD DUP2 MSTORE PUSH1 0x20 ADD PUSH1 0x2 DUP3 ADD PUSH1 0x0 SWAP1 SLOAD SWAP1 PUSH2 0x100 EXP SWAP1 DIV PUSH1 0xFF AND ISZERO ISZERO ISZERO ISZERO DUP2 MSTORE PUSH1 0x20 ADD PUSH1 0x2 DUP3 ADD PUSH1 0x1 SWAP1 SLOAD SWAP1 PUSH2 0x100 EXP SWAP1 DIV PUSH1 0xFF AND ISZERO ISZERO ISZERO ISZERO DUP2 MSTORE PUSH1 0x20 ADD PUSH1 0x3 DUP3 ADD SLOAD DUP2 MSTORE PUSH1 0x20 ADD PUSH1 0x4 DUP3 ADD SLOAD DUP2 MSTORE POP POP SWAP1 POP DUP1 PUSH1 0x20 ADD MLOAD DUP4 PUSH2 0x33E7 SWAP2 SWAP1 PUSH2 0x45DF JUMP JUMPDEST SWAP3 POP DUP3 DUP6 LT ISZERO PUSH2 0x33FC JUMPI DUP1 SWAP4 POP POP POP POP PUSH2 0x34E8 JUMP JUMPDEST POP DUP1 DUP1 PUSH1 0x1 ADD SWAP2 POP POP PUSH2 0x32FE JUMP JUMPDEST POP PUSH1 0xE PUSH1 0x0 PUSH1 0x1 PUSH1 0xB DUP1 SLOAD SWAP1 POP PUSH2 0x3421 SWAP2 SWAP1 PUSH2 0x549C JUMP JUMPDEST DUP2 MSTORE PUSH1 0x20 ADD SWAP1 DUP2 MSTORE PUSH1 0x20 ADD PUSH1 0x0 KECCAK256 PUSH1 0x40 MLOAD DUP1 PUSH1 0xC0 ADD PUSH1 0x40 MSTORE SWAP1 DUP2 PUSH1 0x0 DUP3 ADD PUSH1 0x0 SWAP1 SLOAD SWAP1 PUSH2 0x100 EXP SWAP1 DIV PUSH20 0xFFFFFFFFFFFFFFFFFFFFFFFFFFFFFFFFFFFFFFFF AND PUSH20 0xFFFFFFFFFFFFFFFFFFFFFFFFFFFFFFFFFFFFFFFF AND PUSH20 0xFFFFFFFFFFFFFFFFFFFFFFFFFFFFFFFFFFFFFFFF AND DUP2 MSTORE PUSH1 0x20 ADD PUSH1 0x1 DUP3 ADD SLOAD DUP2 MSTORE PUSH1 0x20 ADD PUSH1 0x2 DUP3 ADD PUSH1 0x0 SWAP1 SLOAD SWAP1 PUSH2 0x100 EXP SWAP1 DIV PUSH1 0xFF AND ISZERO ISZERO ISZERO ISZERO DUP2 MSTORE PUSH1 0x20 ADD PUSH1 0x2 DUP3 ADD PUSH1 0x1 SWAP1 SLOAD SWAP1 PUSH2 0x100 EXP SWAP1 DIV PUSH1 0xFF AND ISZERO ISZERO ISZERO ISZERO DUP2 MSTORE PUSH1 0x20 ADD PUSH1 0x3 DUP3 ADD SLOAD DUP2 MSTORE PUSH1 0x20 ADD PUSH1 0x4 DUP3 ADD SLOAD DUP2 MSTORE POP POP SWAP2 POP POP JUMPDEST SWAP2 SWAP1 POP JUMP JUMPDEST PUSH1 0x0 PUSH1 0x1 PUSH1 0x0 SWAP1 SLOAD SWAP1 PUSH2 0x100 EXP SWAP1 DIV PUSH20 0xFFFFFFFFFFFFFFFFFFFFFFFFFFFFFFFFFFFFFFFF AND SWAP1 POP DUP2 PUSH1 0x1 PUSH1 0x0 PUSH2 0x100 EXP DUP2 SLOAD DUP2 PUSH20 0xFFFFFFFFFFFFFFFFFFFFFFFFFFFFFFFFFFFFFFFF MUL NOT AND SWAP1 DUP4 PUSH20 0xFFFFFFFFFFFFFFFFFFFFFFFFFFFFFFFFFFFFFFFF AND MUL OR SWAP1 SSTORE POP DUP2 PUSH20 0xFFFFFFFFFFFFFFFFFFFFFFFFFFFFFFFFFFFFFFFF AND DUP2 PUSH20 0xFFFFFFFFFFFFFFFFFFFFFFFFFFFFFFFFFFFFFFFF AND PUSH32 0x8BE0079C531659141344CD1FD0A4F28419497F9722A3DAAFE3B4186F6B6457E0 PUSH1 0x40 MLOAD PUSH1 0x40 MLOAD DUP1 SWAP2 SUB SWAP1 LOG3 POP POP JUMP JUMPDEST PUSH1 0x0 PUSH1 0x3 DUP2 GT ISZERO PUSH2 0x35C7 JUMPI PUSH2 0x35C6 PUSH2 0x3B3E JUMP JUMPDEST JUMPDEST PUSH1 0xD PUSH1 0x0 DUP4 DUP2 MSTORE PUSH1 0x20 ADD SWAP1 DUP2 MSTORE PUSH1 0x20 ADD PUSH1 0x0 KECCAK256 PUSH1 0x3 ADD PUSH1 0x0 SWAP1 SLOAD SWAP1 PUSH2 0x100 EXP SWAP1 DIV PUSH1 0xFF AND PUSH1 0x3 DUP2 GT ISZERO PUSH2 0x35FD JUMPI PUSH2 0x35FC PUSH2 0x3B3E JUMP JUMPDEST JUMPDEST EQ PUSH2 0x363D JUMPI PUSH1 0x40 MLOAD PUSH32 0x8C379A000000000000000000000000000000000000000000000000000000000 DUP2 MSTORE PUSH1 0x4 ADD PUSH2 0x3634 SWAP1 PUSH2 0x4A65 JUMP JUMPDEST PUSH1 0x40 MLOAD DUP1 SWAP2 SUB SWAP1 REVERT JUMPDEST PUSH1 0x0 PUSH1 0x9 SLOAD GT PUSH2 0x3682 JUMPI PUSH1 0x40 MLOAD PUSH32 0x8C379A000000000000000000000000000000000000000000000000000000000 DUP2 MSTORE PUSH1 0x4 ADD PUSH2 0x3679 SWAP1 PUSH2 0x5686 JUMP JUMPDEST PUSH1 0x40 MLOAD DUP1 SWAP2 SUB SWAP1 REVERT JUMPDEST PUSH1 0x0 PUSH1 0x3 PUSH1 0x0 SWAP1 SLOAD SWAP1 PUSH2 0x100 EXP SWAP1 DIV PUSH20 0xFFFFFFFFFFFFFFFFFFFFFFFFFFFFFFFFFFFFFFFF AND PUSH20 0xFFFFFFFFFFFFFFFFFFFFFFFFFFFFFFFFFFFFFFFF AND PUSH4 0xE726F2E1 PUSH1 0x1 PUSH1 0x40 MLOAD DUP3 PUSH4 0xFFFFFFFF AND PUSH1 0xE0 SHL DUP2 MSTORE PUSH1 0x4 ADD PUSH2 0x36E0 SWAP2 SWAP1 PUSH2 0x56F1 JUMP JUMPDEST PUSH1 0x20 PUSH1 0x40 MLOAD DUP1 DUP4 SUB DUP2 PUSH1 0x0 DUP8 GAS CALL ISZERO DUP1 ISZERO PUSH2 0x36FF JUMPI RETURNDATASIZE PUSH1 0x0 DUP1 RETURNDATACOPY RETURNDATASIZE PUSH1 0x0 REVERT JUMPDEST POP POP POP POP PUSH1 0x40 MLOAD RETURNDATASIZE PUSH1 0x1F NOT PUSH1 0x1F DUP3 ADD AND DUP3 ADD DUP1 PUSH1 0x40 MSTORE POP DUP2 ADD SWAP1 PUSH2 0x3723 SWAP2 SWAP1 PUSH2 0x570C JUMP JUMPDEST SWAP1 POP DUP2 PUSH1 0x13 PUSH1 0x0 DUP4 DUP2 MSTORE PUSH1 0x20 ADD SWAP1 DUP2 MSTORE PUSH1 0x20 ADD PUSH1 0x0 KECCAK256 DUP2 SWAP1 SSTORE POP PUSH1 0x1 PUSH1 0xD PUSH1 0x0 DUP5 DUP2 MSTORE PUSH1 0x20 ADD SWAP1 DUP2 MSTORE PUSH1 0x20 ADD PUSH1 0x0 KECCAK256 PUSH1 0x3 ADD PUSH1 0x0 PUSH2 0x100 EXP DUP2 SLOAD DUP2 PUSH1 0xFF MUL NOT AND SWAP1 DUP4 PUSH1 0x3 DUP2 GT ISZERO PUSH2 0x3777 JUMPI PUSH2 0x3776 PUSH2 0x3B3E JUMP JUMPDEST JUMPDEST MUL OR SWAP1 SSTORE POP DUP2 PUSH32 0x11B03C284CC2F2F20A0797445FDD3B96339380CD6FBB5A0BF34BA9AFA7D70271 PUSH1 0x1 PUSH1 0x40 MLOAD PUSH2 0x37AD SWAP2 SWAP1 PUSH2 0x41E5 JUMP JUMPDEST PUSH1 0x40 MLOAD DUP1 SWAP2 SUB SWAP1 LOG2 PUSH1 0x0 PUSH1 0x3 PUSH1 0x0 SWAP1 SLOAD SWAP1 PUSH2 0x100 EXP SWAP1 DIV PUSH20 0xFFFFFFFFFFFFFFFFFFFFFFFFFFFFFFFFFFFFFFFF AND PUSH20 0xFFFFFFFFFFFFFFFFFFFFFFFFFFFFFFFFFFFFFFFF AND PUSH4 0xD8A4676F DUP4 PUSH1 0x40 MLOAD DUP3 PUSH4 0xFFFFFFFF AND PUSH1 0xE0 SHL DUP2 MSTORE PUSH1 0x4 ADD PUSH2 0x3812 SWAP2 SWAP1 PUSH2 0x3AB5 JUMP JUMPDEST PUSH1 0x0 PUSH1 0x40 MLOAD DUP1 DUP4 SUB DUP2 DUP7 GAS STATICCALL ISZERO DUP1 ISZERO PUSH2 0x382F JUMPI RETURNDATASIZE PUSH1 0x0 DUP1 RETURNDATACOPY RETURNDATASIZE PUSH1 0x0 REVERT JUMPDEST POP POP POP POP PUSH1 0x40 MLOAD RETURNDATASIZE PUSH1 0x0 DUP3 RETURNDATACOPY RETURNDATASIZE PUSH1 0x1F NOT PUSH1 0x1F DUP3 ADD AND DUP3 ADD DUP1 PUSH1 0x40 MSTORE POP DUP2 ADD SWAP1 PUSH2 0x3858 SWAP2 SWAP1 PUSH2 0x4CAA JUMP JUMPDEST POP SWAP1 POP DUP1 ISZERO PUSH2 0x386B JUMPI PUSH2 0x386A DUP4 PUSH2 0x16A8 JUMP JUMPDEST JUMPDEST POP POP POP JUMP JUMPDEST PUSH1 0x0 CALLER SWAP1 POP SWAP1 JUMP JUMPDEST PUSH1 0x40 MLOAD DUP1 PUSH2 0x100 ADD PUSH1 0x40 MSTORE DUP1 PUSH1 0x0 DUP2 MSTORE PUSH1 0x20 ADD PUSH1 0x0 PUSH20 0xFFFFFFFFFFFFFFFFFFFFFFFFFFFFFFFFFFFFFFFF AND DUP2 MSTORE PUSH1 0x20 ADD PUSH1 0x0 DUP2 MSTORE PUSH1 0x20 ADD PUSH1 0x0 PUSH1 0x3 DUP2 GT ISZERO PUSH2 0x38C3 JUMPI PUSH2 0x38C2 PUSH2 0x3B3E JUMP JUMPDEST JUMPDEST DUP2 MSTORE PUSH1 0x20 ADD PUSH1 0x0 PUSH1 0x1 DUP2 GT ISZERO PUSH2 0x38DC JUMPI PUSH2 0x38DB PUSH2 0x3B3E JUMP JUMPDEST JUMPDEST DUP2 MSTORE PUSH1 0x20 ADD PUSH1 0x0 DUP2 MSTORE PUSH1 0x20 ADD PUSH1 0x60 DUP2 MSTORE PUSH1 0x20 ADD PUSH1 0x0 DUP2 MSTORE POP SWAP1 JUMP JUMPDEST POP DUP1 SLOAD PUSH2 0x3903 SWAP1 PUSH2 0x466B JUMP JUMPDEST PUSH1 0x0 DUP3 SSTORE DUP1 PUSH1 0x1F LT PUSH2 0x3915 JUMPI POP PUSH2 0x3934 JUMP JUMPDEST PUSH1 0x1F ADD PUSH1 0x20 SWAP1 DIV SWAP1 PUSH1 0x0 MSTORE PUSH1 0x20 PUSH1 0x0 KECCAK256 SWAP1 DUP2 ADD SWAP1 PUSH2 0x3933 SWAP2 SWAP1 PUSH2 0x3987 JUMP JUMPDEST JUMPDEST POP JUMP JUMPDEST PUSH1 0x40 MLOAD DUP1 PUSH1 0xC0 ADD PUSH1 0x40 MSTORE DUP1 PUSH1 0x0 PUSH20 0xFFFFFFFFFFFFFFFFFFFFFFFFFFFFFFFFFFFFFFFF AND DUP2 MSTORE PUSH1 0x20 ADD PUSH1 0x0 DUP2 MSTORE PUSH1 0x20 ADD PUSH1 0x0 ISZERO ISZERO DUP2 MSTORE PUSH1 0x20 ADD PUSH1 0x0 ISZERO ISZERO DUP2 MSTORE PUSH1 0x20 ADD PUSH1 0x0 DUP2 MSTORE PUSH1 0x20 ADD PUSH1 0x0 DUP2 MSTORE POP SWAP1 JUMP JUMPDEST JUMPDEST DUP1 DUP3 GT ISZERO PUSH2 0x39A0 JUMPI PUSH1 0x0 DUP2 PUSH1 0x0 SWAP1 SSTORE POP PUSH1 0x1 ADD PUSH2 0x3988 JUMP JUMPDEST POP SWAP1 JUMP JUMPDEST PUSH1 0x0 PUSH1 0x40 MLOAD SWAP1 POP SWAP1 JUMP JUMPDEST PUSH1 0x0 DUP1 REVERT JUMPDEST PUSH1 0x0 DUP1 REVERT JUMPDEST PUSH1 0x0 DUP2 SWAP1 POP SWAP2 SWAP1 POP JUMP JUMPDEST PUSH2 0x39CB DUP2 PUSH2 0x39B8 JUMP JUMPDEST DUP2 EQ PUSH2 0x39D6 JUMPI PUSH1 0x0 DUP1 REVERT JUMPDEST POP JUMP JUMPDEST PUSH1 0x0 DUP2 CALLDATALOAD SWAP1 POP PUSH2 0x39E8 DUP2 PUSH2 0x39C2 JUMP JUMPDEST SWAP3 SWAP2 POP POP JUMP JUMPDEST PUSH1 0x0 DUP2 ISZERO ISZERO SWAP1 POP SWAP2 SWAP1 POP JUMP JUMPDEST PUSH2 0x3A03 DUP2 PUSH2 0x39EE JUMP JUMPDEST DUP2 EQ PUSH2 0x3A0E JUMPI PUSH1 0x0 DUP1 REVERT JUMPDEST POP JUMP JUMPDEST PUSH1 0x0 DUP2 CALLDATALOAD SWAP1 POP PUSH2 0x3A20 DUP2 PUSH2 0x39FA JUMP JUMPDEST SWAP3 SWAP2 POP POP JUMP JUMPDEST PUSH1 0x0 DUP1 PUSH1 0x40 DUP4 DUP6 SUB SLT ISZERO PUSH2 0x3A3D JUMPI PUSH2 0x3A3C PUSH2 0x39AE JUMP JUMPDEST JUMPDEST PUSH1 0x0 PUSH2 0x3A4B DUP6 DUP3 DUP7 ADD PUSH2 0x39D9 JUMP JUMPDEST SWAP3 POP POP PUSH1 0x20 PUSH2 0x3A5C DUP6 DUP3 DUP7 ADD PUSH2 0x3A11 JUMP JUMPDEST SWAP2 POP POP SWAP3 POP SWAP3 SWAP1 POP JUMP JUMPDEST PUSH1 0x0 DUP1 PUSH1 0x40 DUP4 DUP6 SUB SLT ISZERO PUSH2 0x3A7D JUMPI PUSH2 0x3A7C PUSH2 0x39AE JUMP JUMPDEST JUMPDEST PUSH1 0x0 PUSH2 0x3A8B DUP6 DUP3 DUP7 ADD PUSH2 0x39D9 JUMP JUMPDEST SWAP3 POP POP PUSH1 0x20 PUSH2 0x3A9C DUP6 DUP3 DUP7 ADD PUSH2 0x39D9 JUMP JUMPDEST SWAP2 POP POP SWAP3 POP SWAP3 SWAP1 POP JUMP JUMPDEST PUSH2 0x3AAF DUP2 PUSH2 0x39B8 JUMP JUMPDEST DUP3 MSTORE POP POP JUMP JUMPDEST PUSH1 0x0 PUSH1 0x20 DUP3 ADD SWAP1 POP PUSH2 0x3ACA PUSH1 0x0 DUP4 ADD DUP5 PUSH2 0x3AA6 JUMP JUMPDEST SWAP3 SWAP2 POP POP JUMP JUMPDEST PUSH1 0x0 PUSH1 0x20 DUP3 DUP5 SUB SLT ISZERO PUSH2 0x3AE6 JUMPI PUSH2 0x3AE5 PUSH2 0x39AE JUMP JUMPDEST JUMPDEST PUSH1 0x0 PUSH2 0x3AF4 DUP5 DUP3 DUP6 ADD PUSH2 0x39D9 JUMP JUMPDEST SWAP2 POP POP SWAP3 SWAP2 POP POP JUMP JUMPDEST PUSH1 0x0 PUSH20 0xFFFFFFFFFFFFFFFFFFFFFFFFFFFFFFFFFFFFFFFF DUP3 AND SWAP1 POP SWAP2 SWAP1 POP JUMP JUMPDEST PUSH1 0x0 PUSH2 0x3B28 DUP3 PUSH2 0x3AFD JUMP JUMPDEST SWAP1 POP SWAP2 SWAP1 POP JUMP JUMPDEST PUSH2 0x3B38 DUP2 PUSH2 0x3B1D JUMP JUMPDEST DUP3 MSTORE POP POP JUMP JUMPDEST PUSH32 0x4E487B7100000000000000000000000000000000000000000000000000000000 PUSH1 0x0 MSTORE PUSH1 0x21 PUSH1 0x4 MSTORE PUSH1 0x24 PUSH1 0x0 REVERT JUMPDEST PUSH1 0x4 DUP2 LT PUSH2 0x3B7E JUMPI PUSH2 0x3B7D PUSH2 0x3B3E JUMP JUMPDEST JUMPDEST POP JUMP JUMPDEST PUSH1 0x0 DUP2 SWAP1 POP PUSH2 0x3B8F DUP3 PUSH2 0x3B6D JUMP JUMPDEST SWAP2 SWAP1 POP JUMP JUMPDEST PUSH1 0x0 PUSH2 0x3B9F DUP3 PUSH2 0x3B81 JUMP JUMPDEST SWAP1 POP SWAP2 SWAP1 POP JUMP JUMPDEST PUSH2 0x3BAF DUP2 PUSH2 0x3B94 JUMP JUMPDEST DUP3 MSTORE POP POP JUMP JUMPDEST PUSH1 0x2 DUP2 LT PUSH2 0x3BC6 JUMPI PUSH2 0x3BC5 PUSH2 0x3B3E JUMP JUMPDEST JUMPDEST POP JUMP JUMPDEST PUSH1 0x0 DUP2 SWAP1 POP PUSH2 0x3BD7 DUP3 PUSH2 0x3BB5 JUMP JUMPDEST SWAP2 SWAP1 POP JUMP JUMPDEST PUSH1 0x0 PUSH2 0x3BE7 DUP3 PUSH2 0x3BC9 JUMP JUMPDEST SWAP1 POP SWAP2 SWAP1 POP JUMP JUMPDEST PUSH2 0x3BF7 DUP2 PUSH2 0x3BDC JUMP JUMPDEST DUP3 MSTORE POP POP JUMP JUMPDEST PUSH1 0x0 DUP2 MLOAD SWAP1 POP SWAP2 SWAP1 POP JUMP JUMPDEST PUSH1 0x0 DUP3 DUP3 MSTORE PUSH1 0x20 DUP3 ADD SWAP1 POP SWAP3 SWAP2 POP POP JUMP JUMPDEST PUSH1 0x0 JUMPDEST DUP4 DUP2 LT ISZERO PUSH2 0x3C37 JUMPI DUP1 DUP3 ADD MLOAD DUP2 DUP5 ADD MSTORE PUSH1 0x20 DUP2 ADD SWAP1 POP PUSH2 0x3C1C JUMP JUMPDEST PUSH1 0x0 DUP5 DUP5 ADD MSTORE POP POP POP POP JUMP JUMPDEST PUSH1 0x0 PUSH1 0x1F NOT PUSH1 0x1F DUP4 ADD AND SWAP1 POP SWAP2 SWAP1 POP JUMP JUMPDEST PUSH1 0x0 PUSH2 0x3C5F DUP3 PUSH2 0x3BFD JUMP JUMPDEST PUSH2 0x3C69 DUP2 DUP6 PUSH2 0x3C08 JUMP JUMPDEST SWAP4 POP PUSH2 0x3C79 DUP2 DUP6 PUSH1 0x20 DUP7 ADD PUSH2 0x3C19 JUMP JUMPDEST PUSH2 0x3C82 DUP2 PUSH2 0x3C43 JUMP JUMPDEST DUP5 ADD SWAP2 POP POP SWAP3 SWAP2 POP POP JUMP JUMPDEST PUSH1 0x0 PUSH2 0x100 DUP3 ADD SWAP1 POP PUSH2 0x3CA3 PUSH1 0x0 DUP4 ADD DUP12 PUSH2 0x3AA6 JUMP JUMPDEST PUSH2 0x3CB0 PUSH1 0x20 DUP4 ADD DUP11 PUSH2 0x3B2F JUMP JUMPDEST PUSH2 0x3CBD PUSH1 0x40 DUP4 ADD DUP10 PUSH2 0x3AA6 JUMP JUMPDEST PUSH2 0x3CCA PUSH1 0x60 DUP4 ADD DUP9 PUSH2 0x3BA6 JUMP JUMPDEST PUSH2 0x3CD7 PUSH1 0x80 DUP4 ADD DUP8 PUSH2 0x3BEE JUMP JUMPDEST PUSH2 0x3CE4 PUSH1 0xA0 DUP4 ADD DUP7 PUSH2 0x3AA6 JUMP JUMPDEST DUP2 DUP2 SUB PUSH1 0xC0 DUP4 ADD MSTORE PUSH2 0x3CF6 DUP2 DUP6 PUSH2 0x3C54 JUMP JUMPDEST SWAP1 POP PUSH2 0x3D05 PUSH1 0xE0 DUP4 ADD DUP5 PUSH2 0x3AA6 JUMP JUMPDEST SWAP10 SWAP9 POP POP POP POP POP POP POP POP POP JUMP JUMPDEST PUSH2 0x3D1B DUP2 PUSH2 0x39EE JUMP JUMPDEST DUP3 MSTORE POP POP JUMP JUMPDEST PUSH1 0x0 PUSH1 0xC0 DUP3 ADD SWAP1 POP PUSH2 0x3D36 PUSH1 0x0 DUP4 ADD DUP10 PUSH2 0x3B2F JUMP JUMPDEST PUSH2 0x3D43 PUSH1 0x20 DUP4 ADD DUP9 PUSH2 0x3AA6 JUMP JUMPDEST PUSH2 0x3D50 PUSH1 0x40 DUP4 ADD DUP8 PUSH2 0x3D12 JUMP JUMPDEST PUSH2 0x3D5D PUSH1 0x60 DUP4 ADD DUP7 PUSH2 0x3D12 JUMP JUMPDEST PUSH2 0x3D6A PUSH1 0x80 DUP4 ADD DUP6 PUSH2 0x3AA6 JUMP JUMPDEST PUSH2 0x3D77 PUSH1 0xA0 DUP4 ADD DUP5 PUSH2 0x3AA6 JUMP JUMPDEST SWAP8 SWAP7 POP POP POP POP POP POP POP JUMP JUMPDEST PUSH1 0x0 DUP1 REVERT JUMPDEST PUSH1 0x0 DUP1 REVERT JUMPDEST PUSH1 0x0 DUP1 REVERT JUMPDEST PUSH1 0x0 DUP1 DUP4 PUSH1 0x1F DUP5 ADD SLT PUSH2 0x3DA7 JUMPI PUSH2 0x3DA6 PUSH2 0x3D82 JUMP JUMPDEST JUMPDEST DUP3 CALLDATALOAD SWAP1 POP PUSH8 0xFFFFFFFFFFFFFFFF DUP2 GT ISZERO PUSH2 0x3DC4 JUMPI PUSH2 0x3DC3 PUSH2 0x3D87 JUMP JUMPDEST JUMPDEST PUSH1 0x20 DUP4 ADD SWAP2 POP DUP4 PUSH1 0x1 DUP3 MUL DUP4 ADD GT ISZERO PUSH2 0x3DE0 JUMPI PUSH2 0x3DDF PUSH2 0x3D8C JUMP JUMPDEST JUMPDEST SWAP3 POP SWAP3 SWAP1 POP JUMP JUMPDEST PUSH1 0x0 DUP1 PUSH1 0x0 DUP1 PUSH1 0x60 DUP6 DUP8 SUB SLT ISZERO PUSH2 0x3E01 JUMPI PUSH2 0x3E00 PUSH2 0x39AE JUMP JUMPDEST JUMPDEST PUSH1 0x0 DUP6 ADD CALLDATALOAD PUSH8 0xFFFFFFFFFFFFFFFF DUP2 GT ISZERO PUSH2 0x3E1F JUMPI PUSH2 0x3E1E PUSH2 0x39B3 JUMP JUMPDEST JUMPDEST PUSH2 0x3E2B DUP8 DUP3 DUP9 ADD PUSH2 0x3D91 JUMP JUMPDEST SWAP5 POP SWAP5 POP POP PUSH1 0x20 PUSH2 0x3E3E DUP8 DUP3 DUP9 ADD PUSH2 0x39D9 JUMP JUMPDEST SWAP3 POP POP PUSH1 0x40 PUSH2 0x3E4F DUP8 DUP3 DUP9 ADD PUSH2 0x3A11 JUMP JUMPDEST SWAP2 POP POP SWAP3 SWAP6 SWAP2 SWAP5 POP SWAP3 POP JUMP JUMPDEST PUSH2 0x3E64 DUP2 PUSH2 0x3B1D JUMP JUMPDEST DUP2 EQ PUSH2 0x3E6F JUMPI PUSH1 0x0 DUP1 REVERT JUMPDEST POP JUMP JUMPDEST PUSH1 0x0 DUP2 CALLDATALOAD SWAP1 POP PUSH2 0x3E81 DUP2 PUSH2 0x3E5B JUMP JUMPDEST SWAP3 SWAP2 POP POP JUMP JUMPDEST PUSH1 0x0 PUSH1 0x20 DUP3 DUP5 SUB SLT ISZERO PUSH2 0x3E9D JUMPI PUSH2 0x3E9C PUSH2 0x39AE JUMP JUMPDEST JUMPDEST PUSH1 0x0 PUSH2 0x3EAB DUP5 DUP3 DUP6 ADD PUSH2 0x3E72 JUMP JUMPDEST SWAP2 POP POP SWAP3 SWAP2 POP POP JUMP JUMPDEST PUSH1 0x0 DUP2 MLOAD SWAP1 POP SWAP2 SWAP1 POP JUMP JUMPDEST PUSH1 0x0 DUP3 DUP3 MSTORE PUSH1 0x20 DUP3 ADD SWAP1 POP SWAP3 SWAP2 POP POP JUMP JUMPDEST PUSH1 0x0 DUP2 SWAP1 POP PUSH1 0x20 DUP3 ADD SWAP1 POP SWAP2 SWAP1 POP JUMP JUMPDEST PUSH2 0x3EE9 DUP2 PUSH2 0x39B8 JUMP JUMPDEST DUP3 MSTORE POP POP JUMP JUMPDEST PUSH1 0x0 PUSH2 0x3EFB DUP4 DUP4 PUSH2 0x3EE0 JUMP JUMPDEST PUSH1 0x20 DUP4 ADD SWAP1 POP SWAP3 SWAP2 POP POP JUMP JUMPDEST PUSH1 0x0 PUSH1 0x20 DUP3 ADD SWAP1 POP SWAP2 SWAP1 POP JUMP JUMPDEST PUSH1 0x0 PUSH2 0x3F1F DUP3 PUSH2 0x3EB4 JUMP JUMPDEST PUSH2 0x3F29 DUP2 DUP6 PUSH2 0x3EBF JUMP JUMPDEST SWAP4 POP PUSH2 0x3F34 DUP4 PUSH2 0x3ED0 JUMP JUMPDEST DUP1 PUSH1 0x0 JUMPDEST DUP4 DUP2 LT ISZERO PUSH2 0x3F65 JUMPI DUP2 MLOAD PUSH2 0x3F4C DUP9 DUP3 PUSH2 0x3EEF JUMP JUMPDEST SWAP8 POP PUSH2 0x3F57 DUP4 PUSH2 0x3F07 JUMP JUMPDEST SWAP3 POP POP PUSH1 0x1 DUP2 ADD SWAP1 POP PUSH2 0x3F38 JUMP JUMPDEST POP DUP6 SWAP4 POP POP POP POP SWAP3 SWAP2 POP POP JUMP JUMPDEST PUSH1 0x0 PUSH1 0x20 DUP3 ADD SWAP1 POP DUP2 DUP2 SUB PUSH1 0x0 DUP4 ADD MSTORE PUSH2 0x3F8C DUP2 DUP5 PUSH2 0x3F14 JUMP JUMPDEST SWAP1 POP SWAP3 SWAP2 POP POP JUMP JUMPDEST PUSH2 0x3F9D DUP2 PUSH2 0x3B1D JUMP JUMPDEST DUP3 MSTORE POP POP JUMP JUMPDEST PUSH2 0x3FAC DUP2 PUSH2 0x3B94 JUMP JUMPDEST DUP3 MSTORE POP POP JUMP JUMPDEST PUSH2 0x3FBB DUP2 PUSH2 0x3BDC JUMP JUMPDEST DUP3 MSTORE POP POP JUMP JUMPDEST PUSH1 0x0 DUP3 DUP3 MSTORE PUSH1 0x20 DUP3 ADD SWAP1 POP SWAP3 SWAP2 POP POP JUMP JUMPDEST PUSH1 0x0 PUSH2 0x3FDD DUP3 PUSH2 0x3BFD JUMP JUMPDEST PUSH2 0x3FE7 DUP2 DUP6 PUSH2 0x3FC1 JUMP JUMPDEST SWAP4 POP PUSH2 0x3FF7 DUP2 DUP6 PUSH1 0x20 DUP7 ADD PUSH2 0x3C19 JUMP JUMPDEST PUSH2 0x4000 DUP2 PUSH2 0x3C43 JUMP JUMPDEST DUP5 ADD SWAP2 POP POP SWAP3 SWAP2 POP POP JUMP JUMPDEST PUSH1 0x0 PUSH2 0x100 DUP4 ADD PUSH1 0x0 DUP4 ADD MLOAD PUSH2 0x4024 PUSH1 0x0 DUP7 ADD DUP3 PUSH2 0x3EE0 JUMP JUMPDEST POP PUSH1 0x20 DUP4 ADD MLOAD PUSH2 0x4037 PUSH1 0x20 DUP7 ADD DUP3 PUSH2 0x3F94 JUMP JUMPDEST POP PUSH1 0x40 DUP4 ADD MLOAD PUSH2 0x404A PUSH1 0x40 DUP7 ADD DUP3 PUSH2 0x3EE0 JUMP JUMPDEST POP PUSH1 0x60 DUP4 ADD MLOAD PUSH2 0x405D PUSH1 0x60 DUP7 ADD DUP3 PUSH2 0x3FA3 JUMP JUMPDEST POP PUSH1 0x80 DUP4 ADD MLOAD PUSH2 0x4070 PUSH1 0x80 DUP7 ADD DUP3 PUSH2 0x3FB2 JUMP JUMPDEST POP PUSH1 0xA0 DUP4 ADD MLOAD PUSH2 0x4083 PUSH1 0xA0 DUP7 ADD DUP3 PUSH2 0x3EE0 JUMP JUMPDEST POP PUSH1 0xC0 DUP4 ADD MLOAD DUP5 DUP3 SUB PUSH1 0xC0 DUP7 ADD MSTORE PUSH2 0x409B DUP3 DUP3 PUSH2 0x3FD2 JUMP JUMPDEST SWAP2 POP POP PUSH1 0xE0 DUP4 ADD MLOAD PUSH2 0x40B0 PUSH1 0xE0 DUP7 ADD DUP3 PUSH2 0x3EE0 JUMP JUMPDEST POP DUP1 SWAP2 POP POP SWAP3 SWAP2 POP POP JUMP JUMPDEST PUSH1 0x0 PUSH1 0x20 DUP3 ADD SWAP1 POP DUP2 DUP2 SUB PUSH1 0x0 DUP4 ADD MSTORE PUSH2 0x40D5 DUP2 DUP5 PUSH2 0x400B JUMP JUMPDEST SWAP1 POP SWAP3 SWAP2 POP POP JUMP JUMPDEST PUSH1 0x0 DUP2 SWAP1 POP SWAP2 SWAP1 POP JUMP JUMPDEST PUSH1 0x0 PUSH2 0x4102 PUSH2 0x40FD PUSH2 0x40F8 DUP5 PUSH2 0x3AFD JUMP JUMPDEST PUSH2 0x40DD JUMP JUMPDEST PUSH2 0x3AFD JUMP JUMPDEST SWAP1 POP SWAP2 SWAP1 POP JUMP JUMPDEST PUSH1 0x0 PUSH2 0x4114 DUP3 PUSH2 0x40E7 JUMP JUMPDEST SWAP1 POP SWAP2 SWAP1 POP JUMP JUMPDEST PUSH1 0x0 PUSH2 0x4126 DUP3 PUSH2 0x4109 JUMP JUMPDEST SWAP1 POP SWAP2 SWAP1 POP JUMP JUMPDEST PUSH2 0x4136 DUP2 PUSH2 0x411B JUMP JUMPDEST DUP3 MSTORE POP POP JUMP JUMPDEST PUSH1 0x0 PUSH1 0x20 DUP3 ADD SWAP1 POP PUSH2 0x4151 PUSH1 0x0 DUP4 ADD DUP5 PUSH2 0x412D JUMP JUMPDEST SWAP3 SWAP2 POP POP JUMP JUMPDEST PUSH1 0x0 PUSH1 0x60 DUP3 ADD SWAP1 POP PUSH2 0x416C PUSH1 0x0 DUP4 ADD DUP7 PUSH2 0x3AA6 JUMP JUMPDEST PUSH2 0x4179 PUSH1 0x20 DUP4 ADD DUP6 PUSH2 0x3AA6 JUMP JUMPDEST PUSH2 0x4186 PUSH1 0x40 DUP4 ADD DUP5 PUSH2 0x3AA6 JUMP JUMPDEST SWAP5 SWAP4 POP POP POP POP JUMP JUMPDEST PUSH1 0x0 PUSH2 0x4199 DUP3 PUSH2 0x4109 JUMP JUMPDEST SWAP1 POP SWAP2 SWAP1 POP JUMP JUMPDEST PUSH2 0x41A9 DUP2 PUSH2 0x418E JUMP JUMPDEST DUP3 MSTORE POP POP JUMP JUMPDEST PUSH1 0x0 PUSH1 0x20 DUP3 ADD SWAP1 POP PUSH2 0x41C4 PUSH1 0x0 DUP4 ADD DUP5 PUSH2 0x41A0 JUMP JUMPDEST SWAP3 SWAP2 POP POP JUMP JUMPDEST PUSH1 0x0 PUSH1 0x20 DUP3 ADD SWAP1 POP PUSH2 0x41DF PUSH1 0x0 DUP4 ADD DUP5 PUSH2 0x3B2F JUMP JUMPDEST SWAP3 SWAP2 POP POP JUMP JUMPDEST PUSH1 0x0 PUSH1 0x20 DUP3 ADD SWAP1 POP PUSH2 0x41FA PUSH1 0x0 DUP4 ADD DUP5 PUSH2 0x3BA6 JUMP JUMPDEST SWAP3 SWAP2 POP POP JUMP JUMPDEST PUSH1 0x0 PUSH1 0x80 DUP3 ADD SWAP1 POP DUP2 DUP2 SUB PUSH1 0x0 DUP4 ADD MSTORE PUSH2 0x421A DUP2 DUP8 PUSH2 0x3C54 JUMP JUMPDEST SWAP1 POP PUSH2 0x4229 PUSH1 0x20 DUP4 ADD DUP7 PUSH2 0x3AA6 JUMP JUMPDEST PUSH2 0x4236 PUSH1 0x40 DUP4 ADD DUP6 PUSH2 0x3B2F JUMP JUMPDEST PUSH2 0x4243 PUSH1 0x60 DUP4 ADD DUP5 PUSH2 0x3D12 JUMP JUMPDEST SWAP6 SWAP5 POP POP POP POP POP JUMP JUMPDEST PUSH1 0x2 DUP2 LT PUSH2 0x4259 JUMPI PUSH1 0x0 DUP1 REVERT JUMPDEST POP JUMP JUMPDEST PUSH1 0x0 DUP2 CALLDATALOAD SWAP1 POP PUSH2 0x426B DUP2 PUSH2 0x424C JUMP JUMPDEST SWAP3 SWAP2 POP POP JUMP JUMPDEST PUSH1 0x0 DUP1 PUSH1 0x40 DUP4 DUP6 SUB SLT ISZERO PUSH2 0x4288 JUMPI PUSH2 0x4287 PUSH2 0x39AE JUMP JUMPDEST JUMPDEST PUSH1 0x0 PUSH2 0x4296 DUP6 DUP3 DUP7 ADD PUSH2 0x39D9 JUMP JUMPDEST SWAP3 POP POP PUSH1 0x20 PUSH2 0x42A7 DUP6 DUP3 DUP7 ADD PUSH2 0x425C JUMP JUMPDEST SWAP2 POP POP SWAP3 POP SWAP3 SWAP1 POP JUMP JUMPDEST PUSH1 0x0 DUP1 PUSH1 0x40 DUP4 DUP6 SUB SLT ISZERO PUSH2 0x42C8 JUMPI PUSH2 0x42C7 PUSH2 0x39AE JUMP JUMPDEST JUMPDEST PUSH1 0x0 PUSH2 0x42D6 DUP6 DUP3 DUP7 ADD PUSH2 0x3E72 JUMP JUMPDEST SWAP3 POP POP PUSH1 0x20 PUSH2 0x42E7 DUP6 DUP3 DUP7 ADD PUSH2 0x39D9 JUMP JUMPDEST SWAP2 POP POP SWAP3 POP SWAP3 SWAP1 POP JUMP JUMPDEST PUSH1 0x0 DUP1 PUSH1 0x0 PUSH1 0x40 DUP5 DUP7 SUB SLT ISZERO PUSH2 0x430A JUMPI PUSH2 0x4309 PUSH2 0x39AE JUMP JUMPDEST JUMPDEST PUSH1 0x0 PUSH2 0x4318 DUP7 DUP3 DUP8 ADD PUSH2 0x39D9 JUMP JUMPDEST SWAP4 POP POP PUSH1 0x20 DUP5 ADD CALLDATALOAD PUSH8 0xFFFFFFFFFFFFFFFF DUP2 GT ISZERO PUSH2 0x4339 JUMPI PUSH2 0x4338 PUSH2 0x39B3 JUMP JUMPDEST JUMPDEST PUSH2 0x4345 DUP7 DUP3 DUP8 ADD PUSH2 0x3D91 JUMP JUMPDEST SWAP3 POP SWAP3 POP POP SWAP3 POP SWAP3 POP SWAP3 JUMP JUMPDEST PUSH1 0x0 PUSH1 0xA0 DUP3 ADD SWAP1 POP DUP2 DUP2 SUB PUSH1 0x0 DUP4 ADD MSTORE PUSH2 0x436B DUP2 DUP9 PUSH2 0x3C54 JUMP JUMPDEST SWAP1 POP PUSH2 0x437A PUSH1 0x20 DUP4 ADD DUP8 PUSH2 0x3AA6 JUMP JUMPDEST PUSH2 0x4387 PUSH1 0x40 DUP4 ADD DUP7 PUSH2 0x3B2F JUMP JUMPDEST PUSH2 0x4394 PUSH1 0x60 DUP4 ADD DUP6 PUSH2 0x3AA6 JUMP JUMPDEST PUSH2 0x43A1 PUSH1 0x80 DUP4 ADD DUP5 PUSH2 0x3D12 JUMP JUMPDEST SWAP7 SWAP6 POP POP POP POP POP POP JUMP JUMPDEST PUSH32 0x496E73756666696369656E74207374616B650000000000000000000000000000 PUSH1 0x0 DUP3 ADD MSTORE POP JUMP JUMPDEST PUSH1 0x0 PUSH2 0x43E1 PUSH1 0x12 DUP4 PUSH2 0x3C08 JUMP JUMPDEST SWAP2 POP PUSH2 0x43EC DUP3 PUSH2 0x43AB JUMP JUMPDEST PUSH1 0x20 DUP3 ADD SWAP1 POP SWAP2 SWAP1 POP JUMP JUMPDEST PUSH1 0x0 PUSH1 0x20 DUP3 ADD SWAP1 POP DUP2 DUP2 SUB PUSH1 0x0 DUP4 ADD MSTORE PUSH2 0x4410 DUP2 PUSH2 0x43D4 JUMP JUMPDEST SWAP1 POP SWAP2 SWAP1 POP JUMP JUMPDEST PUSH32 0x4E6F646520616C72656164792072656769737465726564000000000000000000 PUSH1 0x0 DUP3 ADD MSTORE POP JUMP JUMPDEST PUSH1 0x0 PUSH2 0x444D PUSH1 0x17 DUP4 PUSH2 0x3C08 JUMP JUMPDEST SWAP2 POP PUSH2 0x4458 DUP3 PUSH2 0x4417 JUMP JUMPDEST PUSH1 0x20 DUP3 ADD SWAP1 POP SWAP2 SWAP1 POP JUMP JUMPDEST PUSH1 0x0 PUSH1 0x20 DUP3 ADD SWAP1 POP DUP2 DUP2 SUB PUSH1 0x0 DUP4 ADD MSTORE PUSH2 0x447C DUP2 PUSH2 0x4440 JUMP JUMPDEST SWAP1 POP SWAP2 SWAP1 POP JUMP JUMPDEST PUSH1 0x0 PUSH1 0x60 DUP3 ADD SWAP1 POP PUSH2 0x4498 PUSH1 0x0 DUP4 ADD DUP7 PUSH2 0x3B2F JUMP JUMPDEST PUSH2 0x44A5 PUSH1 0x20 DUP4 ADD DUP6 PUSH2 0x3B2F JUMP JUMPDEST PUSH2 0x44B2 PUSH1 0x40 DUP4 ADD DUP5 PUSH2 0x3AA6 JUMP JUMPDEST SWAP5 SWAP4 POP POP POP POP JUMP JUMPDEST PUSH1 0x0 DUP2 MLOAD SWAP1 POP PUSH2 0x44C9 DUP2 PUSH2 0x39FA JUMP JUMPDEST SWAP3 SWAP2 POP POP JUMP JUMPDEST PUSH1 0x0 PUSH1 0x20 DUP3 DUP5 SUB SLT ISZERO PUSH2 0x44E5 JUMPI PUSH2 0x44E4 PUSH2 0x39AE JUMP JUMPDEST JUMPDEST PUSH1 0x0 PUSH2 0x44F3 DUP5 DUP3 DUP6 ADD PUSH2 0x44BA JUMP JUMPDEST SWAP2 POP POP SWAP3 SWAP2 POP POP JUMP JUMPDEST PUSH32 0x5374616B65204E6F742052656365697665640000000000000000000000000000 PUSH1 0x0 DUP3 ADD MSTORE POP JUMP JUMPDEST PUSH1 0x0 PUSH2 0x4532 PUSH1 0x12 DUP4 PUSH2 0x3C08 JUMP JUMPDEST SWAP2 POP PUSH2 0x453D DUP3 PUSH2 0x44FC JUMP JUMPDEST PUSH1 0x20 DUP3 ADD SWAP1 POP SWAP2 SWAP1 POP JUMP JUMPDEST PUSH1 0x0 PUSH1 0x20 DUP3 ADD SWAP1 POP DUP2 DUP2 SUB PUSH1 0x0 DUP4 ADD MSTORE PUSH2 0x4561 DUP2 PUSH2 0x4525 JUMP JUMPDEST SWAP1 POP SWAP2 SWAP1 POP JUMP JUMPDEST PUSH32 0x4E487B7100000000000000000000000000000000000000000000000000000000 PUSH1 0x0 MSTORE PUSH1 0x11 PUSH1 0x4 MSTORE PUSH1 0x24 PUSH1 0x0 REVERT JUMPDEST PUSH1 0x0 PUSH2 0x45A2 DUP3 PUSH2 0x39B8 JUMP JUMPDEST SWAP2 POP PUSH32 0xFFFFFFFFFFFFFFFFFFFFFFFFFFFFFFFFFFFFFFFFFFFFFFFFFFFFFFFFFFFFFFFF DUP3 SUB PUSH2 0x45D4 JUMPI PUSH2 0x45D3 PUSH2 0x4568 JUMP JUMPDEST JUMPDEST PUSH1 0x1 DUP3 ADD SWAP1 POP SWAP2 SWAP1 POP JUMP JUMPDEST PUSH1 0x0 PUSH2 0x45EA DUP3 PUSH2 0x39B8 JUMP JUMPDEST SWAP2 POP PUSH2 0x45F5 DUP4 PUSH2 0x39B8 JUMP JUMPDEST SWAP3 POP DUP3 DUP3 ADD SWAP1 POP DUP1 DUP3 GT ISZERO PUSH2 0x460D JUMPI PUSH2 0x460C PUSH2 0x4568 JUMP JUMPDEST JUMPDEST SWAP3 SWAP2 POP POP JUMP JUMPDEST PUSH1 0x0 PUSH1 0x40 DUP3 ADD SWAP1 POP PUSH2 0x4628 PUSH1 0x0 DUP4 ADD DUP6 PUSH2 0x3AA6 JUMP JUMPDEST PUSH2 0x4635 PUSH1 0x20 DUP4 ADD DUP5 PUSH2 0x3D12 JUMP JUMPDEST SWAP4 SWAP3 POP POP POP JUMP JUMPDEST PUSH32 0x4E487B7100000000000000000000000000000000000000000000000000000000 PUSH1 0x0 MSTORE PUSH1 0x22 PUSH1 0x4 MSTORE PUSH1 0x24 PUSH1 0x0 REVERT JUMPDEST PUSH1 0x0 PUSH1 0x2 DUP3 DIV SWAP1 POP PUSH1 0x1 DUP3 AND DUP1 PUSH2 0x4683 JUMPI PUSH1 0x7F DUP3 AND SWAP2 POP JUMPDEST PUSH1 0x20 DUP3 LT DUP2 SUB PUSH2 0x4696 JUMPI PUSH2 0x4695 PUSH2 0x463C JUMP JUMPDEST JUMPDEST POP SWAP2 SWAP1 POP JUMP JUMPDEST PUSH32 0x4E487B7100000000000000000000000000000000000000000000000000000000 PUSH1 0x0 MSTORE PUSH1 0x41 PUSH1 0x4 MSTORE PUSH1 0x24 PUSH1 0x0 REVERT JUMPDEST PUSH1 0x0 DUP2 SWAP1 POP DUP2 PUSH1 0x0 MSTORE PUSH1 0x20 PUSH1 0x0 KECCAK256 SWAP1 POP SWAP2 SWAP1 POP JUMP JUMPDEST PUSH1 0x0 PUSH1 0x20 PUSH1 0x1F DUP4 ADD DIV SWAP1 POP SWAP2 SWAP1 POP JUMP JUMPDEST PUSH1 0x0 DUP3 DUP3 SHL SWAP1 POP SWAP3 SWAP2 POP POP JUMP JUMPDEST PUSH1 0x0 PUSH1 0x8 DUP4 MUL PUSH2 0x472D PUSH32 0xFFFFFFFFFFFFFFFFFFFFFFFFFFFFFFFFFFFFFFFFFFFFFFFFFFFFFFFFFFFFFFFF DUP3 PUSH2 0x46F0 JUMP JUMPDEST PUSH2 0x4737 DUP7 DUP4 PUSH2 0x46F0 JUMP JUMPDEST SWAP6 POP DUP1 NOT DUP5 AND SWAP4 POP DUP1 DUP7 AND DUP5 OR SWAP3 POP POP POP SWAP4 SWAP3 POP POP POP JUMP JUMPDEST PUSH1 0x0 PUSH2 0x476A PUSH2 0x4765 PUSH2 0x4760 DUP5 PUSH2 0x39B8 JUMP JUMPDEST PUSH2 0x40DD JUMP JUMPDEST PUSH2 0x39B8 JUMP JUMPDEST SWAP1 POP SWAP2 SWAP1 POP JUMP JUMPDEST PUSH1 0x0 DUP2 SWAP1 POP SWAP2 SWAP1 POP JUMP JUMPDEST PUSH2 0x4784 DUP4 PUSH2 0x474F JUMP JUMPDEST PUSH2 0x4798 PUSH2 0x4790 DUP3 PUSH2 0x4771 JUMP JUMPDEST DUP5 DUP5 SLOAD PUSH2 0x46FD JUMP JUMPDEST DUP3 SSTORE POP POP POP POP JUMP JUMPDEST PUSH1 0x0 SWAP1 JUMP JUMPDEST PUSH2 0x47AD PUSH2 0x47A0 JUMP JUMPDEST PUSH2 0x47B8 DUP2 DUP5 DUP5 PUSH2 0x477B JUMP JUMPDEST POP POP POP JUMP JUMPDEST JUMPDEST DUP2 DUP2 LT ISZERO PUSH2 0x47DC JUMPI PUSH2 0x47D1 PUSH1 0x0 DUP3 PUSH2 0x47A5 JUMP JUMPDEST PUSH1 0x1 DUP2 ADD SWAP1 POP PUSH2 0x47BE JUMP JUMPDEST POP POP JUMP JUMPDEST PUSH1 0x1F DUP3 GT ISZERO PUSH2 0x4821 JUMPI PUSH2 0x47F2 DUP2 PUSH2 0x46CB JUMP JUMPDEST PUSH2 0x47FB DUP5 PUSH2 0x46E0 JUMP JUMPDEST DUP2 ADD PUSH1 0x20 DUP6 LT ISZERO PUSH2 0x480A JUMPI DUP2 SWAP1 POP JUMPDEST PUSH2 0x481E PUSH2 0x4816 DUP6 PUSH2 0x46E0 JUMP JUMPDEST DUP4 ADD DUP3 PUSH2 0x47BD JUMP JUMPDEST POP POP JUMPDEST POP POP POP JUMP JUMPDEST PUSH1 0x0 DUP3 DUP3 SHR SWAP1 POP SWAP3 SWAP2 POP POP JUMP JUMPDEST PUSH1 0x0 PUSH2 0x4844 PUSH1 0x0 NOT DUP5 PUSH1 0x8 MUL PUSH2 0x4826 JUMP JUMPDEST NOT DUP1 DUP4 AND SWAP2 POP POP SWAP3 SWAP2 POP POP JUMP JUMPDEST PUSH1 0x0 PUSH2 0x485D DUP4 DUP4 PUSH2 0x4833 JUMP JUMPDEST SWAP2 POP DUP3 PUSH1 0x2 MUL DUP3 OR SWAP1 POP SWAP3 SWAP2 POP POP JUMP JUMPDEST PUSH2 0x4876 DUP3 PUSH2 0x3BFD JUMP JUMPDEST PUSH8 0xFFFFFFFFFFFFFFFF DUP2 GT ISZERO PUSH2 0x488F JUMPI PUSH2 0x488E PUSH2 0x469C JUMP JUMPDEST JUMPDEST PUSH2 0x4899 DUP3 SLOAD PUSH2 0x466B JUMP JUMPDEST PUSH2 0x48A4 DUP3 DUP3 DUP6 PUSH2 0x47E0 JUMP JUMPDEST PUSH1 0x0 PUSH1 0x20 SWAP1 POP PUSH1 0x1F DUP4 GT PUSH1 0x1 DUP2 EQ PUSH2 0x48D7 JUMPI PUSH1 0x0 DUP5 ISZERO PUSH2 0x48C5 JUMPI DUP3 DUP8 ADD MLOAD SWAP1 POP JUMPDEST PUSH2 0x48CF DUP6 DUP3 PUSH2 0x4851 JUMP JUMPDEST DUP7 SSTORE POP PUSH2 0x4937 JUMP JUMPDEST PUSH1 0x1F NOT DUP5 AND PUSH2 0x48E5 DUP7 PUSH2 0x46CB JUMP JUMPDEST PUSH1 0x0 JUMPDEST DUP3 DUP2 LT ISZERO PUSH2 0x490D JUMPI DUP5 DUP10 ADD MLOAD DUP3 SSTORE PUSH1 0x1 DUP3 ADD SWAP2 POP PUSH1 0x20 DUP6 ADD SWAP5 POP PUSH1 0x20 DUP2 ADD SWAP1 POP PUSH2 0x48E8 JUMP JUMPDEST DUP7 DUP4 LT ISZERO PUSH2 0x492A JUMPI DUP5 DUP10 ADD MLOAD PUSH2 0x4926 PUSH1 0x1F DUP10 AND DUP3 PUSH2 0x4833 JUMP JUMPDEST DUP4 SSTORE POP JUMPDEST PUSH1 0x1 PUSH1 0x2 DUP9 MUL ADD DUP9 SSTORE POP POP POP JUMPDEST POP POP POP POP POP POP JUMP JUMPDEST DUP3 DUP2 DUP4 CALLDATACOPY PUSH1 0x0 DUP4 DUP4 ADD MSTORE POP POP POP JUMP JUMPDEST PUSH1 0x0 PUSH2 0x495A DUP4 DUP6 PUSH2 0x3C08 JUMP JUMPDEST SWAP4 POP PUSH2 0x4967 DUP4 DUP6 DUP5 PUSH2 0x493F JUMP JUMPDEST PUSH2 0x4970 DUP4 PUSH2 0x3C43 JUMP JUMPDEST DUP5 ADD SWAP1 POP SWAP4 SWAP3 POP POP POP JUMP JUMPDEST PUSH1 0x0 PUSH1 0x40 DUP3 ADD SWAP1 POP DUP2 DUP2 SUB PUSH1 0x0 DUP4 ADD MSTORE PUSH2 0x4996 DUP2 DUP6 DUP8 PUSH2 0x494E JUMP JUMPDEST SWAP1 POP PUSH2 0x49A5 PUSH1 0x20 DUP4 ADD DUP5 PUSH2 0x3D12 JUMP JUMPDEST SWAP5 SWAP4 POP POP POP POP JUMP JUMPDEST PUSH32 0x4E6F74206A6F6220726571756573746572000000000000000000000000000000 PUSH1 0x0 DUP3 ADD MSTORE POP JUMP JUMPDEST PUSH1 0x0 PUSH2 0x49E3 PUSH1 0x11 DUP4 PUSH2 0x3C08 JUMP JUMPDEST SWAP2 POP PUSH2 0x49EE DUP3 PUSH2 0x49AD JUMP JUMPDEST PUSH1 0x20 DUP3 ADD SWAP1 POP SWAP2 SWAP1 POP JUMP JUMPDEST PUSH1 0x0 PUSH1 0x20 DUP3 ADD SWAP1 POP DUP2 DUP2 SUB PUSH1 0x0 DUP4 ADD MSTORE PUSH2 0x4A12 DUP2 PUSH2 0x49D6 JUMP JUMPDEST SWAP1 POP SWAP2 SWAP1 POP JUMP JUMPDEST PUSH32 0x4A6F62206E6F742070656E64696E670000000000000000000000000000000000 PUSH1 0x0 DUP3 ADD MSTORE POP JUMP JUMPDEST PUSH1 0x0 PUSH2 0x4A4F PUSH1 0xF DUP4 PUSH2 0x3C08 JUMP JUMPDEST SWAP2 POP PUSH2 0x4A5A DUP3 PUSH2 0x4A19 JUMP JUMPDEST PUSH1 0x20 DUP3 ADD SWAP1 POP SWAP2 SWAP1 POP JUMP JUMPDEST PUSH1 0x0 PUSH1 0x20 DUP3 ADD SWAP1 POP DUP2 DUP2 SUB PUSH1 0x0 DUP4 ADD MSTORE PUSH2 0x4A7E DUP2 PUSH2 0x4A42 JUMP JUMPDEST SWAP1 POP SWAP2 SWAP1 POP JUMP JUMPDEST PUSH1 0x0 PUSH1 0x40 DUP3 ADD SWAP1 POP PUSH2 0x4A9A PUSH1 0x0 DUP4 ADD DUP6 PUSH2 0x3B2F JUMP JUMPDEST PUSH2 0x4AA7 PUSH1 0x20 DUP4 ADD DUP5 PUSH2 0x3AA6 JUMP JUMPDEST SWAP4 SWAP3 POP POP POP JUMP JUMPDEST PUSH32 0x526566756E64206661696C656400000000000000000000000000000000000000 PUSH1 0x0 DUP3 ADD MSTORE POP JUMP JUMPDEST PUSH1 0x0 PUSH2 0x4AE4 PUSH1 0xD DUP4 PUSH2 0x3C08 JUMP JUMPDEST SWAP2 POP PUSH2 0x4AEF DUP3 PUSH2 0x4AAE JUMP JUMPDEST PUSH1 0x20 DUP3 ADD SWAP1 POP SWAP2 SWAP1 POP JUMP JUMPDEST PUSH1 0x0 PUSH1 0x20 DUP3 ADD SWAP1 POP DUP2 DUP2 SUB PUSH1 0x0 DUP4 ADD MSTORE PUSH2 0x4B13 DUP2 PUSH2 0x4AD7 JUMP JUMPDEST SWAP1 POP SWAP2 SWAP1 POP JUMP JUMPDEST PUSH32 0x46656520746F6F20686967680000000000000000000000000000000000000000 PUSH1 0x0 DUP3 ADD MSTORE POP JUMP JUMPDEST PUSH1 0x0 PUSH2 0x4B50 PUSH1 0xC DUP4 PUSH2 0x3C08 JUMP JUMPDEST SWAP2 POP PUSH2 0x4B5B DUP3 PUSH2 0x4B1A JUMP JUMPDEST PUSH1 0x20 DUP3 ADD SWAP1 POP SWAP2 SWAP1 POP JUMP JUMPDEST PUSH1 0x0 PUSH1 0x20 DUP3 ADD SWAP1 POP DUP2 DUP2 SUB PUSH1 0x0 DUP4 ADD MSTORE PUSH2 0x4B7F DUP2 PUSH2 0x4B43 JUMP JUMPDEST SWAP1 POP SWAP2 SWAP1 POP JUMP JUMPDEST PUSH2 0x4B8F DUP3 PUSH2 0x3C43 JUMP JUMPDEST DUP2 ADD DUP2 DUP2 LT PUSH8 0xFFFFFFFFFFFFFFFF DUP3 GT OR ISZERO PUSH2 0x4BAE JUMPI PUSH2 0x4BAD PUSH2 0x469C JUMP JUMPDEST JUMPDEST DUP1 PUSH1 0x40 MSTORE POP POP POP JUMP JUMPDEST PUSH1 0x0 PUSH2 0x4BC1 PUSH2 0x39A4 JUMP JUMPDEST SWAP1 POP PUSH2 0x4BCD DUP3 DUP3 PUSH2 0x4B86 JUMP JUMPDEST SWAP2 SWAP1 POP JUMP JUMPDEST PUSH1 0x0 PUSH8 0xFFFFFFFFFFFFFFFF DUP3 GT ISZERO PUSH2 0x4BED JUMPI PUSH2 0x4BEC PUSH2 0x469C JUMP JUMPDEST JUMPDEST PUSH1 0x20 DUP3 MUL SWAP1 POP PUSH1 0x20 DUP2 ADD SWAP1 POP SWAP2 SWAP1 POP JUMP JUMPDEST PUSH1 0x0 DUP2 MLOAD SWAP1 POP PUSH2 0x4C0D DUP2 PUSH2 0x39C2 JUMP JUMPDEST SWAP3 SWAP2 POP POP JUMP JUMPDEST PUSH1 0x0 PUSH2 0x4C26 PUSH2 0x4C21 DUP5 PUSH2 0x4BD2 JUMP JUMPDEST PUSH2 0x4BB7 JUMP JUMPDEST SWAP1 POP DUP1 DUP4 DUP3 MSTORE PUSH1 0x20 DUP3 ADD SWAP1 POP PUSH1 0x20 DUP5 MUL DUP4 ADD DUP6 DUP2 GT ISZERO PUSH2 0x4C49 JUMPI PUSH2 0x4C48 PUSH2 0x3D8C JUMP JUMPDEST JUMPDEST DUP4 JUMPDEST DUP2 DUP2 LT ISZERO PUSH2 0x4C72 JUMPI DUP1 PUSH2 0x4C5E DUP9 DUP3 PUSH2 0x4BFE JUMP JUMPDEST DUP5 MSTORE PUSH1 0x20 DUP5 ADD SWAP4 POP POP PUSH1 0x20 DUP2 ADD SWAP1 POP PUSH2 0x4C4B JUMP JUMPDEST POP POP POP SWAP4 SWAP3 POP POP POP JUMP JUMPDEST PUSH1 0x0 DUP3 PUSH1 0x1F DUP4 ADD SLT PUSH2 0x4C91 JUMPI PUSH2 0x4C90 PUSH2 0x3D82 JUMP JUMPDEST JUMPDEST DUP2 MLOAD PUSH2 0x4CA1 DUP5 DUP3 PUSH1 0x20 DUP7 ADD PUSH2 0x4C13 JUMP JUMPDEST SWAP2 POP POP SWAP3 SWAP2 POP POP JUMP JUMPDEST PUSH1 0x0 DUP1 PUSH1 0x40 DUP4 DUP6 SUB SLT ISZERO PUSH2 0x4CC1 JUMPI PUSH2 0x4CC0 PUSH2 0x39AE JUMP JUMPDEST JUMPDEST PUSH1 0x0 PUSH2 0x4CCF DUP6 DUP3 DUP7 ADD PUSH2 0x44BA JUMP JUMPDEST SWAP3 POP POP PUSH1 0x20 DUP4 ADD MLOAD PUSH8 0xFFFFFFFFFFFFFFFF DUP2 GT ISZERO PUSH2 0x4CF0 JUMPI PUSH2 0x4CEF PUSH2 0x39B3 JUMP JUMPDEST JUMPDEST PUSH2 0x4CFC DUP6 DUP3 DUP7 ADD PUSH2 0x4C7C JUMP JUMPDEST SWAP2 POP POP SWAP3 POP SWAP3 SWAP1 POP JUMP JUMPDEST PUSH32 0x52616E646F6D206E756D626572206E6F742079657420617661696C61626C6500 PUSH1 0x0 DUP3 ADD MSTORE POP JUMP JUMPDEST PUSH1 0x0 PUSH2 0x4D3C PUSH1 0x1F DUP4 PUSH2 0x3C08 JUMP JUMPDEST SWAP2 POP PUSH2 0x4D47 DUP3 PUSH2 0x4D06 JUMP JUMPDEST PUSH1 0x20 DUP3 ADD SWAP1 POP SWAP2 SWAP1 POP JUMP JUMPDEST PUSH1 0x0 PUSH1 0x20 DUP3 ADD SWAP1 POP DUP2 DUP2 SUB PUSH1 0x0 DUP4 ADD MSTORE PUSH2 0x4D6B DUP2 PUSH2 0x4D2F JUMP JUMPDEST SWAP1 POP SWAP2 SWAP1 POP JUMP JUMPDEST PUSH32 0x4A6F62206E6F742070726F63657373696E670000000000000000000000000000 PUSH1 0x0 DUP3 ADD MSTORE POP JUMP JUMPDEST PUSH1 0x0 PUSH2 0x4DA8 PUSH1 0x12 DUP4 PUSH2 0x3C08 JUMP JUMPDEST SWAP2 POP PUSH2 0x4DB3 DUP3 PUSH2 0x4D72 JUMP JUMPDEST PUSH1 0x20 DUP3 ADD SWAP1 POP SWAP2 SWAP1 POP JUMP JUMPDEST PUSH1 0x0 PUSH1 0x20 DUP3 ADD SWAP1 POP DUP2 DUP2 SUB PUSH1 0x0 DUP4 ADD MSTORE PUSH2 0x4DD7 DUP2 PUSH2 0x4D9B JUMP JUMPDEST SWAP1 POP SWAP2 SWAP1 POP JUMP JUMPDEST PUSH32 0x4E487B7100000000000000000000000000000000000000000000000000000000 PUSH1 0x0 MSTORE PUSH1 0x32 PUSH1 0x4 MSTORE PUSH1 0x24 PUSH1 0x0 REVERT JUMPDEST PUSH32 0x4E487B7100000000000000000000000000000000000000000000000000000000 PUSH1 0x0 MSTORE PUSH1 0x12 PUSH1 0x4 MSTORE PUSH1 0x24 PUSH1 0x0 REVERT JUMPDEST PUSH1 0x0 PUSH2 0x4E47 DUP3 PUSH2 0x39B8 JUMP JUMPDEST SWAP2 POP PUSH2 0x4E52 DUP4 PUSH2 0x39B8 JUMP JUMPDEST SWAP3 POP DUP3 PUSH2 0x4E62 JUMPI PUSH2 0x4E61 PUSH2 0x4E0D JUMP JUMPDEST JUMPDEST DUP3 DUP3 MOD SWAP1 POP SWAP3 SWAP2 POP POP JUMP JUMPDEST PUSH32 0x4A6F62206E6F7420636F6D706C65746564000000000000000000000000000000 PUSH1 0x0 DUP3 ADD MSTORE POP JUMP JUMPDEST PUSH1 0x0 PUSH2 0x4EA3 PUSH1 0x11 DUP4 PUSH2 0x3C08 JUMP JUMPDEST SWAP2 POP PUSH2 0x4EAE DUP3 PUSH2 0x4E6D JUMP JUMPDEST PUSH1 0x20 DUP3 ADD SWAP1 POP SWAP2 SWAP1 POP JUMP JUMPDEST PUSH1 0x0 PUSH1 0x20 DUP3 ADD SWAP1 POP DUP2 DUP2 SUB PUSH1 0x0 DUP4 ADD MSTORE PUSH2 0x4ED2 DUP2 PUSH2 0x4E96 JUMP JUMPDEST SWAP1 POP SWAP2 SWAP1 POP JUMP JUMPDEST PUSH1 0x0 DUP2 SLOAD SWAP1 POP PUSH2 0x4EE8 DUP2 PUSH2 0x466B JUMP JUMPDEST SWAP1 POP SWAP2 SWAP1 POP JUMP JUMPDEST DUP2 DUP2 SUB PUSH2 0x4EFD JUMPI POP POP PUSH2 0x4FD5 JUMP JUMPDEST PUSH2 0x4F06 DUP3 PUSH2 0x4ED9 JUMP JUMPDEST PUSH8 0xFFFFFFFFFFFFFFFF DUP2 GT ISZERO PUSH2 0x4F1F JUMPI PUSH2 0x4F1E PUSH2 0x469C JUMP JUMPDEST JUMPDEST PUSH2 0x4F29 DUP3 SLOAD PUSH2 0x466B JUMP JUMPDEST PUSH2 0x4F34 DUP3 DUP3 DUP6 PUSH2 0x47E0 JUMP JUMPDEST PUSH1 0x0 PUSH1 0x1F DUP4 GT PUSH1 0x1 DUP2 EQ PUSH2 0x4F63 JUMPI PUSH1 0x0 DUP5 ISZERO PUSH2 0x4F51 JUMPI DUP3 DUP8 ADD SLOAD SWAP1 POP JUMPDEST PUSH2 0x4F5B DUP6 DUP3 PUSH2 0x4851 JUMP JUMPDEST DUP7 SSTORE POP PUSH2 0x4FCE JUMP JUMPDEST PUSH1 0x1F NOT DUP5 AND PUSH2 0x4F71 DUP8 PUSH2 0x46CB JUMP JUMPDEST SWAP7 POP PUSH2 0x4F7C DUP7 PUSH2 0x46CB JUMP JUMPDEST PUSH1 0x0 JUMPDEST DUP3 DUP2 LT ISZERO PUSH2 0x4FA4 JUMPI DUP5 DUP10 ADD SLOAD DUP3 SSTORE PUSH1 0x1 DUP3 ADD SWAP2 POP PUSH1 0x1 DUP6 ADD SWAP5 POP PUSH1 0x20 DUP2 ADD SWAP1 POP PUSH2 0x4F7F JUMP JUMPDEST DUP7 DUP4 LT ISZERO PUSH2 0x4FC1 JUMPI DUP5 DUP10 ADD SLOAD PUSH2 0x4FBD PUSH1 0x1F DUP10 AND DUP3 PUSH2 0x4833 JUMP JUMPDEST DUP4 SSTORE POP JUMPDEST PUSH1 0x1 PUSH1 0x2 DUP9 MUL ADD DUP9 SSTORE POP POP POP JUMPDEST POP POP POP POP POP POP JUMPDEST JUMP JUMPDEST PUSH1 0x0 PUSH2 0x4FE2 DUP3 PUSH2 0x39B8 JUMP JUMPDEST SWAP2 POP PUSH2 0x4FED DUP4 PUSH2 0x39B8 JUMP JUMPDEST SWAP3 POP DUP3 DUP3 MUL PUSH2 0x4FFB DUP2 PUSH2 0x39B8 JUMP JUMPDEST SWAP2 POP DUP3 DUP3 DIV DUP5 EQ DUP4 ISZERO OR PUSH2 0x5012 JUMPI PUSH2 0x5011 PUSH2 0x4568 JUMP JUMPDEST JUMPDEST POP SWAP3 SWAP2 POP POP JUMP JUMPDEST PUSH1 0x0 PUSH2 0x5024 DUP3 PUSH2 0x39B8 JUMP JUMPDEST SWAP2 POP PUSH2 0x502F DUP4 PUSH2 0x39B8 JUMP JUMPDEST SWAP3 POP DUP3 PUSH2 0x503F JUMPI PUSH2 0x503E PUSH2 0x4E0D JUMP JUMPDEST JUMPDEST DUP3 DUP3 DIV SWAP1 POP SWAP3 SWAP2 POP POP JUMP JUMPDEST PUSH1 0x0 PUSH2 0x5055 DUP3 PUSH2 0x39B8 JUMP JUMPDEST SWAP2 POP PUSH1 0x0 DUP3 SUB PUSH2 0x5068 JUMPI PUSH2 0x5067 PUSH2 0x4568 JUMP JUMPDEST JUMPDEST PUSH1 0x1 DUP3 SUB SWAP1 POP SWAP2 SWAP1 POP JUMP JUMPDEST PUSH1 0x0 PUSH1 0x20 DUP3 ADD SWAP1 POP PUSH2 0x5088 PUSH1 0x0 DUP4 ADD DUP5 PUSH2 0x3D12 JUMP JUMPDEST SWAP3 SWAP2 POP POP JUMP JUMPDEST PUSH32 0x5061796D656E74206661696C6564000000000000000000000000000000000000 PUSH1 0x0 DUP3 ADD MSTORE POP JUMP JUMPDEST PUSH1 0x0 PUSH2 0x50C4 PUSH1 0xE DUP4 PUSH2 0x3C08 JUMP JUMPDEST SWAP2 POP PUSH2 0x50CF DUP3 PUSH2 0x508E JUMP JUMPDEST PUSH1 0x20 DUP3 ADD SWAP1 POP SWAP2 SWAP1 POP JUMP JUMPDEST PUSH1 0x0 PUSH1 0x20 DUP3 ADD SWAP1 POP DUP2 DUP2 SUB PUSH1 0x0 DUP4 ADD MSTORE PUSH2 0x50F3 DUP2 PUSH2 0x50B7 JUMP JUMPDEST SWAP1 POP SWAP2 SWAP1 POP JUMP JUMPDEST PUSH1 0x0 PUSH1 0x20 DUP3 ADD SWAP1 POP PUSH2 0x510F PUSH1 0x0 DUP4 ADD DUP5 PUSH2 0x3BEE JUMP JUMPDEST SWAP3 SWAP2 POP POP JUMP JUMPDEST PUSH32 0x4E6F2070656E64696E6720726577617264730000000000000000000000000000 PUSH1 0x0 DUP3 ADD MSTORE POP JUMP JUMPDEST PUSH1 0x0 PUSH2 0x514B PUSH1 0x12 DUP4 PUSH2 0x3C08 JUMP JUMPDEST SWAP2 POP PUSH2 0x5156 DUP3 PUSH2 0x5115 JUMP JUMPDEST PUSH1 0x20 DUP3 ADD SWAP1 POP SWAP2 SWAP1 POP JUMP JUMPDEST PUSH1 0x0 PUSH1 0x20 DUP3 ADD SWAP1 POP DUP2 DUP2 SUB PUSH1 0x0 DUP4 ADD MSTORE PUSH2 0x517A DUP2 PUSH2 0x513E JUMP JUMPDEST SWAP1 POP SWAP2 SWAP1 POP JUMP JUMPDEST PUSH32 0x5472616E73666572206661696C65640000000000000000000000000000000000 PUSH1 0x0 DUP3 ADD MSTORE POP JUMP JUMPDEST PUSH1 0x0 PUSH2 0x51B7 PUSH1 0xF DUP4 PUSH2 0x3C08 JUMP JUMPDEST SWAP2 POP PUSH2 0x51C2 DUP3 PUSH2 0x5181 JUMP JUMPDEST PUSH1 0x20 DUP3 ADD SWAP1 POP SWAP2 SWAP1 POP JUMP JUMPDEST PUSH1 0x0 PUSH1 0x20 DUP3 ADD SWAP1 POP DUP2 DUP2 SUB PUSH1 0x0 DUP4 ADD MSTORE PUSH2 0x51E6 DUP2 PUSH2 0x51AA JUMP JUMPDEST SWAP1 POP SWAP2 SWAP1 POP JUMP JUMPDEST PUSH32 0x4E6F742061737369676E6564206E6F6465000000000000000000000000000000 PUSH1 0x0 DUP3 ADD MSTORE POP JUMP JUMPDEST PUSH1 0x0 PUSH2 0x5223 PUSH1 0x11 DUP4 PUSH2 0x3C08 JUMP JUMPDEST SWAP2 POP PUSH2 0x522E DUP3 PUSH2 0x51ED JUMP JUMPDEST PUSH1 0x20 DUP3 ADD SWAP1 POP SWAP2 SWAP1 POP JUMP JUMPDEST PUSH1 0x0 PUSH1 0x20 DUP3 ADD SWAP1 POP DUP2 DUP2 SUB PUSH1 0x0 DUP4 ADD MSTORE PUSH2 0x5252 DUP2 PUSH2 0x5216 JUMP JUMPDEST SWAP1 POP SWAP2 SWAP1 POP JUMP JUMPDEST PUSH32 0x4A6F62206E6F7420696E2070726F63657373696E670000000000000000000000 PUSH1 0x0 DUP3 ADD MSTORE POP JUMP JUMPDEST PUSH1 0x0 PUSH2 0x528F PUSH1 0x15 DUP4 PUSH2 0x3C08 JUMP JUMPDEST SWAP2 POP PUSH2 0x529A DUP3 PUSH2 0x5259 JUMP JUMPDEST PUSH1 0x20 DUP3 ADD SWAP1 POP SWAP2 SWAP1 POP JUMP JUMPDEST PUSH1 0x0 PUSH1 0x20 DUP3 ADD SWAP1 POP DUP2 DUP2 SUB PUSH1 0x0 DUP4 ADD MSTORE PUSH2 0x52BE DUP2 PUSH2 0x5282 JUMP JUMPDEST SWAP1 POP SWAP2 SWAP1 POP JUMP JUMPDEST PUSH1 0x0 DUP3 SWAP1 POP SWAP3 SWAP2 POP POP JUMP JUMPDEST PUSH2 0x52DA DUP4 DUP4 PUSH2 0x52C5 JUMP JUMPDEST PUSH8 0xFFFFFFFFFFFFFFFF DUP2 GT ISZERO PUSH2 0x52F3 JUMPI PUSH2 0x52F2 PUSH2 0x469C JUMP JUMPDEST JUMPDEST PUSH2 0x52FD DUP3 SLOAD PUSH2 0x466B JUMP JUMPDEST PUSH2 0x5308 DUP3 DUP3 DUP6 PUSH2 0x47E0 JUMP JUMPDEST PUSH1 0x0 PUSH1 0x1F DUP4 GT PUSH1 0x1 DUP2 EQ PUSH2 0x5337 JUMPI PUSH1 0x0 DUP5 ISZERO PUSH2 0x5325 JUMPI DUP3 DUP8 ADD CALLDATALOAD SWAP1 POP JUMPDEST PUSH2 0x532F DUP6 DUP3 PUSH2 0x4851 JUMP JUMPDEST DUP7 SSTORE POP PUSH2 0x5397 JUMP JUMPDEST PUSH1 0x1F NOT DUP5 AND PUSH2 0x5345 DUP7 PUSH2 0x46CB JUMP JUMPDEST PUSH1 0x0 JUMPDEST DUP3 DUP2 LT ISZERO PUSH2 0x536D JUMPI DUP5 DUP10 ADD CALLDATALOAD DUP3 SSTORE PUSH1 0x1 DUP3 ADD SWAP2 POP PUSH1 0x20 DUP6 ADD SWAP5 POP PUSH1 0x20 DUP2 ADD SWAP1 POP PUSH2 0x5348 JUMP JUMPDEST DUP7 DUP4 LT ISZERO PUSH2 0x538A JUMPI DUP5 DUP10 ADD CALLDATALOAD PUSH2 0x5386 PUSH1 0x1F DUP10 AND DUP3 PUSH2 0x4833 JUMP JUMPDEST DUP4 SSTORE POP JUMPDEST PUSH1 0x1 PUSH1 0x2 DUP9 MUL ADD DUP9 SSTORE POP POP POP JUMPDEST POP POP POP POP POP POP POP JUMP JUMPDEST PUSH1 0x0 PUSH1 0x20 DUP3 ADD SWAP1 POP DUP2 DUP2 SUB PUSH1 0x0 DUP4 ADD MSTORE PUSH2 0x53BB DUP2 DUP5 DUP7 PUSH2 0x494E JUMP JUMPDEST SWAP1 POP SWAP4 SWAP3 POP POP POP JUMP JUMPDEST PUSH32 0x4E6F74206E6F6465206F776E6572000000000000000000000000000000000000 PUSH1 0x0 DUP3 ADD MSTORE POP JUMP JUMPDEST PUSH1 0x0 PUSH2 0x53FA PUSH1 0xE DUP4 PUSH2 0x3C08 JUMP JUMPDEST SWAP2 POP PUSH2 0x5405 DUP3 PUSH2 0x53C4 JUMP JUMPDEST PUSH1 0x20 DUP3 ADD SWAP1 POP SWAP2 SWAP1 POP JUMP JUMPDEST PUSH1 0x0 PUSH1 0x20 DUP3 ADD SWAP1 POP DUP2 DUP2 SUB PUSH1 0x0 DUP4 ADD MSTORE PUSH2 0x5429 DUP2 PUSH2 0x53ED JUMP JUMPDEST SWAP1 POP SWAP2 SWAP1 POP JUMP JUMPDEST PUSH32 0x4E6F646520616C726561647920696E6163746976650000000000000000000000 PUSH1 0x0 DUP3 ADD MSTORE POP JUMP JUMPDEST PUSH1 0x0 PUSH2 0x5466 PUSH1 0x15 DUP4 PUSH2 0x3C08 JUMP JUMPDEST SWAP2 POP PUSH2 0x5471 DUP3 PUSH2 0x5430 JUMP JUMPDEST PUSH1 0x20 DUP3 ADD SWAP1 POP SWAP2 SWAP1 POP JUMP JUMPDEST PUSH1 0x0 PUSH1 0x20 DUP3 ADD SWAP1 POP DUP2 DUP2 SUB PUSH1 0x0 DUP4 ADD MSTORE PUSH2 0x5495 DUP2 PUSH2 0x5459 JUMP JUMPDEST SWAP1 POP SWAP2 SWAP1 POP JUMP JUMPDEST PUSH1 0x0 PUSH2 0x54A7 DUP3 PUSH2 0x39B8 JUMP JUMPDEST SWAP2 POP PUSH2 0x54B2 DUP4 PUSH2 0x39B8 JUMP JUMPDEST SWAP3 POP DUP3 DUP3 SUB SWAP1 POP DUP2 DUP2 GT ISZERO PUSH2 0x54CA JUMPI PUSH2 0x54C9 PUSH2 0x4568 JUMP JUMPDEST JUMPDEST SWAP3 SWAP2 POP POP JUMP JUMPDEST PUSH32 0x4F776E61626C653A206E6577206F776E657220697320746865207A65726F2061 PUSH1 0x0 DUP3 ADD MSTORE PUSH32 0x6464726573730000000000000000000000000000000000000000000000000000 PUSH1 0x20 DUP3 ADD MSTORE POP JUMP JUMPDEST PUSH1 0x0 PUSH2 0x552C PUSH1 0x26 DUP4 PUSH2 0x3C08 JUMP JUMPDEST SWAP2 POP PUSH2 0x5537 DUP3 PUSH2 0x54D0 JUMP JUMPDEST PUSH1 0x40 DUP3 ADD SWAP1 POP SWAP2 SWAP1 POP JUMP JUMPDEST PUSH1 0x0 PUSH1 0x20 DUP3 ADD SWAP1 POP DUP2 DUP2 SUB PUSH1 0x0 DUP4 ADD MSTORE PUSH2 0x555B DUP2 PUSH2 0x551F JUMP JUMPDEST SWAP1 POP SWAP2 SWAP1 POP JUMP JUMPDEST PUSH32 0x4F776E61626C653A2063616C6C6572206973206E6F7420746865206F776E6572 PUSH1 0x0 DUP3 ADD MSTORE POP JUMP JUMPDEST PUSH1 0x0 PUSH2 0x5598 PUSH1 0x20 DUP4 PUSH2 0x3C08 JUMP JUMPDEST SWAP2 POP PUSH2 0x55A3 DUP3 PUSH2 0x5562 JUMP JUMPDEST PUSH1 0x20 DUP3 ADD SWAP1 POP SWAP2 SWAP1 POP JUMP JUMPDEST PUSH1 0x0 PUSH1 0x20 DUP3 ADD SWAP1 POP DUP2 DUP2 SUB PUSH1 0x0 DUP4 ADD MSTORE PUSH2 0x55C7 DUP2 PUSH2 0x558B JUMP JUMPDEST SWAP1 POP SWAP2 SWAP1 POP JUMP JUMPDEST PUSH32 0x5265656E7472616E637947756172643A207265656E7472616E742063616C6C00 PUSH1 0x0 DUP3 ADD MSTORE POP JUMP JUMPDEST PUSH1 0x0 PUSH2 0x5604 PUSH1 0x1F DUP4 PUSH2 0x3C08 JUMP JUMPDEST SWAP2 POP PUSH2 0x560F DUP3 PUSH2 0x55CE JUMP JUMPDEST PUSH1 0x20 DUP3 ADD SWAP1 POP SWAP2 SWAP1 POP JUMP JUMPDEST PUSH1 0x0 PUSH1 0x20 DUP3 ADD SWAP1 POP DUP2 DUP2 SUB PUSH1 0x0 DUP4 ADD MSTORE PUSH2 0x5633 DUP2 PUSH2 0x55F7 JUMP JUMPDEST SWAP1 POP SWAP2 SWAP1 POP JUMP JUMPDEST PUSH32 0x4E6F206E6F646573207374616B65640000000000000000000000000000000000 PUSH1 0x0 DUP3 ADD MSTORE POP JUMP JUMPDEST PUSH1 0x0 PUSH2 0x5670 PUSH1 0xF DUP4 PUSH2 0x3C08 JUMP JUMPDEST SWAP2 POP PUSH2 0x567B DUP3 PUSH2 0x563A JUMP JUMPDEST PUSH1 0x20 DUP3 ADD SWAP1 POP SWAP2 SWAP1 POP JUMP JUMPDEST PUSH1 0x0 PUSH1 0x20 DUP3 ADD SWAP1 POP DUP2 DUP2 SUB PUSH1 0x0 DUP4 ADD MSTORE PUSH2 0x569F DUP2 PUSH2 0x5663 JUMP JUMPDEST SWAP1 POP SWAP2 SWAP1 POP JUMP JUMPDEST PUSH1 0x0 DUP2 SWAP1 POP SWAP2 SWAP1 POP JUMP JUMPDEST PUSH1 0x0 PUSH4 0xFFFFFFFF DUP3 AND SWAP1 POP SWAP2 SWAP1 POP JUMP JUMPDEST PUSH1 0x0 PUSH2 0x56DB PUSH2 0x56D6 PUSH2 0x56D1 DUP5 PUSH2 0x56A6 JUMP JUMPDEST PUSH2 0x40DD JUMP JUMPDEST PUSH2 0x56B0 JUMP JUMPDEST SWAP1 POP SWAP2 SWAP1 POP JUMP JUMPDEST PUSH2 0x56EB DUP2 PUSH2 0x56C0 JUMP JUMPDEST DUP3 MSTORE POP POP JUMP JUMPDEST PUSH1 0x0 PUSH1 0x20 DUP3 ADD SWAP1 POP PUSH2 0x5706 PUSH1 0x0 DUP4 ADD DUP5 PUSH2 0x56E2 JUMP JUMPDEST SWAP3 SWAP2 POP POP JUMP JUMPDEST PUSH1 0x0 PUSH1 0x20 DUP3 DUP5 SUB SLT ISZERO PUSH2 0x5722 JUMPI PUSH2 0x5721 PUSH2 0x39AE JUMP JUMPDEST JUMPDEST PUSH1 0x0 PUSH2 0x5730 DUP5 DUP3 DUP6 ADD PUSH2 0x4BFE JUMP JUMPDEST SWAP2 POP POP SWAP3 SWAP2 POP POP JUMP INVALID LOG2 PUSH5 0x6970667358 0x22 SLT KECCAK256 0xC9 0xA8 0x26 0xA9 0xAE 0xAE 0xE7 0xC2 JUMPI DUP12 PUSH16 0x874A0B4657F5753ACAC4673378EC2914 0xF7 PUSH9 0xA585D964736F6C6343 STOP ADDMOD NOT STOP CALLER "},"methodIdentifiers":{"cancelJob(uint256)":"1dffa3dc","createDispute(uint256)":"4ac8a529","createJob(uint256,uint8)":"b9d03a2a","deactivateNode(uint256)":"e9d63830","disputedJobs(uint256)":"2f704cb5","distributeRewards(uint256)":"59974e38","fulfillRandomness(uint256)":"495bd94e","getJobDetails(uint256)":"4cac35c6","getJobStatus(uint256)":"a6c58b63","getNodeDetails(uint256)":"5afbba47","getNodeJobs(uint256)":"909d5ce6","getUserJobs(address)":"3fa7276c","getVideoDetails(uint256)":"ab1a5cb7","getplatformStats()":"645e013c","handleDispute(uint256,bool)":"8f21bfe9","jobPrice()":"556a6121","jobs(uint256)":"180aedf3","minStake()":"375b3c0a","nextJobId()":"b0c2aa5e","nextNodeId()":"20eca391","nextVideoId()":"a062ab2b","nodeFee()":"f4162530","nodeIds(uint256)":"98543166","nodeJobs(uint256,uint256)":"1137f160","nodes(uint256)":"1c53c280","nodesThroughAddress(address)":"670fed39","owner()":"8da5cb5b","pendingRewards(address)":"31d7a262","registerNode()":"1680b35c","renounceOwnership()":"715018a6","setTrustedNode(uint256,bool)":"0978f39d","submitJobResult(uint256,string)":"e2322085","tokenContract()":"55a373d6","totalStaked()":"817b1cd2","transferOwnership(address)":"f2fde38b","updateJobPrice(uint256)":"6cbc2a22","updateNodeFee(uint256)":"315cf0c6","uploadVideo(string,uint256,bool)":"1d69de07","userJobs(address,uint256)":"c17ff9d2","videos(uint256)":"e6821bf5","vrfContract()":"6858a3f3","withdrawRewards()":"c7b8981c"}}}}}