{"contracts/AiContract.sol":{"OpenAiChatGptVision":{"abi":[{"inputs":[{"internalType":"address","name":"initialOracleAddress","type":"address"}],"stateMutability":"nonpayable","type":"constructor"},{"anonymous":false,"inputs":[{"indexed":true,"internalType":"address","name":"owner","type":"address"},{"indexed":true,"internalType":"uint256","name":"chatId","type":"uint256"}],"name":"ChatCreated","type":"event"},{"anonymous":false,"inputs":[{"indexed":true,"internalType":"address","name":"newOracleAddress","type":"address"}],"name":"OracleAddressUpdated","type":"event"},{"inputs":[{"internalType":"string","name":"message","type":"string"},{"internalType":"uint256","name":"runId","type":"uint256"}],"name":"addMessage","outputs":[],"stateMutability":"nonpayable","type":"function"},{"inputs":[{"internalType":"uint256","name":"","type":"uint256"}],"name":"chatRuns","outputs":[{"internalType":"address","name":"owner","type":"address"}],"stateMutability":"view","type":"function"},{"inputs":[{"internalType":"uint256","name":"chatId","type":"uint256"}],"name":"getMessageHistory","outputs":[{"components":[{"internalType":"string","name":"role","type":"string"},{"components":[{"internalType":"string","name":"contentType","type":"string"},{"internalType":"string","name":"value","type":"string"}],"internalType":"struct OpenAiChatGptVision.Content[]","name":"content","type":"tuple[]"}],"internalType":"struct OpenAiChatGptVision.Message[]","name":"","type":"tuple[]"}],"stateMutability":"view","type":"function"},{"inputs":[{"internalType":"uint256","name":"runId","type":"uint256"},{"components":[{"internalType":"string","name":"id","type":"string"},{"internalType":"string","name":"content","type":"string"},{"internalType":"string","name":"functionName","type":"string"},{"internalType":"string","name":"functionArguments","type":"string"},{"internalType":"uint64","name":"created","type":"uint64"},{"internalType":"string","name":"model","type":"string"},{"internalType":"string","name":"systemFingerprint","type":"string"},{"internalType":"string","name":"object","type":"string"},{"internalType":"uint32","name":"completionTokens","type":"uint32"},{"internalType":"uint32","name":"promptTokens","type":"uint32"},{"internalType":"uint32","name":"totalTokens","type":"uint32"}],"internalType":"struct IOracle.OpenAiResponse","name":"response","type":"tuple"},{"internalType":"string","name":"errorMessage","type":"string"}],"name":"onOracleOpenAiLlmResponse","outputs":[],"stateMutability":"nonpayable","type":"function"},{"inputs":[],"name":"oracleAddress","outputs":[{"internalType":"address","name":"","type":"address"}],"stateMutability":"view","type":"function"},{"inputs":[{"internalType":"address","name":"newOracleAddress","type":"address"}],"name":"setOracleAddress","outputs":[],"stateMutability":"nonpayable","type":"function"},{"inputs":[{"internalType":"string","name":"message","type":"string"},{"internalType":"string[]","name":"imageUrls","type":"string[]"}],"name":"startChat","outputs":[{"internalType":"uint256","name":"","type":"uint256"}],"stateMutability":"nonpayable","type":"function"}],"evm":{"bytecode":{"linkReferences":{},"object":"608060405234801561001057600080fd5b50604051612a6c380380612a6c83398181016040528101906100329190610376565b33600260006101000a81548173ffffffffffffffffffffffffffffffffffffffff021916908373ffffffffffffffffffffffffffffffffffffffff16021790555080600360006101000a81548173ffffffffffffffffffffffffffffffffffffffff021916908373ffffffffffffffffffffffffffffffffffffffff1602179055506000600181905550604051806101a001604052806040518060400160405280600b81526020017f6770742d342d747572626f0000000000000000000000000000000000000000008152508152602001601560000b81526020016040518060200160405280600081525081526020016103e863ffffffff168152602001601560000b81526020016040518060400160405280600f81526020017f7b2274797065223a2274657874227d0000000000000000000000000000000000815250815260200160008152602001604051806020016040528060008152508152602001600a81526020016065815260200160405180602001604052806000815250815260200160405180602001604052806000815250815260200160405180602001604052806000815250815250600460008201518160000190816101f391906105f3565b5060208201518160010160006101000a81548160ff021916908360000b60ff160217905550604082015181600201908161022d91906105f3565b5060608201518160030160006101000a81548163ffffffff021916908363ffffffff16021790555060808201518160030160046101000a81548160ff021916908360000b60ff16021790555060a082015181600401908161028e91906105f3565b5060c0820151816005015560e08201518160060190816102ae91906105f3565b50610100820151816007015561012082015181600801556101408201518160090190816102db91906105f3565b5061016082015181600a0190816102f291906105f3565b5061018082015181600b01908161030991906105f3565b50905050506106c5565b600080fd5b600073ffffffffffffffffffffffffffffffffffffffff82169050919050565b600061034382610318565b9050919050565b61035381610338565b811461035e57600080fd5b50565b6000815190506103708161034a565b92915050565b60006020828403121561038c5761038b610313565b5b600061039a84828501610361565b91505092915050565b600081519050919050565b7f4e487b7100000000000000000000000000000000000000000000000000000000600052604160045260246000fd5b7f4e487b7100000000000000000000000000000000000000000000000000000000600052602260045260246000fd5b6000600282049050600182168061042457607f821691505b602082108103610437576104366103dd565b5b50919050565b60008190508160005260206000209050919050565b60006020601f8301049050919050565b600082821b905092915050565b60006008830261049f7fffffffffffffffffffffffffffffffffffffffffffffffffffffffffffffffff82610462565b6104a98683610462565b95508019841693508086168417925050509392505050565b6000819050919050565b6000819050919050565b60006104f06104eb6104e6846104c1565b6104cb565b6104c1565b9050919050565b6000819050919050565b61050a836104d5565b61051e610516826104f7565b84845461046f565b825550505050565b600090565b610533610526565b61053e818484610501565b505050565b5b818110156105625761055760008261052b565b600181019050610544565b5050565b601f8211156105a7576105788161043d565b61058184610452565b81016020851015610590578190505b6105a461059c85610452565b830182610543565b50505b505050565b600082821c905092915050565b60006105ca600019846008026105ac565b1980831691505092915050565b60006105e383836105b9565b9150826002028217905092915050565b6105fc826103a3565b67ffffffffffffffff811115610615576106146103ae565b5b61061f825461040c565b61062a828285610566565b600060209050601f83116001811461065d576000841561064b578287015190505b61065585826105d7565b8655506106bd565b601f19841661066b8661043d565b60005b828110156106935784890151825560018201915060208501945060208101905061066e565b868310156106b057848901516106ac601f8916826105b9565b8355505b6001600288020188555050505b505050505050565b612398806106d46000396000f3fe608060405234801561001057600080fd5b506004361061007d5760003560e01c8063632cc98b1161005b578063632cc98b146100ea578063941fac371461011a578063a89ae4ba14610136578063ca3ce8d1146101545761007d565b80634c69c00f146100825780634cecd88e1461009e57806354a470fc146100ba575b600080fd5b61009c60048036038101906100979190610f0f565b610184565b005b6100b860048036038101906100b3919061130e565b61029b565b005b6100d460048036038101906100cf9190611399565b610536565b6040516100e19190611651565b60405180910390f35b61010460048036038101906100ff9190611399565b6107bf565b6040516101119190611682565b60405180910390f35b610134600480360381019061012f919061169d565b6107fd565b005b61013e610b12565b60405161014b9190611682565b60405180910390f35b61016e600480360381019061016991906117df565b610b38565b60405161017b9190611866565b60405180910390f35b600260009054906101000a900473ffffffffffffffffffffffffffffffffffffffff1673ffffffffffffffffffffffffffffffffffffffff163373ffffffffffffffffffffffffffffffffffffffff1614610214576040517f08c379a000000000000000000000000000000000000000000000000000000000815260040161020b906118de565b60405180910390fd5b80600360006101000a81548173ffffffffffffffffffffffffffffffffffffffff021916908373ffffffffffffffffffffffffffffffffffffffff1602179055508073ffffffffffffffffffffffffffffffffffffffff167f107a9fafffb7ac890f780879e423760c9ffea8dcee8045681f40f542aede2cb860405160405180910390a250565b600360009054906101000a900473ffffffffffffffffffffffffffffffffffffffff1673ffffffffffffffffffffffffffffffffffffffff163373ffffffffffffffffffffffffffffffffffffffff161461032b576040517f08c379a00000000000000000000000000000000000000000000000000000000081526004016103229061194a565b60405180910390fd5b60008060008581526020019081526020016000209050600081600101805490501180156103da5750604051602001610362906119c1565b6040516020818303038152906040528051906020012081600101600183600101805490506103909190611a05565b815481106103a1576103a0611a39565b5b90600052602060002090600202016000016040516020016103c29190611b60565b60405160208183030381529060405280519060200120145b610419576040517f08c379a000000000000000000000000000000000000000000000000000000000815260040161041090611bc3565b60405180910390fd5b60008160010160018160018154018082558091505003906000526020600020906002020190506040518060400160405280600981526020017f617373697374616e7400000000000000000000000000000000000000000000008152508160000190816104859190611d7a565b5060008160010160018160018154018082558091505003906000526020600020906002020190506040518060400160405280600481526020017f74657874000000000000000000000000000000000000000000000000000000008152508160000190816104f29190611d7a565b5061050c8460405180602001604052806000815250610e44565b1561051b57846020015161051d565b835b81600101908161052d9190611d7a565b50505050505050565b6060600080838152602001908152602001600020600101805480602002602001604051908101604052809291908181526020016000905b828210156107b457838290600052602060002090600202016040518060400160405290816000820180546105a090611a97565b80601f01602080910402602001604051908101604052809291908181526020018280546105cc90611a97565b80156106195780601f106105ee57610100808354040283529160200191610619565b820191906000526020600020905b8154815290600101906020018083116105fc57829003601f168201915b5050505050815260200160018201805480602002602001604051908101604052809291908181526020016000905b8282101561079d578382906000526020600020906002020160405180604001604052908160008201805461067a90611a97565b80601f01602080910402602001604051908101604052809291908181526020018280546106a690611a97565b80156106f35780601f106106c8576101008083540402835291602001916106f3565b820191906000526020600020905b8154815290600101906020018083116106d657829003601f168201915b5050505050815260200160018201805461070c90611a97565b80601f016020809104026020016040519081016040528092919081815260200182805461073890611a97565b80156107855780601f1061075a57610100808354040283529160200191610785565b820191906000526020600020905b81548152906001019060200180831161076857829003601f168201915b50505050508152505081526020019060010190610647565b50505050815250508152602001906001019061056d565b505050509050919050565b60006020528060005260406000206000915090508060000160009054906101000a900473ffffffffffffffffffffffffffffffffffffffff16905081565b60008060008381526020019081526020016000209050600081600101805490501180156108ac575060405160200161083490611e98565b6040516020818303038152906040528051906020012081600101600183600101805490506108629190611a05565b8154811061087357610872611a39565b5b90600052602060002090600202016000016040516020016108949190611b60565b60405160208183030381529060405280519060200120145b6108eb576040517f08c379a00000000000000000000000000000000000000000000000000000000081526004016108e290611ef9565b60405180910390fd5b3373ffffffffffffffffffffffffffffffffffffffff168160000160009054906101000a900473ffffffffffffffffffffffffffffffffffffffff1673ffffffffffffffffffffffffffffffffffffffff161461097d576040517f08c379a000000000000000000000000000000000000000000000000000000000815260040161097490611f65565b60405180910390fd5b60008160010160018160018154018082558091505003906000526020600020906002020190506040518060400160405280600481526020017f75736572000000000000000000000000000000000000000000000000000000008152508160000190816109e99190611d7a565b5060008160010160018160018154018082558091505003906000526020600020906002020190506040518060400160405280600481526020017f7465787400000000000000000000000000000000000000000000000000000000815250816000019081610a569190611d7a565b5084816001019081610a689190611d7a565b50600360009054906101000a900473ffffffffffffffffffffffffffffffffffffffff1673ffffffffffffffffffffffffffffffffffffffff16633c38a5f58560046040518363ffffffff1660e01b8152600401610ac7929190612260565b6020604051808303816000875af1158015610ae6573d6000803e3d6000fd5b505050506040513d601f19601f82011682018060405250810190610b0a91906122a5565b505050505050565b600360009054906101000a900473ffffffffffffffffffffffffffffffffffffffff1681565b600080600154905060016000815480929190610b53906122d2565b919050555060008060008381526020019081526020016000209050338160000160006101000a81548173ffffffffffffffffffffffffffffffffffffffff021916908373ffffffffffffffffffffffffffffffffffffffff16021790555060008160010160018160018154018082558091505003906000526020600020906002020190506040518060400160405280600481526020017f7573657200000000000000000000000000000000000000000000000000000000815250816000019081610c1d9190611d7a565b5060008160010160018160018154018082558091505003906000526020600020906002020190506040518060400160405280600481526020017f7465787400000000000000000000000000000000000000000000000000000000815250816000019081610c8a9190611d7a565b5086816001019081610c9c9190611d7a565b5060005b8651811015610d505760008360010160018160018154018082558091505003906000526020600020906002020190506040518060400160405280600981526020017f696d6167655f75726c0000000000000000000000000000000000000000000000815250816000019081610d159190611d7a565b50878281518110610d2957610d28611a39565b5b6020026020010151816001019081610d419190611d7a565b50508080600101915050610ca0565b50600360009054906101000a900473ffffffffffffffffffffffffffffffffffffffff1673ffffffffffffffffffffffffffffffffffffffff16633c38a5f58560046040518363ffffffff1660e01b8152600401610daf929190612260565b6020604051808303816000875af1158015610dce573d6000803e3d6000fd5b505050506040513d601f19601f82011682018060405250810190610df291906122a5565b50833373ffffffffffffffffffffffffffffffffffffffff167fd1de2c4de50323207202f3df0bb1dec1a42e233aec245f25519d674c10bd72ca60405160405180910390a38394505050505092915050565b600081604051602001610e57919061234b565b6040516020818303038152906040528051906020012083604051602001610e7e919061234b565b6040516020818303038152906040528051906020012014905092915050565b6000604051905090565b600080fd5b600080fd5b600073ffffffffffffffffffffffffffffffffffffffff82169050919050565b6000610edc82610eb1565b9050919050565b610eec81610ed1565b8114610ef757600080fd5b50565b600081359050610f0981610ee3565b92915050565b600060208284031215610f2557610f24610ea7565b5b6000610f3384828501610efa565b91505092915050565b6000819050919050565b610f4f81610f3c565b8114610f5a57600080fd5b50565b600081359050610f6c81610f46565b92915050565b600080fd5b6000601f19601f8301169050919050565b7f4e487b7100000000000000000000000000000000000000000000000000000000600052604160045260246000fd5b610fc082610f77565b810181811067ffffffffffffffff82111715610fdf57610fde610f88565b5b80604052505050565b6000610ff2610e9d565b9050610ffe8282610fb7565b919050565b600080fd5b600080fd5b600080fd5b600067ffffffffffffffff82111561102d5761102c610f88565b5b61103682610f77565b9050602081019050919050565b82818337600083830152505050565b600061106561106084611012565b610fe8565b9050828152602081018484840111156110815761108061100d565b5b61108c848285611043565b509392505050565b600082601f8301126110a9576110a8611008565b5b81356110b9848260208601611052565b91505092915050565b600067ffffffffffffffff82169050919050565b6110df816110c2565b81146110ea57600080fd5b50565b6000813590506110fc816110d6565b92915050565b600063ffffffff82169050919050565b61111b81611102565b811461112657600080fd5b50565b60008135905061113881611112565b92915050565b6000610160828403121561115557611154610f72565b5b611160610160610fe8565b9050600082013567ffffffffffffffff8111156111805761117f611003565b5b61118c84828501611094565b600083015250602082013567ffffffffffffffff8111156111b0576111af611003565b5b6111bc84828501611094565b602083015250604082013567ffffffffffffffff8111156111e0576111df611003565b5b6111ec84828501611094565b604083015250606082013567ffffffffffffffff8111156112105761120f611003565b5b61121c84828501611094565b6060830152506080611230848285016110ed565b60808301525060a082013567ffffffffffffffff81111561125457611253611003565b5b61126084828501611094565b60a08301525060c082013567ffffffffffffffff81111561128457611283611003565b5b61129084828501611094565b60c08301525060e082013567ffffffffffffffff8111156112b4576112b3611003565b5b6112c084828501611094565b60e0830152506101006112d584828501611129565b610100830152506101206112eb84828501611129565b6101208301525061014061130184828501611129565b6101408301525092915050565b60008060006060848603121561132757611326610ea7565b5b600061133586828701610f5d565b935050602084013567ffffffffffffffff81111561135657611355610eac565b5b6113628682870161113e565b925050604084013567ffffffffffffffff81111561138357611382610eac565b5b61138f86828701611094565b9150509250925092565b6000602082840312156113af576113ae610ea7565b5b60006113bd84828501610f5d565b91505092915050565b600081519050919050565b600082825260208201905092915050565b6000819050602082019050919050565b600081519050919050565b600082825260208201905092915050565b60005b8381101561142c578082015181840152602081019050611411565b60008484015250505050565b6000611443826113f2565b61144d81856113fd565b935061145d81856020860161140e565b61146681610f77565b840191505092915050565b600081519050919050565b600082825260208201905092915050565b6000819050602082019050919050565b600060408301600083015184820360008601526114ba8282611438565b915050602083015184820360208601526114d48282611438565b9150508091505092915050565b60006114ed838361149d565b905092915050565b6000602082019050919050565b600061150d82611471565b611517818561147c565b9350836020820285016115298561148d565b8060005b85811015611565578484038952815161154685826114e1565b9450611551836114f5565b925060208a0199505060018101905061152d565b50829750879550505050505092915050565b600060408301600083015184820360008601526115948282611438565b915050602083015184820360208601526115ae8282611502565b9150508091505092915050565b60006115c78383611577565b905092915050565b6000602082019050919050565b60006115e7826113c6565b6115f181856113d1565b935083602082028501611603856113e2565b8060005b8581101561163f578484038952815161162085826115bb565b945061162b836115cf565b925060208a01995050600181019050611607565b50829750879550505050505092915050565b6000602082019050818103600083015261166b81846115dc565b905092915050565b61167c81610ed1565b82525050565b60006020820190506116976000830184611673565b92915050565b600080604083850312156116b4576116b3610ea7565b5b600083013567ffffffffffffffff8111156116d2576116d1610eac565b5b6116de85828601611094565b92505060206116ef85828601610f5d565b9150509250929050565b600067ffffffffffffffff82111561171457611713610f88565b5b602082029050602081019050919050565b600080fd5b600061173d611738846116f9565b610fe8565b905080838252602082019050602084028301858111156117605761175f611725565b5b835b818110156117a757803567ffffffffffffffff81111561178557611784611008565b5b8086016117928982611094565b85526020850194505050602081019050611762565b5050509392505050565b600082601f8301126117c6576117c5611008565b5b81356117d684826020860161172a565b91505092915050565b600080604083850312156117f6576117f5610ea7565b5b600083013567ffffffffffffffff81111561181457611813610eac565b5b61182085828601611094565b925050602083013567ffffffffffffffff81111561184157611840610eac565b5b61184d858286016117b1565b9150509250929050565b61186081610f3c565b82525050565b600060208201905061187b6000830184611857565b92915050565b600082825260208201905092915050565b7f43616c6c6572206973206e6f74206f776e657200000000000000000000000000600082015250565b60006118c8601383611881565b91506118d382611892565b602082019050919050565b600060208201905081810360008301526118f7816118bb565b9050919050565b7f43616c6c6572206973206e6f74206f7261636c65000000000000000000000000600082015250565b6000611934601483611881565b915061193f826118fe565b602082019050919050565b6000602082019050818103600083015261196381611927565b9050919050565b600081905092915050565b7f7573657200000000000000000000000000000000000000000000000000000000600082015250565b60006119ab60048361196a565b91506119b682611975565b600482019050919050565b60006119cc8261199e565b9150819050919050565b7f4e487b7100000000000000000000000000000000000000000000000000000000600052601160045260246000fd5b6000611a1082610f3c565b9150611a1b83610f3c565b9250828203905081811115611a3357611a326119d6565b5b92915050565b7f4e487b7100000000000000000000000000000000000000000000000000000000600052603260045260246000fd5b7f4e487b7100000000000000000000000000000000000000000000000000000000600052602260045260246000fd5b60006002820490506001821680611aaf57607f821691505b602082108103611ac257611ac1611a68565b5b50919050565b60008190508160005260206000209050919050565b60008154611aea81611a97565b611af4818661196a565b94506001821660008114611b0f5760018114611b2457611b57565b60ff1983168652811515820286019350611b57565b611b2d85611ac8565b60005b83811015611b4f57815481890152600182019150602081019050611b30565b838801955050505b50505092915050565b6000611b6c8284611add565b915081905092915050565b7f4e6f206d65737361676520746f20726573706f6e6420746f0000000000000000600082015250565b6000611bad601883611881565b9150611bb882611b77565b602082019050919050565b60006020820190508181036000830152611bdc81611ba0565b9050919050565b60006020601f8301049050919050565b600082821b905092915050565b600060088302611c307fffffffffffffffffffffffffffffffffffffffffffffffffffffffffffffffff82611bf3565b611c3a8683611bf3565b95508019841693508086168417925050509392505050565b6000819050919050565b6000611c77611c72611c6d84610f3c565b611c52565b610f3c565b9050919050565b6000819050919050565b611c9183611c5c565b611ca5611c9d82611c7e565b848454611c00565b825550505050565b600090565b611cba611cad565b611cc5818484611c88565b505050565b5b81811015611ce957611cde600082611cb2565b600181019050611ccb565b5050565b601f821115611d2e57611cff81611ac8565b611d0884611be3565b81016020851015611d17578190505b611d2b611d2385611be3565b830182611cca565b50505b505050565b600082821c905092915050565b6000611d5160001984600802611d33565b1980831691505092915050565b6000611d6a8383611d40565b9150826002028217905092915050565b611d83826113f2565b67ffffffffffffffff811115611d9c57611d9b610f88565b5b611da68254611a97565b611db1828285611ced565b600060209050601f831160018114611de45760008415611dd2578287015190505b611ddc8582611d5e565b865550611e44565b601f198416611df286611ac8565b60005b82811015611e1a57848901518255600182019150602085019450602081019050611df5565b86831015611e375784890151611e33601f891682611d40565b8355505b6001600288020188555050505b505050505050565b7f617373697374616e740000000000000000000000000000000000000000000000600082015250565b6000611e8260098361196a565b9150611e8d82611e4c565b600982019050919050565b6000611ea382611e75565b9150819050919050565b7f4e6f20726573706f6e736520746f2070726576696f7573206d65737361676500600082015250565b6000611ee3601f83611881565b9150611eee82611ead565b602082019050919050565b60006020820190508181036000830152611f1281611ed6565b9050919050565b7f4f6e6c792063686174206f776e65722063616e20616464206d65737361676573600082015250565b6000611f4f602083611881565b9150611f5a82611f19565b602082019050919050565b60006020820190508181036000830152611f7e81611f42565b9050919050565b60008154611f9281611a97565b611f9c81866113fd565b94506001821660008114611fb75760018114611fcd57612000565b60ff198316865281151560200286019350612000565b611fd685611ac8565b60005b83811015611ff857815481890152600182019150602081019050611fd9565b808801955050505b50505092915050565b60008160001c9050919050565b60008160000b9050919050565b600061203661203183612009565b612016565b9050919050565b60008160000b9050919050565b6120538161203d565b82525050565b600063ffffffff82169050919050565b600061207c61207783612009565b612059565b9050919050565b61208c81611102565b82525050565b60008160201c9050919050565b60006120b26120ad83612092565b612016565b9050919050565b6000819050919050565b60006120d66120d183612009565b6120b9565b9050919050565b6120e681610f3c565b82525050565b60006101a083016000808401858303600087015261210a8382611f85565b9250506001840154905061211d81612023565b61212a602087018261204a565b506002840185830360408701526121418382611f85565b9250506003840154905061215481612069565b6121616060870182612083565b5061216b8161209f565b612178608087018261204a565b506004840185830360a087015261218f8382611f85565b925050600584015490506121a2816120c3565b6121af60c08701826120dd565b506006840185830360e08701526121c68382611f85565b925050600784015490506121d9816120c3565b6121e76101008701826120dd565b50600884015490506121f8816120c3565b6122066101208701826120dd565b506009840185830361014087015261221e8382611f85565b925050600a84018583036101608701526122388382611f85565b925050600b84018583036101808701526122528382611f85565b925050819250505092915050565b60006040820190506122756000830185611857565b818103602083015261228781846120ec565b90509392505050565b60008151905061229f81610f46565b92915050565b6000602082840312156122bb576122ba610ea7565b5b60006122c984828501612290565b91505092915050565b60006122dd82610f3c565b91507fffffffffffffffffffffffffffffffffffffffffffffffffffffffffffffffff820361230f5761230e6119d6565b5b600182019050919050565b6000612325826113f2565b61232f818561196a565b935061233f81856020860161140e565b80840191505092915050565b6000612357828461231a565b91508190509291505056fea26469706673582212201fff453a5917513c83f0d0863d24c28071ced29520fb160786c097b1f2f4fe5864736f6c63430008190033","opcodes":"PUSH1 0x80 PUSH1 0x40 MSTORE CALLVALUE DUP1 ISZERO PUSH2 0x10 JUMPI PUSH1 0x0 DUP1 REVERT JUMPDEST POP PUSH1 0x40 MLOAD PUSH2 0x2A6C CODESIZE SUB DUP1 PUSH2 0x2A6C DUP4 CODECOPY DUP2 DUP2 ADD PUSH1 0x40 MSTORE DUP2 ADD SWAP1 PUSH2 0x32 SWAP2 SWAP1 PUSH2 0x376 JUMP JUMPDEST CALLER PUSH1 0x2 PUSH1 0x0 PUSH2 0x100 EXP DUP2 SLOAD DUP2 PUSH20 0xFFFFFFFFFFFFFFFFFFFFFFFFFFFFFFFFFFFFFFFF MUL NOT AND SWAP1 DUP4 PUSH20 0xFFFFFFFFFFFFFFFFFFFFFFFFFFFFFFFFFFFFFFFF AND MUL OR SWAP1 SSTORE POP DUP1 PUSH1 0x3 PUSH1 0x0 PUSH2 0x100 EXP DUP2 SLOAD DUP2 PUSH20 0xFFFFFFFFFFFFFFFFFFFFFFFFFFFFFFFFFFFFFFFF MUL NOT AND SWAP1 DUP4 PUSH20 0xFFFFFFFFFFFFFFFFFFFFFFFFFFFFFFFFFFFFFFFF AND MUL OR SWAP1 SSTORE POP PUSH1 0x0 PUSH1 0x1 DUP2 SWAP1 SSTORE POP PUSH1 0x40 MLOAD DUP1 PUSH2 0x1A0 ADD PUSH1 0x40 MSTORE DUP1 PUSH1 0x40 MLOAD DUP1 PUSH1 0x40 ADD PUSH1 0x40 MSTORE DUP1 PUSH1 0xB DUP2 MSTORE PUSH1 0x20 ADD PUSH32 0x6770742D342D747572626F000000000000000000000000000000000000000000 DUP2 MSTORE POP DUP2 MSTORE PUSH1 0x20 ADD PUSH1 0x15 PUSH1 0x0 SIGNEXTEND DUP2 MSTORE PUSH1 0x20 ADD PUSH1 0x40 MLOAD DUP1 PUSH1 0x20 ADD PUSH1 0x40 MSTORE DUP1 PUSH1 0x0 DUP2 MSTORE POP DUP2 MSTORE PUSH1 0x20 ADD PUSH2 0x3E8 PUSH4 0xFFFFFFFF AND DUP2 MSTORE PUSH1 0x20 ADD PUSH1 0x15 PUSH1 0x0 SIGNEXTEND DUP2 MSTORE PUSH1 0x20 ADD PUSH1 0x40 MLOAD DUP1 PUSH1 0x40 ADD PUSH1 0x40 MSTORE DUP1 PUSH1 0xF DUP2 MSTORE PUSH1 0x20 ADD PUSH32 0x7B2274797065223A2274657874227D0000000000000000000000000000000000 DUP2 MSTORE POP DUP2 MSTORE PUSH1 0x20 ADD PUSH1 0x0 DUP2 MSTORE PUSH1 0x20 ADD PUSH1 0x40 MLOAD DUP1 PUSH1 0x20 ADD PUSH1 0x40 MSTORE DUP1 PUSH1 0x0 DUP2 MSTORE POP DUP2 MSTORE PUSH1 0x20 ADD PUSH1 0xA DUP2 MSTORE PUSH1 0x20 ADD PUSH1 0x65 DUP2 MSTORE PUSH1 0x20 ADD PUSH1 0x40 MLOAD DUP1 PUSH1 0x20 ADD PUSH1 0x40 MSTORE DUP1 PUSH1 0x0 DUP2 MSTORE POP DUP2 MSTORE PUSH1 0x20 ADD PUSH1 0x40 MLOAD DUP1 PUSH1 0x20 ADD PUSH1 0x40 MSTORE DUP1 PUSH1 0x0 DUP2 MSTORE POP DUP2 MSTORE PUSH1 0x20 ADD PUSH1 0x40 MLOAD DUP1 PUSH1 0x20 ADD PUSH1 0x40 MSTORE DUP1 PUSH1 0x0 DUP2 MSTORE POP DUP2 MSTORE POP PUSH1 0x4 PUSH1 0x0 DUP3 ADD MLOAD DUP2 PUSH1 0x0 ADD SWAP1 DUP2 PUSH2 0x1F3 SWAP2 SWAP1 PUSH2 0x5F3 JUMP JUMPDEST POP PUSH1 0x20 DUP3 ADD MLOAD DUP2 PUSH1 0x1 ADD PUSH1 0x0 PUSH2 0x100 EXP DUP2 SLOAD DUP2 PUSH1 0xFF MUL NOT AND SWAP1 DUP4 PUSH1 0x0 SIGNEXTEND PUSH1 0xFF AND MUL OR SWAP1 SSTORE POP PUSH1 0x40 DUP3 ADD MLOAD DUP2 PUSH1 0x2 ADD SWAP1 DUP2 PUSH2 0x22D SWAP2 SWAP1 PUSH2 0x5F3 JUMP JUMPDEST POP PUSH1 0x60 DUP3 ADD MLOAD DUP2 PUSH1 0x3 ADD PUSH1 0x0 PUSH2 0x100 EXP DUP2 SLOAD DUP2 PUSH4 0xFFFFFFFF MUL NOT AND SWAP1 DUP4 PUSH4 0xFFFFFFFF AND MUL OR SWAP1 SSTORE POP PUSH1 0x80 DUP3 ADD MLOAD DUP2 PUSH1 0x3 ADD PUSH1 0x4 PUSH2 0x100 EXP DUP2 SLOAD DUP2 PUSH1 0xFF MUL NOT AND SWAP1 DUP4 PUSH1 0x0 SIGNEXTEND PUSH1 0xFF AND MUL OR SWAP1 SSTORE POP PUSH1 0xA0 DUP3 ADD MLOAD DUP2 PUSH1 0x4 ADD SWAP1 DUP2 PUSH2 0x28E SWAP2 SWAP1 PUSH2 0x5F3 JUMP JUMPDEST POP PUSH1 0xC0 DUP3 ADD MLOAD DUP2 PUSH1 0x5 ADD SSTORE PUSH1 0xE0 DUP3 ADD MLOAD DUP2 PUSH1 0x6 ADD SWAP1 DUP2 PUSH2 0x2AE SWAP2 SWAP1 PUSH2 0x5F3 JUMP JUMPDEST POP PUSH2 0x100 DUP3 ADD MLOAD DUP2 PUSH1 0x7 ADD SSTORE PUSH2 0x120 DUP3 ADD MLOAD DUP2 PUSH1 0x8 ADD SSTORE PUSH2 0x140 DUP3 ADD MLOAD DUP2 PUSH1 0x9 ADD SWAP1 DUP2 PUSH2 0x2DB SWAP2 SWAP1 PUSH2 0x5F3 JUMP JUMPDEST POP PUSH2 0x160 DUP3 ADD MLOAD DUP2 PUSH1 0xA ADD SWAP1 DUP2 PUSH2 0x2F2 SWAP2 SWAP1 PUSH2 0x5F3 JUMP JUMPDEST POP PUSH2 0x180 DUP3 ADD MLOAD DUP2 PUSH1 0xB ADD SWAP1 DUP2 PUSH2 0x309 SWAP2 SWAP1 PUSH2 0x5F3 JUMP JUMPDEST POP SWAP1 POP POP POP PUSH2 0x6C5 JUMP JUMPDEST PUSH1 0x0 DUP1 REVERT JUMPDEST PUSH1 0x0 PUSH20 0xFFFFFFFFFFFFFFFFFFFFFFFFFFFFFFFFFFFFFFFF DUP3 AND SWAP1 POP SWAP2 SWAP1 POP JUMP JUMPDEST PUSH1 0x0 PUSH2 0x343 DUP3 PUSH2 0x318 JUMP JUMPDEST SWAP1 POP SWAP2 SWAP1 POP JUMP JUMPDEST PUSH2 0x353 DUP2 PUSH2 0x338 JUMP JUMPDEST DUP2 EQ PUSH2 0x35E JUMPI PUSH1 0x0 DUP1 REVERT JUMPDEST POP JUMP JUMPDEST PUSH1 0x0 DUP2 MLOAD SWAP1 POP PUSH2 0x370 DUP2 PUSH2 0x34A JUMP JUMPDEST SWAP3 SWAP2 POP POP JUMP JUMPDEST PUSH1 0x0 PUSH1 0x20 DUP3 DUP5 SUB SLT ISZERO PUSH2 0x38C JUMPI PUSH2 0x38B PUSH2 0x313 JUMP JUMPDEST JUMPDEST PUSH1 0x0 PUSH2 0x39A DUP5 DUP3 DUP6 ADD PUSH2 0x361 JUMP JUMPDEST SWAP2 POP POP SWAP3 SWAP2 POP POP JUMP JUMPDEST PUSH1 0x0 DUP2 MLOAD SWAP1 POP SWAP2 SWAP1 POP JUMP JUMPDEST PUSH32 0x4E487B7100000000000000000000000000000000000000000000000000000000 PUSH1 0x0 MSTORE PUSH1 0x41 PUSH1 0x4 MSTORE PUSH1 0x24 PUSH1 0x0 REVERT JUMPDEST PUSH32 0x4E487B7100000000000000000000000000000000000000000000000000000000 PUSH1 0x0 MSTORE PUSH1 0x22 PUSH1 0x4 MSTORE PUSH1 0x24 PUSH1 0x0 REVERT JUMPDEST PUSH1 0x0 PUSH1 0x2 DUP3 DIV SWAP1 POP PUSH1 0x1 DUP3 AND DUP1 PUSH2 0x424 JUMPI PUSH1 0x7F DUP3 AND SWAP2 POP JUMPDEST PUSH1 0x20 DUP3 LT DUP2 SUB PUSH2 0x437 JUMPI PUSH2 0x436 PUSH2 0x3DD JUMP JUMPDEST JUMPDEST POP SWAP2 SWAP1 POP JUMP JUMPDEST PUSH1 0x0 DUP2 SWAP1 POP DUP2 PUSH1 0x0 MSTORE PUSH1 0x20 PUSH1 0x0 KECCAK256 SWAP1 POP SWAP2 SWAP1 POP JUMP JUMPDEST PUSH1 0x0 PUSH1 0x20 PUSH1 0x1F DUP4 ADD DIV SWAP1 POP SWAP2 SWAP1 POP JUMP JUMPDEST PUSH1 0x0 DUP3 DUP3 SHL SWAP1 POP SWAP3 SWAP2 POP POP JUMP JUMPDEST PUSH1 0x0 PUSH1 0x8 DUP4 MUL PUSH2 0x49F PUSH32 0xFFFFFFFFFFFFFFFFFFFFFFFFFFFFFFFFFFFFFFFFFFFFFFFFFFFFFFFFFFFFFFFF DUP3 PUSH2 0x462 JUMP JUMPDEST PUSH2 0x4A9 DUP7 DUP4 PUSH2 0x462 JUMP JUMPDEST SWAP6 POP DUP1 NOT DUP5 AND SWAP4 POP DUP1 DUP7 AND DUP5 OR SWAP3 POP POP POP SWAP4 SWAP3 POP POP POP JUMP JUMPDEST PUSH1 0x0 DUP2 SWAP1 POP SWAP2 SWAP1 POP JUMP JUMPDEST PUSH1 0x0 DUP2 SWAP1 POP SWAP2 SWAP1 POP JUMP JUMPDEST PUSH1 0x0 PUSH2 0x4F0 PUSH2 0x4EB PUSH2 0x4E6 DUP5 PUSH2 0x4C1 JUMP JUMPDEST PUSH2 0x4CB JUMP JUMPDEST PUSH2 0x4C1 JUMP JUMPDEST SWAP1 POP SWAP2 SWAP1 POP JUMP JUMPDEST PUSH1 0x0 DUP2 SWAP1 POP SWAP2 SWAP1 POP JUMP JUMPDEST PUSH2 0x50A DUP4 PUSH2 0x4D5 JUMP JUMPDEST PUSH2 0x51E PUSH2 0x516 DUP3 PUSH2 0x4F7 JUMP JUMPDEST DUP5 DUP5 SLOAD PUSH2 0x46F JUMP JUMPDEST DUP3 SSTORE POP POP POP POP JUMP JUMPDEST PUSH1 0x0 SWAP1 JUMP JUMPDEST PUSH2 0x533 PUSH2 0x526 JUMP JUMPDEST PUSH2 0x53E DUP2 DUP5 DUP5 PUSH2 0x501 JUMP JUMPDEST POP POP POP JUMP JUMPDEST JUMPDEST DUP2 DUP2 LT ISZERO PUSH2 0x562 JUMPI PUSH2 0x557 PUSH1 0x0 DUP3 PUSH2 0x52B JUMP JUMPDEST PUSH1 0x1 DUP2 ADD SWAP1 POP PUSH2 0x544 JUMP JUMPDEST POP POP JUMP JUMPDEST PUSH1 0x1F DUP3 GT ISZERO PUSH2 0x5A7 JUMPI PUSH2 0x578 DUP2 PUSH2 0x43D JUMP JUMPDEST PUSH2 0x581 DUP5 PUSH2 0x452 JUMP JUMPDEST DUP2 ADD PUSH1 0x20 DUP6 LT ISZERO PUSH2 0x590 JUMPI DUP2 SWAP1 POP JUMPDEST PUSH2 0x5A4 PUSH2 0x59C DUP6 PUSH2 0x452 JUMP JUMPDEST DUP4 ADD DUP3 PUSH2 0x543 JUMP JUMPDEST POP POP JUMPDEST POP POP POP JUMP JUMPDEST PUSH1 0x0 DUP3 DUP3 SHR SWAP1 POP SWAP3 SWAP2 POP POP JUMP JUMPDEST PUSH1 0x0 PUSH2 0x5CA PUSH1 0x0 NOT DUP5 PUSH1 0x8 MUL PUSH2 0x5AC JUMP JUMPDEST NOT DUP1 DUP4 AND SWAP2 POP POP SWAP3 SWAP2 POP POP JUMP JUMPDEST PUSH1 0x0 PUSH2 0x5E3 DUP4 DUP4 PUSH2 0x5B9 JUMP JUMPDEST SWAP2 POP DUP3 PUSH1 0x2 MUL DUP3 OR SWAP1 POP SWAP3 SWAP2 POP POP JUMP JUMPDEST PUSH2 0x5FC DUP3 PUSH2 0x3A3 JUMP JUMPDEST PUSH8 0xFFFFFFFFFFFFFFFF DUP2 GT ISZERO PUSH2 0x615 JUMPI PUSH2 0x614 PUSH2 0x3AE JUMP JUMPDEST JUMPDEST PUSH2 0x61F DUP3 SLOAD PUSH2 0x40C JUMP JUMPDEST PUSH2 0x62A DUP3 DUP3 DUP6 PUSH2 0x566 JUMP JUMPDEST PUSH1 0x0 PUSH1 0x20 SWAP1 POP PUSH1 0x1F DUP4 GT PUSH1 0x1 DUP2 EQ PUSH2 0x65D JUMPI PUSH1 0x0 DUP5 ISZERO PUSH2 0x64B JUMPI DUP3 DUP8 ADD MLOAD SWAP1 POP JUMPDEST PUSH2 0x655 DUP6 DUP3 PUSH2 0x5D7 JUMP JUMPDEST DUP7 SSTORE POP PUSH2 0x6BD JUMP JUMPDEST PUSH1 0x1F NOT DUP5 AND PUSH2 0x66B DUP7 PUSH2 0x43D JUMP JUMPDEST PUSH1 0x0 JUMPDEST DUP3 DUP2 LT ISZERO PUSH2 0x693 JUMPI DUP5 DUP10 ADD MLOAD DUP3 SSTORE PUSH1 0x1 DUP3 ADD SWAP2 POP PUSH1 0x20 DUP6 ADD SWAP5 POP PUSH1 0x20 DUP2 ADD SWAP1 POP PUSH2 0x66E JUMP JUMPDEST DUP7 DUP4 LT ISZERO PUSH2 0x6B0 JUMPI DUP5 DUP10 ADD MLOAD PUSH2 0x6AC PUSH1 0x1F DUP10 AND DUP3 PUSH2 0x5B9 JUMP JUMPDEST DUP4 SSTORE POP JUMPDEST PUSH1 0x1 PUSH1 0x2 DUP9 MUL ADD DUP9 SSTORE POP POP POP JUMPDEST POP POP POP POP POP POP JUMP JUMPDEST PUSH2 0x2398 DUP1 PUSH2 0x6D4 PUSH1 0x0 CODECOPY PUSH1 0x0 RETURN INVALID PUSH1 0x80 PUSH1 0x40 MSTORE CALLVALUE DUP1 ISZERO PUSH2 0x10 JUMPI PUSH1 0x0 DUP1 REVERT JUMPDEST POP PUSH1 0x4 CALLDATASIZE LT PUSH2 0x7D JUMPI PUSH1 0x0 CALLDATALOAD PUSH1 0xE0 SHR DUP1 PUSH4 0x632CC98B GT PUSH2 0x5B JUMPI DUP1 PUSH4 0x632CC98B EQ PUSH2 0xEA JUMPI DUP1 PUSH4 0x941FAC37 EQ PUSH2 0x11A JUMPI DUP1 PUSH4 0xA89AE4BA EQ PUSH2 0x136 JUMPI DUP1 PUSH4 0xCA3CE8D1 EQ PUSH2 0x154 JUMPI PUSH2 0x7D JUMP JUMPDEST DUP1 PUSH4 0x4C69C00F EQ PUSH2 0x82 JUMPI DUP1 PUSH4 0x4CECD88E EQ PUSH2 0x9E JUMPI DUP1 PUSH4 0x54A470FC EQ PUSH2 0xBA JUMPI JUMPDEST PUSH1 0x0 DUP1 REVERT JUMPDEST PUSH2 0x9C PUSH1 0x4 DUP1 CALLDATASIZE SUB DUP2 ADD SWAP1 PUSH2 0x97 SWAP2 SWAP1 PUSH2 0xF0F JUMP JUMPDEST PUSH2 0x184 JUMP JUMPDEST STOP JUMPDEST PUSH2 0xB8 PUSH1 0x4 DUP1 CALLDATASIZE SUB DUP2 ADD SWAP1 PUSH2 0xB3 SWAP2 SWAP1 PUSH2 0x130E JUMP JUMPDEST PUSH2 0x29B JUMP JUMPDEST STOP JUMPDEST PUSH2 0xD4 PUSH1 0x4 DUP1 CALLDATASIZE SUB DUP2 ADD SWAP1 PUSH2 0xCF SWAP2 SWAP1 PUSH2 0x1399 JUMP JUMPDEST PUSH2 0x536 JUMP JUMPDEST PUSH1 0x40 MLOAD PUSH2 0xE1 SWAP2 SWAP1 PUSH2 0x1651 JUMP JUMPDEST PUSH1 0x40 MLOAD DUP1 SWAP2 SUB SWAP1 RETURN JUMPDEST PUSH2 0x104 PUSH1 0x4 DUP1 CALLDATASIZE SUB DUP2 ADD SWAP1 PUSH2 0xFF SWAP2 SWAP1 PUSH2 0x1399 JUMP JUMPDEST PUSH2 0x7BF JUMP JUMPDEST PUSH1 0x40 MLOAD PUSH2 0x111 SWAP2 SWAP1 PUSH2 0x1682 JUMP JUMPDEST PUSH1 0x40 MLOAD DUP1 SWAP2 SUB SWAP1 RETURN JUMPDEST PUSH2 0x134 PUSH1 0x4 DUP1 CALLDATASIZE SUB DUP2 ADD SWAP1 PUSH2 0x12F SWAP2 SWAP1 PUSH2 0x169D JUMP JUMPDEST PUSH2 0x7FD JUMP JUMPDEST STOP JUMPDEST PUSH2 0x13E PUSH2 0xB12 JUMP JUMPDEST PUSH1 0x40 MLOAD PUSH2 0x14B SWAP2 SWAP1 PUSH2 0x1682 JUMP JUMPDEST PUSH1 0x40 MLOAD DUP1 SWAP2 SUB SWAP1 RETURN JUMPDEST PUSH2 0x16E PUSH1 0x4 DUP1 CALLDATASIZE SUB DUP2 ADD SWAP1 PUSH2 0x169 SWAP2 SWAP1 PUSH2 0x17DF JUMP JUMPDEST PUSH2 0xB38 JUMP JUMPDEST PUSH1 0x40 MLOAD PUSH2 0x17B SWAP2 SWAP1 PUSH2 0x1866 JUMP JUMPDEST PUSH1 0x40 MLOAD DUP1 SWAP2 SUB SWAP1 RETURN JUMPDEST PUSH1 0x2 PUSH1 0x0 SWAP1 SLOAD SWAP1 PUSH2 0x100 EXP SWAP1 DIV PUSH20 0xFFFFFFFFFFFFFFFFFFFFFFFFFFFFFFFFFFFFFFFF AND PUSH20 0xFFFFFFFFFFFFFFFFFFFFFFFFFFFFFFFFFFFFFFFF AND CALLER PUSH20 0xFFFFFFFFFFFFFFFFFFFFFFFFFFFFFFFFFFFFFFFF AND EQ PUSH2 0x214 JUMPI PUSH1 0x40 MLOAD PUSH32 0x8C379A000000000000000000000000000000000000000000000000000000000 DUP2 MSTORE PUSH1 0x4 ADD PUSH2 0x20B SWAP1 PUSH2 0x18DE JUMP JUMPDEST PUSH1 0x40 MLOAD DUP1 SWAP2 SUB SWAP1 REVERT JUMPDEST DUP1 PUSH1 0x3 PUSH1 0x0 PUSH2 0x100 EXP DUP2 SLOAD DUP2 PUSH20 0xFFFFFFFFFFFFFFFFFFFFFFFFFFFFFFFFFFFFFFFF MUL NOT AND SWAP1 DUP4 PUSH20 0xFFFFFFFFFFFFFFFFFFFFFFFFFFFFFFFFFFFFFFFF AND MUL OR SWAP1 SSTORE POP DUP1 PUSH20 0xFFFFFFFFFFFFFFFFFFFFFFFFFFFFFFFFFFFFFFFF AND PUSH32 0x107A9FAFFFB7AC890F780879E423760C9FFEA8DCEE8045681F40F542AEDE2CB8 PUSH1 0x40 MLOAD PUSH1 0x40 MLOAD DUP1 SWAP2 SUB SWAP1 LOG2 POP JUMP JUMPDEST PUSH1 0x3 PUSH1 0x0 SWAP1 SLOAD SWAP1 PUSH2 0x100 EXP SWAP1 DIV PUSH20 0xFFFFFFFFFFFFFFFFFFFFFFFFFFFFFFFFFFFFFFFF AND PUSH20 0xFFFFFFFFFFFFFFFFFFFFFFFFFFFFFFFFFFFFFFFF AND CALLER PUSH20 0xFFFFFFFFFFFFFFFFFFFFFFFFFFFFFFFFFFFFFFFF AND EQ PUSH2 0x32B JUMPI PUSH1 0x40 MLOAD PUSH32 0x8C379A000000000000000000000000000000000000000000000000000000000 DUP2 MSTORE PUSH1 0x4 ADD PUSH2 0x322 SWAP1 PUSH2 0x194A JUMP JUMPDEST PUSH1 0x40 MLOAD DUP1 SWAP2 SUB SWAP1 REVERT JUMPDEST PUSH1 0x0 DUP1 PUSH1 0x0 DUP6 DUP2 MSTORE PUSH1 0x20 ADD SWAP1 DUP2 MSTORE PUSH1 0x20 ADD PUSH1 0x0 KECCAK256 SWAP1 POP PUSH1 0x0 DUP2 PUSH1 0x1 ADD DUP1 SLOAD SWAP1 POP GT DUP1 ISZERO PUSH2 0x3DA JUMPI POP PUSH1 0x40 MLOAD PUSH1 0x20 ADD PUSH2 0x362 SWAP1 PUSH2 0x19C1 JUMP JUMPDEST PUSH1 0x40 MLOAD PUSH1 0x20 DUP2 DUP4 SUB SUB DUP2 MSTORE SWAP1 PUSH1 0x40 MSTORE DUP1 MLOAD SWAP1 PUSH1 0x20 ADD KECCAK256 DUP2 PUSH1 0x1 ADD PUSH1 0x1 DUP4 PUSH1 0x1 ADD DUP1 SLOAD SWAP1 POP PUSH2 0x390 SWAP2 SWAP1 PUSH2 0x1A05 JUMP JUMPDEST DUP2 SLOAD DUP2 LT PUSH2 0x3A1 JUMPI PUSH2 0x3A0 PUSH2 0x1A39 JUMP JUMPDEST JUMPDEST SWAP1 PUSH1 0x0 MSTORE PUSH1 0x20 PUSH1 0x0 KECCAK256 SWAP1 PUSH1 0x2 MUL ADD PUSH1 0x0 ADD PUSH1 0x40 MLOAD PUSH1 0x20 ADD PUSH2 0x3C2 SWAP2 SWAP1 PUSH2 0x1B60 JUMP JUMPDEST PUSH1 0x40 MLOAD PUSH1 0x20 DUP2 DUP4 SUB SUB DUP2 MSTORE SWAP1 PUSH1 0x40 MSTORE DUP1 MLOAD SWAP1 PUSH1 0x20 ADD KECCAK256 EQ JUMPDEST PUSH2 0x419 JUMPI PUSH1 0x40 MLOAD PUSH32 0x8C379A000000000000000000000000000000000000000000000000000000000 DUP2 MSTORE PUSH1 0x4 ADD PUSH2 0x410 SWAP1 PUSH2 0x1BC3 JUMP JUMPDEST PUSH1 0x40 MLOAD DUP1 SWAP2 SUB SWAP1 REVERT JUMPDEST PUSH1 0x0 DUP2 PUSH1 0x1 ADD PUSH1 0x1 DUP2 PUSH1 0x1 DUP2 SLOAD ADD DUP1 DUP3 SSTORE DUP1 SWAP2 POP POP SUB SWAP1 PUSH1 0x0 MSTORE PUSH1 0x20 PUSH1 0x0 KECCAK256 SWAP1 PUSH1 0x2 MUL ADD SWAP1 POP PUSH1 0x40 MLOAD DUP1 PUSH1 0x40 ADD PUSH1 0x40 MSTORE DUP1 PUSH1 0x9 DUP2 MSTORE PUSH1 0x20 ADD PUSH32 0x617373697374616E740000000000000000000000000000000000000000000000 DUP2 MSTORE POP DUP2 PUSH1 0x0 ADD SWAP1 DUP2 PUSH2 0x485 SWAP2 SWAP1 PUSH2 0x1D7A JUMP JUMPDEST POP PUSH1 0x0 DUP2 PUSH1 0x1 ADD PUSH1 0x1 DUP2 PUSH1 0x1 DUP2 SLOAD ADD DUP1 DUP3 SSTORE DUP1 SWAP2 POP POP SUB SWAP1 PUSH1 0x0 MSTORE PUSH1 0x20 PUSH1 0x0 KECCAK256 SWAP1 PUSH1 0x2 MUL ADD SWAP1 POP PUSH1 0x40 MLOAD DUP1 PUSH1 0x40 ADD PUSH1 0x40 MSTORE DUP1 PUSH1 0x4 DUP2 MSTORE PUSH1 0x20 ADD PUSH32 0x7465787400000000000000000000000000000000000000000000000000000000 DUP2 MSTORE POP DUP2 PUSH1 0x0 ADD SWAP1 DUP2 PUSH2 0x4F2 SWAP2 SWAP1 PUSH2 0x1D7A JUMP JUMPDEST POP PUSH2 0x50C DUP5 PUSH1 0x40 MLOAD DUP1 PUSH1 0x20 ADD PUSH1 0x40 MSTORE DUP1 PUSH1 0x0 DUP2 MSTORE POP PUSH2 0xE44 JUMP JUMPDEST ISZERO PUSH2 0x51B JUMPI DUP5 PUSH1 0x20 ADD MLOAD PUSH2 0x51D JUMP JUMPDEST DUP4 JUMPDEST DUP2 PUSH1 0x1 ADD SWAP1 DUP2 PUSH2 0x52D SWAP2 SWAP1 PUSH2 0x1D7A JUMP JUMPDEST POP POP POP POP POP POP POP JUMP JUMPDEST PUSH1 0x60 PUSH1 0x0 DUP1 DUP4 DUP2 MSTORE PUSH1 0x20 ADD SWAP1 DUP2 MSTORE PUSH1 0x20 ADD PUSH1 0x0 KECCAK256 PUSH1 0x1 ADD DUP1 SLOAD DUP1 PUSH1 0x20 MUL PUSH1 0x20 ADD PUSH1 0x40 MLOAD SWAP1 DUP2 ADD PUSH1 0x40 MSTORE DUP1 SWAP3 SWAP2 SWAP1 DUP2 DUP2 MSTORE PUSH1 0x20 ADD PUSH1 0x0 SWAP1 JUMPDEST DUP3 DUP3 LT ISZERO PUSH2 0x7B4 JUMPI DUP4 DUP3 SWAP1 PUSH1 0x0 MSTORE PUSH1 0x20 PUSH1 0x0 KECCAK256 SWAP1 PUSH1 0x2 MUL ADD PUSH1 0x40 MLOAD DUP1 PUSH1 0x40 ADD PUSH1 0x40 MSTORE SWAP1 DUP2 PUSH1 0x0 DUP3 ADD DUP1 SLOAD PUSH2 0x5A0 SWAP1 PUSH2 0x1A97 JUMP JUMPDEST DUP1 PUSH1 0x1F ADD PUSH1 0x20 DUP1 SWAP2 DIV MUL PUSH1 0x20 ADD PUSH1 0x40 MLOAD SWAP1 DUP2 ADD PUSH1 0x40 MSTORE DUP1 SWAP3 SWAP2 SWAP1 DUP2 DUP2 MSTORE PUSH1 0x20 ADD DUP3 DUP1 SLOAD PUSH2 0x5CC SWAP1 PUSH2 0x1A97 JUMP JUMPDEST DUP1 ISZERO PUSH2 0x619 JUMPI DUP1 PUSH1 0x1F LT PUSH2 0x5EE JUMPI PUSH2 0x100 DUP1 DUP4 SLOAD DIV MUL DUP4 MSTORE SWAP2 PUSH1 0x20 ADD SWAP2 PUSH2 0x619 JUMP JUMPDEST DUP3 ADD SWAP2 SWAP1 PUSH1 0x0 MSTORE PUSH1 0x20 PUSH1 0x0 KECCAK256 SWAP1 JUMPDEST DUP2 SLOAD DUP2 MSTORE SWAP1 PUSH1 0x1 ADD SWAP1 PUSH1 0x20 ADD DUP1 DUP4 GT PUSH2 0x5FC JUMPI DUP3 SWAP1 SUB PUSH1 0x1F AND DUP3 ADD SWAP2 JUMPDEST POP POP POP POP POP DUP2 MSTORE PUSH1 0x20 ADD PUSH1 0x1 DUP3 ADD DUP1 SLOAD DUP1 PUSH1 0x20 MUL PUSH1 0x20 ADD PUSH1 0x40 MLOAD SWAP1 DUP2 ADD PUSH1 0x40 MSTORE DUP1 SWAP3 SWAP2 SWAP1 DUP2 DUP2 MSTORE PUSH1 0x20 ADD PUSH1 0x0 SWAP1 JUMPDEST DUP3 DUP3 LT ISZERO PUSH2 0x79D JUMPI DUP4 DUP3 SWAP1 PUSH1 0x0 MSTORE PUSH1 0x20 PUSH1 0x0 KECCAK256 SWAP1 PUSH1 0x2 MUL ADD PUSH1 0x40 MLOAD DUP1 PUSH1 0x40 ADD PUSH1 0x40 MSTORE SWAP1 DUP2 PUSH1 0x0 DUP3 ADD DUP1 SLOAD PUSH2 0x67A SWAP1 PUSH2 0x1A97 JUMP JUMPDEST DUP1 PUSH1 0x1F ADD PUSH1 0x20 DUP1 SWAP2 DIV MUL PUSH1 0x20 ADD PUSH1 0x40 MLOAD SWAP1 DUP2 ADD PUSH1 0x40 MSTORE DUP1 SWAP3 SWAP2 SWAP1 DUP2 DUP2 MSTORE PUSH1 0x20 ADD DUP3 DUP1 SLOAD PUSH2 0x6A6 SWAP1 PUSH2 0x1A97 JUMP JUMPDEST DUP1 ISZERO PUSH2 0x6F3 JUMPI DUP1 PUSH1 0x1F LT PUSH2 0x6C8 JUMPI PUSH2 0x100 DUP1 DUP4 SLOAD DIV MUL DUP4 MSTORE SWAP2 PUSH1 0x20 ADD SWAP2 PUSH2 0x6F3 JUMP JUMPDEST DUP3 ADD SWAP2 SWAP1 PUSH1 0x0 MSTORE PUSH1 0x20 PUSH1 0x0 KECCAK256 SWAP1 JUMPDEST DUP2 SLOAD DUP2 MSTORE SWAP1 PUSH1 0x1 ADD SWAP1 PUSH1 0x20 ADD DUP1 DUP4 GT PUSH2 0x6D6 JUMPI DUP3 SWAP1 SUB PUSH1 0x1F AND DUP3 ADD SWAP2 JUMPDEST POP POP POP POP POP DUP2 MSTORE PUSH1 0x20 ADD PUSH1 0x1 DUP3 ADD DUP1 SLOAD PUSH2 0x70C SWAP1 PUSH2 0x1A97 JUMP JUMPDEST DUP1 PUSH1 0x1F ADD PUSH1 0x20 DUP1 SWAP2 DIV MUL PUSH1 0x20 ADD PUSH1 0x40 MLOAD SWAP1 DUP2 ADD PUSH1 0x40 MSTORE DUP1 SWAP3 SWAP2 SWAP1 DUP2 DUP2 MSTORE PUSH1 0x20 ADD DUP3 DUP1 SLOAD PUSH2 0x738 SWAP1 PUSH2 0x1A97 JUMP JUMPDEST DUP1 ISZERO PUSH2 0x785 JUMPI DUP1 PUSH1 0x1F LT PUSH2 0x75A JUMPI PUSH2 0x100 DUP1 DUP4 SLOAD DIV MUL DUP4 MSTORE SWAP2 PUSH1 0x20 ADD SWAP2 PUSH2 0x785 JUMP JUMPDEST DUP3 ADD SWAP2 SWAP1 PUSH1 0x0 MSTORE PUSH1 0x20 PUSH1 0x0 KECCAK256 SWAP1 JUMPDEST DUP2 SLOAD DUP2 MSTORE SWAP1 PUSH1 0x1 ADD SWAP1 PUSH1 0x20 ADD DUP1 DUP4 GT PUSH2 0x768 JUMPI DUP3 SWAP1 SUB PUSH1 0x1F AND DUP3 ADD SWAP2 JUMPDEST POP POP POP POP POP DUP2 MSTORE POP POP DUP2 MSTORE PUSH1 0x20 ADD SWAP1 PUSH1 0x1 ADD SWAP1 PUSH2 0x647 JUMP JUMPDEST POP POP POP POP DUP2 MSTORE POP POP DUP2 MSTORE PUSH1 0x20 ADD SWAP1 PUSH1 0x1 ADD SWAP1 PUSH2 0x56D JUMP JUMPDEST POP POP POP POP SWAP1 POP SWAP2 SWAP1 POP JUMP JUMPDEST PUSH1 0x0 PUSH1 0x20 MSTORE DUP1 PUSH1 0x0 MSTORE PUSH1 0x40 PUSH1 0x0 KECCAK256 PUSH1 0x0 SWAP2 POP SWAP1 POP DUP1 PUSH1 0x0 ADD PUSH1 0x0 SWAP1 SLOAD SWAP1 PUSH2 0x100 EXP SWAP1 DIV PUSH20 0xFFFFFFFFFFFFFFFFFFFFFFFFFFFFFFFFFFFFFFFF AND SWAP1 POP DUP2 JUMP JUMPDEST PUSH1 0x0 DUP1 PUSH1 0x0 DUP4 DUP2 MSTORE PUSH1 0x20 ADD SWAP1 DUP2 MSTORE PUSH1 0x20 ADD PUSH1 0x0 KECCAK256 SWAP1 POP PUSH1 0x0 DUP2 PUSH1 0x1 ADD DUP1 SLOAD SWAP1 POP GT DUP1 ISZERO PUSH2 0x8AC JUMPI POP PUSH1 0x40 MLOAD PUSH1 0x20 ADD PUSH2 0x834 SWAP1 PUSH2 0x1E98 JUMP JUMPDEST PUSH1 0x40 MLOAD PUSH1 0x20 DUP2 DUP4 SUB SUB DUP2 MSTORE SWAP1 PUSH1 0x40 MSTORE DUP1 MLOAD SWAP1 PUSH1 0x20 ADD KECCAK256 DUP2 PUSH1 0x1 ADD PUSH1 0x1 DUP4 PUSH1 0x1 ADD DUP1 SLOAD SWAP1 POP PUSH2 0x862 SWAP2 SWAP1 PUSH2 0x1A05 JUMP JUMPDEST DUP2 SLOAD DUP2 LT PUSH2 0x873 JUMPI PUSH2 0x872 PUSH2 0x1A39 JUMP JUMPDEST JUMPDEST SWAP1 PUSH1 0x0 MSTORE PUSH1 0x20 PUSH1 0x0 KECCAK256 SWAP1 PUSH1 0x2 MUL ADD PUSH1 0x0 ADD PUSH1 0x40 MLOAD PUSH1 0x20 ADD PUSH2 0x894 SWAP2 SWAP1 PUSH2 0x1B60 JUMP JUMPDEST PUSH1 0x40 MLOAD PUSH1 0x20 DUP2 DUP4 SUB SUB DUP2 MSTORE SWAP1 PUSH1 0x40 MSTORE DUP1 MLOAD SWAP1 PUSH1 0x20 ADD KECCAK256 EQ JUMPDEST PUSH2 0x8EB JUMPI PUSH1 0x40 MLOAD PUSH32 0x8C379A000000000000000000000000000000000000000000000000000000000 DUP2 MSTORE PUSH1 0x4 ADD PUSH2 0x8E2 SWAP1 PUSH2 0x1EF9 JUMP JUMPDEST PUSH1 0x40 MLOAD DUP1 SWAP2 SUB SWAP1 REVERT JUMPDEST CALLER PUSH20 0xFFFFFFFFFFFFFFFFFFFFFFFFFFFFFFFFFFFFFFFF AND DUP2 PUSH1 0x0 ADD PUSH1 0x0 SWAP1 SLOAD SWAP1 PUSH2 0x100 EXP SWAP1 DIV PUSH20 0xFFFFFFFFFFFFFFFFFFFFFFFFFFFFFFFFFFFFFFFF AND PUSH20 0xFFFFFFFFFFFFFFFFFFFFFFFFFFFFFFFFFFFFFFFF AND EQ PUSH2 0x97D JUMPI PUSH1 0x40 MLOAD PUSH32 0x8C379A000000000000000000000000000000000000000000000000000000000 DUP2 MSTORE PUSH1 0x4 ADD PUSH2 0x974 SWAP1 PUSH2 0x1F65 JUMP JUMPDEST PUSH1 0x40 MLOAD DUP1 SWAP2 SUB SWAP1 REVERT JUMPDEST PUSH1 0x0 DUP2 PUSH1 0x1 ADD PUSH1 0x1 DUP2 PUSH1 0x1 DUP2 SLOAD ADD DUP1 DUP3 SSTORE DUP1 SWAP2 POP POP SUB SWAP1 PUSH1 0x0 MSTORE PUSH1 0x20 PUSH1 0x0 KECCAK256 SWAP1 PUSH1 0x2 MUL ADD SWAP1 POP PUSH1 0x40 MLOAD DUP1 PUSH1 0x40 ADD PUSH1 0x40 MSTORE DUP1 PUSH1 0x4 DUP2 MSTORE PUSH1 0x20 ADD PUSH32 0x7573657200000000000000000000000000000000000000000000000000000000 DUP2 MSTORE POP DUP2 PUSH1 0x0 ADD SWAP1 DUP2 PUSH2 0x9E9 SWAP2 SWAP1 PUSH2 0x1D7A JUMP JUMPDEST POP PUSH1 0x0 DUP2 PUSH1 0x1 ADD PUSH1 0x1 DUP2 PUSH1 0x1 DUP2 SLOAD ADD DUP1 DUP3 SSTORE DUP1 SWAP2 POP POP SUB SWAP1 PUSH1 0x0 MSTORE PUSH1 0x20 PUSH1 0x0 KECCAK256 SWAP1 PUSH1 0x2 MUL ADD SWAP1 POP PUSH1 0x40 MLOAD DUP1 PUSH1 0x40 ADD PUSH1 0x40 MSTORE DUP1 PUSH1 0x4 DUP2 MSTORE PUSH1 0x20 ADD PUSH32 0x7465787400000000000000000000000000000000000000000000000000000000 DUP2 MSTORE POP DUP2 PUSH1 0x0 ADD SWAP1 DUP2 PUSH2 0xA56 SWAP2 SWAP1 PUSH2 0x1D7A JUMP JUMPDEST POP DUP5 DUP2 PUSH1 0x1 ADD SWAP1 DUP2 PUSH2 0xA68 SWAP2 SWAP1 PUSH2 0x1D7A JUMP JUMPDEST POP PUSH1 0x3 PUSH1 0x0 SWAP1 SLOAD SWAP1 PUSH2 0x100 EXP SWAP1 DIV PUSH20 0xFFFFFFFFFFFFFFFFFFFFFFFFFFFFFFFFFFFFFFFF AND PUSH20 0xFFFFFFFFFFFFFFFFFFFFFFFFFFFFFFFFFFFFFFFF AND PUSH4 0x3C38A5F5 DUP6 PUSH1 0x4 PUSH1 0x40 MLOAD DUP4 PUSH4 0xFFFFFFFF AND PUSH1 0xE0 SHL DUP2 MSTORE PUSH1 0x4 ADD PUSH2 0xAC7 SWAP3 SWAP2 SWAP1 PUSH2 0x2260 JUMP JUMPDEST PUSH1 0x20 PUSH1 0x40 MLOAD DUP1 DUP4 SUB DUP2 PUSH1 0x0 DUP8 GAS CALL ISZERO DUP1 ISZERO PUSH2 0xAE6 JUMPI RETURNDATASIZE PUSH1 0x0 DUP1 RETURNDATACOPY RETURNDATASIZE PUSH1 0x0 REVERT JUMPDEST POP POP POP POP PUSH1 0x40 MLOAD RETURNDATASIZE PUSH1 0x1F NOT PUSH1 0x1F DUP3 ADD AND DUP3 ADD DUP1 PUSH1 0x40 MSTORE POP DUP2 ADD SWAP1 PUSH2 0xB0A SWAP2 SWAP1 PUSH2 0x22A5 JUMP JUMPDEST POP POP POP POP POP POP JUMP JUMPDEST PUSH1 0x3 PUSH1 0x0 SWAP1 SLOAD SWAP1 PUSH2 0x100 EXP SWAP1 DIV PUSH20 0xFFFFFFFFFFFFFFFFFFFFFFFFFFFFFFFFFFFFFFFF AND DUP2 JUMP JUMPDEST PUSH1 0x0 DUP1 PUSH1 0x1 SLOAD SWAP1 POP PUSH1 0x1 PUSH1 0x0 DUP2 SLOAD DUP1 SWAP3 SWAP2 SWAP1 PUSH2 0xB53 SWAP1 PUSH2 0x22D2 JUMP JUMPDEST SWAP2 SWAP1 POP SSTORE POP PUSH1 0x0 DUP1 PUSH1 0x0 DUP4 DUP2 MSTORE PUSH1 0x20 ADD SWAP1 DUP2 MSTORE PUSH1 0x20 ADD PUSH1 0x0 KECCAK256 SWAP1 POP CALLER DUP2 PUSH1 0x0 ADD PUSH1 0x0 PUSH2 0x100 EXP DUP2 SLOAD DUP2 PUSH20 0xFFFFFFFFFFFFFFFFFFFFFFFFFFFFFFFFFFFFFFFF MUL NOT AND SWAP1 DUP4 PUSH20 0xFFFFFFFFFFFFFFFFFFFFFFFFFFFFFFFFFFFFFFFF AND MUL OR SWAP1 SSTORE POP PUSH1 0x0 DUP2 PUSH1 0x1 ADD PUSH1 0x1 DUP2 PUSH1 0x1 DUP2 SLOAD ADD DUP1 DUP3 SSTORE DUP1 SWAP2 POP POP SUB SWAP1 PUSH1 0x0 MSTORE PUSH1 0x20 PUSH1 0x0 KECCAK256 SWAP1 PUSH1 0x2 MUL ADD SWAP1 POP PUSH1 0x40 MLOAD DUP1 PUSH1 0x40 ADD PUSH1 0x40 MSTORE DUP1 PUSH1 0x4 DUP2 MSTORE PUSH1 0x20 ADD PUSH32 0x7573657200000000000000000000000000000000000000000000000000000000 DUP2 MSTORE POP DUP2 PUSH1 0x0 ADD SWAP1 DUP2 PUSH2 0xC1D SWAP2 SWAP1 PUSH2 0x1D7A JUMP JUMPDEST POP PUSH1 0x0 DUP2 PUSH1 0x1 ADD PUSH1 0x1 DUP2 PUSH1 0x1 DUP2 SLOAD ADD DUP1 DUP3 SSTORE DUP1 SWAP2 POP POP SUB SWAP1 PUSH1 0x0 MSTORE PUSH1 0x20 PUSH1 0x0 KECCAK256 SWAP1 PUSH1 0x2 MUL ADD SWAP1 POP PUSH1 0x40 MLOAD DUP1 PUSH1 0x40 ADD PUSH1 0x40 MSTORE DUP1 PUSH1 0x4 DUP2 MSTORE PUSH1 0x20 ADD PUSH32 0x7465787400000000000000000000000000000000000000000000000000000000 DUP2 MSTORE POP DUP2 PUSH1 0x0 ADD SWAP1 DUP2 PUSH2 0xC8A SWAP2 SWAP1 PUSH2 0x1D7A JUMP JUMPDEST POP DUP7 DUP2 PUSH1 0x1 ADD SWAP1 DUP2 PUSH2 0xC9C SWAP2 SWAP1 PUSH2 0x1D7A JUMP JUMPDEST POP PUSH1 0x0 JUMPDEST DUP7 MLOAD DUP2 LT ISZERO PUSH2 0xD50 JUMPI PUSH1 0x0 DUP4 PUSH1 0x1 ADD PUSH1 0x1 DUP2 PUSH1 0x1 DUP2 SLOAD ADD DUP1 DUP3 SSTORE DUP1 SWAP2 POP POP SUB SWAP1 PUSH1 0x0 MSTORE PUSH1 0x20 PUSH1 0x0 KECCAK256 SWAP1 PUSH1 0x2 MUL ADD SWAP1 POP PUSH1 0x40 MLOAD DUP1 PUSH1 0x40 ADD PUSH1 0x40 MSTORE DUP1 PUSH1 0x9 DUP2 MSTORE PUSH1 0x20 ADD PUSH32 0x696D6167655F75726C0000000000000000000000000000000000000000000000 DUP2 MSTORE POP DUP2 PUSH1 0x0 ADD SWAP1 DUP2 PUSH2 0xD15 SWAP2 SWAP1 PUSH2 0x1D7A JUMP JUMPDEST POP DUP8 DUP3 DUP2 MLOAD DUP2 LT PUSH2 0xD29 JUMPI PUSH2 0xD28 PUSH2 0x1A39 JUMP JUMPDEST JUMPDEST PUSH1 0x20 MUL PUSH1 0x20 ADD ADD MLOAD DUP2 PUSH1 0x1 ADD SWAP1 DUP2 PUSH2 0xD41 SWAP2 SWAP1 PUSH2 0x1D7A JUMP JUMPDEST POP POP DUP1 DUP1 PUSH1 0x1 ADD SWAP2 POP POP PUSH2 0xCA0 JUMP JUMPDEST POP PUSH1 0x3 PUSH1 0x0 SWAP1 SLOAD SWAP1 PUSH2 0x100 EXP SWAP1 DIV PUSH20 0xFFFFFFFFFFFFFFFFFFFFFFFFFFFFFFFFFFFFFFFF AND PUSH20 0xFFFFFFFFFFFFFFFFFFFFFFFFFFFFFFFFFFFFFFFF AND PUSH4 0x3C38A5F5 DUP6 PUSH1 0x4 PUSH1 0x40 MLOAD DUP4 PUSH4 0xFFFFFFFF AND PUSH1 0xE0 SHL DUP2 MSTORE PUSH1 0x4 ADD PUSH2 0xDAF SWAP3 SWAP2 SWAP1 PUSH2 0x2260 JUMP JUMPDEST PUSH1 0x20 PUSH1 0x40 MLOAD DUP1 DUP4 SUB DUP2 PUSH1 0x0 DUP8 GAS CALL ISZERO DUP1 ISZERO PUSH2 0xDCE JUMPI RETURNDATASIZE PUSH1 0x0 DUP1 RETURNDATACOPY RETURNDATASIZE PUSH1 0x0 REVERT JUMPDEST POP POP POP POP PUSH1 0x40 MLOAD RETURNDATASIZE PUSH1 0x1F NOT PUSH1 0x1F DUP3 ADD AND DUP3 ADD DUP1 PUSH1 0x40 MSTORE POP DUP2 ADD SWAP1 PUSH2 0xDF2 SWAP2 SWAP1 PUSH2 0x22A5 JUMP JUMPDEST POP DUP4 CALLER PUSH20 0xFFFFFFFFFFFFFFFFFFFFFFFFFFFFFFFFFFFFFFFF AND PUSH32 0xD1DE2C4DE50323207202F3DF0BB1DEC1A42E233AEC245F25519D674C10BD72CA PUSH1 0x40 MLOAD PUSH1 0x40 MLOAD DUP1 SWAP2 SUB SWAP1 LOG3 DUP4 SWAP5 POP POP POP POP POP SWAP3 SWAP2 POP POP JUMP JUMPDEST PUSH1 0x0 DUP2 PUSH1 0x40 MLOAD PUSH1 0x20 ADD PUSH2 0xE57 SWAP2 SWAP1 PUSH2 0x234B JUMP JUMPDEST PUSH1 0x40 MLOAD PUSH1 0x20 DUP2 DUP4 SUB SUB DUP2 MSTORE SWAP1 PUSH1 0x40 MSTORE DUP1 MLOAD SWAP1 PUSH1 0x20 ADD KECCAK256 DUP4 PUSH1 0x40 MLOAD PUSH1 0x20 ADD PUSH2 0xE7E SWAP2 SWAP1 PUSH2 0x234B JUMP JUMPDEST PUSH1 0x40 MLOAD PUSH1 0x20 DUP2 DUP4 SUB SUB DUP2 MSTORE SWAP1 PUSH1 0x40 MSTORE DUP1 MLOAD SWAP1 PUSH1 0x20 ADD KECCAK256 EQ SWAP1 POP SWAP3 SWAP2 POP POP JUMP JUMPDEST PUSH1 0x0 PUSH1 0x40 MLOAD SWAP1 POP SWAP1 JUMP JUMPDEST PUSH1 0x0 DUP1 REVERT JUMPDEST PUSH1 0x0 DUP1 REVERT JUMPDEST PUSH1 0x0 PUSH20 0xFFFFFFFFFFFFFFFFFFFFFFFFFFFFFFFFFFFFFFFF DUP3 AND SWAP1 POP SWAP2 SWAP1 POP JUMP JUMPDEST PUSH1 0x0 PUSH2 0xEDC DUP3 PUSH2 0xEB1 JUMP JUMPDEST SWAP1 POP SWAP2 SWAP1 POP JUMP JUMPDEST PUSH2 0xEEC DUP2 PUSH2 0xED1 JUMP JUMPDEST DUP2 EQ PUSH2 0xEF7 JUMPI PUSH1 0x0 DUP1 REVERT JUMPDEST POP JUMP JUMPDEST PUSH1 0x0 DUP2 CALLDATALOAD SWAP1 POP PUSH2 0xF09 DUP2 PUSH2 0xEE3 JUMP JUMPDEST SWAP3 SWAP2 POP POP JUMP JUMPDEST PUSH1 0x0 PUSH1 0x20 DUP3 DUP5 SUB SLT ISZERO PUSH2 0xF25 JUMPI PUSH2 0xF24 PUSH2 0xEA7 JUMP JUMPDEST JUMPDEST PUSH1 0x0 PUSH2 0xF33 DUP5 DUP3 DUP6 ADD PUSH2 0xEFA JUMP JUMPDEST SWAP2 POP POP SWAP3 SWAP2 POP POP JUMP JUMPDEST PUSH1 0x0 DUP2 SWAP1 POP SWAP2 SWAP1 POP JUMP JUMPDEST PUSH2 0xF4F DUP2 PUSH2 0xF3C JUMP JUMPDEST DUP2 EQ PUSH2 0xF5A JUMPI PUSH1 0x0 DUP1 REVERT JUMPDEST POP JUMP JUMPDEST PUSH1 0x0 DUP2 CALLDATALOAD SWAP1 POP PUSH2 0xF6C DUP2 PUSH2 0xF46 JUMP JUMPDEST SWAP3 SWAP2 POP POP JUMP JUMPDEST PUSH1 0x0 DUP1 REVERT JUMPDEST PUSH1 0x0 PUSH1 0x1F NOT PUSH1 0x1F DUP4 ADD AND SWAP1 POP SWAP2 SWAP1 POP JUMP JUMPDEST PUSH32 0x4E487B7100000000000000000000000000000000000000000000000000000000 PUSH1 0x0 MSTORE PUSH1 0x41 PUSH1 0x4 MSTORE PUSH1 0x24 PUSH1 0x0 REVERT JUMPDEST PUSH2 0xFC0 DUP3 PUSH2 0xF77 JUMP JUMPDEST DUP2 ADD DUP2 DUP2 LT PUSH8 0xFFFFFFFFFFFFFFFF DUP3 GT OR ISZERO PUSH2 0xFDF JUMPI PUSH2 0xFDE PUSH2 0xF88 JUMP JUMPDEST JUMPDEST DUP1 PUSH1 0x40 MSTORE POP POP POP JUMP JUMPDEST PUSH1 0x0 PUSH2 0xFF2 PUSH2 0xE9D JUMP JUMPDEST SWAP1 POP PUSH2 0xFFE DUP3 DUP3 PUSH2 0xFB7 JUMP JUMPDEST SWAP2 SWAP1 POP JUMP JUMPDEST PUSH1 0x0 DUP1 REVERT JUMPDEST PUSH1 0x0 DUP1 REVERT JUMPDEST PUSH1 0x0 DUP1 REVERT JUMPDEST PUSH1 0x0 PUSH8 0xFFFFFFFFFFFFFFFF DUP3 GT ISZERO PUSH2 0x102D JUMPI PUSH2 0x102C PUSH2 0xF88 JUMP JUMPDEST JUMPDEST PUSH2 0x1036 DUP3 PUSH2 0xF77 JUMP JUMPDEST SWAP1 POP PUSH1 0x20 DUP2 ADD SWAP1 POP SWAP2 SWAP1 POP JUMP JUMPDEST DUP3 DUP2 DUP4 CALLDATACOPY PUSH1 0x0 DUP4 DUP4 ADD MSTORE POP POP POP JUMP JUMPDEST PUSH1 0x0 PUSH2 0x1065 PUSH2 0x1060 DUP5 PUSH2 0x1012 JUMP JUMPDEST PUSH2 0xFE8 JUMP JUMPDEST SWAP1 POP DUP3 DUP2 MSTORE PUSH1 0x20 DUP2 ADD DUP5 DUP5 DUP5 ADD GT ISZERO PUSH2 0x1081 JUMPI PUSH2 0x1080 PUSH2 0x100D JUMP JUMPDEST JUMPDEST PUSH2 0x108C DUP5 DUP3 DUP6 PUSH2 0x1043 JUMP JUMPDEST POP SWAP4 SWAP3 POP POP POP JUMP JUMPDEST PUSH1 0x0 DUP3 PUSH1 0x1F DUP4 ADD SLT PUSH2 0x10A9 JUMPI PUSH2 0x10A8 PUSH2 0x1008 JUMP JUMPDEST JUMPDEST DUP2 CALLDATALOAD PUSH2 0x10B9 DUP5 DUP3 PUSH1 0x20 DUP7 ADD PUSH2 0x1052 JUMP JUMPDEST SWAP2 POP POP SWAP3 SWAP2 POP POP JUMP JUMPDEST PUSH1 0x0 PUSH8 0xFFFFFFFFFFFFFFFF DUP3 AND SWAP1 POP SWAP2 SWAP1 POP JUMP JUMPDEST PUSH2 0x10DF DUP2 PUSH2 0x10C2 JUMP JUMPDEST DUP2 EQ PUSH2 0x10EA JUMPI PUSH1 0x0 DUP1 REVERT JUMPDEST POP JUMP JUMPDEST PUSH1 0x0 DUP2 CALLDATALOAD SWAP1 POP PUSH2 0x10FC DUP2 PUSH2 0x10D6 JUMP JUMPDEST SWAP3 SWAP2 POP POP JUMP JUMPDEST PUSH1 0x0 PUSH4 0xFFFFFFFF DUP3 AND SWAP1 POP SWAP2 SWAP1 POP JUMP JUMPDEST PUSH2 0x111B DUP2 PUSH2 0x1102 JUMP JUMPDEST DUP2 EQ PUSH2 0x1126 JUMPI PUSH1 0x0 DUP1 REVERT JUMPDEST POP JUMP JUMPDEST PUSH1 0x0 DUP2 CALLDATALOAD SWAP1 POP PUSH2 0x1138 DUP2 PUSH2 0x1112 JUMP JUMPDEST SWAP3 SWAP2 POP POP JUMP JUMPDEST PUSH1 0x0 PUSH2 0x160 DUP3 DUP5 SUB SLT ISZERO PUSH2 0x1155 JUMPI PUSH2 0x1154 PUSH2 0xF72 JUMP JUMPDEST JUMPDEST PUSH2 0x1160 PUSH2 0x160 PUSH2 0xFE8 JUMP JUMPDEST SWAP1 POP PUSH1 0x0 DUP3 ADD CALLDATALOAD PUSH8 0xFFFFFFFFFFFFFFFF DUP2 GT ISZERO PUSH2 0x1180 JUMPI PUSH2 0x117F PUSH2 0x1003 JUMP JUMPDEST JUMPDEST PUSH2 0x118C DUP5 DUP3 DUP6 ADD PUSH2 0x1094 JUMP JUMPDEST PUSH1 0x0 DUP4 ADD MSTORE POP PUSH1 0x20 DUP3 ADD CALLDATALOAD PUSH8 0xFFFFFFFFFFFFFFFF DUP2 GT ISZERO PUSH2 0x11B0 JUMPI PUSH2 0x11AF PUSH2 0x1003 JUMP JUMPDEST JUMPDEST PUSH2 0x11BC DUP5 DUP3 DUP6 ADD PUSH2 0x1094 JUMP JUMPDEST PUSH1 0x20 DUP4 ADD MSTORE POP PUSH1 0x40 DUP3 ADD CALLDATALOAD PUSH8 0xFFFFFFFFFFFFFFFF DUP2 GT ISZERO PUSH2 0x11E0 JUMPI PUSH2 0x11DF PUSH2 0x1003 JUMP JUMPDEST JUMPDEST PUSH2 0x11EC DUP5 DUP3 DUP6 ADD PUSH2 0x1094 JUMP JUMPDEST PUSH1 0x40 DUP4 ADD MSTORE POP PUSH1 0x60 DUP3 ADD CALLDATALOAD PUSH8 0xFFFFFFFFFFFFFFFF DUP2 GT ISZERO PUSH2 0x1210 JUMPI PUSH2 0x120F PUSH2 0x1003 JUMP JUMPDEST JUMPDEST PUSH2 0x121C DUP5 DUP3 DUP6 ADD PUSH2 0x1094 JUMP JUMPDEST PUSH1 0x60 DUP4 ADD MSTORE POP PUSH1 0x80 PUSH2 0x1230 DUP5 DUP3 DUP6 ADD PUSH2 0x10ED JUMP JUMPDEST PUSH1 0x80 DUP4 ADD MSTORE POP PUSH1 0xA0 DUP3 ADD CALLDATALOAD PUSH8 0xFFFFFFFFFFFFFFFF DUP2 GT ISZERO PUSH2 0x1254 JUMPI PUSH2 0x1253 PUSH2 0x1003 JUMP JUMPDEST JUMPDEST PUSH2 0x1260 DUP5 DUP3 DUP6 ADD PUSH2 0x1094 JUMP JUMPDEST PUSH1 0xA0 DUP4 ADD MSTORE POP PUSH1 0xC0 DUP3 ADD CALLDATALOAD PUSH8 0xFFFFFFFFFFFFFFFF DUP2 GT ISZERO PUSH2 0x1284 JUMPI PUSH2 0x1283 PUSH2 0x1003 JUMP JUMPDEST JUMPDEST PUSH2 0x1290 DUP5 DUP3 DUP6 ADD PUSH2 0x1094 JUMP JUMPDEST PUSH1 0xC0 DUP4 ADD MSTORE POP PUSH1 0xE0 DUP3 ADD CALLDATALOAD PUSH8 0xFFFFFFFFFFFFFFFF DUP2 GT ISZERO PUSH2 0x12B4 JUMPI PUSH2 0x12B3 PUSH2 0x1003 JUMP JUMPDEST JUMPDEST PUSH2 0x12C0 DUP5 DUP3 DUP6 ADD PUSH2 0x1094 JUMP JUMPDEST PUSH1 0xE0 DUP4 ADD MSTORE POP PUSH2 0x100 PUSH2 0x12D5 DUP5 DUP3 DUP6 ADD PUSH2 0x1129 JUMP JUMPDEST PUSH2 0x100 DUP4 ADD MSTORE POP PUSH2 0x120 PUSH2 0x12EB DUP5 DUP3 DUP6 ADD PUSH2 0x1129 JUMP JUMPDEST PUSH2 0x120 DUP4 ADD MSTORE POP PUSH2 0x140 PUSH2 0x1301 DUP5 DUP3 DUP6 ADD PUSH2 0x1129 JUMP JUMPDEST PUSH2 0x140 DUP4 ADD MSTORE POP SWAP3 SWAP2 POP POP JUMP JUMPDEST PUSH1 0x0 DUP1 PUSH1 0x0 PUSH1 0x60 DUP5 DUP7 SUB SLT ISZERO PUSH2 0x1327 JUMPI PUSH2 0x1326 PUSH2 0xEA7 JUMP JUMPDEST JUMPDEST PUSH1 0x0 PUSH2 0x1335 DUP7 DUP3 DUP8 ADD PUSH2 0xF5D JUMP JUMPDEST SWAP4 POP POP PUSH1 0x20 DUP5 ADD CALLDATALOAD PUSH8 0xFFFFFFFFFFFFFFFF DUP2 GT ISZERO PUSH2 0x1356 JUMPI PUSH2 0x1355 PUSH2 0xEAC JUMP JUMPDEST JUMPDEST PUSH2 0x1362 DUP7 DUP3 DUP8 ADD PUSH2 0x113E JUMP JUMPDEST SWAP3 POP POP PUSH1 0x40 DUP5 ADD CALLDATALOAD PUSH8 0xFFFFFFFFFFFFFFFF DUP2 GT ISZERO PUSH2 0x1383 JUMPI PUSH2 0x1382 PUSH2 0xEAC JUMP JUMPDEST JUMPDEST PUSH2 0x138F DUP7 DUP3 DUP8 ADD PUSH2 0x1094 JUMP JUMPDEST SWAP2 POP POP SWAP3 POP SWAP3 POP SWAP3 JUMP JUMPDEST PUSH1 0x0 PUSH1 0x20 DUP3 DUP5 SUB SLT ISZERO PUSH2 0x13AF JUMPI PUSH2 0x13AE PUSH2 0xEA7 JUMP JUMPDEST JUMPDEST PUSH1 0x0 PUSH2 0x13BD DUP5 DUP3 DUP6 ADD PUSH2 0xF5D JUMP JUMPDEST SWAP2 POP POP SWAP3 SWAP2 POP POP JUMP JUMPDEST PUSH1 0x0 DUP2 MLOAD SWAP1 POP SWAP2 SWAP1 POP JUMP JUMPDEST PUSH1 0x0 DUP3 DUP3 MSTORE PUSH1 0x20 DUP3 ADD SWAP1 POP SWAP3 SWAP2 POP POP JUMP JUMPDEST PUSH1 0x0 DUP2 SWAP1 POP PUSH1 0x20 DUP3 ADD SWAP1 POP SWAP2 SWAP1 POP JUMP JUMPDEST PUSH1 0x0 DUP2 MLOAD SWAP1 POP SWAP2 SWAP1 POP JUMP JUMPDEST PUSH1 0x0 DUP3 DUP3 MSTORE PUSH1 0x20 DUP3 ADD SWAP1 POP SWAP3 SWAP2 POP POP JUMP JUMPDEST PUSH1 0x0 JUMPDEST DUP4 DUP2 LT ISZERO PUSH2 0x142C JUMPI DUP1 DUP3 ADD MLOAD DUP2 DUP5 ADD MSTORE PUSH1 0x20 DUP2 ADD SWAP1 POP PUSH2 0x1411 JUMP JUMPDEST PUSH1 0x0 DUP5 DUP5 ADD MSTORE POP POP POP POP JUMP JUMPDEST PUSH1 0x0 PUSH2 0x1443 DUP3 PUSH2 0x13F2 JUMP JUMPDEST PUSH2 0x144D DUP2 DUP6 PUSH2 0x13FD JUMP JUMPDEST SWAP4 POP PUSH2 0x145D DUP2 DUP6 PUSH1 0x20 DUP7 ADD PUSH2 0x140E JUMP JUMPDEST PUSH2 0x1466 DUP2 PUSH2 0xF77 JUMP JUMPDEST DUP5 ADD SWAP2 POP POP SWAP3 SWAP2 POP POP JUMP JUMPDEST PUSH1 0x0 DUP2 MLOAD SWAP1 POP SWAP2 SWAP1 POP JUMP JUMPDEST PUSH1 0x0 DUP3 DUP3 MSTORE PUSH1 0x20 DUP3 ADD SWAP1 POP SWAP3 SWAP2 POP POP JUMP JUMPDEST PUSH1 0x0 DUP2 SWAP1 POP PUSH1 0x20 DUP3 ADD SWAP1 POP SWAP2 SWAP1 POP JUMP JUMPDEST PUSH1 0x0 PUSH1 0x40 DUP4 ADD PUSH1 0x0 DUP4 ADD MLOAD DUP5 DUP3 SUB PUSH1 0x0 DUP7 ADD MSTORE PUSH2 0x14BA DUP3 DUP3 PUSH2 0x1438 JUMP JUMPDEST SWAP2 POP POP PUSH1 0x20 DUP4 ADD MLOAD DUP5 DUP3 SUB PUSH1 0x20 DUP7 ADD MSTORE PUSH2 0x14D4 DUP3 DUP3 PUSH2 0x1438 JUMP JUMPDEST SWAP2 POP POP DUP1 SWAP2 POP POP SWAP3 SWAP2 POP POP JUMP JUMPDEST PUSH1 0x0 PUSH2 0x14ED DUP4 DUP4 PUSH2 0x149D JUMP JUMPDEST SWAP1 POP SWAP3 SWAP2 POP POP JUMP JUMPDEST PUSH1 0x0 PUSH1 0x20 DUP3 ADD SWAP1 POP SWAP2 SWAP1 POP JUMP JUMPDEST PUSH1 0x0 PUSH2 0x150D DUP3 PUSH2 0x1471 JUMP JUMPDEST PUSH2 0x1517 DUP2 DUP6 PUSH2 0x147C JUMP JUMPDEST SWAP4 POP DUP4 PUSH1 0x20 DUP3 MUL DUP6 ADD PUSH2 0x1529 DUP6 PUSH2 0x148D JUMP JUMPDEST DUP1 PUSH1 0x0 JUMPDEST DUP6 DUP2 LT ISZERO PUSH2 0x1565 JUMPI DUP5 DUP5 SUB DUP10 MSTORE DUP2 MLOAD PUSH2 0x1546 DUP6 DUP3 PUSH2 0x14E1 JUMP JUMPDEST SWAP5 POP PUSH2 0x1551 DUP4 PUSH2 0x14F5 JUMP JUMPDEST SWAP3 POP PUSH1 0x20 DUP11 ADD SWAP10 POP POP PUSH1 0x1 DUP2 ADD SWAP1 POP PUSH2 0x152D JUMP JUMPDEST POP DUP3 SWAP8 POP DUP8 SWAP6 POP POP POP POP POP POP SWAP3 SWAP2 POP POP JUMP JUMPDEST PUSH1 0x0 PUSH1 0x40 DUP4 ADD PUSH1 0x0 DUP4 ADD MLOAD DUP5 DUP3 SUB PUSH1 0x0 DUP7 ADD MSTORE PUSH2 0x1594 DUP3 DUP3 PUSH2 0x1438 JUMP JUMPDEST SWAP2 POP POP PUSH1 0x20 DUP4 ADD MLOAD DUP5 DUP3 SUB PUSH1 0x20 DUP7 ADD MSTORE PUSH2 0x15AE DUP3 DUP3 PUSH2 0x1502 JUMP JUMPDEST SWAP2 POP POP DUP1 SWAP2 POP POP SWAP3 SWAP2 POP POP JUMP JUMPDEST PUSH1 0x0 PUSH2 0x15C7 DUP4 DUP4 PUSH2 0x1577 JUMP JUMPDEST SWAP1 POP SWAP3 SWAP2 POP POP JUMP JUMPDEST PUSH1 0x0 PUSH1 0x20 DUP3 ADD SWAP1 POP SWAP2 SWAP1 POP JUMP JUMPDEST PUSH1 0x0 PUSH2 0x15E7 DUP3 PUSH2 0x13C6 JUMP JUMPDEST PUSH2 0x15F1 DUP2 DUP6 PUSH2 0x13D1 JUMP JUMPDEST SWAP4 POP DUP4 PUSH1 0x20 DUP3 MUL DUP6 ADD PUSH2 0x1603 DUP6 PUSH2 0x13E2 JUMP JUMPDEST DUP1 PUSH1 0x0 JUMPDEST DUP6 DUP2 LT ISZERO PUSH2 0x163F JUMPI DUP5 DUP5 SUB DUP10 MSTORE DUP2 MLOAD PUSH2 0x1620 DUP6 DUP3 PUSH2 0x15BB JUMP JUMPDEST SWAP5 POP PUSH2 0x162B DUP4 PUSH2 0x15CF JUMP JUMPDEST SWAP3 POP PUSH1 0x20 DUP11 ADD SWAP10 POP POP PUSH1 0x1 DUP2 ADD SWAP1 POP PUSH2 0x1607 JUMP JUMPDEST POP DUP3 SWAP8 POP DUP8 SWAP6 POP POP POP POP POP POP SWAP3 SWAP2 POP POP JUMP JUMPDEST PUSH1 0x0 PUSH1 0x20 DUP3 ADD SWAP1 POP DUP2 DUP2 SUB PUSH1 0x0 DUP4 ADD MSTORE PUSH2 0x166B DUP2 DUP5 PUSH2 0x15DC JUMP JUMPDEST SWAP1 POP SWAP3 SWAP2 POP POP JUMP JUMPDEST PUSH2 0x167C DUP2 PUSH2 0xED1 JUMP JUMPDEST DUP3 MSTORE POP POP JUMP JUMPDEST PUSH1 0x0 PUSH1 0x20 DUP3 ADD SWAP1 POP PUSH2 0x1697 PUSH1 0x0 DUP4 ADD DUP5 PUSH2 0x1673 JUMP JUMPDEST SWAP3 SWAP2 POP POP JUMP JUMPDEST PUSH1 0x0 DUP1 PUSH1 0x40 DUP4 DUP6 SUB SLT ISZERO PUSH2 0x16B4 JUMPI PUSH2 0x16B3 PUSH2 0xEA7 JUMP JUMPDEST JUMPDEST PUSH1 0x0 DUP4 ADD CALLDATALOAD PUSH8 0xFFFFFFFFFFFFFFFF DUP2 GT ISZERO PUSH2 0x16D2 JUMPI PUSH2 0x16D1 PUSH2 0xEAC JUMP JUMPDEST JUMPDEST PUSH2 0x16DE DUP6 DUP3 DUP7 ADD PUSH2 0x1094 JUMP JUMPDEST SWAP3 POP POP PUSH1 0x20 PUSH2 0x16EF DUP6 DUP3 DUP7 ADD PUSH2 0xF5D JUMP JUMPDEST SWAP2 POP POP SWAP3 POP SWAP3 SWAP1 POP JUMP JUMPDEST PUSH1 0x0 PUSH8 0xFFFFFFFFFFFFFFFF DUP3 GT ISZERO PUSH2 0x1714 JUMPI PUSH2 0x1713 PUSH2 0xF88 JUMP JUMPDEST JUMPDEST PUSH1 0x20 DUP3 MUL SWAP1 POP PUSH1 0x20 DUP2 ADD SWAP1 POP SWAP2 SWAP1 POP JUMP JUMPDEST PUSH1 0x0 DUP1 REVERT JUMPDEST PUSH1 0x0 PUSH2 0x173D PUSH2 0x1738 DUP5 PUSH2 0x16F9 JUMP JUMPDEST PUSH2 0xFE8 JUMP JUMPDEST SWAP1 POP DUP1 DUP4 DUP3 MSTORE PUSH1 0x20 DUP3 ADD SWAP1 POP PUSH1 0x20 DUP5 MUL DUP4 ADD DUP6 DUP2 GT ISZERO PUSH2 0x1760 JUMPI PUSH2 0x175F PUSH2 0x1725 JUMP JUMPDEST JUMPDEST DUP4 JUMPDEST DUP2 DUP2 LT ISZERO PUSH2 0x17A7 JUMPI DUP1 CALLDATALOAD PUSH8 0xFFFFFFFFFFFFFFFF DUP2 GT ISZERO PUSH2 0x1785 JUMPI PUSH2 0x1784 PUSH2 0x1008 JUMP JUMPDEST JUMPDEST DUP1 DUP7 ADD PUSH2 0x1792 DUP10 DUP3 PUSH2 0x1094 JUMP JUMPDEST DUP6 MSTORE PUSH1 0x20 DUP6 ADD SWAP5 POP POP POP PUSH1 0x20 DUP2 ADD SWAP1 POP PUSH2 0x1762 JUMP JUMPDEST POP POP POP SWAP4 SWAP3 POP POP POP JUMP JUMPDEST PUSH1 0x0 DUP3 PUSH1 0x1F DUP4 ADD SLT PUSH2 0x17C6 JUMPI PUSH2 0x17C5 PUSH2 0x1008 JUMP JUMPDEST JUMPDEST DUP2 CALLDATALOAD PUSH2 0x17D6 DUP5 DUP3 PUSH1 0x20 DUP7 ADD PUSH2 0x172A JUMP JUMPDEST SWAP2 POP POP SWAP3 SWAP2 POP POP JUMP JUMPDEST PUSH1 0x0 DUP1 PUSH1 0x40 DUP4 DUP6 SUB SLT ISZERO PUSH2 0x17F6 JUMPI PUSH2 0x17F5 PUSH2 0xEA7 JUMP JUMPDEST JUMPDEST PUSH1 0x0 DUP4 ADD CALLDATALOAD PUSH8 0xFFFFFFFFFFFFFFFF DUP2 GT ISZERO PUSH2 0x1814 JUMPI PUSH2 0x1813 PUSH2 0xEAC JUMP JUMPDEST JUMPDEST PUSH2 0x1820 DUP6 DUP3 DUP7 ADD PUSH2 0x1094 JUMP JUMPDEST SWAP3 POP POP PUSH1 0x20 DUP4 ADD CALLDATALOAD PUSH8 0xFFFFFFFFFFFFFFFF DUP2 GT ISZERO PUSH2 0x1841 JUMPI PUSH2 0x1840 PUSH2 0xEAC JUMP JUMPDEST JUMPDEST PUSH2 0x184D DUP6 DUP3 DUP7 ADD PUSH2 0x17B1 JUMP JUMPDEST SWAP2 POP POP SWAP3 POP SWAP3 SWAP1 POP JUMP JUMPDEST PUSH2 0x1860 DUP2 PUSH2 0xF3C JUMP JUMPDEST DUP3 MSTORE POP POP JUMP JUMPDEST PUSH1 0x0 PUSH1 0x20 DUP3 ADD SWAP1 POP PUSH2 0x187B PUSH1 0x0 DUP4 ADD DUP5 PUSH2 0x1857 JUMP JUMPDEST SWAP3 SWAP2 POP POP JUMP JUMPDEST PUSH1 0x0 DUP3 DUP3 MSTORE PUSH1 0x20 DUP3 ADD SWAP1 POP SWAP3 SWAP2 POP POP JUMP JUMPDEST PUSH32 0x43616C6C6572206973206E6F74206F776E657200000000000000000000000000 PUSH1 0x0 DUP3 ADD MSTORE POP JUMP JUMPDEST PUSH1 0x0 PUSH2 0x18C8 PUSH1 0x13 DUP4 PUSH2 0x1881 JUMP JUMPDEST SWAP2 POP PUSH2 0x18D3 DUP3 PUSH2 0x1892 JUMP JUMPDEST PUSH1 0x20 DUP3 ADD SWAP1 POP SWAP2 SWAP1 POP JUMP JUMPDEST PUSH1 0x0 PUSH1 0x20 DUP3 ADD SWAP1 POP DUP2 DUP2 SUB PUSH1 0x0 DUP4 ADD MSTORE PUSH2 0x18F7 DUP2 PUSH2 0x18BB JUMP JUMPDEST SWAP1 POP SWAP2 SWAP1 POP JUMP JUMPDEST PUSH32 0x43616C6C6572206973206E6F74206F7261636C65000000000000000000000000 PUSH1 0x0 DUP3 ADD MSTORE POP JUMP JUMPDEST PUSH1 0x0 PUSH2 0x1934 PUSH1 0x14 DUP4 PUSH2 0x1881 JUMP JUMPDEST SWAP2 POP PUSH2 0x193F DUP3 PUSH2 0x18FE JUMP JUMPDEST PUSH1 0x20 DUP3 ADD SWAP1 POP SWAP2 SWAP1 POP JUMP JUMPDEST PUSH1 0x0 PUSH1 0x20 DUP3 ADD SWAP1 POP DUP2 DUP2 SUB PUSH1 0x0 DUP4 ADD MSTORE PUSH2 0x1963 DUP2 PUSH2 0x1927 JUMP JUMPDEST SWAP1 POP SWAP2 SWAP1 POP JUMP JUMPDEST PUSH1 0x0 DUP2 SWAP1 POP SWAP3 SWAP2 POP POP JUMP JUMPDEST PUSH32 0x7573657200000000000000000000000000000000000000000000000000000000 PUSH1 0x0 DUP3 ADD MSTORE POP JUMP JUMPDEST PUSH1 0x0 PUSH2 0x19AB PUSH1 0x4 DUP4 PUSH2 0x196A JUMP JUMPDEST SWAP2 POP PUSH2 0x19B6 DUP3 PUSH2 0x1975 JUMP JUMPDEST PUSH1 0x4 DUP3 ADD SWAP1 POP SWAP2 SWAP1 POP JUMP JUMPDEST PUSH1 0x0 PUSH2 0x19CC DUP3 PUSH2 0x199E JUMP JUMPDEST SWAP2 POP DUP2 SWAP1 POP SWAP2 SWAP1 POP JUMP JUMPDEST PUSH32 0x4E487B7100000000000000000000000000000000000000000000000000000000 PUSH1 0x0 MSTORE PUSH1 0x11 PUSH1 0x4 MSTORE PUSH1 0x24 PUSH1 0x0 REVERT JUMPDEST PUSH1 0x0 PUSH2 0x1A10 DUP3 PUSH2 0xF3C JUMP JUMPDEST SWAP2 POP PUSH2 0x1A1B DUP4 PUSH2 0xF3C JUMP JUMPDEST SWAP3 POP DUP3 DUP3 SUB SWAP1 POP DUP2 DUP2 GT ISZERO PUSH2 0x1A33 JUMPI PUSH2 0x1A32 PUSH2 0x19D6 JUMP JUMPDEST JUMPDEST SWAP3 SWAP2 POP POP JUMP JUMPDEST PUSH32 0x4E487B7100000000000000000000000000000000000000000000000000000000 PUSH1 0x0 MSTORE PUSH1 0x32 PUSH1 0x4 MSTORE PUSH1 0x24 PUSH1 0x0 REVERT JUMPDEST PUSH32 0x4E487B7100000000000000000000000000000000000000000000000000000000 PUSH1 0x0 MSTORE PUSH1 0x22 PUSH1 0x4 MSTORE PUSH1 0x24 PUSH1 0x0 REVERT JUMPDEST PUSH1 0x0 PUSH1 0x2 DUP3 DIV SWAP1 POP PUSH1 0x1 DUP3 AND DUP1 PUSH2 0x1AAF JUMPI PUSH1 0x7F DUP3 AND SWAP2 POP JUMPDEST PUSH1 0x20 DUP3 LT DUP2 SUB PUSH2 0x1AC2 JUMPI PUSH2 0x1AC1 PUSH2 0x1A68 JUMP JUMPDEST JUMPDEST POP SWAP2 SWAP1 POP JUMP JUMPDEST PUSH1 0x0 DUP2 SWAP1 POP DUP2 PUSH1 0x0 MSTORE PUSH1 0x20 PUSH1 0x0 KECCAK256 SWAP1 POP SWAP2 SWAP1 POP JUMP JUMPDEST PUSH1 0x0 DUP2 SLOAD PUSH2 0x1AEA DUP2 PUSH2 0x1A97 JUMP JUMPDEST PUSH2 0x1AF4 DUP2 DUP7 PUSH2 0x196A JUMP JUMPDEST SWAP5 POP PUSH1 0x1 DUP3 AND PUSH1 0x0 DUP2 EQ PUSH2 0x1B0F JUMPI PUSH1 0x1 DUP2 EQ PUSH2 0x1B24 JUMPI PUSH2 0x1B57 JUMP JUMPDEST PUSH1 0xFF NOT DUP4 AND DUP7 MSTORE DUP2 ISZERO ISZERO DUP3 MUL DUP7 ADD SWAP4 POP PUSH2 0x1B57 JUMP JUMPDEST PUSH2 0x1B2D DUP6 PUSH2 0x1AC8 JUMP JUMPDEST PUSH1 0x0 JUMPDEST DUP4 DUP2 LT ISZERO PUSH2 0x1B4F JUMPI DUP2 SLOAD DUP2 DUP10 ADD MSTORE PUSH1 0x1 DUP3 ADD SWAP2 POP PUSH1 0x20 DUP2 ADD SWAP1 POP PUSH2 0x1B30 JUMP JUMPDEST DUP4 DUP9 ADD SWAP6 POP POP POP JUMPDEST POP POP POP SWAP3 SWAP2 POP POP JUMP JUMPDEST PUSH1 0x0 PUSH2 0x1B6C DUP3 DUP5 PUSH2 0x1ADD JUMP JUMPDEST SWAP2 POP DUP2 SWAP1 POP SWAP3 SWAP2 POP POP JUMP JUMPDEST PUSH32 0x4E6F206D65737361676520746F20726573706F6E6420746F0000000000000000 PUSH1 0x0 DUP3 ADD MSTORE POP JUMP JUMPDEST PUSH1 0x0 PUSH2 0x1BAD PUSH1 0x18 DUP4 PUSH2 0x1881 JUMP JUMPDEST SWAP2 POP PUSH2 0x1BB8 DUP3 PUSH2 0x1B77 JUMP JUMPDEST PUSH1 0x20 DUP3 ADD SWAP1 POP SWAP2 SWAP1 POP JUMP JUMPDEST PUSH1 0x0 PUSH1 0x20 DUP3 ADD SWAP1 POP DUP2 DUP2 SUB PUSH1 0x0 DUP4 ADD MSTORE PUSH2 0x1BDC DUP2 PUSH2 0x1BA0 JUMP JUMPDEST SWAP1 POP SWAP2 SWAP1 POP JUMP JUMPDEST PUSH1 0x0 PUSH1 0x20 PUSH1 0x1F DUP4 ADD DIV SWAP1 POP SWAP2 SWAP1 POP JUMP JUMPDEST PUSH1 0x0 DUP3 DUP3 SHL SWAP1 POP SWAP3 SWAP2 POP POP JUMP JUMPDEST PUSH1 0x0 PUSH1 0x8 DUP4 MUL PUSH2 0x1C30 PUSH32 0xFFFFFFFFFFFFFFFFFFFFFFFFFFFFFFFFFFFFFFFFFFFFFFFFFFFFFFFFFFFFFFFF DUP3 PUSH2 0x1BF3 JUMP JUMPDEST PUSH2 0x1C3A DUP7 DUP4 PUSH2 0x1BF3 JUMP JUMPDEST SWAP6 POP DUP1 NOT DUP5 AND SWAP4 POP DUP1 DUP7 AND DUP5 OR SWAP3 POP POP POP SWAP4 SWAP3 POP POP POP JUMP JUMPDEST PUSH1 0x0 DUP2 SWAP1 POP SWAP2 SWAP1 POP JUMP JUMPDEST PUSH1 0x0 PUSH2 0x1C77 PUSH2 0x1C72 PUSH2 0x1C6D DUP5 PUSH2 0xF3C JUMP JUMPDEST PUSH2 0x1C52 JUMP JUMPDEST PUSH2 0xF3C JUMP JUMPDEST SWAP1 POP SWAP2 SWAP1 POP JUMP JUMPDEST PUSH1 0x0 DUP2 SWAP1 POP SWAP2 SWAP1 POP JUMP JUMPDEST PUSH2 0x1C91 DUP4 PUSH2 0x1C5C JUMP JUMPDEST PUSH2 0x1CA5 PUSH2 0x1C9D DUP3 PUSH2 0x1C7E JUMP JUMPDEST DUP5 DUP5 SLOAD PUSH2 0x1C00 JUMP JUMPDEST DUP3 SSTORE POP POP POP POP JUMP JUMPDEST PUSH1 0x0 SWAP1 JUMP JUMPDEST PUSH2 0x1CBA PUSH2 0x1CAD JUMP JUMPDEST PUSH2 0x1CC5 DUP2 DUP5 DUP5 PUSH2 0x1C88 JUMP JUMPDEST POP POP POP JUMP JUMPDEST JUMPDEST DUP2 DUP2 LT ISZERO PUSH2 0x1CE9 JUMPI PUSH2 0x1CDE PUSH1 0x0 DUP3 PUSH2 0x1CB2 JUMP JUMPDEST PUSH1 0x1 DUP2 ADD SWAP1 POP PUSH2 0x1CCB JUMP JUMPDEST POP POP JUMP JUMPDEST PUSH1 0x1F DUP3 GT ISZERO PUSH2 0x1D2E JUMPI PUSH2 0x1CFF DUP2 PUSH2 0x1AC8 JUMP JUMPDEST PUSH2 0x1D08 DUP5 PUSH2 0x1BE3 JUMP JUMPDEST DUP2 ADD PUSH1 0x20 DUP6 LT ISZERO PUSH2 0x1D17 JUMPI DUP2 SWAP1 POP JUMPDEST PUSH2 0x1D2B PUSH2 0x1D23 DUP6 PUSH2 0x1BE3 JUMP JUMPDEST DUP4 ADD DUP3 PUSH2 0x1CCA JUMP JUMPDEST POP POP JUMPDEST POP POP POP JUMP JUMPDEST PUSH1 0x0 DUP3 DUP3 SHR SWAP1 POP SWAP3 SWAP2 POP POP JUMP JUMPDEST PUSH1 0x0 PUSH2 0x1D51 PUSH1 0x0 NOT DUP5 PUSH1 0x8 MUL PUSH2 0x1D33 JUMP JUMPDEST NOT DUP1 DUP4 AND SWAP2 POP POP SWAP3 SWAP2 POP POP JUMP JUMPDEST PUSH1 0x0 PUSH2 0x1D6A DUP4 DUP4 PUSH2 0x1D40 JUMP JUMPDEST SWAP2 POP DUP3 PUSH1 0x2 MUL DUP3 OR SWAP1 POP SWAP3 SWAP2 POP POP JUMP JUMPDEST PUSH2 0x1D83 DUP3 PUSH2 0x13F2 JUMP JUMPDEST PUSH8 0xFFFFFFFFFFFFFFFF DUP2 GT ISZERO PUSH2 0x1D9C JUMPI PUSH2 0x1D9B PUSH2 0xF88 JUMP JUMPDEST JUMPDEST PUSH2 0x1DA6 DUP3 SLOAD PUSH2 0x1A97 JUMP JUMPDEST PUSH2 0x1DB1 DUP3 DUP3 DUP6 PUSH2 0x1CED JUMP JUMPDEST PUSH1 0x0 PUSH1 0x20 SWAP1 POP PUSH1 0x1F DUP4 GT PUSH1 0x1 DUP2 EQ PUSH2 0x1DE4 JUMPI PUSH1 0x0 DUP5 ISZERO PUSH2 0x1DD2 JUMPI DUP3 DUP8 ADD MLOAD SWAP1 POP JUMPDEST PUSH2 0x1DDC DUP6 DUP3 PUSH2 0x1D5E JUMP JUMPDEST DUP7 SSTORE POP PUSH2 0x1E44 JUMP JUMPDEST PUSH1 0x1F NOT DUP5 AND PUSH2 0x1DF2 DUP7 PUSH2 0x1AC8 JUMP JUMPDEST PUSH1 0x0 JUMPDEST DUP3 DUP2 LT ISZERO PUSH2 0x1E1A JUMPI DUP5 DUP10 ADD MLOAD DUP3 SSTORE PUSH1 0x1 DUP3 ADD SWAP2 POP PUSH1 0x20 DUP6 ADD SWAP5 POP PUSH1 0x20 DUP2 ADD SWAP1 POP PUSH2 0x1DF5 JUMP JUMPDEST DUP7 DUP4 LT ISZERO PUSH2 0x1E37 JUMPI DUP5 DUP10 ADD MLOAD PUSH2 0x1E33 PUSH1 0x1F DUP10 AND DUP3 PUSH2 0x1D40 JUMP JUMPDEST DUP4 SSTORE POP JUMPDEST PUSH1 0x1 PUSH1 0x2 DUP9 MUL ADD DUP9 SSTORE POP POP POP JUMPDEST POP POP POP POP POP POP JUMP JUMPDEST PUSH32 0x617373697374616E740000000000000000000000000000000000000000000000 PUSH1 0x0 DUP3 ADD MSTORE POP JUMP JUMPDEST PUSH1 0x0 PUSH2 0x1E82 PUSH1 0x9 DUP4 PUSH2 0x196A JUMP JUMPDEST SWAP2 POP PUSH2 0x1E8D DUP3 PUSH2 0x1E4C JUMP JUMPDEST PUSH1 0x9 DUP3 ADD SWAP1 POP SWAP2 SWAP1 POP JUMP JUMPDEST PUSH1 0x0 PUSH2 0x1EA3 DUP3 PUSH2 0x1E75 JUMP JUMPDEST SWAP2 POP DUP2 SWAP1 POP SWAP2 SWAP1 POP JUMP JUMPDEST PUSH32 0x4E6F20726573706F6E736520746F2070726576696F7573206D65737361676500 PUSH1 0x0 DUP3 ADD MSTORE POP JUMP JUMPDEST PUSH1 0x0 PUSH2 0x1EE3 PUSH1 0x1F DUP4 PUSH2 0x1881 JUMP JUMPDEST SWAP2 POP PUSH2 0x1EEE DUP3 PUSH2 0x1EAD JUMP JUMPDEST PUSH1 0x20 DUP3 ADD SWAP1 POP SWAP2 SWAP1 POP JUMP JUMPDEST PUSH1 0x0 PUSH1 0x20 DUP3 ADD SWAP1 POP DUP2 DUP2 SUB PUSH1 0x0 DUP4 ADD MSTORE PUSH2 0x1F12 DUP2 PUSH2 0x1ED6 JUMP JUMPDEST SWAP1 POP SWAP2 SWAP1 POP JUMP JUMPDEST PUSH32 0x4F6E6C792063686174206F776E65722063616E20616464206D65737361676573 PUSH1 0x0 DUP3 ADD MSTORE POP JUMP JUMPDEST PUSH1 0x0 PUSH2 0x1F4F PUSH1 0x20 DUP4 PUSH2 0x1881 JUMP JUMPDEST SWAP2 POP PUSH2 0x1F5A DUP3 PUSH2 0x1F19 JUMP JUMPDEST PUSH1 0x20 DUP3 ADD SWAP1 POP SWAP2 SWAP1 POP JUMP JUMPDEST PUSH1 0x0 PUSH1 0x20 DUP3 ADD SWAP1 POP DUP2 DUP2 SUB PUSH1 0x0 DUP4 ADD MSTORE PUSH2 0x1F7E DUP2 PUSH2 0x1F42 JUMP JUMPDEST SWAP1 POP SWAP2 SWAP1 POP JUMP JUMPDEST PUSH1 0x0 DUP2 SLOAD PUSH2 0x1F92 DUP2 PUSH2 0x1A97 JUMP JUMPDEST PUSH2 0x1F9C DUP2 DUP7 PUSH2 0x13FD JUMP JUMPDEST SWAP5 POP PUSH1 0x1 DUP3 AND PUSH1 0x0 DUP2 EQ PUSH2 0x1FB7 JUMPI PUSH1 0x1 DUP2 EQ PUSH2 0x1FCD JUMPI PUSH2 0x2000 JUMP JUMPDEST PUSH1 0xFF NOT DUP4 AND DUP7 MSTORE DUP2 ISZERO ISZERO PUSH1 0x20 MUL DUP7 ADD SWAP4 POP PUSH2 0x2000 JUMP JUMPDEST PUSH2 0x1FD6 DUP6 PUSH2 0x1AC8 JUMP JUMPDEST PUSH1 0x0 JUMPDEST DUP4 DUP2 LT ISZERO PUSH2 0x1FF8 JUMPI DUP2 SLOAD DUP2 DUP10 ADD MSTORE PUSH1 0x1 DUP3 ADD SWAP2 POP PUSH1 0x20 DUP2 ADD SWAP1 POP PUSH2 0x1FD9 JUMP JUMPDEST DUP1 DUP9 ADD SWAP6 POP POP POP JUMPDEST POP POP POP SWAP3 SWAP2 POP POP JUMP JUMPDEST PUSH1 0x0 DUP2 PUSH1 0x0 SHR SWAP1 POP SWAP2 SWAP1 POP JUMP JUMPDEST PUSH1 0x0 DUP2 PUSH1 0x0 SIGNEXTEND SWAP1 POP SWAP2 SWAP1 POP JUMP JUMPDEST PUSH1 0x0 PUSH2 0x2036 PUSH2 0x2031 DUP4 PUSH2 0x2009 JUMP JUMPDEST PUSH2 0x2016 JUMP JUMPDEST SWAP1 POP SWAP2 SWAP1 POP JUMP JUMPDEST PUSH1 0x0 DUP2 PUSH1 0x0 SIGNEXTEND SWAP1 POP SWAP2 SWAP1 POP JUMP JUMPDEST PUSH2 0x2053 DUP2 PUSH2 0x203D JUMP JUMPDEST DUP3 MSTORE POP POP JUMP JUMPDEST PUSH1 0x0 PUSH4 0xFFFFFFFF DUP3 AND SWAP1 POP SWAP2 SWAP1 POP JUMP JUMPDEST PUSH1 0x0 PUSH2 0x207C PUSH2 0x2077 DUP4 PUSH2 0x2009 JUMP JUMPDEST PUSH2 0x2059 JUMP JUMPDEST SWAP1 POP SWAP2 SWAP1 POP JUMP JUMPDEST PUSH2 0x208C DUP2 PUSH2 0x1102 JUMP JUMPDEST DUP3 MSTORE POP POP JUMP JUMPDEST PUSH1 0x0 DUP2 PUSH1 0x20 SHR SWAP1 POP SWAP2 SWAP1 POP JUMP JUMPDEST PUSH1 0x0 PUSH2 0x20B2 PUSH2 0x20AD DUP4 PUSH2 0x2092 JUMP JUMPDEST PUSH2 0x2016 JUMP JUMPDEST SWAP1 POP SWAP2 SWAP1 POP JUMP JUMPDEST PUSH1 0x0 DUP2 SWAP1 POP SWAP2 SWAP1 POP JUMP JUMPDEST PUSH1 0x0 PUSH2 0x20D6 PUSH2 0x20D1 DUP4 PUSH2 0x2009 JUMP JUMPDEST PUSH2 0x20B9 JUMP JUMPDEST SWAP1 POP SWAP2 SWAP1 POP JUMP JUMPDEST PUSH2 0x20E6 DUP2 PUSH2 0xF3C JUMP JUMPDEST DUP3 MSTORE POP POP JUMP JUMPDEST PUSH1 0x0 PUSH2 0x1A0 DUP4 ADD PUSH1 0x0 DUP1 DUP5 ADD DUP6 DUP4 SUB PUSH1 0x0 DUP8 ADD MSTORE PUSH2 0x210A DUP4 DUP3 PUSH2 0x1F85 JUMP JUMPDEST SWAP3 POP POP PUSH1 0x1 DUP5 ADD SLOAD SWAP1 POP PUSH2 0x211D DUP2 PUSH2 0x2023 JUMP JUMPDEST PUSH2 0x212A PUSH1 0x20 DUP8 ADD DUP3 PUSH2 0x204A JUMP JUMPDEST POP PUSH1 0x2 DUP5 ADD DUP6 DUP4 SUB PUSH1 0x40 DUP8 ADD MSTORE PUSH2 0x2141 DUP4 DUP3 PUSH2 0x1F85 JUMP JUMPDEST SWAP3 POP POP PUSH1 0x3 DUP5 ADD SLOAD SWAP1 POP PUSH2 0x2154 DUP2 PUSH2 0x2069 JUMP JUMPDEST PUSH2 0x2161 PUSH1 0x60 DUP8 ADD DUP3 PUSH2 0x2083 JUMP JUMPDEST POP PUSH2 0x216B DUP2 PUSH2 0x209F JUMP JUMPDEST PUSH2 0x2178 PUSH1 0x80 DUP8 ADD DUP3 PUSH2 0x204A JUMP JUMPDEST POP PUSH1 0x4 DUP5 ADD DUP6 DUP4 SUB PUSH1 0xA0 DUP8 ADD MSTORE PUSH2 0x218F DUP4 DUP3 PUSH2 0x1F85 JUMP JUMPDEST SWAP3 POP POP PUSH1 0x5 DUP5 ADD SLOAD SWAP1 POP PUSH2 0x21A2 DUP2 PUSH2 0x20C3 JUMP JUMPDEST PUSH2 0x21AF PUSH1 0xC0 DUP8 ADD DUP3 PUSH2 0x20DD JUMP JUMPDEST POP PUSH1 0x6 DUP5 ADD DUP6 DUP4 SUB PUSH1 0xE0 DUP8 ADD MSTORE PUSH2 0x21C6 DUP4 DUP3 PUSH2 0x1F85 JUMP JUMPDEST SWAP3 POP POP PUSH1 0x7 DUP5 ADD SLOAD SWAP1 POP PUSH2 0x21D9 DUP2 PUSH2 0x20C3 JUMP JUMPDEST PUSH2 0x21E7 PUSH2 0x100 DUP8 ADD DUP3 PUSH2 0x20DD JUMP JUMPDEST POP PUSH1 0x8 DUP5 ADD SLOAD SWAP1 POP PUSH2 0x21F8 DUP2 PUSH2 0x20C3 JUMP JUMPDEST PUSH2 0x2206 PUSH2 0x120 DUP8 ADD DUP3 PUSH2 0x20DD JUMP JUMPDEST POP PUSH1 0x9 DUP5 ADD DUP6 DUP4 SUB PUSH2 0x140 DUP8 ADD MSTORE PUSH2 0x221E DUP4 DUP3 PUSH2 0x1F85 JUMP JUMPDEST SWAP3 POP POP PUSH1 0xA DUP5 ADD DUP6 DUP4 SUB PUSH2 0x160 DUP8 ADD MSTORE PUSH2 0x2238 DUP4 DUP3 PUSH2 0x1F85 JUMP JUMPDEST SWAP3 POP POP PUSH1 0xB DUP5 ADD DUP6 DUP4 SUB PUSH2 0x180 DUP8 ADD MSTORE PUSH2 0x2252 DUP4 DUP3 PUSH2 0x1F85 JUMP JUMPDEST SWAP3 POP POP DUP2 SWAP3 POP POP POP SWAP3 SWAP2 POP POP JUMP JUMPDEST PUSH1 0x0 PUSH1 0x40 DUP3 ADD SWAP1 POP PUSH2 0x2275 PUSH1 0x0 DUP4 ADD DUP6 PUSH2 0x1857 JUMP JUMPDEST DUP2 DUP2 SUB PUSH1 0x20 DUP4 ADD MSTORE PUSH2 0x2287 DUP2 DUP5 PUSH2 0x20EC JUMP JUMPDEST SWAP1 POP SWAP4 SWAP3 POP POP POP JUMP JUMPDEST PUSH1 0x0 DUP2 MLOAD SWAP1 POP PUSH2 0x229F DUP2 PUSH2 0xF46 JUMP JUMPDEST SWAP3 SWAP2 POP POP JUMP JUMPDEST PUSH1 0x0 PUSH1 0x20 DUP3 DUP5 SUB SLT ISZERO PUSH2 0x22BB JUMPI PUSH2 0x22BA PUSH2 0xEA7 JUMP JUMPDEST JUMPDEST PUSH1 0x0 PUSH2 0x22C9 DUP5 DUP3 DUP6 ADD PUSH2 0x2290 JUMP JUMPDEST SWAP2 POP POP SWAP3 SWAP2 POP POP JUMP JUMPDEST PUSH1 0x0 PUSH2 0x22DD DUP3 PUSH2 0xF3C JUMP JUMPDEST SWAP2 POP PUSH32 0xFFFFFFFFFFFFFFFFFFFFFFFFFFFFFFFFFFFFFFFFFFFFFFFFFFFFFFFFFFFFFFFF DUP3 SUB PUSH2 0x230F JUMPI PUSH2 0x230E PUSH2 0x19D6 JUMP JUMPDEST JUMPDEST PUSH1 0x1 DUP3 ADD SWAP1 POP SWAP2 SWAP1 POP JUMP JUMPDEST PUSH1 0x0 PUSH2 0x2325 DUP3 PUSH2 0x13F2 JUMP JUMPDEST PUSH2 0x232F DUP2 DUP6 PUSH2 0x196A JUMP JUMPDEST SWAP4 POP PUSH2 0x233F DUP2 DUP6 PUSH1 0x20 DUP7 ADD PUSH2 0x140E JUMP JUMPDEST DUP1 DUP5 ADD SWAP2 POP POP SWAP3 SWAP2 POP POP JUMP JUMPDEST PUSH1 0x0 PUSH2 0x2357 DUP3 DUP5 PUSH2 0x231A JUMP JUMPDEST SWAP2 POP DUP2 SWAP1 POP SWAP3 SWAP2 POP POP JUMP INVALID LOG2 PUSH5 0x6970667358 0x22 SLT KECCAK256 0x1F SELFDESTRUCT GASLIMIT GASPRICE MSIZE OR MLOAD EXTCODECOPY DUP4 CREATE 0xD0 DUP7 RETURNDATASIZE 0x24 0xC2 DUP1 PUSH18 0xCED29520FB160786C097B1F2F4FE5864736F PUSH13 0x63430008190033000000000000 "},"methodIdentifiers":{"addMessage(string,uint256)":"941fac37","chatRuns(uint256)":"632cc98b","getMessageHistory(uint256)":"54a470fc","onOracleOpenAiLlmResponse(uint256,(string,string,string,string,uint64,string,string,string,uint32,uint32,uint32),string)":"4cecd88e","oracleAddress()":"a89ae4ba","setOracleAddress(address)":"4c69c00f","startChat(string,string[])":"ca3ce8d1"}}}}}