{
  "_format": "hh-sol-artifact-1",
  "contractName": "RohrToken",
  "sourceName": "contracts/RohrToken.sol",
  "abi": [
    {
      "inputs": [],
      "stateMutability": "nonpayable",
      "type": "constructor"
    },
    {
      "anonymous": false,
      "inputs": [
        {
          "indexed": true,
          "internalType": "address",
          "name": "owner",
          "type": "address"
        },
        {
          "indexed": true,
          "internalType": "address",
          "name": "spender",
          "type": "address"
        },
        {
          "indexed": false,
          "internalType": "uint256",
          "name": "value",
          "type": "uint256"
        }
      ],
      "name": "Approval",
      "type": "event"
    },
    {
      "anonymous": false,
      "inputs": [
        {
          "indexed": true,
          "internalType": "address",
          "name": "from",
          "type": "address"
        },
        {
          "indexed": true,
          "internalType": "address",
          "name": "to",
          "type": "address"
        },
        {
          "indexed": false,
          "internalType": "uint256",
          "name": "value",
          "type": "uint256"
        }
      ],
      "name": "Transfer",
      "type": "event"
    },
    {
      "inputs": [
        {
          "internalType": "address",
          "name": "owner",
          "type": "address"
        },
        {
          "internalType": "address",
          "name": "spender",
          "type": "address"
        }
      ],
      "name": "allowance",
      "outputs": [
        {
          "internalType": "uint256",
          "name": "",
          "type": "uint256"
        }
      ],
      "stateMutability": "view",
      "type": "function"
    },
    {
      "inputs": [
        {
          "internalType": "address",
          "name": "spender",
          "type": "address"
        },
        {
          "internalType": "uint256",
          "name": "amount",
          "type": "uint256"
        }
      ],
      "name": "approve",
      "outputs": [
        {
          "internalType": "bool",
          "name": "",
          "type": "bool"
        }
      ],
      "stateMutability": "nonpayable",
      "type": "function"
    },
    {
      "inputs": [
        {
          "internalType": "address",
          "name": "account",
          "type": "address"
        }
      ],
      "name": "balanceOf",
      "outputs": [
        {
          "internalType": "uint256",
          "name": "",
          "type": "uint256"
        }
      ],
      "stateMutability": "view",
      "type": "function"
    },
    {
      "inputs": [],
      "name": "decimals",
      "outputs": [
        {
          "internalType": "uint8",
          "name": "",
          "type": "uint8"
        }
      ],
      "stateMutability": "view",
      "type": "function"
    },
    {
      "inputs": [
        {
          "internalType": "address",
          "name": "spender",
          "type": "address"
        },
        {
          "internalType": "uint256",
          "name": "subtractedValue",
          "type": "uint256"
        }
      ],
      "name": "decreaseAllowance",
      "outputs": [
        {
          "internalType": "bool",
          "name": "",
          "type": "bool"
        }
      ],
      "stateMutability": "nonpayable",
      "type": "function"
    },
    {
      "inputs": [
        {
          "internalType": "address",
          "name": "spender",
          "type": "address"
        },
        {
          "internalType": "uint256",
          "name": "addedValue",
          "type": "uint256"
        }
      ],
      "name": "increaseAllowance",
      "outputs": [
        {
          "internalType": "bool",
          "name": "",
          "type": "bool"
        }
      ],
      "stateMutability": "nonpayable",
      "type": "function"
    },
    {
      "inputs": [],
      "name": "mint",
      "outputs": [],
      "stateMutability": "nonpayable",
      "type": "function"
    },
    {
      "inputs": [
        {
          "internalType": "address",
          "name": "",
          "type": "address"
        }
      ],
      "name": "minters",
      "outputs": [
        {
          "internalType": "address",
          "name": "minter",
          "type": "address"
        },
        {
          "internalType": "uint256",
          "name": "timeLastMinted",
          "type": "uint256"
        }
      ],
      "stateMutability": "view",
      "type": "function"
    },
    {
      "inputs": [],
      "name": "mintingTime",
      "outputs": [
        {
          "internalType": "uint256",
          "name": "",
          "type": "uint256"
        }
      ],
      "stateMutability": "view",
      "type": "function"
    },
    {
      "inputs": [],
      "name": "name",
      "outputs": [
        {
          "internalType": "string",
          "name": "",
          "type": "string"
        }
      ],
      "stateMutability": "view",
      "type": "function"
    },
    {
      "inputs": [],
      "name": "symbol",
      "outputs": [
        {
          "internalType": "string",
          "name": "",
          "type": "string"
        }
      ],
      "stateMutability": "view",
      "type": "function"
    },
    {
      "inputs": [],
      "name": "totalSupply",
      "outputs": [
        {
          "internalType": "uint256",
          "name": "",
          "type": "uint256"
        }
      ],
      "stateMutability": "view",
      "type": "function"
    },
    {
      "inputs": [
        {
          "internalType": "address",
          "name": "to",
          "type": "address"
        },
        {
          "internalType": "uint256",
          "name": "amount",
          "type": "uint256"
        }
      ],
      "name": "transfer",
      "outputs": [
        {
          "internalType": "bool",
          "name": "",
          "type": "bool"
        }
      ],
      "stateMutability": "nonpayable",
      "type": "function"
    },
    {
      "inputs": [
        {
          "internalType": "address",
          "name": "from",
          "type": "address"
        },
        {
          "internalType": "address",
          "name": "to",
          "type": "address"
        },
        {
          "internalType": "uint256",
          "name": "amount",
          "type": "uint256"
        }
      ],
      "name": "transferFrom",
      "outputs": [
        {
          "internalType": "bool",
          "name": "",
          "type": "bool"
        }
      ],
      "stateMutability": "nonpayable",
      "type": "function"
    }
  ],
  "bytecode": "0x608060405261025860065534801561001657600080fd5b506040518060400160405280600b81526020017f526f687220546f6b656e730000000000000000000000000000000000000000008152506040518060400160405280600381526020017f52544b0000000000000000000000000000000000000000000000000000000000815250816003908161009291906102fa565b5080600490816100a291906102fa565b5050506103cc565b600081519050919050565b7f4e487b7100000000000000000000000000000000000000000000000000000000600052604160045260246000fd5b7f4e487b7100000000000000000000000000000000000000000000000000000000600052602260045260246000fd5b6000600282049050600182168061012b57607f821691505b60208210810361013e5761013d6100e4565b5b50919050565b60008190508160005260206000209050919050565b60006020601f8301049050919050565b600082821b905092915050565b6000600883026101a67fffffffffffffffffffffffffffffffffffffffffffffffffffffffffffffffff82610169565b6101b08683610169565b95508019841693508086168417925050509392505050565b6000819050919050565b6000819050919050565b60006101f76101f26101ed846101c8565b6101d2565b6101c8565b9050919050565b6000819050919050565b610211836101dc565b61022561021d826101fe565b848454610176565b825550505050565b600090565b61023a61022d565b610245818484610208565b505050565b5b818110156102695761025e600082610232565b60018101905061024b565b5050565b601f8211156102ae5761027f81610144565b61028884610159565b81016020851015610297578190505b6102ab6102a385610159565b83018261024a565b50505b505050565b600082821c905092915050565b60006102d1600019846008026102b3565b1980831691505092915050565b60006102ea83836102c0565b9150826002028217905092915050565b610303826100aa565b67ffffffffffffffff81111561031c5761031b6100b5565b5b6103268254610113565b61033182828561026d565b600060209050601f8311600181146103645760008415610352578287015190505b61035c85826102de565b8655506103c4565b601f19841661037286610144565b60005b8281101561039a57848901518255600182019150602085019450602081019050610375565b868310156103b757848901516103b3601f8916826102c0565b8355505b6001600288020188555050505b505050505050565b61169a806103db6000396000f3fe608060405234801561001057600080fd5b50600436106100ea5760003560e01c8063395093511161008c578063a457c2d711610066578063a457c2d71461024f578063a9059cbb1461027f578063dd62ed3e146102af578063f46eccc4146102df576100ea565b806339509351146101d157806370a082311461020157806395d89b4114610231576100ea565b80631249c58b116100c85780631249c58b1461015b57806318160ddd1461016557806323b872dd14610183578063313ce567146101b3576100ea565b806306fdde03146100ef578063095ea7b31461010d5780630d5a5a771461013d575b600080fd5b6100f7610310565b6040516101049190610e33565b60405180910390f35b61012760048036038101906101229190610eee565b6103a2565b6040516101349190610f49565b60405180910390f35b6101456103c5565b6040516101529190610f73565b60405180910390f35b6101636103cb565b005b61016d6104b8565b60405161017a9190610f73565b60405180910390f35b61019d60048036038101906101989190610f8e565b6104c2565b6040516101aa9190610f49565b60405180910390f35b6101bb6104f1565b6040516101c89190610ffd565b60405180910390f35b6101eb60048036038101906101e69190610eee565b6104fa565b6040516101f89190610f49565b60405180910390f35b61021b60048036038101906102169190611018565b610531565b6040516102289190610f73565b60405180910390f35b610239610579565b6040516102469190610e33565b60405180910390f35b61026960048036038101906102649190610eee565b61060b565b6040516102769190610f49565b60405180910390f35b61029960048036038101906102949190610eee565b610682565b6040516102a69190610f49565b60405180910390f35b6102c960048036038101906102c49190611045565b6106a5565b6040516102d69190610f73565b60405180910390f35b6102f960048036038101906102f49190611018565b61072c565b604051610307929190611094565b60405180910390f35b60606003805461031f906110ec565b80601f016020809104026020016040519081016040528092919081815260200182805461034b906110ec565b80156103985780601f1061036d57610100808354040283529160200191610398565b820191906000526020600020905b81548152906001019060200180831161037b57829003601f168201915b5050505050905090565b6000806103ad610770565b90506103ba818585610778565b600191505092915050565b60065481565b600654426103d9919061114c565b600560003373ffffffffffffffffffffffffffffffffffffffff1673ffffffffffffffffffffffffffffffffffffffff168152602001908152602001600020600101541061045c576040517f08c379a0000000000000000000000000000000000000000000000000000000008152600401610453906111cc565b60405180910390fd5b42600560003373ffffffffffffffffffffffffffffffffffffffff1673ffffffffffffffffffffffffffffffffffffffff168152602001908152602001600020600101819055506104b633683635c9adc5dea00000610941565b565b6000600254905090565b6000806104cd610770565b90506104da858285610a97565b6104e5858585610b23565b60019150509392505050565b60006012905090565b600080610505610770565b905061052681858561051785896106a5565b61052191906111ec565b610778565b600191505092915050565b60008060008373ffffffffffffffffffffffffffffffffffffffff1673ffffffffffffffffffffffffffffffffffffffff168152602001908152602001600020549050919050565b606060048054610588906110ec565b80601f01602080910402602001604051908101604052809291908181526020018280546105b4906110ec565b80156106015780601f106105d657610100808354040283529160200191610601565b820191906000526020600020905b8154815290600101906020018083116105e457829003601f168201915b5050505050905090565b600080610616610770565b9050600061062482866106a5565b905083811015610669576040517f08c379a000000000000000000000000000000000000000000000000000000000815260040161066090611292565b60405180910390fd5b6106768286868403610778565b60019250505092915050565b60008061068d610770565b905061069a818585610b23565b600191505092915050565b6000600160008473ffffffffffffffffffffffffffffffffffffffff1673ffffffffffffffffffffffffffffffffffffffff16815260200190815260200160002060008373ffffffffffffffffffffffffffffffffffffffff1673ffffffffffffffffffffffffffffffffffffffff16815260200190815260200160002054905092915050565b60056020528060005260406000206000915090508060000160009054906101000a900473ffffffffffffffffffffffffffffffffffffffff16908060010154905082565b600033905090565b600073ffffffffffffffffffffffffffffffffffffffff168373ffffffffffffffffffffffffffffffffffffffff16036107e7576040517f08c379a00000000000000000000000000000000000000000000000000000000081526004016107de90611324565b60405180910390fd5b600073ffffffffffffffffffffffffffffffffffffffff168273ffffffffffffffffffffffffffffffffffffffff1603610856576040517f08c379a000000000000000000000000000000000000000000000000000000000815260040161084d906113b6565b60405180910390fd5b80600160008573ffffffffffffffffffffffffffffffffffffffff1673ffffffffffffffffffffffffffffffffffffffff16815260200190815260200160002060008473ffffffffffffffffffffffffffffffffffffffff1673ffffffffffffffffffffffffffffffffffffffff168152602001908152602001600020819055508173ffffffffffffffffffffffffffffffffffffffff168373ffffffffffffffffffffffffffffffffffffffff167f8c5be1e5ebec7d5bd14f71427d1e84f3dd0314c0f7b2291e5b200ac8c7c3b925836040516109349190610f73565b60405180910390a3505050565b600073ffffffffffffffffffffffffffffffffffffffff168273ffffffffffffffffffffffffffffffffffffffff16036109b0576040517f08c379a00000000000000000000000000000000000000000000000000000000081526004016109a790611422565b60405180910390fd5b6109bc60008383610d99565b80600260008282546109ce91906111ec565b92505081905550806000808473ffffffffffffffffffffffffffffffffffffffff1673ffffffffffffffffffffffffffffffffffffffff168152602001908152602001600020600082825401925050819055508173ffffffffffffffffffffffffffffffffffffffff16600073ffffffffffffffffffffffffffffffffffffffff167fddf252ad1be2c89b69c2b068fc378daa952ba7f163c4a11628f55a4df523b3ef83604051610a7f9190610f73565b60405180910390a3610a9360008383610d9e565b5050565b6000610aa384846106a5565b90507fffffffffffffffffffffffffffffffffffffffffffffffffffffffffffffffff8114610b1d5781811015610b0f576040517f08c379a0000000000000000000000000000000000000000000000000000000008152600401610b069061148e565b60405180910390fd5b610b1c8484848403610778565b5b50505050565b600073ffffffffffffffffffffffffffffffffffffffff168373ffffffffffffffffffffffffffffffffffffffff1603610b92576040517f08c379a0000000000000000000000000000000000000000000000000000000008152600401610b8990611520565b60405180910390fd5b600073ffffffffffffffffffffffffffffffffffffffff168273ffffffffffffffffffffffffffffffffffffffff1603610c01576040517f08c379a0000000000000000000000000000000000000000000000000000000008152600401610bf8906115b2565b60405180910390fd5b610c0c838383610d99565b60008060008573ffffffffffffffffffffffffffffffffffffffff1673ffffffffffffffffffffffffffffffffffffffff16815260200190815260200160002054905081811015610c92576040517f08c379a0000000000000000000000000000000000000000000000000000000008152600401610c8990611644565b60405180910390fd5b8181036000808673ffffffffffffffffffffffffffffffffffffffff1673ffffffffffffffffffffffffffffffffffffffff16815260200190815260200160002081905550816000808573ffffffffffffffffffffffffffffffffffffffff1673ffffffffffffffffffffffffffffffffffffffff168152602001908152602001600020600082825401925050819055508273ffffffffffffffffffffffffffffffffffffffff168473ffffffffffffffffffffffffffffffffffffffff167fddf252ad1be2c89b69c2b068fc378daa952ba7f163c4a11628f55a4df523b3ef84604051610d809190610f73565b60405180910390a3610d93848484610d9e565b50505050565b505050565b505050565b600081519050919050565b600082825260208201905092915050565b60005b83811015610ddd578082015181840152602081019050610dc2565b60008484015250505050565b6000601f19601f8301169050919050565b6000610e0582610da3565b610e0f8185610dae565b9350610e1f818560208601610dbf565b610e2881610de9565b840191505092915050565b60006020820190508181036000830152610e4d8184610dfa565b905092915050565b600080fd5b600073ffffffffffffffffffffffffffffffffffffffff82169050919050565b6000610e8582610e5a565b9050919050565b610e9581610e7a565b8114610ea057600080fd5b50565b600081359050610eb281610e8c565b92915050565b6000819050919050565b610ecb81610eb8565b8114610ed657600080fd5b50565b600081359050610ee881610ec2565b92915050565b60008060408385031215610f0557610f04610e55565b5b6000610f1385828601610ea3565b9250506020610f2485828601610ed9565b9150509250929050565b60008115159050919050565b610f4381610f2e565b82525050565b6000602082019050610f5e6000830184610f3a565b92915050565b610f6d81610eb8565b82525050565b6000602082019050610f886000830184610f64565b92915050565b600080600060608486031215610fa757610fa6610e55565b5b6000610fb586828701610ea3565b9350506020610fc686828701610ea3565b9250506040610fd786828701610ed9565b9150509250925092565b600060ff82169050919050565b610ff781610fe1565b82525050565b60006020820190506110126000830184610fee565b92915050565b60006020828403121561102e5761102d610e55565b5b600061103c84828501610ea3565b91505092915050565b6000806040838503121561105c5761105b610e55565b5b600061106a85828601610ea3565b925050602061107b85828601610ea3565b9150509250929050565b61108e81610e7a565b82525050565b60006040820190506110a96000830185611085565b6110b66020830184610f64565b9392505050565b7f4e487b7100000000000000000000000000000000000000000000000000000000600052602260045260246000fd5b6000600282049050600182168061110457607f821691505b602082108103611117576111166110bd565b5b50919050565b7f4e487b7100000000000000000000000000000000000000000000000000000000600052601160045260246000fd5b600061115782610eb8565b915061116283610eb8565b925082820390508181111561117a5761117961111d565b5b92915050565b7f4d696e74696e672074696d65206e6f7420706173736564000000000000000000600082015250565b60006111b6601783610dae565b91506111c182611180565b602082019050919050565b600060208201905081810360008301526111e5816111a9565b9050919050565b60006111f782610eb8565b915061120283610eb8565b925082820190508082111561121a5761121961111d565b5b92915050565b7f45524332303a2064656372656173656420616c6c6f77616e63652062656c6f7760008201527f207a65726f000000000000000000000000000000000000000000000000000000602082015250565b600061127c602583610dae565b915061128782611220565b604082019050919050565b600060208201905081810360008301526112ab8161126f565b9050919050565b7f45524332303a20617070726f76652066726f6d20746865207a65726f2061646460008201527f7265737300000000000000000000000000000000000000000000000000000000602082015250565b600061130e602483610dae565b9150611319826112b2565b604082019050919050565b6000602082019050818103600083015261133d81611301565b9050919050565b7f45524332303a20617070726f766520746f20746865207a65726f20616464726560008201527f7373000000000000000000000000000000000000000000000000000000000000602082015250565b60006113a0602283610dae565b91506113ab82611344565b604082019050919050565b600060208201905081810360008301526113cf81611393565b9050919050565b7f45524332303a206d696e7420746f20746865207a65726f206164647265737300600082015250565b600061140c601f83610dae565b9150611417826113d6565b602082019050919050565b6000602082019050818103600083015261143b816113ff565b9050919050565b7f45524332303a20696e73756666696369656e7420616c6c6f77616e6365000000600082015250565b6000611478601d83610dae565b915061148382611442565b602082019050919050565b600060208201905081810360008301526114a78161146b565b9050919050565b7f45524332303a207472616e736665722066726f6d20746865207a65726f20616460008201527f6472657373000000000000000000000000000000000000000000000000000000602082015250565b600061150a602583610dae565b9150611515826114ae565b604082019050919050565b60006020820190508181036000830152611539816114fd565b9050919050565b7f45524332303a207472616e7366657220746f20746865207a65726f206164647260008201527f6573730000000000000000000000000000000000000000000000000000000000602082015250565b600061159c602383610dae565b91506115a782611540565b604082019050919050565b600060208201905081810360008301526115cb8161158f565b9050919050565b7f45524332303a207472616e7366657220616d6f756e742065786365656473206260008201527f616c616e63650000000000000000000000000000000000000000000000000000602082015250565b600061162e602683610dae565b9150611639826115d2565b604082019050919050565b6000602082019050818103600083015261165d81611621565b905091905056fea26469706673582212206c73be942742937fe14d8196bed85cdd58585626e88df1ed458eef3c04d9ac4864736f6c63430008190033",
  "linkReferences": {},
  "deployedLinkReferences": {}
}